{"abi":[{"type":"constructor","inputs":[{"name":"_comptroller","type":"address","internalType":"address"},{"name":"_oracle","type":"address","internalType":"address"}],"stateMutability":"nonpayable"},{"type":"function","name":"comptroller","inputs":[],"outputs":[{"name":"","type":"address","internalType":"contract Comptroller"}],"stateMutability":"view"},{"type":"function","name":"getActiveMarketsInfo","inputs":[],"outputs":[{"name":"","type":"tuple[]","internalType":"struct MarketState.MarketsInfo[]","components":[{"name":"tvl","type":"uint256","internalType":"uint256"},{"name":"ltv","type":"uint256","internalType":"uint256"},{"name":"totalSupply","type":"uint256","internalType":"uint256"},{"name":"totalBorrows","type":"uint256","internalType":"uint256"},{"name":"supplyRatePerBlock","type":"uint256","internalType":"uint256"},{"name":"borrowRatePerBlock","type":"uint256","internalType":"uint256"},{"name":"timestampsPerYear","type":"uint256","internalType":"uint256"},{"name":"token","type":"address","internalType":"address"},{"name":"underlying","type":"address","internalType":"address"},{"name":"symbol","type":"string","internalType":"string"},{"name":"underlyingSymbol","type":"string","internalType":"string"}]}],"stateMutability":"view"},{"type":"function","name":"oracle","inputs":[],"outputs":[{"name":"","type":"address","internalType":"contract CompositeOracle"}],"stateMutability":"view"}],"bytecode":{"object":"0x60803461008d57601f610d1638819003918201601f19168301916001600160401b0383118484101761009257808492604094855283398101031261008d57610052602061004b836100a8565b92016100a8565b600080546001600160a01b039384166001600160a01b03199182161790915560018054929093169116179055604051610c5990816100bd8239f35b600080fd5b634e487b7160e01b600052604160045260246000fd5b51906001600160a01b038216820361008d5756fe608080604052600436101561001357600080fd5b60003560e01c90816334a2266714610097575080635fe3b5671461006e57637dc0d1d01461004057600080fd5b34610069576000366003190112610069576001546040516001600160a01b039091168152602090f35b600080fd5b34610069576000366003190112610069576000546040516001600160a01b039091168152602090f35b34610069576000366003190112610069576000805463b0772d0b60e01b83526001600160a01b0316919081600481855afa908115610180576000916109d6575b506000805b825181101561018c576001600160a01b036100f78285610b17565b516040516394543c1560e01b8152911660048201526020908181602481895afa9182156101805760009261014a575b505015610136575b6001016100dc565b90610142600191610b4e565b91905061012e565b90809250813d8311610179575b6101618183610add565b810103126100695761017290610b41565b8580610126565b503d610157565b6040513d6000823e3d90fd5b50916101b061019a84610aff565b936101a86040519586610add565b808552610aff565b601f190160005b8181106109715750506000805b835181101561087e576001600160a01b036101df8286610b17565b516040516394543c1560e01b815291166004820152602081602481875afa90811561018057600091610844575b501561021b575b6001016101c4565b906001600160a01b0361022e8386610b17565b511660405191636f307dc360e01b8352602083600481855afa92831561018057600093610800575b506001546040516341976e0960e01b81526004810184905290602090829060249082906001600160a01b03165afa908115610180576000916107ce575b50601260405180604081011067ffffffffffffffff6040830111176107b85760408101604052600381526253454960e81b6020820152906040516379fed8ad60e11b8152602081600481895afa90811561018057600091610773575b50604051630c57486160e01b81529690602090889060049082906001600160a01b03165afa9687156101805760009761073f575b506001600160a01b03811661067f575b604051631d8e90d160e11b81526020816004818a5afa8015610180578591600091610648575b506103769161036791610bdf565b61037084610bf2565b90610c03565b936040516318160ddd60e01b81526020816004818b5afa8015610180578291600091610611575b506103b4916103ab91610bdf565b61037085610bf2565b92604051916308f7a6e360e31b83526020836004818c5afa928315610180576000936105db575b506103ec610370916103f294610bdf565b91610bf2565b9560405197630ae9d70b60e41b8952602089600481855afa988915610180576000996105a7575b50604051631f1f3b4560e31b81529860208a600481865afa90811561018057600091610572575b60249a5060408d81519c8d8092638e8f294b60e01b82528860048301525afa9a8b156101805760009b610530575b506040516395d89b4160e01b81529960008b600481885afa9687156101805760019c6105039c60009961050b575b506040519a6104aa8c610ac0565b8b5260208b015260408a01526060890152608088015260a087015260c086015260e0850152868060a01b03166101008401526101208301526101408201526104f28289610b17565b526104fd8188610b17565b50610b4e565b919050610213565b6105299199503d806000833e6105218183610add565b810190610b73565b973861049c565b909a506040813d60401161056a575b8161054c60409383610add565b810103126100695780610560602092610b41565b500151998f61046e565b3d915061053f565b905060208a3d60201161059f575b8161058d60209383610add565b81010312610069576024995190610440565b3d9150610580565b9098506020813d6020116105d3575b816105c360209383610add565b810103126100695751978d610419565b3d91506105b6565b92506020833d602011610609575b816105f660209383610add565b81010312610069579151916103ec6103db565b3d91506105e9565b9150506020813d602011610640575b8161062d60209383610add565b81010312610069575181906103b461039d565b3d9150610620565b9150506020813d602011610677575b8161066460209383610add565b8101031261006957518490610376610359565b3d9150610657565b60405163313ce56760e01b815290925090506020816004816001600160a01b0386165afa90811561018057600091610703575b506040516395d89b4160e01b81526000816004816001600160a01b0387165afa908115610180576000916106e8575b5091610333565b6106fd91503d806000833e6105218183610add565b8b6106e1565b90506020813d602011610737575b8161071e60209383610add565b81010312610069575160ff81168103610069578a6106b2565b3d9150610711565b9096506020813d60201161076b575b8161075b60209383610add565b810103126100695751958b610323565b3d915061074e565b90506020813d6020116107b0575b8161078e60209383610add565b810103126100695751956001600160a01b0387168703610069579560206102ef565b3d9150610781565b634e487b7160e01b600052604160045260246000fd5b90506020813d6020116107f8575b816107e960209383610add565b81010312610069575188610293565b3d91506107dc565b9092506020813d60201161083c575b8161081c60209383610add565b8101031261006957516001600160a01b0381168103610069579187610256565b3d915061080f565b90506020813d602011610876575b8161085f60209383610add565b810103126100695761087090610b41565b8661020c565b3d9150610852565b846040518091602082016020835281518091526040830190602060408260051b8601019301916000905b8282106108b757505050500390f35b919360019193955060206109618192603f198a8203018652885161094d61016082518452858301518685015260408301516040850152606080840151908501526080808401519085015260a0808401519085015260c08084015190850152878060a01b0360e08401511660e0850152610100888060a01b0381850151169085015261012090808285015192860152840190610a9b565b916101408092015191818403910152610a9b565b96019201920185949391926108a8565b60209060405161098081610ac0565b6000815260008382015260006040820152606060008183015260006080830152600060a0830152600060c0830152600060e0830152600061010083015280610120830152610140820152828288010152016101b7565b90503d806000833e6109e88183610add565b81019060209081818403126100695780519067ffffffffffffffff821161006957019180601f84011215610069578251610a2181610aff565b93610a2f6040519586610add565b818552838086019260051b820101928311610069578301905b828210610a595750505050826100d7565b81516001600160a01b0381168103610069578152908301908301610a48565b60005b838110610a8b5750506000910152565b8181015183820152602001610a7b565b90602091610ab481518092818552858086019101610a78565b601f01601f1916010190565b610160810190811067ffffffffffffffff8211176107b857604052565b90601f8019910116810190811067ffffffffffffffff8211176107b857604052565b67ffffffffffffffff81116107b85760051b60200190565b8051821015610b2b5760209160051b010190565b634e487b7160e01b600052603260045260246000fd5b5190811515820361006957565b6000198114610b5d5760010190565b634e487b7160e01b600052601160045260246000fd5b60208183031261006957805167ffffffffffffffff9182821161006957019082601f830112156100695781519081116107b85760405192610bbe601f8301601f191660200185610add565b8184526020828401011161006957610bdc9160208085019101610a78565b90565b81810292918115918404141715610b5d57565b60ff16604d8111610b5d57600a0a90565b8115610c0d570490565b634e487b7160e01b600052601260045260246000fdfea26469706673582212206fabaa62d29ede6a459b3c9d3d0c9617ad3f3ece61a7ff9752b93a9347c7f6b464736f6c63430008170033","linkReferences":{}},"methodIdentifiers":{"comptroller()":"5fe3b567","getActiveMarketsInfo()":"34a22667","oracle()":"7dc0d1d0"},"id":114}