{"abi":[{"type":"constructor","inputs":[{"name":"underlying_","type":"address","internalType":"address"},{"name":"comptroller_","type":"address","internalType":"contract ComptrollerInterface"},{"name":"interestRateModel_","type":"address","internalType":"contract InterestRateModel"},{"name":"initialExchangeRateMantissa_","type":"uint256","internalType":"uint256"},{"name":"name_","type":"string","internalType":"string"},{"name":"symbol_","type":"string","internalType":"string"},{"name":"decimals_","type":"uint8","internalType":"uint8"},{"name":"admin_","type":"address","internalType":"address payable"}],"stateMutability":"nonpayable"},{"type":"function","name":"_acceptAdmin","inputs":[],"outputs":[{"name":"","type":"uint256","internalType":"uint256"}],"stateMutability":"nonpayable"},{"type":"function","name":"_addReserves","inputs":[{"name":"addAmount","type":"uint256","internalType":"uint256"}],"outputs":[{"name":"","type":"uint256","internalType":"uint256"}],"stateMutability":"nonpayable"},{"type":"function","name":"_reduceReserves","inputs":[{"name":"reduceAmount","type":"uint256","internalType":"uint256"}],"outputs":[{"name":"","type":"uint256","internalType":"uint256"}],"stateMutability":"nonpayable"},{"type":"function","name":"_setComptroller","inputs":[{"name":"newComptroller","type":"address","internalType":"contract ComptrollerInterface"}],"outputs":[{"name":"","type":"uint256","internalType":"uint256"}],"stateMutability":"nonpayable"},{"type":"function","name":"_setInterestRateModel","inputs":[{"name":"newInterestRateModel","type":"address","internalType":"contract InterestRateModel"}],"outputs":[{"name":"","type":"uint256","internalType":"uint256"}],"stateMutability":"nonpayable"},{"type":"function","name":"_setPendingAdmin","inputs":[{"name":"newPendingAdmin","type":"address","internalType":"address payable"}],"outputs":[{"name":"","type":"uint256","internalType":"uint256"}],"stateMutability":"nonpayable"},{"type":"function","name":"_setProtocolSeizeShare","inputs":[{"name":"newProtocolSeizeShareMantissa","type":"uint256","internalType":"uint256"}],"outputs":[{"name":"","type":"uint256","internalType":"uint256"}],"stateMutability":"nonpayable"},{"type":"function","name":"_setReserveFactor","inputs":[{"name":"newReserveFactorMantissa","type":"uint256","internalType":"uint256"}],"outputs":[{"name":"","type":"uint256","internalType":"uint256"}],"stateMutability":"nonpayable"},{"type":"function","name":"accrualBlockTimestamp","inputs":[],"outputs":[{"name":"","type":"uint256","internalType":"uint256"}],"stateMutability":"view"},{"type":"function","name":"accrueInterest","inputs":[],"outputs":[{"name":"","type":"uint256","internalType":"uint256"}],"stateMutability":"nonpayable"},{"type":"function","name":"admin","inputs":[],"outputs":[{"name":"","type":"address","internalType":"address payable"}],"stateMutability":"view"},{"type":"function","name":"allowance","inputs":[{"name":"owner","type":"address","internalType":"address"},{"name":"spender","type":"address","internalType":"address"}],"outputs":[{"name":"","type":"uint256","internalType":"uint256"}],"stateMutability":"view"},{"type":"function","name":"approve","inputs":[{"name":"spender","type":"address","internalType":"address"},{"name":"amount","type":"uint256","internalType":"uint256"}],"outputs":[{"name":"","type":"bool","internalType":"bool"}],"stateMutability":"nonpayable"},{"type":"function","name":"balanceOf","inputs":[{"name":"owner","type":"address","internalType":"address"}],"outputs":[{"name":"","type":"uint256","internalType":"uint256"}],"stateMutability":"view"},{"type":"function","name":"balanceOfUnderlying","inputs":[{"name":"owner","type":"address","internalType":"address"}],"outputs":[{"name":"","type":"uint256","internalType":"uint256"}],"stateMutability":"nonpayable"},{"type":"function","name":"borrow","inputs":[{"name":"borrowAmount","type":"uint256","internalType":"uint256"}],"outputs":[{"name":"","type":"uint256","internalType":"uint256"}],"stateMutability":"nonpayable"},{"type":"function","name":"borrowBalanceCurrent","inputs":[{"name":"account","type":"address","internalType":"address"}],"outputs":[{"name":"","type":"uint256","internalType":"uint256"}],"stateMutability":"nonpayable"},{"type":"function","name":"borrowBalanceStored","inputs":[{"name":"account","type":"address","internalType":"address"}],"outputs":[{"name":"","type":"uint256","internalType":"uint256"}],"stateMutability":"view"},{"type":"function","name":"borrowIndex","inputs":[],"outputs":[{"name":"","type":"uint256","internalType":"uint256"}],"stateMutability":"view"},{"type":"function","name":"borrowRatePerBlock","inputs":[],"outputs":[{"name":"","type":"uint256","internalType":"uint256"}],"stateMutability":"view"},{"type":"function","name":"comptroller","inputs":[],"outputs":[{"name":"","type":"address","internalType":"contract ComptrollerInterface"}],"stateMutability":"view"},{"type":"function","name":"decimals","inputs":[],"outputs":[{"name":"","type":"uint8","internalType":"uint8"}],"stateMutability":"view"},{"type":"function","name":"exchangeRateCurrent","inputs":[],"outputs":[{"name":"","type":"uint256","internalType":"uint256"}],"stateMutability":"nonpayable"},{"type":"function","name":"exchangeRateStored","inputs":[],"outputs":[{"name":"","type":"uint256","internalType":"uint256"}],"stateMutability":"view"},{"type":"function","name":"getAccountSnapshot","inputs":[{"name":"account","type":"address","internalType":"address"}],"outputs":[{"name":"","type":"uint256","internalType":"uint256"},{"name":"","type":"uint256","internalType":"uint256"},{"name":"","type":"uint256","internalType":"uint256"},{"name":"","type":"uint256","internalType":"uint256"}],"stateMutability":"view"},{"type":"function","name":"getCash","inputs":[],"outputs":[{"name":"","type":"uint256","internalType":"uint256"}],"stateMutability":"view"},{"type":"function","name":"initialize","inputs":[{"name":"underlying_","type":"address","internalType":"address"},{"name":"comptroller_","type":"address","internalType":"contract ComptrollerInterface"},{"name":"interestRateModel_","type":"address","internalType":"contract InterestRateModel"},{"name":"initialExchangeRateMantissa_","type":"uint256","internalType":"uint256"},{"name":"name_","type":"string","internalType":"string"},{"name":"symbol_","type":"string","internalType":"string"},{"name":"decimals_","type":"uint8","internalType":"uint8"}],"outputs":[],"stateMutability":"nonpayable"},{"type":"function","name":"initialize","inputs":[{"name":"comptroller_","type":"address","internalType":"contract ComptrollerInterface"},{"name":"interestRateModel_","type":"address","internalType":"contract InterestRateModel"},{"name":"initialExchangeRateMantissa_","type":"uint256","internalType":"uint256"},{"name":"name_","type":"string","internalType":"string"},{"name":"symbol_","type":"string","internalType":"string"},{"name":"decimals_","type":"uint8","internalType":"uint8"}],"outputs":[],"stateMutability":"nonpayable"},{"type":"function","name":"interestRateModel","inputs":[],"outputs":[{"name":"","type":"address","internalType":"contract InterestRateModel"}],"stateMutability":"view"},{"type":"function","name":"isEthDerivative","inputs":[],"outputs":[{"name":"","type":"bool","internalType":"bool"}],"stateMutability":"view"},{"type":"function","name":"isRToken","inputs":[],"outputs":[{"name":"","type":"bool","internalType":"bool"}],"stateMutability":"view"},{"type":"function","name":"liquidateBorrow","inputs":[{"name":"borrower","type":"address","internalType":"address"},{"name":"repayAmount","type":"uint256","internalType":"uint256"},{"name":"hTokenCollateral","type":"address","internalType":"contract HTokenInterface"}],"outputs":[{"name":"","type":"uint256","internalType":"uint256"}],"stateMutability":"nonpayable"},{"type":"function","name":"mint","inputs":[{"name":"mintAmount","type":"uint256","internalType":"uint256"}],"outputs":[{"name":"","type":"uint256","internalType":"uint256"}],"stateMutability":"nonpayable"},{"type":"function","name":"mintWithPermit","inputs":[{"name":"mintAmount","type":"uint256","internalType":"uint256"},{"name":"deadline","type":"uint256","internalType":"uint256"},{"name":"v","type":"uint8","internalType":"uint8"},{"name":"r","type":"bytes32","internalType":"bytes32"},{"name":"s","type":"bytes32","internalType":"bytes32"}],"outputs":[{"name":"","type":"uint256","internalType":"uint256"}],"stateMutability":"nonpayable"},{"type":"function","name":"name","inputs":[],"outputs":[{"name":"","type":"string","internalType":"string"}],"stateMutability":"view"},{"type":"function","name":"pendingAdmin","inputs":[],"outputs":[{"name":"","type":"address","internalType":"address payable"}],"stateMutability":"view"},{"type":"function","name":"protocolSeizeShareMantissa","inputs":[],"outputs":[{"name":"","type":"uint256","internalType":"uint256"}],"stateMutability":"view"},{"type":"function","name":"redeem","inputs":[{"name":"redeemTokens","type":"uint256","internalType":"uint256"}],"outputs":[{"name":"","type":"uint256","internalType":"uint256"}],"stateMutability":"nonpayable"},{"type":"function","name":"redeemUnderlying","inputs":[{"name":"redeemAmount","type":"uint256","internalType":"uint256"}],"outputs":[{"name":"","type":"uint256","internalType":"uint256"}],"stateMutability":"nonpayable"},{"type":"function","name":"repayBorrow","inputs":[{"name":"repayAmount","type":"uint256","internalType":"uint256"}],"outputs":[{"name":"","type":"uint256","internalType":"uint256"}],"stateMutability":"nonpayable"},{"type":"function","name":"repayBorrowBehalf","inputs":[{"name":"borrower","type":"address","internalType":"address"},{"name":"repayAmount","type":"uint256","internalType":"uint256"}],"outputs":[{"name":"","type":"uint256","internalType":"uint256"}],"stateMutability":"nonpayable"},{"type":"function","name":"reserveFactorMantissa","inputs":[],"outputs":[{"name":"","type":"uint256","internalType":"uint256"}],"stateMutability":"view"},{"type":"function","name":"seize","inputs":[{"name":"liquidator","type":"address","internalType":"address"},{"name":"borrower","type":"address","internalType":"address"},{"name":"seizeTokens","type":"uint256","internalType":"uint256"}],"outputs":[{"name":"","type":"uint256","internalType":"uint256"}],"stateMutability":"nonpayable"},{"type":"function","name":"supplyRatePerBlock","inputs":[],"outputs":[{"name":"","type":"uint256","internalType":"uint256"}],"stateMutability":"view"},{"type":"function","name":"sweepToken","inputs":[{"name":"token","type":"address","internalType":"contract EIP20NonStandardInterface"}],"outputs":[],"stateMutability":"nonpayable"},{"type":"function","name":"symbol","inputs":[],"outputs":[{"name":"","type":"string","internalType":"string"}],"stateMutability":"view"},{"type":"function","name":"totalBorrows","inputs":[],"outputs":[{"name":"","type":"uint256","internalType":"uint256"}],"stateMutability":"view"},{"type":"function","name":"totalBorrowsCurrent","inputs":[],"outputs":[{"name":"","type":"uint256","internalType":"uint256"}],"stateMutability":"nonpayable"},{"type":"function","name":"totalReserves","inputs":[],"outputs":[{"name":"","type":"uint256","internalType":"uint256"}],"stateMutability":"view"},{"type":"function","name":"totalSupply","inputs":[],"outputs":[{"name":"","type":"uint256","internalType":"uint256"}],"stateMutability":"view"},{"type":"function","name":"transfer","inputs":[{"name":"dst","type":"address","internalType":"address"},{"name":"amount","type":"uint256","internalType":"uint256"}],"outputs":[{"name":"","type":"bool","internalType":"bool"}],"stateMutability":"nonpayable"},{"type":"function","name":"transferFrom","inputs":[{"name":"src","type":"address","internalType":"address"},{"name":"dst","type":"address","internalType":"address"},{"name":"amount","type":"uint256","internalType":"uint256"}],"outputs":[{"name":"","type":"bool","internalType":"bool"}],"stateMutability":"nonpayable"},{"type":"function","name":"underlying","inputs":[],"outputs":[{"name":"","type":"address","internalType":"address"}],"stateMutability":"view"},{"type":"event","name":"AccrueInterest","inputs":[{"name":"cashPrior","type":"uint256","indexed":false,"internalType":"uint256"},{"name":"interestAccumulated","type":"uint256","indexed":false,"internalType":"uint256"},{"name":"borrowIndex","type":"uint256","indexed":false,"internalType":"uint256"},{"name":"totalBorrows","type":"uint256","indexed":false,"internalType":"uint256"}],"anonymous":false},{"type":"event","name":"Approval","inputs":[{"name":"owner","type":"address","indexed":true,"internalType":"address"},{"name":"spender","type":"address","indexed":true,"internalType":"address"},{"name":"amount","type":"uint256","indexed":false,"internalType":"uint256"}],"anonymous":false},{"type":"event","name":"Borrow","inputs":[{"name":"borrower","type":"address","indexed":false,"internalType":"address"},{"name":"borrowAmount","type":"uint256","indexed":false,"internalType":"uint256"},{"name":"accountBorrows","type":"uint256","indexed":false,"internalType":"uint256"},{"name":"totalBorrows","type":"uint256","indexed":false,"internalType":"uint256"}],"anonymous":false},{"type":"event","name":"Failure","inputs":[{"name":"error","type":"uint256","indexed":false,"internalType":"uint256"},{"name":"info","type":"uint256","indexed":false,"internalType":"uint256"},{"name":"detail","type":"uint256","indexed":false,"internalType":"uint256"}],"anonymous":false},{"type":"event","name":"LiquidateBorrow","inputs":[{"name":"liquidator","type":"address","indexed":false,"internalType":"address"},{"name":"borrower","type":"address","indexed":false,"internalType":"address"},{"name":"repayAmount","type":"uint256","indexed":false,"internalType":"uint256"},{"name":"hTokenCollateral","type":"address","indexed":false,"internalType":"address"},{"name":"seizeTokens","type":"uint256","indexed":false,"internalType":"uint256"}],"anonymous":false},{"type":"event","name":"Mint","inputs":[{"name":"minter","type":"address","indexed":false,"internalType":"address"},{"name":"mintAmount","type":"uint256","indexed":false,"internalType":"uint256"},{"name":"mintTokens","type":"uint256","indexed":false,"internalType":"uint256"}],"anonymous":false},{"type":"event","name":"NewAdmin","inputs":[{"name":"oldAdmin","type":"address","indexed":false,"internalType":"address"},{"name":"newAdmin","type":"address","indexed":false,"internalType":"address"}],"anonymous":false},{"type":"event","name":"NewComptroller","inputs":[{"name":"oldComptroller","type":"address","indexed":false,"internalType":"contract ComptrollerInterface"},{"name":"newComptroller","type":"address","indexed":false,"internalType":"contract ComptrollerInterface"}],"anonymous":false},{"type":"event","name":"NewMarketInterestRateModel","inputs":[{"name":"oldInterestRateModel","type":"address","indexed":false,"internalType":"contract InterestRateModel"},{"name":"newInterestRateModel","type":"address","indexed":false,"internalType":"contract InterestRateModel"}],"anonymous":false},{"type":"event","name":"NewPendingAdmin","inputs":[{"name":"oldPendingAdmin","type":"address","indexed":false,"internalType":"address"},{"name":"newPendingAdmin","type":"address","indexed":false,"internalType":"address"}],"anonymous":false},{"type":"event","name":"NewProtocolSeizeShare","inputs":[{"name":"oldProtocolSeizeShareMantissa","type":"uint256","indexed":false,"internalType":"uint256"},{"name":"newProtocolSeizeShareMantissa","type":"uint256","indexed":false,"internalType":"uint256"}],"anonymous":false},{"type":"event","name":"NewRedemptionReserveFactor","inputs":[{"name":"oldRedemptionReserveFactor","type":"uint256","indexed":false,"internalType":"uint256"},{"name":"newRedemptionReserveFactor","type":"uint256","indexed":false,"internalType":"uint256"}],"anonymous":false},{"type":"event","name":"NewReserveFactor","inputs":[{"name":"oldReserveFactorMantissa","type":"uint256","indexed":false,"internalType":"uint256"},{"name":"newReserveFactorMantissa","type":"uint256","indexed":false,"internalType":"uint256"}],"anonymous":false},{"type":"event","name":"Redeem","inputs":[{"name":"redeemer","type":"address","indexed":false,"internalType":"address"},{"name":"redeemAmount","type":"uint256","indexed":false,"internalType":"uint256"},{"name":"redeemTokens","type":"uint256","indexed":false,"internalType":"uint256"}],"anonymous":false},{"type":"event","name":"RepayBorrow","inputs":[{"name":"payer","type":"address","indexed":false,"internalType":"address"},{"name":"borrower","type":"address","indexed":false,"internalType":"address"},{"name":"repayAmount","type":"uint256","indexed":false,"internalType":"uint256"},{"name":"accountBorrows","type":"uint256","indexed":false,"internalType":"uint256"},{"name":"totalBorrows","type":"uint256","indexed":false,"internalType":"uint256"}],"anonymous":false},{"type":"event","name":"ReservesAdded","inputs":[{"name":"benefactor","type":"address","indexed":false,"internalType":"address"},{"name":"addAmount","type":"uint256","indexed":false,"internalType":"uint256"},{"name":"newTotalReserves","type":"uint256","indexed":false,"internalType":"uint256"}],"anonymous":false},{"type":"event","name":"ReservesReduced","inputs":[{"name":"admin","type":"address","indexed":false,"internalType":"address"},{"name":"reduceAmount","type":"uint256","indexed":false,"internalType":"uint256"},{"name":"newTotalReserves","type":"uint256","indexed":false,"internalType":"uint256"}],"anonymous":false},{"type":"event","name":"Transfer","inputs":[{"name":"from","type":"address","indexed":true,"internalType":"address"},{"name":"to","type":"address","indexed":true,"internalType":"address"},{"name":"amount","type":"uint256","indexed":false,"internalType":"uint256"}],"anonymous":false}],"bytecode":{"object":"0x608060409080825234620002a257620063f280380380916200002282856200063d565b8339810161010082820312620002a25781516001600160a01b038082169391849003620002a257602080830151908282168203620002a25786840151958387168703620002a257606085015160808601519097906001600160401b0390818111620002a257886200009591890162000661565b9760a088015190828211620002a257620000b191890162000661565b9160c08801519760ff8916809903620002a25760e00151958787168703620002a25760039a8b54988c610100600160a81b039a8b3360081b1690610100600160a81b0319161780915560081c163303620005ed576009541580620005e2575b156200059257806007551562000535576200012b906200073e565b620004f1576200014b9042600955670de0b6b3a7640000600a5562000844565b620004a257875197818911620003af576001988954918a83811c9316801562000497575b878410146200038e578190601f9384811162000441575b508790848311600114620003d157600092620003c5575b5050600019828d1b1c1916908a1b1789555b8251918211620003af57600254928984811c94168015620003a4575b868510146200038e57838287951162000333575b5083918311600114620002c657600494929160009183620002ba575b5050600019828c1b1c191690891b176002555b885460ff1980821689178b5560008054909116909917909855601280546001600160a01b0319168217905589516318160ddd60e01b815292839182905afa8015620002af576200027b575b505060081b169160018060a81b0319161717905551615a909081620009428239f35b813d8311620002a7575b6200029181836200063d565b81010312620002a257388062000259565b600080fd5b503d62000285565b88513d6000823e3d90fd5b015190503880620001fb565b93918991601f198216906002600052856000209160005b8181106200031a575096836004981062000301575b505050811b016002556200020e565b0151600019838e1b60f8161c19169055388080620002f2565b82890151845589978e96909401939283019201620002dd565b90919293506002600052856000208380860160051c82019288871062000384575b918c918997969594930160051c01915b82811062000374575050620001df565b600081558896508c910162000364565b9250819262000354565b634e487b7160e01b600052602260045260246000fd5b93607f1693620001cb565b634e487b7160e01b600052604160045260246000fd5b0151905038806200019d565b908c9350601f1983169184600052896000209260005b8b82821062000421575050841162000408575b505050811b018955620001af565b0151600019838f1b60f8161c19169055388080620003fa565b91929395968291958786015181550195019301908e9594939291620003e7565b9091508b600052876000208480850160051c8201928a86106200048d575b918e91869594930160051c01915b8281106200047d57505062000186565b600081558594508e91016200046d565b925081926200045f565b92607f16926200016f565b895162461bcd60e51b815260048101859052602260248201527f73657474696e6720696e7465726573742072617465206d6f64656c206661696c604482015261195960f21b6064820152608490fd5b8a5162461bcd60e51b815260048101869052601a60248201527f73657474696e6720636f6d7074726f6c6c6572206661696c65640000000000006044820152606490fd5b8b5162461bcd60e51b815260048101879052603060248201527f696e697469616c2065786368616e67652072617465206d75737420626520677260448201526f32b0ba32b9103a3430b7103d32b9379760811b6064820152608490fd5b8c5162461bcd60e51b815260048101889052602360248201527f6d61726b6574206d6179206f6e6c7920626520696e697469616c697a6564206f6044820152626e636560e81b6064820152608490fd5b50600a541562000110565b8c5162461bcd60e51b8152600481018890526024808201527f6f6e6c792061646d696e206d617920696e697469616c697a6520746865206d616044820152631c9ad95d60e21b6064820152608490fd5b601f909101601f19168101906001600160401b03821190821017620003af57604052565b919080601f84011215620002a25782516001600160401b038111620003af57602090604051926200069c83601f19601f85011601856200063d565b818452828287010111620002a25760005b818110620006c357508260009394955001015290565b8581018301518482018401528201620006ad565b90816020910312620002a257518015158103620002a25790565b15620006f957565b60405162461bcd60e51b815260206004820152601c60248201527f6d61726b6572206d6574686f642072657475726e65642066616c7365000000006044820152606490fd5b6003546001600160a01b039060081c811633036200081557600554604051623f1ee960e11b8152928216602084600481845afa9283156200080957620007b26040947f7ac369dbd14fa5ea3f473ed67cc9d598964a77501540ba6751eb0b3decf5870d96600091620007d3575b50620006f1565b6001600160a01b0319831682176005558351921682526020820152a1600090565b620007fa915060203d60201162000801575b620007f181836200063d565b810190620006d7565b38620007ab565b503d620007e5565b6040513d6000823e3d90fd5b5050600080516020620063d28339815191526060604051600181526041602082015260006040820152a1600190565b6003546001600160a01b039060081c8116330362000912576009544203620008e3576006546040516310c8fc9560e11b8152928216602084600481845afa9283156200080957620008c26040947fedffc32e068c7c95dfd4bdfd5c4d939a084d6b11c4199eac8436ed234d72f92696600091620007d35750620006f1565b6001600160a01b0319831682176006558351921682526020820152a1600090565b5050600080516020620063d28339815191526060604051600a81526043602082015260006040820152a1600a90565b5050600080516020620063d28339815191526060604051600181526044602082015260006040820152a160019056fe6080604052600436101561001257600080fd5b60003560e01c806306fdde0314610367578063095ea7b3146103625780630e7527021461035d578063173b99041461035857806317bfdfbc1461035357806318160ddd1461034e578063182df0f5146103495780631a31d465146103445780631be195601461033f57806323b872dd1461033a5780632608f818146103355780632678224714610330578063313ce5671461032b5780633630a6b5146103265780633af9e669146103215780633b1d21a21461031c5780633e941010146103175780634576b5db1461031257806347bd37181461030d5780635fe3b56714610308578063601a0bf1146103035780636752e702146102fe5780636f307dc3146102f957806370a08231146102f457806373acee98146102ef57806383030846146102ea578063852a12e3146102e5578063895dabad146102e05780638f840ddd146102db57806395d89b41146102d657806395dd9193146102d157806399d8c1b4146102cc578063a0712d68146102c7578063a6afed95146102c2578063a9059cbb146102bd578063aa5af0fd146102b8578063ae9d70b0146102b3578063b2a02ff1146102ae578063b71d1a0c146102a9578063bd6d894d146102a4578063c37f68e21461029f578063c5ebeaec1461029a578063cfa9920114610295578063d0248fb414610290578063db006a751461028b578063dd62ed3e14610286578063e9c714f214610281578063f2b3abbd1461027c578063f3fdb15a14610277578063f5e3c46214610272578063f851a4401461026d578063f8f9da28146102685763fca7820b1461026357600080fd5b6113e7565b611384565b611357565b611305565b6112dc565b6112b5565b61129a565b611237565b6111ff565b611150565b611132565b6110fa565b6110b0565b611095565b61106e565b611036565b610f8f565b610f71565b610f2b565b610f10565b610ed8565b610e59565b610e37565b610d8f565b610d71565b610d55565b610d1d565b610ce5565b610c9b565b610c5e565b610c35565b610c17565b610bdf565b610bb6565b610b98565b610b71565b610b39565b610b1e565b610a65565b610a49565b610a28565b6109ff565b6109b9565b61096f565b61081c565b61078e565b6106f6565b6106d8565b610674565b610656565b61060c565b61057d565b610484565b600091031261037757565b600080fd5b90600182811c921680156103ac575b602083101461039657565b634e487b7160e01b600052602260045260246000fd5b91607f169161038b565b634e487b7160e01b600052604160045260246000fd5b6001600160401b0381116103df57604052565b6103b6565b602081019081106001600160401b038211176103df57604052565b604081019081106001600160401b038211176103df57604052565b90601f801991011681019081106001600160401b038211176103df57604052565b6020808252825181830181905290939260005b82811061047057505060409293506000838284010152601f8019910116010190565b81810186015184820160400152850161044e565b346103775760008060031936011261056957604051908060018054906104a98261037c565b808652926020926001811690811561053c57506001146104e4575b6104e0866104d48188038261041a565b6040519182918261043b565b0390f35b9350600184527fb10e2d527612073b26eecdfd717e6a320cf44b4afac2b0732d9fcbe2b7fa0cf65b838510610529575050505081016020016104d4826104e0386104c4565b805486860184015293820193810161050c565b90508695506104e0969350602092506104d494915060ff191682840152151560051b8201019293386104c4565b80fd5b6001600160a01b0381160361037757565b346103775760403660031901126103775760043561059a8161056c565b6024359033600052600f602052816105c88260406000209060018060a01b0316600052602052604060002090565b556040519182526001600160a01b03169033907f8c5be1e5ebec7d5bd14f71427d1e84f3dd0314c0f7b2291e5b200ac8c7c3b92590602090a3602060405160018152f35b3461037757602036600319011261037757602060005461062e60ff821661141f565b60ff1990811660005560016106446004356124d9565b50916000541617600055604051908152f35b34610377576000366003190112610377576020600854604051908152f35b346103775760203660031901126103775760206004356106938161056c565b60016106c7600054926106a860ff851661141f565b60ff199384166000556106c26106bc611f2e565b15611478565b6118d6565b916000541617600055604051908152f35b34610377576000366003190112610377576020600d54604051908152f35b346103775760003660031901126103775760206107116114c7565b604051908152f35b60405190610726826103e4565b565b81601f82011215610377578035906001600160401b0382116103df576040519261075c601f8401601f19166020018561041a565b8284526020838301011161037757816000926020809301838601378301015290565b6044359060ff8216820361037757565b346103775760e0366003190112610377576004356107ab8161056c565b602435906107b88261056c565b604435906107c58261056c565b6001600160401b03608435818111610377576107e5903690600401610728565b9060a435908111610377576107fe903690600401610728565b9160c4359360ff851685036103775761081a956064359261155e565b005b34610377576020366003190112610377576004356108398161056c565b60035460081c6001600160a01b0316906001600160a01b039061085f33838516146115cb565b6012549116919061088b90610884906001600160a01b03165b6001600160a01b031690565b831461162f565b6040516370a0823160e01b8152306004820152602081602481865afa90811561090f57600091610914575b50823b156103775760405163a9059cbb60e01b81526001600160a01b039290921660048301526024820152906000908290604490829084905af1801561090f576108fc57005b8061090961081a926103cc565b8061036c565b611552565b610936915060203d60201161093c575b61092e818361041a565b810190611543565b386108b6565b503d610924565b60609060031901126103775760043561095b8161056c565b906024356109688161056c565b9060443590565b346103775760206109a6600161098436610943565b906000949294549461099860ff871661141f565b60ff19958616600055611696565b9160005416176000556040519015158152f35b346103775760403660031901126103775760206004356109d88161056c565b6001610644600054926109ed60ff851661141f565b60ff19938416600055602435906127ff565b34610377576000366003190112610377576004546040516001600160a01b039091168152602090f35b3461037757600036600319011261037757602060ff60035416604051908152f35b3461037757600036600319011261037757602060405160018152f35b3461037757602036600319011261037757610abb600435610a858161056c565b610a8d61226c565b9060405191610a9b836103e4565b82526001600160a01b03166000908152600e602052604090205490612850565b906004811015610b1957610ad457604051908152602090f35b60405162461bcd60e51b815260206004820152601f60248201527f62616c616e636520636f756c64206e6f742062652063616c63756c61746564006044820152606490fd5b611458565b34610377576000366003190112610377576020610711612883565b34610377576020366003190112610377576020600054610b5b60ff821661141f565b60ff1990811660005560016106c76004356128da565b34610377576020366003190112610377576020610711600435610b938161056c565b61173d565b34610377576000366003190112610377576020600b54604051908152f35b34610377576000366003190112610377576005546040516001600160a01b039091168152602090f35b34610377576020366003190112610377576020600054610c0160ff821661141f565b60ff1990811660005560016106c7600435611840565b34610377576000366003190112610377576020601154604051908152f35b34610377576000366003190112610377576012546040516001600160a01b039091168152602090f35b3461037757602036600319011261037757600435610c7b8161056c565b60018060a01b0316600052600e6020526020604060002054604051908152f35b3461037757600080600319360112610569578054602091610cbe60ff831661141f565b60ff199182168155610cd16106bc611f2e565b6001600b5492825416179055604051908152f35b34610377576020366003190112610377576020600054610d0760ff821661141f565b60ff1990811660005560016106c760043561188b565b34610377576020366003190112610377576020600054610d3f60ff821661141f565b60ff1990811660005560016106c760043561305f565b3461037757600036600319011261037757602060405160008152f35b34610377576000366003190112610377576020600c54604051908152f35b346103775760008060031936011261056957604051908060025490610db38261037c565b8085529160209160019182811690811561053c5750600114610ddf576104e0866104d48188038261041a565b9350600284527f405787fa12a823e0f2b7631cc41b3ba8828b3321ca811111fa75cd3aa3bb5ace5b838510610e24575050505081016020016104d4826104e0386104c4565b8054868601840152938201938101610e07565b346103775760203660031901126103775760206107116004356106c28161056c565b346103775760c036600319011261037757600435610e768161056c565b60243590610e838261056c565b6001600160401b0360643581811161037757610ea3903690600401610728565b9060843590811161037757610ebc903690600401610728565b9060a4359260ff841684036103775761081a9460443591611d76565b34610377576020366003190112610377576020600054610efa60ff821661141f565b60ff1990811660005560016106446004356131f0565b34610377576000366003190112610377576020610711611f2e565b34610377576040366003190112610377576020600435610f4a8161056c565b60016109a660005492610f5f60ff851661141f565b60ff199384166000556024359061218b565b34610377576000366003190112610377576020600a54604051908152f35b34610377576000366003190112610377576006546001600160a01b03166020610fb6612883565b600b54600c54600854604051635c0b440b60e11b815260048101949094526024840192909252604483015260648201529182908180608481015b03915afa801561090f576104e091600091611017575b506040519081529081906020820190565b611030915060203d60201161093c5761092e818361041a565b38611006565b346103775760206106c7600161104b36610943565b906000949294549461105f60ff871661141f565b60ff19958616600055336137de565b346103775760203660031901126103775760206107116004356110908161056c565b6121c9565b3461037757600036600319011261037757602061071161226c565b34610377576020366003190112610377576104e06110d86004356110d38161056c565b6122a5565b6040805194855260208501939093529183015260608201529081906080820190565b3461037757602036600319011261037757602060005461111c60ff821661141f565b60ff1990811660005560016106c7600435613b28565b34610377576000366003190112610377576020600954604051908152f35b346103775760a03660031901126103775760043561116c61077e565b9060018060a01b036012541690813b156103775760405163d505accf60e01b815233600482015230602480830191909152604482018390523560648083019190915260ff94909416608480830191909152933560a4820152923560c48401526104e09261100692600090829060e490829084905af16111ec575b506131be565b806109096111f9926103cc565b386111e6565b3461037757602036600319011261037757602060005461122160ff821661141f565b60ff1990811660005560016106c7600435613b74565b346103775760403660031901126103775760206112916004356112598161056c565b602435906112668261056c565b60018060a01b0316600052600f835260406000209060018060a01b0316600052602052604060002090565b54604051908152f35b3461037757600036600319011261037757602061071161230f565b346103775760203660031901126103775760206107116004356112d78161056c565b612443565b34610377576000366003190112610377576006546040516001600160a01b039091168152602090f35b346103775760603660031901126103775760206004356113248161056c565b60016106446044356113358161056c565b6000549361134560ff861661141f565b60ff1994851660005560243590613b8d565b346103775760003660031901126103775760035460405160089190911c6001600160a01b03168152602090f35b3461037757600036600319011261037757600654610ff0906020906001600160a01b03166113b0612883565b600b54600c546040516315f2405360e01b815260048101939093526024830191909152604482015292839190829081906064820190565b3461037757602036600319011261037757602060005461140960ff821661141f565b60ff1990811660005560016106c760043561248e565b1561142657565b60405162461bcd60e51b815260206004820152600a6024820152691c994b595b9d195c995960b21b6044820152606490fd5b634e487b7160e01b600052602160045260246000fd5b60121115610b1957565b1561147f57565b60405162461bcd60e51b81526020600482015260166024820152751858d8dc9d59481a5b9d195c995cdd0819985a5b195960521b6044820152606490fd5b60041115610b1957565b6114cf61252d565b906004811015610b19576114e05790565b60405162461bcd60e51b815260206004820152603560248201527f65786368616e67655261746553746f7265643a2065786368616e67655261746560448201527414dd1bdc9959125b9d195c9b985b0819985a5b1959605a1b6064820152608490fd5b90816020910312610377575190565b6040513d6000823e3d90fd5b93611570936004979360209793611d76565b601280546001600160a01b0319166001600160a01b039290921691821790556040516318160ddd60e01b815292839182905afa801561090f576115b05750565b6115c89060203d60201161093c5761092e818361041a565b50565b156115d257565b60405162461bcd60e51b815260206004820152602f60248201527f4845726332303a3a7377656570546f6b656e3a206f6e6c792061646d696e206360448201526e616e20737765657020746f6b656e7360881b6064820152608490fd5b1561163657565b60405162461bcd60e51b815260206004820152603260248201527f4845726332303a3a7377656570546f6b656e3a2063616e206e6f74207377656560448201527138103ab73232b9363cb4b733903a37b5b2b760711b6064820152608490fd5b91906001600160a01b03808216301490816116c7575b506116bf576116bb92336125a3565b1590565b505050600090565b905060035460081c16331415386116ac565b90816020910312610377575180151581036103775790565b156116f857565b60405162461bcd60e51b815260206004820152601c60248201527f6d61726b6572206d6574686f642072657475726e65642066616c7365000000006044820152606490fd5b6003546117559060081c6001600160a01b0316610878565b3303611834576005546001600160a01b0316604051623f1ee960e11b815291906020836004816001600160a01b0386165afa92831561090f577f7ac369dbd14fa5ea3f473ed67cc9d598964a77501540ba6751eb0b3decf5870d936117c291600091611805575b506116f1565b600580546001600160a01b0319166001600160a01b0384161790555b604080516001600160a01b039283168152929091166020830152819081015b0390a1600090565b611827915060203d60201161182d575b61181f818361041a565b8101906116d9565b386117bc565b503d611815565b5061183d612929565b90565b611848611f2e565b90816118585761183d9150612eb7565b506012811015610b1957600080516020615a1b83398151915260606040518381526032602082015260006040820152a190565b611893611f2e565b90816118a35761183d9150612fa5565b506012811015610b1957600080516020615a1b83398151915260606040518381526056602082015260006040820152a190565b6118df9061308b565b906004811015610b19576118f05790565b60405162461bcd60e51b815260206004820152603760248201527f626f72726f7742616c616e636553746f7265643a20626f72726f7742616c616e60448201527f636553746f726564496e7465726e616c206661696c65640000000000000000006064820152608490fd5b1561196257565b60405162461bcd60e51b815260206004820152602360248201527f6d61726b6574206d6179206f6e6c7920626520696e697469616c697a6564206f6044820152626e636560e81b6064820152608490fd5b156119ba57565b60405162461bcd60e51b815260206004820152603060248201527f696e697469616c2065786368616e67652072617465206d75737420626520677260448201526f32b0ba32b9103a3430b7103d32b9379760811b6064820152608490fd5b15611a1f57565b60405162461bcd60e51b815260206004820152601a60248201527f73657474696e6720636f6d7074726f6c6c6572206661696c65640000000000006044820152606490fd5b15611a6b57565b60405162461bcd60e51b815260206004820152602260248201527f73657474696e6720696e7465726573742072617465206d6f64656c206661696c604482015261195960f21b6064820152608490fd5b90601f8211611ac8575050565b60019160009060016000527fb10e2d527612073b26eecdfd717e6a320cf44b4afac2b0732d9fcbe2b7fa0cf6906020601f850160051c83019410611b27575b601f0160051c01915b828110611b1d5750505050565b8181558301611b10565b9092508290611b07565b601f8111611b3d575050565b60009060026000527f405787fa12a823e0f2b7631cc41b3ba8828b3321ca811111fa75cd3aa3bb5ace906020601f850160051c83019410611b99575b601f0160051c01915b828110611b8e57505050565b818155600101611b82565b9092508290611b79565b9081516001600160401b0381116103df57600190611bca81611bc5845461037c565b611abb565b602080601f8311600114611c0d57508190611bfe939495600092611c02575b50508160011b916000199060031b1c19161790565b9055565b015190503880611be9565b90601f19831695611c4060016000527fb10e2d527612073b26eecdfd717e6a320cf44b4afac2b0732d9fcbe2b7fa0cf690565b926000905b888210611c7b5750508385969710611c62575b505050811b019055565b015160001960f88460031b161c19169055388080611c58565b808785968294968601518155019501930190611c45565b9081516001600160401b0381116103df57611cb781611cb260025461037c565b611b31565b602080601f8311600114611cee57508190611ce99394600092611c025750508160011b916000199060031b1c19161790565b600255565b90601f19831694611d2160026000527f405787fa12a823e0f2b7631cc41b3ba8828b3321ca811111fa75cd3aa3bb5ace90565b926000905b878210611d5e575050836001959610611d45575b505050811b01600255565b015160001960f88460031b161c19169055388080611d3a565b80600185968294968601518155019501930190611d26565b60035490959492939060081c6001600160a01b03163303611e3257611dfc611df6611e0193611dd7611dd1611e169a611dc4611e069a6009541580611e28575b611dbf9061195b565b600755565b610b9360075415156119b3565b15611a18565b611de042600955565b611df1670de0b6b3a7640000600a55565b6130fe565b15611a64565b611ba3565b611c92565b60ff1660ff196003541617600355565b610726600160ff196000541617600055565b50600a5415611db6565b60405162461bcd60e51b8152602060048201526024808201527f6f6e6c792061646d696e206d617920696e697469616c697a6520746865206d616044820152631c9ad95d60e21b6064820152608490fd5b15611e8a57565b60405162461bcd60e51b815260206004820152601c60248201527f626f72726f772072617465206973206162737572646c792068696768000000006044820152606490fd5b15611ed657565b60405162461bcd60e51b815260206004820152601f60248201527f636f756c64206e6f742063616c63756c61746520626c6f636b2064656c7461006044820152606490fd5b60405190611f28826103e4565b60008252565b60095442811461218557611f40612883565b600b5490600c5492600a5490611f6061087860065460018060a01b031690565b6040516315f2405360e01b815260048101859052602481018690526044810187905290602090829060649082905afa801561090f57611fec92611fd392600092612160575b50611fc290611fbc65048c27395000841115611e83565b4261323f565b9290611fcd816114bd565b15611ecf565b611fdb611f1b565b50611fe4610719565b908152613261565b9190611ff7816114bd565b8061214857506120078483612850565b9490612012816114bd565b8061212f575061202290856136d7565b959061202d816114bd565b80612116575061204b9085600854612043610719565b9081526136f8565b9290612056816114bd565b806120fd57509080612067926136f8565b9190612072816114bd565b806120e55750936117fd916120c27f4dec04e750ca11537cabcd8a9eab06494de08da3735bc8871cd41250e190bc04966120ab42600955565b6120b483600a55565b6120bd84600b55565b600c55565b604051948594859094939260609260808301968352602083015260408201520152565b935050505061183d91506120f8816114bd565b613367565b94505050505061183d9150612111816114bd565b61333b565b94505050505061183d915061212a816114bd565b61330f565b94505050505061183d9150612143816114bd565b6132e3565b935050505061183d915061215b816114bd565b6132b7565b611fc291925061217e9060203d60201161093c5761092e818361041a565b9190611fa5565b50600090565b906001600160a01b03808316301490816121b7575b506121b0576116bb9133336125a3565b5050600090565b905060035460081c16331415386121a0565b6003546001600160a01b039060081c8116330361223e57600480548383166001600160a01b031982161790915560408051929091166001600160a01b03908116835290921660208201527fca4f2f25d0898edd99413412fb94012f9e54ec8142f9b093e7720646a95b16a991819081016117fd565b5050600080516020615a1b8339815191526060604051600181526047602082015260006040820152a1600190565b6000549061227c60ff831661141f565b60ff199182166000556122906106bc611f2e565b600161229a6114c7565b926000541617600055565b6001600160a01b0381166000908152600e602052604081205492916122c99061308b565b92906004811015610b1957612302576122e061252d565b92906122eb816114bd565b6122f55793929190565b6009945092508291508190565b9150915060099180918190565b6004546001600160a01b031633811480159061243b575b61240e576003547fca4f2f25d0898edd99413412fb94012f9e54ec8142f9b093e7720646a95b16a991907ff9ffabca9c8276e99321725bcb43fb076a6c66a54b7f21c4e8146d8519b417dc906123879060081c6001600160a01b0316610878565b60038054610100600160a81b031916600885901b610100600160a81b0316179055600480546001600160a01b031916905560035460081c6001600160a01b0316604080516001600160a01b039384168152929091166020830152819081010390a1600454604080516001600160a01b039384168152929091166020830152819081016117fd565b50600080516020615a1b8339815191526060604051600181526000602082015260006040820152a1600190565b503315612326565b61244b611f2e565b908161245b5761183d91506130fe565b506012811015610b1957600080516020615a1b83398151915260606040518381526042602082015260006040820152a190565b612496611f2e565b90816124a65761183d9150613c5d565b506012811015610b1957600080516020615a1b83398151915260606040518381526048602082015260006040820152a190565b6124e1611f2e565b90816124f7576124f391503333613e37565b9091565b506012811015610b1957600080516020615a1b83398151915260606040518381526038602082015260006040820152a190600090565b600d548061253e5750600754600091565b612564612549612883565b6000604051612557816103e4565b52600b54600c54916140b4565b61256f8293926114bd565b8261259b5761257e925061410e565b90612588816114bd565b80612594575051600091565b9160009150565b505090600090565b600554909392906125bc906001600160a01b0316610878565b6040516317b9b84b60e31b81523060048201526001600160a01b038481166024830152831660448201526064810185905290602090829060849082906000905af190811561090f576000916127e0575b50806127d257506001600160a01b038181169483821694918587146127c3578116850361279957600019935b612642838661323f565b929061264d816114bd565b612789576001600160a01b0382166000908152600e602052604090206126769085905b5461323f565b9690612681816114bd565b612778576001600160a01b0386166000908152600e602052604090206126a9908690546136d7565b906126b3816114bd565b6127665761270561271f97600080516020615a3b833981519152996126ea8760018060a01b0316600052600e602052604060002090565b556001600160a01b03166000908152600e6020526040902090565b5519612727575b5050604051918252509081906020820190565b0390a3600090565b61274661275d9260018060a01b0316600052600f602052604060002090565b9060018060a01b0316600052602052604060002090565b5538808061270c565b5050505050505050505061183d6129d9565b50505050505050505061183d6129ad565b505050505050505061183d612981565b6001600160a01b0384166000908152600f602052604090206127bc908290612746565b5493612638565b5050505050505061183d612955565b9250505061183d9150613393565b6127f9915060203d60201161093c5761092e818361041a565b3861260c565b90612808611f2e565b9182612819576124f3925033613e37565b50506012811015610b1957600080516020615a1b83398151915260606040518381526037602082015260006040820152a190600090565b9061285a91613261565b6004821015610b19578161287c57670de0b6b3a7640000915051049060009190565b5090600090565b6012546040516370a0823160e01b815230600482015290602090829060249082906001600160a01b03165afa90811561090f576000916128c1575090565b61183d915060203d60201161093c5761092e818361041a565b6128e2611f2e565b90816128f6576128f29150614173565b5090565b506012811015610b1957600080516020615a1b83398151915260606040518381526053602082015260006040820152a190565b600080516020615a1b8339815191526060604051600181526041602082015260006040820152a1600190565b600080516020615a1b8339815191526060604051600281526050602082015260006040820152a1600290565b600080516020615a1b8339815191526060604051600981526050602082015260006040820152a1600990565b600080516020615a1b8339815191526060604051600981526051602082015260006040820152a1600990565b600080516020615a1b8339815191526060604051600981526052602082015260006040820152a1600990565b600080516020615a1b8339815191526060604051600181526033602082015260006040820152a1600190565b600080516020615a1b8339815191526060604051600a81526035602082015260006040820152a1600a90565b600080516020615a1b8339815191526060604051600f81526034602082015260006040820152a1600f90565b600080516020615a1b8339815191526060604051600281526036602082015260006040820152a1600290565b6012811015610b1957600080516020615a1b83398151915260606040518381526028602082015260006040820152a190565b600080516020615a1b8339815191526060604051600181526044602082015260006040820152a1600190565b600080516020615a1b8339815191526060604051600a81526043602082015260006040820152a1600a90565b600080516020615a1b833981519152606060405160068152601c602082015260006040820152a1600690565b6012811015610b1957600080516020615a1b83398151915260606040518381526010602082015260006040820152a190565b600080516020615a1b8339815191526060604051600a8152604a602082015260006040820152a1600a90565b600080516020615a1b833981519152606060405160028152604b602082015260006040820152a1600290565b600080516020615a1b8339815191526060604051600a8152603b602082015260006040820152a1600a90565b600080516020615a1b8339815191526060604051600a81526054602082015260006040820152a1600a90565b600080516020615a1b8339815191526060604051600a8152602e602082015260006040820152a1600a90565b600080516020615a1b8339815191526060604051600f81526031602082015260006040820152a1600f90565b600080516020615a1b8339815191526060604051600a81526022602082015260006040820152a1600a90565b600080516020615a1b8339815191526060604051600a8152600a602082015260006040820152a1600a90565b600080516020615a1b8339815191526060604051600f81526009602082015260006040820152a1600f90565b600080516020615a1b8339815191526060604051600a81526016602082015260006040820152a1600a90565b600080516020615a1b8339815191526060604051600a81526011602082015260006040820152a1600a90565b600080516020615a1b8339815191526060604051600681526017602082015260006040820152a1600690565b600080516020615a1b8339815191526060604051600781526015602082015260006040820152a1600790565b600080516020615a1b8339815191526060604051600781526014602082015260006040820152a1600790565b6012811015610b1957600080516020615a1b83398151915260606040518381526018602082015260006040820152a190565b634e487b7160e01b600052601160045260246000fd5b91908203918211612e5a57565b612e37565b15612e6657565b60405162461bcd60e51b8152602060048201526024808201527f72656475636520726573657276657320756e657870656374656420756e646572604482015263666c6f7760e01b6064820152608490fd5b600354612ecf9060081c6001600160a01b0316610878565b3303612f9c576009544203612f935780612ee7612883565b10612f8a57600c5490818111612f805781612f2f612f26837f3bad0c59cf2f06e7314077049f48a93578cd16f5ef92329f1dab1420a99c177e95612e4d565b91821115612e5f565b612f3881600c55565b600354612f5290839060081c6001600160a01b031661423e565b6003546040805160089290921c6001600160a01b0316825260208201939093529182015280606081016117fd565b505061183d612a89565b5061183d612a5d565b5061183d612a31565b5061183d612a05565b60035460081c6001600160a01b031633036130325760095442036130055760118054908290556040805191825260208201929092527ff5815f353a60e815cce7553e4f60c533a59d26b1b5504ea4b6db8d60da3e4da291819081016117fd565b50600080516020615a1b8339815191526060604051600a81526058602082015260006040820152a1600a90565b50600080516020615a1b8339815191526060604051600181526057602082015260006040820152a1600190565b613067611f2e565b90816130785761183d9150336143c4565b506012811015610b195761183d90612ab5565b6001600160a01b03166000908152601060205260408120805491929180156130f857600a546130b991614a7b565b906004811015610b1957806130f1575060016130d792015490614ab5565b92906130e2816114bd565b806130ec57509190565b925090565b9150509190565b50508190565b6003546131169060081c6001600160a01b0316610878565b33036131b55760095442036131ac576006546001600160a01b03166040516310c8fc9560e11b815291906020836004816001600160a01b0386165afa92831561090f577fedffc32e068c7c95dfd4bdfd5c4d939a084d6b11c4199eac8436ed234d72f9269361318c9160009161180557506116f1565b600680546001600160a01b0319166001600160a01b0384161790556117de565b5061183d612b13565b5061183d612ae7565b6001916131e2600054926131d460ff851661141f565b60ff199384166000556131f0565b939093926000541617600055565b6131f8611f2e565b9081613209576124f3915033614c52565b506012811015610b1957600080516020615a1b8339815191526060604051838152601e602082015260006040820152a190600090565b9190828111613257578203918211612e5a5760009190565b5060039150600090565b9061327b916000604051613274816103e4565b5251614a7b565b91906004811015610b1957806132a1575060405191613299836103e4565b825260009190565b60405192506132af836103e4565b600083529190565b6060600080516020615a1b833981519152916040519060098252600660208301526040820152a1600990565b6060600080516020615a1b833981519152916040519060098252600160208301526040820152a1600990565b6060600080516020615a1b833981519152916040519060098252600460208301526040820152a1600990565b6060600080516020615a1b833981519152916040519060098252600560208301526040820152a1600990565b6060600080516020615a1b833981519152916040519060098252600360208301526040820152a1600990565b6060600080516020615a1b833981519152916040519060038252604f60208301526040820152a1600390565b6060600080516020615a1b833981519152916040519060038252601b60208301526040820152a1600390565b6060600080516020615a1b833981519152916040519060098252601a60208301526040820152a1600990565b6060600080516020615a1b833981519152916040519060098252601960208301526040820152a1600990565b6060600080516020615a1b833981519152916040519060038252603a60208301526040820152a1600390565b6060600080516020615a1b833981519152916040519060098252603960208301526040820152a1600990565b6060600080516020615a1b833981519152916040519060098252602d60208301526040820152a1600990565b6060600080516020615a1b833981519152916040519060098252602b60208301526040820152a1600990565b6060600080516020615a1b833981519152916040519060098252602a60208301526040820152a1600990565b6060600080516020615a1b833981519152916040519060038252602960208301526040820152a1600390565b6060600080516020615a1b833981519152916040519060098252603060208301526040820152a1600990565b6060600080516020615a1b833981519152916040519060098252602f60208301526040820152a1600990565b6060600080516020615a1b833981519152916040519060038252601f60208301526040820152a1600390565b6060600080516020615a1b833981519152916040519060098252602160208301526040820152a1600990565b6060600080516020615a1b833981519152916040519060038252600e60208301526040820152a1600390565b6060600080516020615a1b833981519152916040519060098252600760208301526040820152a1600990565b6060600080516020615a1b833981519152916040519060098252600c60208301526040820152a1600990565b6060600080516020615a1b833981519152916040519060098252600b60208301526040820152a1600990565b6060600080516020615a1b833981519152916040519060038252601260208301526040820152a1600390565b9190820191828111612e5a5782106136ef5760009190565b60029150600090565b9061370291613261565b91906004811015610b1957806137275750670de0b6b3a76400006124f39251046136d7565b91505090600090565b6040519061012082018281106001600160401b038211176103df57604052816101006000918281528260208201528260408201528260608201528260808201528260a08201528260c08201528260e08201520152565b6004821015610b195752565b1561379957565b60405162461bcd60e51b815260206004820152601860248201527f65786368616e67652072617465206d617468206572726f7200000000000000006044820152606490fd5b926020838293958660006137fc61087860055460018060a01b031690565b60405163d02f735160e01b81523060048201526001600160a01b03948516602482015292841660448401529390921660648201526084810194909452839160a49183915af190811561090f57600091613b09575b5080613afc57506001600160a01b038381169190831690818314613aef576138aa9261387a613730565b9461389b836126708360018060a01b0316600052600e602052604060002090565b95906020880196875287613786565b85516138b5816114bd565b6138be816114bd565b613acd576139b6966138f6670de0b6b3a76400006138e8601154806138e1610719565b5287615946565b046080890195818752614f2f565b916060880192835261394c61391b61390c61252d565b919060c08c019283528b613786565b6139388a51613929816114bd565b613932816114bd565b15613792565b51613941610719565b908152865190614f76565b9661396060a08a0198808a52600c54614fab565b9860e08101998a52613976600d54885190614f2f565b9061010081019182526139a761399e8660018060a01b0316600052600e602052604060002090565b548751906136d7565b9c90604083019d8e5282613786565b80516139c1816114bd565b6139ca816114bd565b613aa557507fa91e67c5ea634cd43a12c5a482724b03de01e85ca68702a53d0c2f45cb7c1dc59a8897969593613a34613a759a9694613a17613a52958f613a119051600c55565b51600d55565b516001600160a01b039092166000908152600e6020526040902090565b55516001600160a01b039092166000908152600e6020526040902090565b555160405180600080516020615a3b833981519152978893829190602083019252565b0390a351604051908152309290602090a351905160408051308152602081019390935282015280606081016117fd565b995050505050505050505061183d915051613abf816114bd565b613ac8816114bd565b613417565b505050505061183d915051613ae1816114bd565b613aea816114bd565b6133eb565b505050505061183d612b3f565b91505061183d91506133bf565b613b22915060203d60201161093c5761092e818361041a565b38613850565b613b30611f2e565b9081613b415761183d915033615021565b506012811015610b1957600080516020615a1b83398151915260606040518381526008602082015260006040820152a190565b613b7c611f2e565b90816130785761183d915033614756565b9190613b97611f2e565b80613c1b575060405163a6afed9560e01b81529260208460048160006001600160a01b0388165af193841561090f57600094613bfa575b5083613bdf576124f39350336153a2565b50505080613bef613bf49261146e565b612b6b565b90600090565b613c1491945060203d60201161093c5761092e818361041a565b9238613bce565b92505050613c288161146e565b6012811015610b1957600080516020615a1b8339815191526060604051838152600f602082015260006040820152a190600090565b60035460081c6001600160a01b03163303613ce3576009544203613cda57670de0b6b3a76400008111613cd1577faaa68312e2ea9d50e16af5068410ab56e1a1fd06037b1a35664812c30f82146090600854613cb882600855565b60408051918252602082019290925290819081016117fd565b5061183d612bc9565b5061183d612b9d565b50600080516020615a1b8339815191526060604051600181526049602082015260006040820152a1600190565b6040519061010082018281106001600160401b038211176103df576040528160e06000918281528260208201528260408201528260608201528260808201528260a08201528260c08201520152565b15613d6657565b60405162461bcd60e51b815260206004820152603a60248201527f52455041595f424f52524f575f4e45575f4143434f554e545f424f52524f575f60448201527f42414c414e43455f43414c43554c4154494f4e5f4641494c45440000000000006064820152608490fd5b15613dd857565b60405162461bcd60e51b815260206004820152603160248201527f52455041595f424f52524f575f4e45575f544f54414c5f42414c414e43455f43604482015270105310d55310551253d397d19052531151607a1b6064820152608490fd5b60055491939291613e50906001600160a01b0316610878565b604051631200453160e11b81523060048201526001600160a01b038381166024830152861660448201526064810184905260009591602090829060849082908a905af190811561090f578691614095575b50806140885750600954420361407d57613eb9613d10565b916001613ed88360018060a01b03166000526010602052604060002090565b01546060840152613ee88261308b565b939094613f0060208301966080840196875287613786565b8551613f0b816114bd565b613f14816114bd565b6140585760c0613fdf7f1a2a22cb034d26d1854bdc6666a5b91fe25efbbb5dcad3b0355478d6f5c362a19697613fc661404795613f8e95600019811460001461404e57508a5160408201525b613f7f613f7160408301518a6157d7565b60e083018181529c5161323f565b969060a0830197885284613786565b613fab8351613f9c816114bd565b613fa5816114bd565b15613d5f565b613fb9600b548c519061323f565b9590910194855282613786565b51613fd0816114bd565b613fd9816114bd565b15613dd1565b81516001600160a01b0386166000908152601060205260409020908155600a5460019091015551600b8190559086519051604080516001600160a01b0396871681529690951660208701529385015260608401929092526080830191909152819060a0820190565b0390a15190565b6040820152613f60565b5050505050614079905161406b816114bd565b614074816114bd565b61346f565b9190565b505050614079612bf5565b9150506140799150613443565b6140ae915060203d60201161093c5761092e818361041a565b38613ea1565b906140be916136d7565b60048293921015610b19578261259b576124f3925061323f565b6140f09060006040516140ea816103e4565b52614aa0565b91906140fb816114bd565b806132a1575060405191613299836103e4565b614129909291926000604051614123816103e4565b52614a14565b60048294921015610b195783614144576140f0929350614ab5565b5050604051916132af836103e4565b811561415d570490565b634e487b7160e01b600052601260045260246000fd5b60095442036142355761418690336157d7565b90600c5482810190818111612e5a5781106141f1576141e8816141c97fa91e67c5ea634cd43a12c5a482724b03de01e85ca68702a53d0c2f45cb7c1dc593600c55565b6040805133815260208101879052908101919091529081906060820190565b0390a160009190565b606460405162461bcd60e51b815260206004820152602060248201527f61646420726573657276657320756e6578706563746564206f766572666c6f776044820152fd5b50613bf4612c21565b919060018060a01b036012541690813b156103775760405163a9059cbb60e01b81526001600160a01b0394909416600485015260248401526000929083908290604490829084905af1801561090f57614304575b503d80156142f9576020146142a5575080fd5b90602081803e515b156142b457565b60405162461bcd60e51b815260206004820152601960248201527f544f4b454e5f5452414e534645525f4f55545f4641494c4544000000000000006044820152606490fd5b5090506000196142ad565b61430d906103cc565b38614292565b1561431a57565b60405162461bcd60e51b815260206004820152603460248201527f6f6e65206f662072656465656d546f6b656e73496e206f722072656465656d416044820152736d6f756e74496e206d757374206265207a65726f60601b6064820152608490fd5b6040519060e082018281106001600160401b038211176103df576040528160c06000918281528260208201528260408201528260608201528260808201528260a08201520152565b6143cc61437c565b6143d461252d565b90936143eb60208401956040850193845286613786565b84516143f6816114bd565b6143ff816114bd565b6147365791614448826144256144579561443495519061441d610719565b91825261593c565b94906060850195865288613786565b5161443d610719565b908152835190612850565b93906080830194855286613786565b8451614462816114bd565b61446b816114bd565b61471657600554614484906001600160a01b0316610878565b825160405163eabe7d9160e01b81523060048201526001600160a01b0387166024820152604481019190915260009691602090829060649082908b905af190811561090f5787916146f7575b50806146e7575060095442036146d957614501916144f2600d5485519061323f565b939060a0830194855283613786565b815161450c816114bd565b614515816114bd565b6146b6576001600160a01b0386166000908152600e6020526040902060c093929161454791613fb9905487519061323f565b8051614552816114bd565b61455b816114bd565b6146935750614568612883565b8451116146855751600d555b516001600160a01b0384166000818152600e602090815260409182902093909355835190519081523092600080516020615a3b83398151915291a381518151604080516001600160a01b038716815260208101939093528201527fe5b754fb1abb7f01b499791d0b820ae3b6af3424ac1c59768edb53f4ec31a92990606090a1600554614609906001600160a01b0316610878565b8251915191813b15614681576040516351dff98960e01b81523060048201526001600160a01b038616602482015260448101919091526064810192909252909291908490849060849082905afa92831561090f5761183d9361466e575b50519061423e565b8061090961467b926103cc565b38614666565b8580fd5b50505050505061183d612c79565b94505050505061183d9150516146a8816114bd565b6146b1816114bd565b613577565b50935050505061183d9150516146cb816114bd565b6146d4816114bd565b61354b565b50505050505061183d612c4d565b94505050505061183d915061351f565b614710915060203d60201161093c5761092e818361041a565b386144d0565b5050505061183d9051614728816114bd565b614731816114bd565b6134c7565b5050505061183d9051614748816114bd565b614751816114bd565b61349b565b811591821592836149f9575b61476b90614313565b61477361437c565b9061477c61252d565b91909461479460208501966040860194855287613786565b855161479f816114bd565b6147a8816114bd565b6149e65715614984576147d4906147df926060850191825251906147ca610719565b9182525190612850565b608084015284613786565b82516147ea816114bd565b6147f3816114bd565b614966575b60055461480d906001600160a01b0316610878565b60608201805160405163eabe7d9160e01b81523060048201526001600160a01b038616602482015260448101919091526000959192602090829060649082908a905af190811561090f578691614947575b50806149385750600954420361492b5761488f90614880600d5484519061323f565b929060a0860193845282613786565b805161489a816114bd565b6148a3816114bd565b614917576001600160a01b0385166000908152600e602052604090206148e19291906148d2905485519061323f565b939060c0870194855282613786565b80516148ec816114bd565b6148f5816114bd565b61469357506080614904612883565b9401938451116146855751600d55614574565b935050505061183d9150516146cb816114bd565b505050505061183d612c4d565b935050505061183d915061351f565b614960915060203d60201161093c5761092e818361041a565b3861485e565b505061183d9051614976816114bd565b61497f816114bd565b6134f3565b506147d46149b3826149a46149bd945161499c610719565b908152615923565b92906060870193845288613786565b51906147ca610719565b82516149c8816114bd565b6149d1816114bd565b156147f857505061183d9051614728816114bd565b505050505061183d9051614748816114bd565b506001614762565b81810292918115918404141715612e5a57565b8015614a4d57670de0b6b3a7640000808202918083048203612e5a57614a3a9083614153565b14614a485750600290600090565b600091565b50600090600090565b670de0b6b3a764000090808202918204808203612e5a5714614a485750600290600090565b908115614a9657614a3a614a8f8284614a01565b9283614153565b5050600090600090565b15614aad57600090600090565b600190600090565b908015614ac557614a4891614153565b5050600190600090565b15614ad657565b606460405162461bcd60e51b815260206004820152602060248201527f4d494e545f45584348414e47455f43414c43554c4154494f4e5f4641494c45446044820152fd5b15614b2157565b60405162461bcd60e51b815260206004820152602860248201527f4d494e545f4e45575f544f54414c5f535550504c595f43414c43554c4154494f6044820152671397d1905253115160c21b6064820152608490fd5b15614b7e57565b60405162461bcd60e51b815260206004820152602b60248201527f4d494e545f4e45575f4143434f554e545f42414c414e43455f43414c43554c4160448201526a151253d397d1905253115160aa1b6064820152608490fd5b9060209081838203126103775782516001600160401b0393848211610377570181601f820112156103775780519384116103df578360051b9060405194614c208584018761041a565b85528380860192820101928311610377578301905b828210614c43575050505090565b81518152908301908301614c35565b60055490929190614c6b906001600160a01b0316610878565b604051634ef4c3e160e01b81523060048201526001600160a01b038516602482015260448101839052600094916020908290606490829089905af190811561090f578591614f10575b5080614f0457506009544203614efa5783614ccd61437c565b91614cd661252d565b93614cec60208201926040830196875283613786565b8151614cf7816114bd565b614d00816114bd565b614ed857614d10849596846157d7565b60c082019681885251614d21610719565b908152614d2d9161593c565b929060608301938452614d409082613786565b8051614d4b816114bd565b614d54816114bd565b15614d5e90614acf565b600d548351614d6c916136d7565b919060808401928352614d7f9082613786565b8051614d8a816114bd565b614d93816114bd565b15614d9d90614b1a565b6001600160a01b0385166000908152600e60205260409020548451614dc1916136d7565b9360a001938452614dd29082613786565b51614ddc816114bd565b614de5816114bd565b15614def90614b77565b51600d55516001600160a01b0383166000908152600e602052604090205584518151604080516001600160a01b038616815260208101939093528201528060608101037f4c209b5fc8ad50758f13e2e1088ba56a560dff690a1c6fef26394f4c03821c4f91a1516040519081526001600160a01b038216903090600080516020615a3b83398151915290602090a3600554604051631ea016b760e21b81526001600160a01b039283166004820152938492602492849291165af1801561090f57614eb857505190565b614ed3903d8086833e614ecb818361041a565b810190614bd7565b505190565b5092505050614079915051614eec816114bd565b614ef5816114bd565b6135cf565b5050614079612ca5565b905061407991506135a3565b614f29915060203d60201161093c5761092e818361041a565b38614cb4565b90614f6a604051614f3f816103ff565b60158152747375627472616374696f6e20756e646572666c6f7760581b602082015283831115615986565b8103908111612e5a5790565b670de0b6b3a764000091614f99916000604051614f92816103e4565b5251615946565b80604051614fa6816103e4565b520490565b60405191614fb8836103ff565b60118352706164646974696f6e206f766572666c6f7760781b6020840152810191828211612e5a5761183d91831015615986565b60405190608082018281106001600160401b038211176103df5760405260006060838281528260208201528260408201520152565b600554909190615039906001600160a01b0316610878565b60405163368f515360e21b81523060048201526001600160a01b03841660248201526044810183905290602090829060649082906000905af190811561090f57600091615276575b508061526a57506009544203615260578061509a612883565b10615256576150a7614fec565b916150cc6150bd6001600160a01b03831661308b565b91906020860192835285613786565b83516150d7816114bd565b6150e0816114bd565b61523757926150f38361510295516136d7565b94906040830195865282613786565b805161510d816114bd565b615116816114bd565b615217576151399061512a84600b546136d7565b92906060830193845282613786565b8051615144816114bd565b61514d816114bd565b6151f65750837f13ed6866d4e1ee6da46f845c46d7e54120883d75c5ea9a2dacc1c4ca8984ab80916151f195516151968560018060a01b03166000526010602052604060002090565b55600a546001600160a01b03851660009081526010602052604090206001015551906151c182600b55565b51604080516001600160a01b038616815260208101879052908101919091526060810191909152608090a161423e565b600090565b9250505061183d915051615209816114bd565b615212816114bd565b61367f565b91505061183d915051615229816114bd565b615232816114bd565b613653565b50505061183d9051615248816114bd565b615251816114bd565b613627565b505061183d612cfd565b505061183d612cd1565b905061183d91506135fb565b61528f915060203d60201161093c5761092e818361041a565b38615081565b9190826040910312610377576020825192015190565b156152b257565b60405162461bcd60e51b815260206004820152603360248201527f4c49515549444154455f434f4d5054524f4c4c45525f43414c43554c4154455f604482015272105353d5539517d4d152569157d19052531151606a1b6064820152608490fd5b1561531a57565b60405162461bcd60e51b815260206004820152601860248201527f4c49515549444154455f5345495a455f544f4f5f4d55434800000000000000006044820152606490fd5b1561536657565b60405162461bcd60e51b81526020600482015260146024820152731d1bdad95b881cd95a5e9d5c994819985a5b195960621b6044820152606490fd5b600554929493926153bb906001600160a01b0316610878565b60408051632fe3f38f60e11b81523060048201526001600160a01b03958616602482018190528487166044830152858716606483015260848201899052602098929690939091908990829060a49082905afa90811561090f57600091615722575b50806157105750600954420361570057855163cfa9920160e01b81528881600481875afa90811561090f576000916156e3575b5042036156d357808416908516146156c45780156156b55760001981146156a65761547b908484613e37565b96908061568c5750600554615498906001600160a01b0316610878565b855163c488847b60e01b81523060048201526001600160a01b03841660248201526044810189905295908190879060649082905afa95861561090f5760009060009761565a575b506154ea90156152ab565b80516370a0823160e01b81526001600160a01b0386166004820152918083602481875afa801561090f578761552b918b9560009161563d575b501015615313565b3084036155a457509185916141e89361557061556a7f298637f684da70674f26509b10f07ec2fbc77a335ab1e7d6215a4b2484d8bb52998989306137de565b1561535f565b516001600160a01b0395861681529585166020870152604086015290921660608401526080830191909152819060a0820190565b815163b2a02ff160e01b81526001600160a01b03868116600483015287166024820152604481018890529096919391925086816064816000865af193841561090f576155706141e8958b937f298637f684da70674f26509b10f07ec2fbc77a335ab1e7d6215a4b2484d8bb529a600092615620575b505061556a565b6156369250803d1061093c5761092e818361041a565b3880615619565b6156549150843d861161093c5761092e818361041a565b38615523565b6154ea975061567f9150823d8411615685575b615677818361041a565b810190615295565b966154df565b503d61566d565b945050505050613bf49192506156a18161146e565b612e05565b50505050509050613bf4612dd9565b50505050509050613bf4612dad565b50505050509050613bf4612d81565b5050505050509050613bf4612d55565b6156fa9150893d8b1161093c5761092e818361041a565b3861544f565b5050505050509050613bf4612d29565b95505050505050613bf49192506136ab565b6157399150893d8b1161093c5761092e818361041a565b3861541c565b1561574657565b60405162461bcd60e51b815260206004820152601860248201527f544f4b454e5f5452414e534645525f494e5f4641494c454400000000000000006044820152606490fd5b1561579257565b60405162461bcd60e51b815260206004820152601a60248201527f544f4b454e5f5452414e534645525f494e5f4f564552464c4f570000000000006044820152606490fd5b6012546040516370a0823160e01b80825230600483015260209491936001600160a01b03909316929091908585602481875afa94851561090f57600095615904575b50833b15610377576040516323b872dd60e01b81526001600160a01b03919091166004820152306024820152604481019190915260008160648183875af1801561090f576158f1575b503d8481156158e3575060201461587857600080fd5b8390816000803e61588a60005161573f565b60405190815230600482015291829060249082905afa90811561090f5761183d936000926158c6575b50506158c18282101561578b565b612e4d565b6158dc9250803d1061093c5761092e818361041a565b38806158b3565b91905061588a60001961573f565b806109096158fe926103cc565b38615862565b61591c919550863d881161093c5761092e818361041a565b9338615819565b61285a906000604051615935816103e4565b52516140d8565b9061285a916159ae565b61183d9160405191615957836103ff565b601783527f6d756c7469706c69636174696f6e206f766572666c6f7700000000000000000060208401526159e6565b1561598e5750565b60405162461bcd60e51b81529081906159aa906004830161043b565b0390fd5b6159c99092919260006040516159c3816103e4565b52614a56565b90926004841015610b195783614144576124f3929350519061410e565b9182158015615a12575b6116bf5781615a0c615a0561183d9486614a01565b9485614153565b14615986565b5081156159f056fe45b96fe442630264581b197e84bbada861235052c5a1aadfff9ea4e40a969aa0ddf252ad1be2c89b69c2b068fc378daa952ba7f163c4a11628f55a4df523b3efa2646970667358221220bee22cdf0c9742cbf71e4226ffc545557ba4d6be4c56feaa7277b49cc06c9dc964736f6c6343000817003345b96fe442630264581b197e84bbada861235052c5a1aadfff9ea4e40a969aa0","linkReferences":{}},"methodIdentifiers":{"_acceptAdmin()":"e9c714f2","_addReserves(uint256)":"3e941010","_reduceReserves(uint256)":"601a0bf1","_setComptroller(address)":"4576b5db","_setInterestRateModel(address)":"f2b3abbd","_setPendingAdmin(address)":"b71d1a0c","_setProtocolSeizeShare(uint256)":"83030846","_setReserveFactor(uint256)":"fca7820b","accrualBlockTimestamp()":"cfa99201","accrueInterest()":"a6afed95","admin()":"f851a440","allowance(address,address)":"dd62ed3e","approve(address,uint256)":"095ea7b3","balanceOf(address)":"70a08231","balanceOfUnderlying(address)":"3af9e669","borrow(uint256)":"c5ebeaec","borrowBalanceCurrent(address)":"17bfdfbc","borrowBalanceStored(address)":"95dd9193","borrowIndex()":"aa5af0fd","borrowRatePerBlock()":"f8f9da28","comptroller()":"5fe3b567","decimals()":"313ce567","exchangeRateCurrent()":"bd6d894d","exchangeRateStored()":"182df0f5","getAccountSnapshot(address)":"c37f68e2","getCash()":"3b1d21a2","initialize(address,address,address,uint256,string,string,uint8)":"1a31d465","initialize(address,address,uint256,string,string,uint8)":"99d8c1b4","interestRateModel()":"f3fdb15a","isEthDerivative()":"895dabad","isRToken()":"3630a6b5","liquidateBorrow(address,uint256,address)":"f5e3c462","mint(uint256)":"a0712d68","mintWithPermit(uint256,uint256,uint8,bytes32,bytes32)":"d0248fb4","name()":"06fdde03","pendingAdmin()":"26782247","protocolSeizeShareMantissa()":"6752e702","redeem(uint256)":"db006a75","redeemUnderlying(uint256)":"852a12e3","repayBorrow(uint256)":"0e752702","repayBorrowBehalf(address,uint256)":"2608f818","reserveFactorMantissa()":"173b9904","seize(address,address,uint256)":"b2a02ff1","supplyRatePerBlock()":"ae9d70b0","sweepToken(address)":"1be19560","symbol()":"95d89b41","totalBorrows()":"47bd3718","totalBorrowsCurrent()":"73acee98","totalReserves()":"8f840ddd","totalSupply()":"18160ddd","transfer(address,uint256)":"a9059cbb","transferFrom(address,address,uint256)":"23b872dd","underlying()":"6f307dc3"},"id":88}