{"abi":[{"type":"constructor","inputs":[],"stateMutability":"nonpayable"},{"type":"function","name":"decimals","inputs":[],"outputs":[{"name":"","type":"uint8","internalType":"uint8"}],"stateMutability":"view"},{"type":"function","name":"getRoundData","inputs":[],"outputs":[{"name":"","type":"uint80","internalType":"uint80"},{"name":"","type":"int256","internalType":"int256"},{"name":"","type":"uint256","internalType":"uint256"},{"name":"","type":"uint256","internalType":"uint256"},{"name":"","type":"uint80","internalType":"uint80"}],"stateMutability":"view"},{"type":"function","name":"getUpdatedAt","inputs":[],"outputs":[{"name":"","type":"uint256","internalType":"uint256"}],"stateMutability":"view"},{"type":"function","name":"latestRoundData","inputs":[],"outputs":[{"name":"","type":"uint80","internalType":"uint80"},{"name":"","type":"int256","internalType":"int256"},{"name":"","type":"uint256","internalType":"uint256"},{"name":"","type":"uint256","internalType":"uint256"},{"name":"","type":"uint80","internalType":"uint80"}],"stateMutability":"view"},{"type":"function","name":"price","inputs":[],"outputs":[{"name":"","type":"int256","internalType":"int256"}],"stateMutability":"view"},{"type":"function","name":"roundId","inputs":[],"outputs":[{"name":"","type":"uint8","internalType":"uint8"}],"stateMutability":"view"},{"type":"function","name":"setPrice","inputs":[{"name":"_price","type":"int256","internalType":"int256"},{"name":"_decimals","type":"uint8","internalType":"uint8"}],"outputs":[],"stateMutability":"nonpayable"},{"type":"function","name":"updatedAt","inputs":[],"outputs":[{"name":"","type":"uint256","internalType":"uint256"}],"stateMutability":"view"},{"type":"event","name":"PriceUpdated","inputs":[{"name":"newPrice","type":"int256","indexed":false,"internalType":"int256"},{"name":"updatedAt","type":"uint256","indexed":false,"internalType":"uint256"}],"anonymous":false}],"bytecode":{"object":"0x608080604052346100165761027e908161001c8239f35b600080fdfe6080604090808252600436101561001557600080fd5b600090813560e01c908163313ce567146102295750806372142a45146101e15780637519ab50146100da5780638cd221c9146101bc578063a035b1fe1461019f578063d7de9c41146100fd578063e8355853146100da5763feaf968c1461007b57600080fd5b346100d757806003193601126100d75760ff60025460081c1690600154610e0f194201904282116100c3578460a0955194855283602086015284015260608301526080820152f35b634e487b7160e01b83526011600452602483fd5b80fd5b5090346100f957816003193601126100f9576020906001549051908152f35b5080fd5b50346100d757816003193601126100d757600435916024359260ff841680940361019b5780835560025442600155600160ff86811984161760081c16019460ff86116101875761ff007fdb6fb3cf4cc5fb760bcd63b958a53b2396776dff32c063188e864296541e76bd959660081b169161ffff191617176002558151908152426020820152a180f35b634e487b7160e01b85526011600452602485fd5b8280fd5b5090346100f957816003193601126100f957602091549051908152f35b5090346100f957816003193601126100f95760209060ff60025460081c169051908152f35b50346100d757806003193601126100d75760ff60025460081c169080549260b3194201904282116100c35760a094815194855260208501528301524260608301526080820152f35b9050346100f957816003193601126100f95760209060ff600254168152f3fea2646970667358221220b5ebd3ec12deaa8db61bcd36920040200328b92d19c9fde0482f3379c855326e64736f6c63430008170033","linkReferences":{}},"methodIdentifiers":{"decimals()":"313ce567","getRoundData()":"72142a45","getUpdatedAt()":"e8355853","latestRoundData()":"feaf968c","price()":"a035b1fe","roundId()":"8cd221c9","setPrice(int256,uint8)":"d7de9c41","updatedAt()":"7519ab50"},"id":102}