{"abi":[{"type":"constructor","inputs":[{"name":"_originPriceFeed","type":"address","internalType":"address"},{"name":"_description","type":"string","internalType":"string"}],"stateMutability":"nonpayable"},{"type":"function","name":"decimals","inputs":[],"outputs":[{"name":"","type":"uint8","internalType":"uint8"}],"stateMutability":"pure"},{"type":"function","name":"description","inputs":[],"outputs":[{"name":"","type":"string","internalType":"string"}],"stateMutability":"view"},{"type":"function","name":"latestRoundData","inputs":[],"outputs":[{"name":"roundId","type":"uint80","internalType":"uint80"},{"name":"answer","type":"int256","internalType":"int256"},{"name":"startedAt","type":"uint256","internalType":"uint256"},{"name":"updatedAt","type":"uint256","internalType":"uint256"},{"name":"answeredInRound","type":"uint80","internalType":"uint80"}],"stateMutability":"view"},{"type":"function","name":"originPriceFeed","inputs":[],"outputs":[{"name":"","type":"address","internalType":"contract IProxy"}],"stateMutability":"view"},{"type":"function","name":"version","inputs":[],"outputs":[{"name":"","type":"uint256","internalType":"uint256"}],"stateMutability":"pure"}],"bytecode":{"object":"0x608060405234610213576105a48038038061001981610218565b9283398101906040818303126102135780516001600160a01b0381169190829003610213576020918282015160018060401b0392838211610213570192601f918583860112156102135784518481116101e957601f199561007f82860188168501610218565b9782895284838301011161021357839060005b8381106101ff5750506000918801015260018060a01b0319600054161760005584519283116101e95760019384548581811c911680156101df575b838210146101c957838111610183575b5081928411600114610124575050819293600092610119575b5050600019600383901b1c191690821b1790555b604051610366908161023e8239f35b0151905038806100f6565b6000858152828120918516969193925b87821061016c57505083859610610153575b505050811b01905561010a565b015160001960f88460031b161c19169055388080610146565b808785968294968601518155019501930190610134565b85600052826000208480870160051c8201928588106101c0575b0160051c019086905b8281106101b45750506100dd565b600081550186906101a6565b9250819261019d565b634e487b7160e01b600052602260045260246000fd5b90607f16906100cd565b634e487b7160e01b600052604160045260246000fd5b8181018301518a8201840152859201610092565b600080fd5b6040519190601f01601f191682016001600160401b038111838210176101e95760405256fe6080604090808252600436101561001557600080fd5b600090813560e01c908163313ce567146102dd5750806354fd4d50146102c15780636e43f229146102995780637284e416146101515763feaf968c1461005a57600080fd5b3461013b578060031936011261013b57805482516315f789a960e21b815291908390839060049082906001600160a01b03165afa801561014557819282916100ec575b5063ffffffff16804203904282116100d8578460a09551946001865260018060e01b0316601b0b602086015284015260608301526080820152f35b634e487b7160e01b83526011600452602483fd5b809350848092503d831161013e575b61010581836102f8565b8101031261013b5781519182601b0b830361013757602001519163ffffffff83168303610137579163ffffffff61009d565b5080fd5b80fd5b503d6100fb565b508251903d90823e3d90fd5b509034610137578160031936011261013757805182600193600154948560011c906001871696871561028f575b602097888410811461027b5791839189959388958652908160001461025a57506001146101fe575b50506101b892509593929503826102f8565b82519382859384528251928382860152825b8481106101e857505050828201840152601f01601f19168101030190f35b81810183015188820188015287955082016101ca565b600186527fb10e2d527612073b26eecdfd717e6a320cf44b4afac2b0732d9fcbe2b7fa0cf69492508591905b8183106102425750889450508201016101b8386101a6565b8554888401850152948501948794509183019161022a565b9150506101b894925060ff191682840152151560051b8201018692386101a6565b634e487b7160e01b86526022600452602486fd5b91607f169161017e565b509034610137578160031936011261013757905490516001600160a01b039091168152602090f35b5090346101375781600319360112610137576020905160018152f35b90503461013757816003193601126101375780601260209252f35b90601f8019910116810190811067ffffffffffffffff82111761031a57604052565b634e487b7160e01b600052604160045260246000fdfea2646970667358221220b5613ec8e9a541237d66b614d496e3c806347020096a8095d11957421346ecfa64736f6c63430008170033","linkReferences":{}},"methodIdentifiers":{"decimals()":"313ce567","description()":"7284e416","latestRoundData()":"feaf968c","originPriceFeed()":"6e43f229","version()":"54fd4d50"},"id":112}