{"abi":[{"type":"constructor","inputs":[{"name":"_token","type":"address","internalType":"contract IERC20"},{"name":"_isCEther","type":"bool","internalType":"bool"}],"stateMutability":"nonpayable"},{"type":"function","name":"allowance","inputs":[{"name":"owner","type":"address","internalType":"address"},{"name":"spender","type":"address","internalType":"address"}],"outputs":[{"name":"","type":"uint256","internalType":"uint256"}],"stateMutability":"view"},{"type":"function","name":"approve","inputs":[{"name":"spender","type":"address","internalType":"address"},{"name":"value","type":"uint256","internalType":"uint256"}],"outputs":[{"name":"","type":"bool","internalType":"bool"}],"stateMutability":"nonpayable"},{"type":"function","name":"balanceOf","inputs":[{"name":"account","type":"address","internalType":"address"}],"outputs":[{"name":"","type":"uint256","internalType":"uint256"}],"stateMutability":"view"},{"type":"function","name":"borrowBalanceCurrent","inputs":[{"name":"","type":"address","internalType":"address"}],"outputs":[{"name":"","type":"uint256","internalType":"uint256"}],"stateMutability":"pure"},{"type":"function","name":"borrowBalanceRepaid","inputs":[{"name":"","type":"address","internalType":"address"}],"outputs":[{"name":"","type":"uint256","internalType":"uint256"}],"stateMutability":"view"},{"type":"function","name":"burn","inputs":[{"name":"value","type":"uint256","internalType":"uint256"}],"outputs":[],"stateMutability":"nonpayable"},{"type":"function","name":"burnFrom","inputs":[{"name":"account","type":"address","internalType":"address"},{"name":"value","type":"uint256","internalType":"uint256"}],"outputs":[],"stateMutability":"nonpayable"},{"type":"function","name":"decimals","inputs":[],"outputs":[{"name":"","type":"uint8","internalType":"uint8"}],"stateMutability":"view"},{"type":"function","name":"effectiveExchangeRate","inputs":[],"outputs":[{"name":"","type":"uint256","internalType":"uint256"}],"stateMutability":"view"},{"type":"function","name":"error","inputs":[],"outputs":[{"name":"","type":"bool","internalType":"bool"}],"stateMutability":"view"},{"type":"function","name":"exchangeRateStored","inputs":[],"outputs":[{"name":"","type":"uint256","internalType":"uint256"}],"stateMutability":"view"},{"type":"function","name":"isCEther","inputs":[],"outputs":[{"name":"","type":"bool","internalType":"bool"}],"stateMutability":"view"},{"type":"function","name":"isCToken","inputs":[],"outputs":[{"name":"","type":"bool","internalType":"bool"}],"stateMutability":"pure"},{"type":"function","name":"mint","inputs":[],"outputs":[],"stateMutability":"payable"},{"type":"function","name":"mint","inputs":[{"name":"account","type":"address","internalType":"address"},{"name":"amount","type":"uint256","internalType":"uint256"}],"outputs":[{"name":"","type":"bool","internalType":"bool"}],"stateMutability":"nonpayable"},{"type":"function","name":"mint","inputs":[{"name":"amount","type":"uint256","internalType":"uint256"}],"outputs":[{"name":"","type":"uint256","internalType":"uint256"}],"stateMutability":"nonpayable"},{"type":"function","name":"mockBurn","inputs":[{"name":"account","type":"address","internalType":"address"},{"name":"amount","type":"uint256","internalType":"uint256"}],"outputs":[{"name":"","type":"bool","internalType":"bool"}],"stateMutability":"nonpayable"},{"type":"function","name":"name","inputs":[],"outputs":[{"name":"","type":"string","internalType":"string"}],"stateMutability":"view"},{"type":"function","name":"redeem","inputs":[{"name":"redeemAmount","type":"uint256","internalType":"uint256"}],"outputs":[{"name":"","type":"uint256","internalType":"uint256"}],"stateMutability":"nonpayable"},{"type":"function","name":"redeemUnderlying","inputs":[{"name":"redeemAmount","type":"uint256","internalType":"uint256"}],"outputs":[{"name":"","type":"uint256","internalType":"uint256"}],"stateMutability":"nonpayable"},{"type":"function","name":"repayBorrowBehalf","inputs":[{"name":"borrower","type":"address","internalType":"address"},{"name":"amt","type":"uint256","internalType":"uint256"}],"outputs":[{"name":"","type":"uint256","internalType":"uint256"}],"stateMutability":"nonpayable"},{"type":"function","name":"setError","inputs":[{"name":"_error","type":"bool","internalType":"bool"}],"outputs":[],"stateMutability":"nonpayable"},{"type":"function","name":"symbol","inputs":[],"outputs":[{"name":"","type":"string","internalType":"string"}],"stateMutability":"view"},{"type":"function","name":"token","inputs":[],"outputs":[{"name":"","type":"address","internalType":"contract IERC20"}],"stateMutability":"view"},{"type":"function","name":"totalSupply","inputs":[],"outputs":[{"name":"","type":"uint256","internalType":"uint256"}],"stateMutability":"view"},{"type":"function","name":"transfer","inputs":[{"name":"to","type":"address","internalType":"address"},{"name":"value","type":"uint256","internalType":"uint256"}],"outputs":[{"name":"","type":"bool","internalType":"bool"}],"stateMutability":"nonpayable"},{"type":"function","name":"transferFrom","inputs":[{"name":"from","type":"address","internalType":"address"},{"name":"to","type":"address","internalType":"address"},{"name":"value","type":"uint256","internalType":"uint256"}],"outputs":[{"name":"","type":"bool","internalType":"bool"}],"stateMutability":"nonpayable"},{"type":"function","name":"underlying","inputs":[],"outputs":[{"name":"","type":"address","internalType":"address"}],"stateMutability":"view"},{"type":"event","name":"Approval","inputs":[{"name":"owner","type":"address","indexed":true,"internalType":"address"},{"name":"spender","type":"address","indexed":true,"internalType":"address"},{"name":"value","type":"uint256","indexed":false,"internalType":"uint256"}],"anonymous":false},{"type":"event","name":"Transfer","inputs":[{"name":"from","type":"address","indexed":true,"internalType":"address"},{"name":"to","type":"address","indexed":true,"internalType":"address"},{"name":"value","type":"uint256","indexed":false,"internalType":"uint256"}],"anonymous":false},{"type":"error","name":"ERC20InsufficientAllowance","inputs":[{"name":"spender","type":"address","internalType":"address"},{"name":"allowance","type":"uint256","internalType":"uint256"},{"name":"needed","type":"uint256","internalType":"uint256"}]},{"type":"error","name":"ERC20InsufficientBalance","inputs":[{"name":"sender","type":"address","internalType":"address"},{"name":"balance","type":"uint256","internalType":"uint256"},{"name":"needed","type":"uint256","internalType":"uint256"}]},{"type":"error","name":"ERC20InvalidApprover","inputs":[{"name":"approver","type":"address","internalType":"address"}]},{"type":"error","name":"ERC20InvalidReceiver","inputs":[{"name":"receiver","type":"address","internalType":"address"}]},{"type":"error","name":"ERC20InvalidSender","inputs":[{"name":"sender","type":"address","internalType":"address"}]},{"type":"error","name":"ERC20InvalidSpender","inputs":[{"name":"spender","type":"address","internalType":"address"}]}],"bytecode":{"object":"0x6080346200037357601f906001600160401b0390601f196200129a388190038581018316840191908583118584101762000277578085926040948552833981010312620003735781516001600160a01b038116939084900362000373576020809301519485151580960362000373576200007862000378565b600981526826b7b1b5aa37b5b2b760b91b858201526200009762000378565b91600392838152621350d560ea1b878201528251858111620002775784546001948582811c9216801562000368575b8a83101462000352578185849311620002fc575b50899085831160011462000299576000926200028d575b505060001982871b1c191690841b1784555b8051948511620002775760049687548481811c911680156200026c575b8282101462000257578381116200020c575b5080928611600114620001a057508495509084929160009562000194575b50501b92600019911b1c19161790555b60026006556005549160ff60a81b9060a81b1691600161ff0160a01b0319161717600555604051610f019081620003998239f35b01519350388062000150565b939295859081168860005285600020956000905b89838310620001f15750505010620001d6575b50505050811b01905562000160565b01519060f884600019921b161c1916905538808080620001c7565b858701518955909701969485019488935090810190620001b4565b88600052816000208480890160051c820192848a106200024d575b0160051c019085905b8281106200024057505062000132565b6000815501859062000230565b9250819262000227565b602289634e487b7160e01b6000525260246000fd5b90607f169062000120565b634e487b7160e01b600052604160045260246000fd5b015190503880620000f1565b908987941691886000528b6000209260005b8d828210620002e55750508411620002cc575b505050811b01845562000103565b015160001983891b60f8161c19169055388080620002be565b8385015186558a97909501949384019301620002ab565b90915086600052896000208580850160051c8201928c861062000348575b918891869594930160051c01915b82811062000338575050620000da565b6000815585945088910162000328565b925081926200031a565b634e487b7160e01b600052602260045260246000fd5b91607f1691620000c6565b600080fd5b60408051919082016001600160401b03811183821017620002775760405256fe608060408181526004918236101561001657600080fd5b600092833560e01c91826306fdde0314610a1b57508163095ea7b3146109715781631249c58b1461095657816317bfdfbc1461092957816318160ddd1461090a578163182df0f5146108c25781631bb7a6e81461088457816323b872dd146108475781632608f8181461077357816330e10d9714610754578163313ce56714610738578163383617411461070057816340c10f19146106d757816342966c68146106b9578163492dc938146106905781636f307dc31461066757816370a082311461063057816379cc6790146105fd578163852a12e31461051c57816395d89b4114610417578163a0712d6814610355578163a9059cbb14610324578163ac784ddc146102fd578163c79f8b62146102d6578163db006a75146101e757508063dd62ed3e1461019f578063fc0c546a146101775763fe9c44ae1461015957600080fd5b346101735781600319360112610173576020905160018152f35b5080fd5b503461017357816003193601126101735760055490516001600160a01b039091168152602090f35b5034610173578060031936011261017357806020926101bc610b59565b6101c4610b74565b6001600160a01b0391821683526001865283832091168252845220549051908152f35b8284346102d35760203660031901126102d35782356102068133610e2c565b60018060a01b0360055416600654918281029281840414901517156102c057835163a9059cbb60e01b8152339581019586526020868101939093529485919082908590829060400103925af19283156102b457602093610287575b5060055460a01c60ff161561027e575060ff6001915b5191168152f35b60ff9091610277565b6102a690843d86116102ad575b61029e8183610b8a565b810190610be2565b5083610261565b503d610294565b509051903d90823e3d90fd5b634e487b7160e01b835260118552602483fd5b80fd5b50503461017357816003193601126101735760209060ff60055460a01c1690519015158152f35b50503461017357816003193601126101735760209060ff60055460a81c1690519015158152f35b50503461017357806003193601126101735760209061034e610344610b59565b6024359033610d67565b5160018152f35b9050346104135760203660031901126104135760055482516323b872dd60e01b81523383820190815230602080830191909152933560408201819052939192839182900360600190829088906001600160a01b03165af1801561040657602094926103d3926103cd926103e9575b5060065490610bc2565b33610c1d565b60055460a01c60ff161561027e57505160018152f35b6103ff90873d89116102ad5761029e8183610b8a565b50386103c3565b50505051903d90823e3d90fd5b8280fd5b83833461017357816003193601126101735780519180938054916001908360011c9260018516948515610512575b60209586861081146104ff578589529081156104db5750600114610483575b61047f8787610475828c0383610b8a565b5191829182610b10565b0390f35b81529295507f8a35acfbc15ff81a39ae7d344fd709f28e8600b4aa8c65c6b64bfe7fe36bd19b5b8284106104c8575050508261047f9461047592820101948680610464565b80548685018801529286019281016104aa565b60ff19168887015250505050151560051b83010192506104758261047f8680610464565b634e487b7160e01b845260228352602484fd5b93607f1693610445565b9050346104135760203660031901126104135780359061054761054160065484610bc2565b33610e2c565b47821161059057508280808093818115610587575b3390f11561057d5760209160055460a01c60ff161561027e57505160018152f35b51903d90823e3d90fd5b506108fc61055c565b600554835163a9059cbb60e01b81523392810192835260208381019490945294929185916001600160a01b03169082908590829060400103925af19283156102b4576020936105e0575b506103d3565b6105f690843d86116102ad5761029e8183610b8a565b50386105da565b505034610173573660031901126102d35761062d610619610b59565b60243590610628823383610c94565b610e2c565b80f35b5050346101735760203660031901126101735760209181906001600160a01b03610658610b59565b16815280845220549051908152f35b50503461017357816003193601126101735760055490516001600160a01b039091168152602090f35b50503461017357806003193601126101735760209061034e6106b0610b59565b60243590610e2c565b8390346101735760203660031901126101735761062d903533610e2c565b50503461017357806003193601126101735760209061034e6106f7610b59565b60243590610c1d565b5050346101735760203660031901126101735760209181906001600160a01b03610728610b59565b1681526007845220549051908152f35b5050346101735781600319360112610173576020905160128152f35b5050346101735781600319360112610173576020906006549051908152f35b905034610413578160031936011261041357916107df92610792610b59565b60055484516323b872dd60e01b8152339381019384523060208581019190915260243560408601819052919791946001600160a01b03949391928992861691839189918391606090910190565b03925af195861561083d57602096610820575b5016825260078452610808838320918254610bfa565b905560055460a01c60ff161561027e57505160018152f35b61083690873d89116102ad5761029e8183610b8a565b50386107f2565b85513d86823e3d90fd5b5050346101735760603660031901126101735760209061034e610868610b59565b610870610b74565b6044359161087f833383610c94565b610d67565b8390346101735760203660031901126101735735801515809103610173576005805460ff60a01b191660a09290921b60ff60a01b1691909117905580f35b83833461017357816003193601126101735760065491670de0b6b3a764000092808402938404036108f7576020838351908152f35b634e487b7160e01b815260118452602490fd5b5050346101735781600319360112610173576020906002549051908152f35b50503461017357602036600319011261017357602090610947610b59565b5051670de0b6b3a76400008152f35b83806003193601126102d35761062d6103cd60065434610bc2565b90503461041357816003193601126104135761098b610b59565b602435903315610a04576001600160a01b03169182156109ed57508083602095338152600187528181208582528752205582519081527f8c5be1e5ebec7d5bd14f71427d1e84f3dd0314c0f7b2291e5b200ac8c7c3b925843392a35160018152f35b8351634a1406b160e11b8152908101859052602490fd5b835163e602df0560e01b8152808401869052602490fd5b92915034610b0c5783600319360112610b0c57600354600181811c9186908281168015610b02575b6020958686108214610aef5750848852908115610acd5750600114610a74575b61047f8686610475828b0383610b8a565b929550600383527fc2575a0e9e593c00f959f8c92f12db2869c3395a3b0502d05e2516446f71f85b5b828410610aba575050508261047f94610475928201019438610a63565b8054868501880152928601928101610a9d565b60ff191687860152505050151560051b83010192506104758261047f38610a63565b634e487b7160e01b845260229052602483fd5b93607f1693610a43565b8380fd5b6020808252825181830181905290939260005b828110610b4557505060409293506000838284010152601f8019910116010190565b818101860151848201604001528501610b23565b600435906001600160a01b0382168203610b6f57565b600080fd5b602435906001600160a01b0382168203610b6f57565b90601f8019910116810190811067ffffffffffffffff821117610bac57604052565b634e487b7160e01b600052604160045260246000fd5b8115610bcc570490565b634e487b7160e01b600052601260045260246000fd5b90816020910312610b6f57518015158103610b6f5790565b91908201809211610c0757565b634e487b7160e01b600052601160045260246000fd5b6001600160a01b0316908115610c7b577fddf252ad1be2c89b69c2b068fc378daa952ba7f163c4a11628f55a4df523b3ef602082610c5f600094600254610bfa565b60025584845283825260408420818154019055604051908152a3565b60405163ec442f0560e01b815260006004820152602490fd5b9160018060a01b038093169160009383855260016020526040938486209183169182875260205284862054926000198403610cd3575b50505050505050565b848410610d3757508015610d1f578115610d0757855260016020528385209085526020520391205538808080808080610cca565b8451634a1406b160e11b815260048101879052602490fd5b845163e602df0560e01b815260048101879052602490fd5b8551637dc7a0d960e11b81526001600160a01b039190911660048201526024810184905260448101859052606490fd5b916001600160a01b03808416928315610e135716928315610c7b5760009083825281602052604082205490838210610de1575091604082827fddf252ad1be2c89b69c2b068fc378daa952ba7f163c4a11628f55a4df523b3ef958760209652828652038282205586815220818154019055604051908152a3565b60405163391434e360e21b81526001600160a01b03919091166004820152602481019190915260448101839052606490fd5b604051634b637e8f60e11b815260006004820152602490fd5b906001600160a01b038216908115610e135760009282845283602052604084205490828210610e995750817fddf252ad1be2c89b69c2b068fc378daa952ba7f163c4a11628f55a4df523b3ef926020928587528684520360408620558060025403600255604051908152a3565b60405163391434e360e21b81526001600160a01b03919091166004820152602481019190915260448101829052606490fdfea2646970667358221220c777edb338075d749ede8e11bbabcd2cedfd4ef49112513140ba8295879b71b164736f6c63430008170033","linkReferences":{}},"methodIdentifiers":{"allowance(address,address)":"dd62ed3e","approve(address,uint256)":"095ea7b3","balanceOf(address)":"70a08231","borrowBalanceCurrent(address)":"17bfdfbc","borrowBalanceRepaid(address)":"38361741","burn(uint256)":"42966c68","burnFrom(address,uint256)":"79cc6790","decimals()":"313ce567","effectiveExchangeRate()":"30e10d97","error()":"c79f8b62","exchangeRateStored()":"182df0f5","isCEther()":"ac784ddc","isCToken()":"fe9c44ae","mint()":"1249c58b","mint(address,uint256)":"40c10f19","mint(uint256)":"a0712d68","mockBurn(address,uint256)":"492dc938","name()":"06fdde03","redeem(uint256)":"db006a75","redeemUnderlying(uint256)":"852a12e3","repayBorrowBehalf(address,uint256)":"2608f818","setError(bool)":"1bb7a6e8","symbol()":"95d89b41","token()":"fc0c546a","totalSupply()":"18160ddd","transfer(address,uint256)":"a9059cbb","transferFrom(address,address,uint256)":"23b872dd","underlying()":"6f307dc3"},"id":108}