{"abi":[{"type":"constructor","inputs":[],"stateMutability":"nonpayable"},{"type":"function","name":"admin","inputs":[],"outputs":[{"name":"","type":"address","internalType":"address"}],"stateMutability":"view"},{"type":"function","name":"assetPrices","inputs":[{"name":"asset","type":"address","internalType":"address"}],"outputs":[{"name":"","type":"uint256","internalType":"uint256"}],"stateMutability":"view"},{"type":"function","name":"getUnderlyingPrice","inputs":[{"name":"hToken","type":"address","internalType":"contract HToken"}],"outputs":[{"name":"","type":"uint256","internalType":"uint256"}],"stateMutability":"view"},{"type":"function","name":"isPriceOracle","inputs":[],"outputs":[{"name":"","type":"bool","internalType":"bool"}],"stateMutability":"view"},{"type":"function","name":"setDirectPrice","inputs":[{"name":"asset","type":"address","internalType":"address"},{"name":"price","type":"uint256","internalType":"uint256"}],"outputs":[],"stateMutability":"nonpayable"},{"type":"function","name":"setUnderlyingPrice","inputs":[{"name":"hToken","type":"address","internalType":"contract HToken"},{"name":"underlyingPriceMantissa","type":"uint256","internalType":"uint256"}],"outputs":[],"stateMutability":"nonpayable"},{"type":"event","name":"PricePosted","inputs":[{"name":"asset","type":"address","indexed":false,"internalType":"address"},{"name":"previousPriceMantissa","type":"uint256","indexed":false,"internalType":"uint256"},{"name":"requestedPriceMantissa","type":"uint256","indexed":false,"internalType":"uint256"},{"name":"newPriceMantissa","type":"uint256","indexed":false,"internalType":"uint256"}],"anonymous":false}],"bytecode":{"object":"0x6080806040523461002857600180546001600160a01b03191633179055610596908161002e8239f35b600080fdfe604060808152600436101561001357600080fd5b600090813560e01c806309a8acb01461022d578063127ffda0146101095780635e9a523c146100d357806366331bba146100b8578063f851a440146100905763fc57d4df1461006157600080fd5b3461008c57602036600319011261008c576020906100856100806102bc565b61039d565b9051908152f35b5080fd5b503461008c578160031936011261008c5760015490516001600160a01b039091168152602090f35b503461008c578160031936011261008c576020905160018152f35b503461008c57602036600319011261008c5760209181906001600160a01b036100fa6102bc565b16815280845220549051908152f35b503461008c578060031936011261008c576101226102bc565b60015460243592916001600160a01b0391829160209161014590841633146102d7565b6004855180958193636f307dc360e01b8352165afa9182156102235785926101d0575b50811680855260208581528386205484516001600160a01b039094168452908301526040820184905260608201849052907fdd71a1d19fcba687442a1d5c58578f1e409af71a79d10fd95a4d66efd8fa9ae79080608081015b0390a183528260205282205580f35b7fdd71a1d19fcba687442a1d5c58578f1e409af71a79d10fd95a4d66efd8fa9ae79192506102159060203d60201161021c575b61020d8183610323565b81019061035b565b9190610168565b503d610203565b83513d87823e3d90fd5b503461008c578060031936011261008c576102466102bc565b90602435917fdd71a1d19fcba687442a1d5c58578f1e409af71a79d10fd95a4d66efd8fa9ae760018060a01b03610282816001541633146102d7565b821680865260208681528487205485516001600160a01b0390951685529084015260408301859052606083018590529180608081016101c1565b600435906001600160a01b03821682036102d257565b600080fd5b156102de57565b60405162461bcd60e51b815260206004820152601c60248201527f4f6e6c792061646d696e2063616e2073657420746865207072696365000000006044820152606490fd5b90601f8019910116810190811067ffffffffffffffff82111761034557604052565b634e487b7160e01b600052604160045260246000fd5b908160209103126102d257516001600160a01b03811681036102d25790565b60005b83811061038d5750506000910152565b818101518382015260200161037d565b604080516395d89b4160e01b81529091600091906001600160a01b039081168383600481845afa9283156104b25784936104d0575b50845185810181811067ffffffffffffffff8211176104bc57865260058152602093848201906436a3a626a960d91b8252875161042b87828161041e818301968781519384920161037a565b8101038084520182610323565b51902091610449868951809361041e8383019687925192839161037a565b51902003610462575050505050670de0b6b3a764000090565b82600491865192838092636f307dc360e01b82525afa9081156104b25790849392918491610495575b5016825252205490565b6104ac9150833d851161021c5761020d8183610323565b3861048b565b85513d86823e3d90fd5b634e487b7160e01b86526041600452602486fd5b9092503d8085833e6104e28183610323565b81019060208183031261055c57805167ffffffffffffffff91828211610558570182601f820112156105545780519182116104bc5786519261052e601f8401601f191660200185610323565b82845260208383010111610554579061054d916020808501910161037a565b91386103d2565b8580fd5b8680fd5b8480fdfea2646970667358221220baafa4847d35a4668de7145cc66a8dec94000af007558b175facdc466ef5a73864736f6c63430008170033","linkReferences":{}},"methodIdentifiers":{"admin()":"f851a440","assetPrices(address)":"5e9a523c","getUnderlyingPrice(address)":"fc57d4df","isPriceOracle()":"66331bba","setDirectPrice(address,uint256)":"09a8acb0","setUnderlyingPrice(address,uint256)":"127ffda0"},"id":95}