{"abi":[{"type":"constructor","inputs":[{"name":"name_","type":"string","internalType":"string"},{"name":"symbol_","type":"string","internalType":"string"},{"name":"decimals_","type":"uint8","internalType":"uint8"}],"stateMutability":"nonpayable"},{"type":"function","name":"DOMAIN_SEPARATOR","inputs":[],"outputs":[{"name":"result","type":"bytes32","internalType":"bytes32"}],"stateMutability":"view"},{"type":"function","name":"allowance","inputs":[{"name":"owner","type":"address","internalType":"address"},{"name":"spender","type":"address","internalType":"address"}],"outputs":[{"name":"result","type":"uint256","internalType":"uint256"}],"stateMutability":"view"},{"type":"function","name":"approve","inputs":[{"name":"spender","type":"address","internalType":"address"},{"name":"amount","type":"uint256","internalType":"uint256"}],"outputs":[{"name":"","type":"bool","internalType":"bool"}],"stateMutability":"nonpayable"},{"type":"function","name":"balanceOf","inputs":[{"name":"owner","type":"address","internalType":"address"}],"outputs":[{"name":"result","type":"uint256","internalType":"uint256"}],"stateMutability":"view"},{"type":"function","name":"burn","inputs":[{"name":"from","type":"address","internalType":"address"},{"name":"value","type":"uint256","internalType":"uint256"}],"outputs":[],"stateMutability":"nonpayable"},{"type":"function","name":"decimals","inputs":[],"outputs":[{"name":"","type":"uint8","internalType":"uint8"}],"stateMutability":"view"},{"type":"function","name":"directSpendAllowance","inputs":[{"name":"owner","type":"address","internalType":"address"},{"name":"spender","type":"address","internalType":"address"},{"name":"amount","type":"uint256","internalType":"uint256"}],"outputs":[],"stateMutability":"nonpayable"},{"type":"function","name":"directTransfer","inputs":[{"name":"from","type":"address","internalType":"address"},{"name":"to","type":"address","internalType":"address"},{"name":"amount","type":"uint256","internalType":"uint256"}],"outputs":[],"stateMutability":"nonpayable"},{"type":"function","name":"mint","inputs":[{"name":"to","type":"address","internalType":"address"},{"name":"value","type":"uint256","internalType":"uint256"}],"outputs":[],"stateMutability":"nonpayable"},{"type":"function","name":"name","inputs":[],"outputs":[{"name":"","type":"string","internalType":"string"}],"stateMutability":"view"},{"type":"function","name":"nonces","inputs":[{"name":"owner","type":"address","internalType":"address"}],"outputs":[{"name":"result","type":"uint256","internalType":"uint256"}],"stateMutability":"view"},{"type":"function","name":"permit","inputs":[{"name":"owner","type":"address","internalType":"address"},{"name":"spender","type":"address","internalType":"address"},{"name":"value","type":"uint256","internalType":"uint256"},{"name":"deadline","type":"uint256","internalType":"uint256"},{"name":"v","type":"uint8","internalType":"uint8"},{"name":"r","type":"bytes32","internalType":"bytes32"},{"name":"s","type":"bytes32","internalType":"bytes32"}],"outputs":[],"stateMutability":"nonpayable"},{"type":"function","name":"symbol","inputs":[],"outputs":[{"name":"","type":"string","internalType":"string"}],"stateMutability":"view"},{"type":"function","name":"totalSupply","inputs":[],"outputs":[{"name":"result","type":"uint256","internalType":"uint256"}],"stateMutability":"view"},{"type":"function","name":"transfer","inputs":[{"name":"to","type":"address","internalType":"address"},{"name":"amount","type":"uint256","internalType":"uint256"}],"outputs":[{"name":"","type":"bool","internalType":"bool"}],"stateMutability":"nonpayable"},{"type":"function","name":"transferFrom","inputs":[{"name":"from","type":"address","internalType":"address"},{"name":"to","type":"address","internalType":"address"},{"name":"amount","type":"uint256","internalType":"uint256"}],"outputs":[{"name":"","type":"bool","internalType":"bool"}],"stateMutability":"nonpayable"},{"type":"event","name":"Approval","inputs":[{"name":"owner","type":"address","indexed":true,"internalType":"address"},{"name":"spender","type":"address","indexed":true,"internalType":"address"},{"name":"amount","type":"uint256","indexed":false,"internalType":"uint256"}],"anonymous":false},{"type":"event","name":"Transfer","inputs":[{"name":"from","type":"address","indexed":true,"internalType":"address"},{"name":"to","type":"address","indexed":true,"internalType":"address"},{"name":"amount","type":"uint256","indexed":false,"internalType":"uint256"}],"anonymous":false},{"type":"error","name":"AllowanceOverflow","inputs":[]},{"type":"error","name":"AllowanceUnderflow","inputs":[]},{"type":"error","name":"InsufficientAllowance","inputs":[]},{"type":"error","name":"InsufficientBalance","inputs":[]},{"type":"error","name":"InvalidPermit","inputs":[]},{"type":"error","name":"PermitExpired","inputs":[]},{"type":"error","name":"TotalSupplyOverflow","inputs":[]}],"bytecode":{"object":"0x60a0604052346200032e5762000ef2803803806200001d8162000333565b92833981016060828203126200032e5781516001600160401b0391908281116200032e57816200004f91850162000359565b91602091828501518281116200032e576040916200006f91870162000359565b9401519060ff82168092036200032e57835190808211620003185760008054906001938483811c931680156200030d575b878410146200022357601f92838111620002c5575b5080878482116001146200026257839162000256575b50600019600383901b1c191690851b1781555b8751928311620002425783548481811c9116801562000237575b878210146200022357828111620001db575b5085918311600114620001785796829394959697926200016c575b5050600019600383901b1c191690821b1790555b60ff1960025416176002558151910120608052604051610b269081620003cc82396080518181816101d101526106e60152f35b01519050388062000125565b90601f198316848352868320925b818110620001c557509783859697989910620001ab575b505050811b01905562000139565b015160001960f88460031b161c191690553880806200019d565b8983015184559285019291870191870162000186565b8482528682208380860160051c82019289871062000219575b0160051c019085905b8281106200020d5750506200010a565b838155018590620001fd565b92508192620001f4565b634e487b7160e01b82526022600452602482fd5b90607f1690620000f8565b634e487b7160e01b81526041600452602490fd5b905088015138620000cb565b83805288842087935090601f198316855b8b8d838310620002af57505050831162000295575b5050811b018155620000de565b8a015160001960f88460031b161c19169055388062000288565b84015185558a9690940193928301920162000273565b8280528783208480840160051c8201928a851062000303575b0160051c019086905b828110620002f7575050620000b5565b848155018690620002e7565b92508192620002de565b92607f1692620000a0565b634e487b7160e01b600052604160045260246000fd5b600080fd5b6040519190601f01601f191682016001600160401b038111838210176200031857604052565b919080601f840112156200032e5782516001600160401b03811162000318576020906200038f601f8201601f1916830162000333565b928184528282870101116200032e5760005b818110620003b757508260009394955001015290565b8581018301518482018401528201620003a156fe60406080815260048036101561001457600080fd5b600091823560e01c90816306fdde03146108f6578163095ea7b31461088c57816318160ddd1461086557816323b872dd146107ac578163313ce5671461078a5781633644e515146106cf57816340c10f191461064e57816370a082311461061a5781637ecebe00146105e657816395d89b41146104c25781639dc29fac14610442578163a9059cbb146103be578163d30ed3b314610361578163d505accf14610195578163dd62ed3e14610157575063f83d1791146100d257600080fd5b34610153576100e036610995565b919290925a60a01b17925a60a01b17906387a211a28460601b17600c526020600c20908154908185116101485750839003905583526020600c20818154019055602052600c5160601c9060018060a01b0316600080516020610ad1833981519152602080a380f35b63f4d678b88752601cfd5b5080fd5b839034610153578060031936011261015357602091610174610964565b9061017d61097f565b8452637f5e9f20600c52526034600c20549051908152f35b839150346101535760e0366003190112610153576101b1610964565b6101b961097f565b60443590606435916084359460ff8616860361035d577f0000000000000000000000000000000000000000000000000000000000000000938415610346575b80421161033a5781519460018060a01b03809716968795169765383775081901600e52858a5260c060209788600c2094855480957f8b73c3c69bb8fe3d512ecc4cf759cc79239f7b179b0ffacaa9a75d522b39400f84528b84019081528d8985017fc89efdaa54c0f20c7adf612882df0950f5a951637e0307cdcb4c672f298b8bc68152606086019c8d469052608087019330855260a08820602e527f6e71edae12b1b97f4d1f60370fef10105fa2faae0126114a169c64845d6126c988525252898b525260a082015220604e526042602c208a5260ff16865260a435835260c435606052858060808b60015afa90873d510361032e577f8c5be1e5ebec7d5bd14f71427d1e84f3dd0314c0f7b2291e5b200ac8c7c3b9259798999a50019055866303faf4f960a51b1790526034602c2055a380f35b8a63ddafbaef8b52601cfd5b88631a15a3cc8952601cfd5b93506103506109ca565b60208151910120936101f8565b8680fd5b5050346101535761037136610995565b91905a905a60a01b17602052637f5e9f20600c5260a01b1783526034600c2091825490600182016103a0578480f35b8183116103b35750039055388080808480f35b6313be252b8552601cfd5b9050823461043f578160031936011261043f576103d9610964565b90602435915a60a01b17906387a211a2600c5233815260209485600c2090815490818611610434575084900390555282600c208181540190558252600c5160601c33600080516020610ad18339815191528480a35160018152f35b63f4d678b88452601cfd5b80fd5b839150346101535736600319011261043f5761045c610964565b602435905a60a01b17906387a211a2600c528183526020600c208054948583116104b757508184950390556805345cdf77eb68f44c818154039055825260018060a01b0316600080516020610ad1833981519152602083a380f35b63f4d678b88552601cfd5b839150346101535781600319360112610153578051908260018054908160011c90600183169283156105dc575b60209384841081146105c9578388529081156105ad5750600114610557575b505050829003601f01601f191682019267ffffffffffffffff841183851017610544575082918261054092528261091b565b0390f35b634e487b7160e01b815260418552602490fd5b600187529192508591837fb10e2d527612073b26eecdfd717e6a320cf44b4afac2b0732d9fcbe2b7fa0cf65b838510610599575050505083010185808061050e565b805488860183015293019284908201610583565b60ff1916878501525050151560051b840101905085808061050e565b634e487b7160e01b895260228a52602489fd5b91607f16916104ef565b83903461015357602036600319011261015357602091610604610964565b906338377508600c525281600c20549051908152f35b83903461015357602036600319011261015357602091610638610964565b906387a211a2600c525281600c20549051908152f35b9050346106cb5736600319011261015357610667610964565b90602435915a60a01b17906805345cdf77eb68f44c8054918483019283106106c05750556387a211a2600c5282526020600c20818154019055602052600c5160601c81600080516020610ad1833981519152602080a380f35b63e5cfe9578652601cfd5b8280fd5b8390346101535781600319360112610153576020907f00000000000000000000000000000000000000000000000000000000000000008015610772575b60a0908251907f8b73c3c69bb8fe3d512ecc4cf759cc79239f7b179b0ffacaa9a75d522b39400f8252848201527fc89efdaa54c0f20c7adf612882df0950f5a951637e0307cdcb4c672f298b8bc683820152466060820152306080820152209051908152f35b5060a061077d6109ca565b838151910120905061070c565b83903461015357816003193601126101535760209060ff600254169051908152f35b9050823461043f576107bd36610995565b9092915a60a01b17925a60a01b178360601b92602096338852600c94637f5e9f208117865260348620805460018101610842575b50506387a211a217855287852090815490818611610434575084900390555284822080548201905584525160601c906001600160a01b0316600080516020610ad18339815191528480a35160018152f35b8087116108595786900390556387a211a28a6107f1565b836313be252b8652601cfd5b8390346101535781600319360112610153576020906805345cdf77eb68f44c549051908152f35b8390346101535780600319360112610153576020916108a9610964565b602435908452637f5e9f20600c52338252806034600c20558152602c5160601c907f8c5be1e5ebec7d5bd14f71427d1e84f3dd0314c0f7b2291e5b200ac8c7c3b925843392a35160018152f35b839034610153578160031936011261015357610540906109146109ca565b9051918291825b6020808252825181830181905290939260005b82811061095057505060409293506000838284010152601f8019910116010190565b81810186015184820160400152850161092e565b600435906001600160a01b038216820361097a57565b600080fd5b602435906001600160a01b038216820361097a57565b606090600319011261097a576001600160a01b0390600435828116810361097a5791602435908116810361097a579060443590565b604051906000805460018160011c9060018316928315610ac6575b6020938484108114610ab257838852908115610a965750600114610a41575b505050829003601f01601f1916820167ffffffffffffffff811183821017610a2b57604052565b634e487b7160e01b600052604160045260246000fd5b6000808052929350837f290decd9548b62a8d60345a988386fc84ba6bc95484008f6362f93160ef3e5635b838510610a825750505050830101388080610a04565b805488860183015293019284908201610a6c565b60ff1916878501525050151560051b8401019050388080610a04565b634e487b7160e01b86526022600452602486fd5b91607f16916109e556feddf252ad1be2c89b69c2b068fc378daa952ba7f163c4a11628f55a4df523b3efa2646970667358221220ef23367882d1be654328a44a495ac4d5c385d2fec401b57174f217f4244e0f0564736f6c63430008170033","linkReferences":{}},"methodIdentifiers":{"DOMAIN_SEPARATOR()":"3644e515","allowance(address,address)":"dd62ed3e","approve(address,uint256)":"095ea7b3","balanceOf(address)":"70a08231","burn(address,uint256)":"9dc29fac","decimals()":"313ce567","directSpendAllowance(address,address,uint256)":"d30ed3b3","directTransfer(address,address,uint256)":"f83d1791","mint(address,uint256)":"40c10f19","name()":"06fdde03","nonces(address)":"7ecebe00","permit(address,address,uint256,uint256,uint8,bytes32,bytes32)":"d505accf","symbol()":"95d89b41","totalSupply()":"18160ddd","transfer(address,uint256)":"a9059cbb","transferFrom(address,address,uint256)":"23b872dd"},"id":99}