{"abi":[{"type":"function","name":"accrualBlockTimestamp","inputs":[],"outputs":[{"name":"","type":"uint256","internalType":"uint256"}],"stateMutability":"view"},{"type":"function","name":"admin","inputs":[],"outputs":[{"name":"","type":"address","internalType":"address payable"}],"stateMutability":"view"},{"type":"function","name":"borrowIndex","inputs":[],"outputs":[{"name":"","type":"uint256","internalType":"uint256"}],"stateMutability":"view"},{"type":"function","name":"comptroller","inputs":[],"outputs":[{"name":"","type":"address","internalType":"contract ComptrollerInterface"}],"stateMutability":"view"},{"type":"function","name":"decimals","inputs":[],"outputs":[{"name":"","type":"uint8","internalType":"uint8"}],"stateMutability":"view"},{"type":"function","name":"interestRateModel","inputs":[],"outputs":[{"name":"","type":"address","internalType":"contract InterestRateModel"}],"stateMutability":"view"},{"type":"function","name":"name","inputs":[],"outputs":[{"name":"","type":"string","internalType":"string"}],"stateMutability":"view"},{"type":"function","name":"pendingAdmin","inputs":[],"outputs":[{"name":"","type":"address","internalType":"address payable"}],"stateMutability":"view"},{"type":"function","name":"protocolSeizeShareMantissa","inputs":[],"outputs":[{"name":"","type":"uint256","internalType":"uint256"}],"stateMutability":"view"},{"type":"function","name":"reserveFactorMantissa","inputs":[],"outputs":[{"name":"","type":"uint256","internalType":"uint256"}],"stateMutability":"view"},{"type":"function","name":"symbol","inputs":[],"outputs":[{"name":"","type":"string","internalType":"string"}],"stateMutability":"view"},{"type":"function","name":"totalBorrows","inputs":[],"outputs":[{"name":"","type":"uint256","internalType":"uint256"}],"stateMutability":"view"},{"type":"function","name":"totalReserves","inputs":[],"outputs":[{"name":"","type":"uint256","internalType":"uint256"}],"stateMutability":"view"},{"type":"function","name":"totalSupply","inputs":[],"outputs":[{"name":"","type":"uint256","internalType":"uint256"}],"stateMutability":"view"}],"bytecode":{"object":"0x60808060405234610016576104e0908161001c8239f35b600080fdfe608060408181526004918236101561001657600080fd5b600092833560e01c91826306fdde031461038757508163173b99041461036857816318160ddd14610349578163267822471461031d578163313ce567146102fb57816347bd3718146102dc5781635fe3b567146102b35781636752e702146102945781638f840ddd1461027557816395d89b411461015257508063aa5af0fd14610134578063cfa9920114610116578063f3fdb15a146100ee5763f851a440146100bf57600080fd5b346100ea57816003193601126100ea57600354905160089190911c6001600160a01b03168152602090f35b5080fd5b50346100ea57816003193601126100ea5760065490516001600160a01b039091168152602090f35b50346100ea57816003193601126100ea576020906009549051908152f35b50346100ea57816003193601126100ea57602090600a549051908152f35b8383346100ea57816003193601126100ea578051908260025460018160011c906001831692831561026b575b60209384841081146102585783885290811561023c57506001146101e6575b505050829003601f01601f191682019267ffffffffffffffff8411838510176101d357508291826101cf925282610461565b0390f35b634e487b7160e01b815260418552602490fd5b600287529192508591837f405787fa12a823e0f2b7631cc41b3ba8828b3321ca811111fa75cd3aa3bb5ace5b838510610228575050505083010185808061019d565b805488860183015293019284908201610212565b60ff1916878501525050151560051b840101905085808061019d565b634e487b7160e01b895260228a52602489fd5b91607f169161017e565b5050346100ea57816003193601126100ea57602090600c549051908152f35b5050346100ea57816003193601126100ea576020906011549051908152f35b5050346100ea57816003193601126100ea5760055490516001600160a01b039091168152602090f35b5050346100ea57816003193601126100ea57602090600b549051908152f35b5050346100ea57816003193601126100ea5760209060ff600354169051908152f35b9050346103455782600319360112610345575490516001600160a01b03909116815260209150f35b8280fd5b5050346100ea57816003193601126100ea57602090600d549051908152f35b5050346100ea57816003193601126100ea576020906008549051908152f35b849084346103455782600319360112610345578260018054908160011c9060018316928315610457575b60209384841081146102585783885290811561023c575060011461040157505050829003601f01601f191682019267ffffffffffffffff8411838510176101d357508291826101cf925282610461565b600187529192508591837fb10e2d527612073b26eecdfd717e6a320cf44b4afac2b0732d9fcbe2b7fa0cf65b838510610443575050505083010185808061019d565b80548886018301529301928490820161042d565b91607f16916103b1565b6020808252825181830181905290939260005b82811061049657505060409293506000838284010152601f8019910116010190565b81810186015184820160400152850161047456fea26469706673582212206108bf90369564ddd0fe17a5164d59794ec432552cc08dc7aea09feb5f412f3a64736f6c63430008170033","linkReferences":{}},"methodIdentifiers":{"accrualBlockTimestamp()":"cfa99201","admin()":"f851a440","borrowIndex()":"aa5af0fd","comptroller()":"5fe3b567","decimals()":"313ce567","interestRateModel()":"f3fdb15a","name()":"06fdde03","pendingAdmin()":"26782247","protocolSeizeShareMantissa()":"6752e702","reserveFactorMantissa()":"173b9904","symbol()":"95d89b41","totalBorrows()":"47bd3718","totalReserves()":"8f840ddd","totalSupply()":"18160ddd"},"id":79}