{"abi":[{"type":"function","name":"underlying","inputs":[],"outputs":[{"name":"","type":"address","internalType":"address"}],"stateMutability":"view"}],"bytecode":{"object":"0x608080604052346014576082908161001a8239f35b600080fdfe6080806040526004361015601257600080fd5b600090813560e01c636f307dc314602857600080fd5b346048578160031936011260485790546001600160a01b03168152602090f35b5080fdfea264697066735822122019ba08333b29b3d67cf8d4af6c472e3f5ed3a9c016e34fe8a0c434e33fc70e7d64736f6c63430008170033","linkReferences":{}},"methodIdentifiers":{"underlying()":"6f307dc3"},"id":79}