{"abi":[{"type":"function","name":"accountAssets","inputs":[{"name":"","type":"address","internalType":"address"},{"name":"","type":"uint256","internalType":"uint256"}],"outputs":[{"name":"","type":"address","internalType":"contract HToken"}],"stateMutability":"view"},{"type":"function","name":"admin","inputs":[],"outputs":[{"name":"","type":"address","internalType":"address"}],"stateMutability":"view"},{"type":"function","name":"allMarkets","inputs":[{"name":"","type":"uint256","internalType":"uint256"}],"outputs":[{"name":"","type":"address","internalType":"contract HToken"}],"stateMutability":"view"},{"type":"function","name":"borrowCapGuardian","inputs":[],"outputs":[{"name":"","type":"address","internalType":"address"}],"stateMutability":"view"},{"type":"function","name":"borrowCaps","inputs":[{"name":"","type":"address","internalType":"address"}],"outputs":[{"name":"","type":"uint256","internalType":"uint256"}],"stateMutability":"view"},{"type":"function","name":"borrowGuardianPaused","inputs":[{"name":"","type":"address","internalType":"address"}],"outputs":[{"name":"","type":"bool","internalType":"bool"}],"stateMutability":"view"},{"type":"function","name":"closeFactorMantissa","inputs":[],"outputs":[{"name":"","type":"uint256","internalType":"uint256"}],"stateMutability":"view"},{"type":"function","name":"comptrollerImplementation","inputs":[],"outputs":[{"name":"","type":"address","internalType":"address"}],"stateMutability":"view"},{"type":"function","name":"liquidationIncentiveMantissa","inputs":[],"outputs":[{"name":"","type":"uint256","internalType":"uint256"}],"stateMutability":"view"},{"type":"function","name":"markets","inputs":[{"name":"","type":"address","internalType":"address"}],"outputs":[{"name":"isListed","type":"bool","internalType":"bool"},{"name":"collateralFactorMantissa","type":"uint256","internalType":"uint256"}],"stateMutability":"view"},{"type":"function","name":"mintGuardianPaused","inputs":[{"name":"","type":"address","internalType":"address"}],"outputs":[{"name":"","type":"bool","internalType":"bool"}],"stateMutability":"view"},{"type":"function","name":"oracle","inputs":[],"outputs":[{"name":"","type":"address","internalType":"contract PriceOracle"}],"stateMutability":"view"},{"type":"function","name":"pauseGuardian","inputs":[],"outputs":[{"name":"","type":"address","internalType":"address"}],"stateMutability":"view"},{"type":"function","name":"pendingAdmin","inputs":[],"outputs":[{"name":"","type":"address","internalType":"address"}],"stateMutability":"view"},{"type":"function","name":"pendingComptrollerImplementation","inputs":[],"outputs":[{"name":"","type":"address","internalType":"address"}],"stateMutability":"view"},{"type":"function","name":"rewardDistributor","inputs":[],"outputs":[{"name":"","type":"address","internalType":"contract IMultiRewardDistributor"}],"stateMutability":"view"},{"type":"function","name":"seizeGuardianPaused","inputs":[],"outputs":[{"name":"","type":"bool","internalType":"bool"}],"stateMutability":"view"},{"type":"function","name":"supplyCapGuardian","inputs":[],"outputs":[{"name":"","type":"address","internalType":"address"}],"stateMutability":"view"},{"type":"function","name":"supplyCaps","inputs":[{"name":"","type":"address","internalType":"address"}],"outputs":[{"name":"","type":"uint256","internalType":"uint256"}],"stateMutability":"view"},{"type":"function","name":"transferGuardianPaused","inputs":[],"outputs":[{"name":"","type":"bool","internalType":"bool"}],"stateMutability":"view"}],"bytecode":{"object":"0x608080604052346100165761051a908161001c8239f35b600080fdfe60806040818152600436101561001457600080fd5b600091823560e01c90816302c3bcbb146104955750806321af45691461046d57806324a3d62214610445578063267822471461041d5780634a584432146103e65780634ada90af146103c857806352d84d1e1461036c5780636d154ea51461032f578063731f0c2b146102f25780637dc0d1d0146102ca57806387f76303146102a45780638e8f294b1461025e578063a979f0c514610236578063ac0b0bb714610210578063acc2166a146101e8578063bb82aa5e146101c0578063dce154491461016e578063dcfbc0c714610146578063e8755446146101285763f851a440146100fe57600080fd5b34610124578160031936011261012457905490516001600160a01b039091168152602090f35b5080fd5b50346101245781600319360112610124576020906005549051908152f35b503461012457816003193601126101245760035490516001600160a01b039091168152602090f35b50346101245780600319360112610124576101876104c9565b6001600160a01b0390811683526007602052818320805460243591908210156101bc5784526020938490200154915191168152f35b8480fd5b503461012457816003193601126101245760025490516001600160a01b039091168152602090f35b503461012457816003193601126101245760115490516001600160a01b039091168152602090f35b503461012457816003193601126101245760209060ff60095460a81c1690519015158152f35b5034610124578160031936011261012457600e5490516001600160a01b039091168152602090f35b5034610124576020366003190112610124579081906001600160a01b036102836104c9565b168152600860205220600160ff825416910154825191151582526020820152f35b503461012457816003193601126101245760209060ff60095460a01c1690519015158152f35b503461012457816003193601126101245760045490516001600160a01b039091168152602090f35b50346101245760203660031901126101245760209160ff9082906001600160a01b0361031c6104c9565b168152600a855220541690519015158152f35b50346101245760203660031901126101245760209160ff9082906001600160a01b036103596104c9565b168152600b855220541690519015158152f35b503461012457602036600319011261012457600435600c548110156103c457600c6020935260018060a01b03907fdf6966c971051c3d54ec59162606531493a51404a002842f56009d7e5cf4a8c70154169051908152f35b8280fd5b50346101245781600319360112610124576020906006549051908152f35b50346101245760203660031901126101245760209181906001600160a01b0361040d6104c9565b168152600f845220549051908152f35b503461012457816003193601126101245760015490516001600160a01b039091168152602090f35b503461012457816003193601126101245760095490516001600160a01b039091168152602090f35b5034610124578160031936011261012457600d5490516001600160a01b039091168152602090f35b919050346103c45760203660031901126103c4576020926001600160a01b036104bc6104c9565b1681526010845220548152f35b600435906001600160a01b03821682036104df57565b600080fdfea2646970667358221220a41e20f28f482045aac79d11ee04cf3a9ff21595e23bdf403ca8b025bfbbdaaf64736f6c63430008170033","linkReferences":{}},"methodIdentifiers":{"accountAssets(address,uint256)":"dce15449","admin()":"f851a440","allMarkets(uint256)":"52d84d1e","borrowCapGuardian()":"21af4569","borrowCaps(address)":"4a584432","borrowGuardianPaused(address)":"6d154ea5","closeFactorMantissa()":"e8755446","comptrollerImplementation()":"bb82aa5e","liquidationIncentiveMantissa()":"4ada90af","markets(address)":"8e8f294b","mintGuardianPaused(address)":"731f0c2b","oracle()":"7dc0d1d0","pauseGuardian()":"24a3d622","pendingAdmin()":"26782247","pendingComptrollerImplementation()":"dcfbc0c7","rewardDistributor()":"acc2166a","seizeGuardianPaused()":"ac0b0bb7","supplyCapGuardian()":"a979f0c5","supplyCaps(address)":"02c3bcbb","transferGuardianPaused()":"87f76303"},"id":69}