{"abi":[{"type":"function","name":"admin","inputs":[],"outputs":[{"name":"","type":"address","internalType":"address"}],"stateMutability":"view"},{"type":"function","name":"comptrollerImplementation","inputs":[],"outputs":[{"name":"","type":"address","internalType":"address"}],"stateMutability":"view"},{"type":"function","name":"pendingAdmin","inputs":[],"outputs":[{"name":"","type":"address","internalType":"address"}],"stateMutability":"view"},{"type":"function","name":"pendingComptrollerImplementation","inputs":[],"outputs":[{"name":"","type":"address","internalType":"address"}],"stateMutability":"view"}],"bytecode":{"object":"0x608080604052346100165761011a908161001c8239f35b600080fdfe6080806040526004361015601257600080fd5b600090813560e01c908163267822471460bd57508063bb82aa5e146096578063dcfbc0c714606f5763f851a44014604857600080fd5b34606c5780600319360112606c57546040516001600160a01b039091168152602090f35b80fd5b5034606c5780600319360112606c576003546040516001600160a01b039091168152602090f35b5034606c5780600319360112606c576002546040516001600160a01b039091168152602090f35b90503460e0578160031936011260e0576001546001600160a01b03168152602090f35b5080fdfea2646970667358221220e926aa0beb5791974fa82b9b4f82fc8c95b8b2f5049193fbf8b5f5d35a24a79e64736f6c63430008170033","linkReferences":{}},"methodIdentifiers":{"admin()":"f851a440","comptrollerImplementation()":"bb82aa5e","pendingAdmin()":"26782247","pendingComptrollerImplementation()":"dcfbc0c7"},"id":69}