{"abi":[{"type":"constructor","inputs":[{"name":"_deployerAddress","type":"address","internalType":"address"},{"name":"_multisigWallet","type":"address","internalType":"address"},{"name":"_RTOKEN_IMPLEMENTATION","type":"address","internalType":"address"},{"name":"_comptrollerProxy","type":"address","internalType":"address"},{"name":"_unitroller","type":"address","internalType":"address"},{"name":"_oracle","type":"address","internalType":"address"}],"stateMutability":"nonpayable"},{"type":"function","name":"RTOKEN_IMPLEMENTATION","inputs":[],"outputs":[{"name":"","type":"address","internalType":"address"}],"stateMutability":"view"},{"type":"function","name":"assets","inputs":[{"name":"","type":"address","internalType":"address"}],"outputs":[{"name":"interestModel","type":"address","internalType":"address"},{"name":"market","type":"address","internalType":"address"},{"name":"priceFeed","type":"address","internalType":"address"}],"stateMutability":"view"},{"type":"function","name":"comptrollerProxy","inputs":[],"outputs":[{"name":"","type":"address","internalType":"contract Comptroller"}],"stateMutability":"view"},{"type":"function","name":"deployAsset","inputs":[{"name":"underlyingAsset","type":"address","internalType":"address"},{"name":"name","type":"string","internalType":"string"},{"name":"symbol","type":"string","internalType":"string"},{"name":"decimals","type":"uint8","internalType":"uint8"},{"name":"initialExchangeRateMantissa","type":"uint256","internalType":"uint256"},{"name":"collateralFactor","type":"uint256","internalType":"uint256"},{"name":"reserveFactor","type":"uint256","internalType":"uint256"},{"name":"seizeShare","type":"uint256","internalType":"uint256"},{"name":"supplyCap","type":"uint256","internalType":"uint256"},{"name":"borrowCap","type":"uint256","internalType":"uint256"},{"name":"chainlinkAggregator","type":"address","internalType":"address"},{"name":"baseRatePerYear","type":"uint256","internalType":"uint256"},{"name":"multiplierPerYear","type":"uint256","internalType":"uint256"},{"name":"jumpMultiplierPerYear","type":"uint256","internalType":"uint256"},{"name":"kink","type":"uint256","internalType":"uint256"}],"outputs":[{"name":"","type":"address","internalType":"address"}],"stateMutability":"nonpayable"},{"type":"function","name":"deployerAddress","inputs":[],"outputs":[{"name":"","type":"address","internalType":"address"}],"stateMutability":"view"},{"type":"function","name":"multisigWallet","inputs":[],"outputs":[{"name":"","type":"address","internalType":"address"}],"stateMutability":"view"},{"type":"function","name":"oracle","inputs":[],"outputs":[{"name":"","type":"address","internalType":"contract CompositeOracle"}],"stateMutability":"view"},{"type":"function","name":"transferOwnership","inputs":[],"outputs":[],"stateMutability":"nonpayable"},{"type":"function","name":"unitroller","inputs":[],"outputs":[{"name":"","type":"address","internalType":"contract Unitroller"}],"stateMutability":"view"}],"bytecode":{"object":"0x6080346100eb57601f620030f838819003918201601f19168301916001600160401b038311848410176100f05780849260c0946040528339810103126100eb5761004881610106565b9061005560208201610106565b61006160408301610106565b61006d60608401610106565b9261008660a061007f60808401610106565b9201610106565b9260018060a01b03948580948180948160018060a01b03199b168b60005416176000551689600154161760015516876002541617600255168560045416176004551683600554161760055516906003541617600355604051612fdd90816200011b8239f35b600080fd5b634e487b7160e01b600052604160045260246000fd5b51906001600160a01b03821682036100eb5756fe60808060405260043610156200001457600080fd5b600090813560e01c9081634cbfb08a1462000c33575080635225050514620002be5780637dc0d1d01462000293578063880ad0af14620001965780639075becf146200016b578063bad1d3da1462000140578063efdee94f1462000117578063f07ebb9e14620000ec5763f11b8188146200008e57600080fd5b34620000e9576020366003190112620000e9576060906001600160a01b039060409082620000bb62000c5a565b1681526006602052208181541691600281600184015416920154169060405192835260208301526040820152f35b80fd5b5034620000e95780600319360112620000e9576002546040516001600160a01b039091168152602090f35b5034620000e95780600319360112620000e957546040516001600160a01b039091168152602090f35b5034620000e95780600319360112620000e9576005546040516001600160a01b039091168152602090f35b5034620000e95780600319360112620000e9576001546040516001600160a01b039091168152602090f35b5034620000e95780600319360112620000e957600554600154604051632dc7468360e21b81526001600160a01b039182166004820152839260209082906024908290879087165af1801562000288576200024e575b5080600354169060015416813b156200024a57829160248392604051948593849263f2fde38b60e01b845260048401525af180156200023f576200022c5750f35b620002379062000c71565b620000e95780f35b6040513d84823e3d90fd5b5050fd5b6020809293503d831162000280575b62000269818362000ca3565b810103126200027b57819038620001eb565b600080fd5b503d6200025d565b6040513d85823e3d90fd5b5034620000e95780600319360112620000e9576003546040516001600160a01b039091168152602090f35b5034620000e9576101e0366003190112620000e957620002dd62000c5a565b60243567ffffffffffffffff811162000ad2576200030090369060040162000cc6565b60443567ffffffffffffffff811162000ab6576200032390369060040162000cc6565b916064359260ff8416840362000ab25761014435926001600160a01b038416840362000c27576005546040516374e38a7960e11b815290602090829060049082908b906001600160a01b03165af1801562000a6b5762000bfe575b506040516104868082019082821067ffffffffffffffff83111762000bea57608091839162002b2283396101643581526101843560208201526101a43560408201526101c435606082015203019087f0918215620009c3576004548754600254604051946001600160a01b039283169491831693919290911667ffffffffffffffff611d0087019081119087111762000bd65760209492620004658795936200047c93611d0062000e2289396001600160a01b038c8116611d008a019081528a8101929092528b166040820152608435606082015261014060808201819052019062000d22565b90611d008601820360a0611d008801015262000d22565b9160ff8a1660c0611d008601015260e0611d0085010152610100611d0084010152611d0082018103610120611d008401015288815203019086f093841562000b16576003546001600160a01b0316908690823b1562000bd257604051630b8acde760e41b81526001600160a01b0388811660048301528616602482015260ff919091166044820152918290606490829084905af18015620009c35762000bbc575b506040516200052c8162000c86565b60018152602036818301376001600160a01b038416906200054d9062000d64565b52600480546040516353b59fed60e11b81526001600160a01b038781169382019390935291602091839160249183918b91165af18015620009c35762000b8b575b50846040516200059e8162000c86565b600181526020368183013760405190620005b88262000c86565b600182526020368184013760405191620005d28362000c86565b60018352602036818501376001600160a01b038816620005f28362000d64565b5261010435620006028262000d64565b5261012435620006128462000d64565b5260405163fca7820b60e01b815260c4356004820152602081602481886001600160a01b038e165af1801562000b165762000b56575b50604051634181842360e11b815260e4356004820152602081602481886001600160a01b038e165af1801562000b165762000b21575b5060048054604051637201477760e11b81526001600160a01b038b81169382019390935260a435602482015291602091839160449183918a91165af1801562000b165762000ae1575b506004546001600160a01b0316803b1562000ab257604051631469217960e21b815291859183918290849082906200070490896004840162000d88565b03925af190811562000ad657849162000aba575b50506004546001600160a01b031691823b1562000ab657620007549284928360405180968195829463607ef6c160e01b84526004840162000d88565b03925af180156200023f5762000a9a575b505060405163095ea7b360e01b8082526001600160a01b03868116600484015260016024840152909190602090829060449082908b9089165af1801562000a6b5762000a76575b5060405163140e25ad60e31b8152600160048201526020816024818a6001600160a01b038b165af1801562000a6b5762000a3a575b506040519081526004810186905260016024820152602081604481896001600160a01b038a165af18015620009c35762000a16575b5060405163a9059cbb60e01b81526004810186905260016024820152602081604481896001600160a01b038a165af18015620009c357620009f2575b50600480546040516318c882a560e01b81526001600160a01b03878116938201939093526001602482015291602091839160449183918b91165af18015620009c357620009ce575b5060048054604051633bcf7ec160e01b81526001600160a01b03878116938201939093526001602482015291602091839160449183918b91165af18015620009c3576200098d575b506040516060810181811067ffffffffffffffff821117620009775760409081526001600160a01b039283168252948216602082810182815295841683880190815294841688526006815296869020915182546001600160a01b031990811691851691909117835594516001830180548716918516919091179055925160029190910180549094169116179091559051908152f35b634e487b7160e01b600052604160045260246000fd5b620009b39060203d602011620009bb575b620009aa818362000ca3565b81019062000e07565b5038620008e2565b503d6200099e565b6040513d88823e3d90fd5b620009ea9060203d602011620009bb57620009aa818362000ca3565b50386200089a565b62000a0e9060203d602011620009bb57620009aa818362000ca3565b503862000852565b62000a329060203d602011620009bb57620009aa818362000ca3565b503862000816565b602090813d831162000a63575b62000a53818362000ca3565b810103126200027b5738620007e1565b503d62000a47565b6040513d89823e3d90fd5b62000a929060203d602011620009bb57620009aa818362000ca3565b5038620007ac565b62000aa59062000c71565b62000ab257843862000765565b8480fd5b8380fd5b62000ac59062000c71565b62000ad257823862000718565b8280fd5b6040513d86823e3d90fd5b6020809295503d831162000b0e575b62000afc818362000ca3565b810103126200027b57879238620006c7565b503d62000af0565b6040513d87823e3d90fd5b6020809295503d831162000b4e575b62000b3c818362000ca3565b810103126200027b578792386200067e565b503d62000b30565b6020809295503d831162000b83575b62000b71818362000ca3565b810103126200027b5787923862000648565b503d62000b65565b602090813d831162000bb4575b62000ba4818362000ca3565b810103126200027b57386200058e565b503d62000b98565b62000bca9095919562000c71565b93386200051d565b5080fd5b634e487b7160e01b8b52604160045260248bfd5b634e487b7160e01b89526041600452602489fd5b602090813d831162000c2b575b62000c17818362000ca3565b8101031262000c2757386200037e565b8580fd5b503d62000c0b565b90503462000bd2578160031936011262000bd2576004546001600160a01b03168152602090f35b600435906001600160a01b03821682036200027b57565b67ffffffffffffffff81116200097757604052565b6040810190811067ffffffffffffffff8211176200097757604052565b90601f8019910116810190811067ffffffffffffffff8211176200097757604052565b81601f820112156200027b5780359067ffffffffffffffff821162000977576040519262000cff601f8401601f19166020018562000ca3565b828452602083830101116200027b57816000926020809301838601378301015290565b919082519283825260005b84811062000d4f575050826000602080949584010152601f8019910116010190565b60208183018101518483018201520162000d2d565b80511562000d725760200190565b634e487b7160e01b600052603260045260246000fd5b6040810190604081528251809252606081019160208094019060005b81811062000de9575050508281830391015281808451928381520193019160005b82811062000dd4575050505090565b83518552938101939281019260010162000dc5565b82516001600160a01b03168552938501939185019160010162000da4565b908160209103126200027b575180151581036200027b579056fe60808060405234620000e85762001d0080380380916200001f8262000103565b83396101408183019112620000e8576200003862000166565b906200004362000177565b926200004e62000186565b60e051610100516001600160401b0396929190878111620000e8578562000077918601620001f6565b9061012051888111620000e8578662000092918701620001f6565b926200009d62000243565b94620000a862000195565b96620000b3620001a5565b986101a0519b8c11620000e857620000d89b620000d19201620001f6565b986200027c565b6040516117e490816200051c8239f35b600080fd5b634e487b7160e01b600052604160045260246000fd5b6080601f91909101601f19168101906001600160401b038211908210176200012a57604052565b620000ed565b601f909101601f19168101906001600160401b038211908210176200012a57604052565b6001600160a01b03811603620000e857565b60805190620001758262000154565b565b60a05190620001758262000154565b60c05190620001758262000154565b6101605190620001758262000154565b6101805190620001758262000154565b6001600160401b0381116200012a57601f01601f191660200190565b60005b838110620001e55750506000910152565b8181015183820152602001620001d4565b81601f82011215620000e85780516200020f81620001b5565b926200021f604051948562000130565b81845260208284010111620000e857620002409160208085019101620001d1565b90565b610140519060ff82168203620000e857565b906020916200027081518092818552858086019101620001d1565b601f01601f1916010190565b60038054610100600160a81b0319163360081b610100600160a81b0316179055604051631a31d46560e01b60208201526001600160a01b0391821660248201529181166044830152919091166064820152608481019190915260e060a482015262000175969495620003499594909362000342936200033b928492909160ff916200032591620003129061010487019062000255565b8581036023190160c48701529062000255565b911660e483015203601f19810183528262000130565b8262000370565b50620003d9565b60038054610100600160a81b03191660089290921b610100600160a81b0316919091179055565b6000918291602082519201905af43d15620003bd573d906200039282620001b5565b91620003a2604051938462000130565b82523d6000602084013e5b15620003b65790565b60203d9101fd5b606090620003ad565b9060206200024092818152019062000255565b6003546001600160a01b039060081c81163303620004b057620004756200048e91620004847fd604de94d45953f9138079ec1b82d533cb2160c906d1076d1f7ed54befbca97a95620004586200043660135460018060a01b031690565b601380546001600160a01b0319166001600160a01b0390991698909817909755565b604051630adccee560e31b602082015293849160248301620003c6565b03601f19810184528362000130565b6013541662000370565b50601354604080516001600160a01b03938416815292909116602083015290a1565b60405162461bcd60e51b815260206004820152603960248201527f48457263323044656c656761746f723a3a5f736574496d706c656d656e74617460448201527f696f6e3a2043616c6c6572206d7573742062652061646d696e000000000000006064820152608490fdfe6080604052600436101561001d575b3661173f5761001b611733565b005b60003560e01c806306fdde031461038d5780630933c1ed14610388578063095ea7b3146103835780630e7527021461037e578063173b99041461037957806317bfdfbc1461037457806318160ddd1461036f578063182df0f51461036a5780631be195601461036557806323b872dd146103605780632608f8181461035b5780632678224714610356578063313ce567146103515780633630a6b51461034c5780633af9e669146103475780633b1d21a2146103425780633e9410101461033d5780634487152f146103385780634576b5db1461033357806347bd37181461032e578063555bcc40146103295780635c60da1b146103245780635fe3b5671461031f578063601a0bf11461031a5780636752e702146103155780636f307dc31461031057806370a082311461030b57806373acee98146103065780638303084614610301578063852a12e3146102fc578063895dabad146102f75780638f840ddd146102f257806395d89b41146102ed57806395dd9193146102e8578063a0712d68146102e3578063a6afed95146102de578063a9059cbb146102d9578063aa5af0fd146102d4578063ae9d70b0146102cf578063b2a02ff1146102ca578063b71d1a0c146102c5578063bd6d894d146102c0578063c37f68e2146102bb578063c5ebeaec146102b6578063cfa99201146102b1578063d0248fb4146102ac578063db006a75146102a7578063dd62ed3e146102a2578063e9c714f21461029d578063f2b3abbd14610298578063f3fdb15a14610293578063f5e3c4621461028e578063f851a44014610289578063f8f9da28146102845763fca7820b0361000e57611502565b6114cd565b6114a0565b611431565b611408565b6113b4565b61137f565b61131a565b6112dd565b611252565b611234565b6111f7565b61115f565b61112a565b6110d6565b611083565b61104e565b611030565b610fd2565b610f9d565b610f60565b610f0d565b610e47565b610e29565b610e0d565b610dd0565b610d93565b610d5e565b610d0b565b610ce2565b610cc4565b610c87565b610c5e565b610c35565b610b18565b610af0565b610a9c565b610a88565b610a4b565b610a16565b6109c2565b6109a6565b610985565b61095c565b6108fe565b6108ab565b610830565b6107f6565b6107d8565b61077b565b61075d565b61070a565b610686565b61063c565b61049b565b634e487b7160e01b600052604160045260246000fd5b6060810190811067ffffffffffffffff8211176103c457604052565b610392565b6040810190811067ffffffffffffffff8211176103c457604052565b60e0810190811067ffffffffffffffff8211176103c457604052565b60a0810190811067ffffffffffffffff8211176103c457604052565b90601f8019910116810190811067ffffffffffffffff8211176103c457604052565b60005b8381106104525750506000910152565b8181015183820152602001610442565b9060209161047b8151809281855285808601910161043f565b601f01601f1916010190565b906020610498928181520190610462565b90565b346105a9576000806003193601126105a65760405190806001906001548060011c926001821692831561059c575b602092602086108514610588578588526020880194908115610567575060011461050e575b61050a876104fe8189038261041d565b60405191829182610487565b0390f35b600160005294509192917fb10e2d527612073b26eecdfd717e6a320cf44b4afac2b0732d9fcbe2b7fa0cf65b83861061055657505050910190506104fe8261050a38806104ee565b80548587015294820194810161053a565b60ff191685525050505090151560051b0190506104fe8261050a38806104ee565b634e487b7160e01b82526022600452602482fd5b93607f16936104c9565b80fd5b600080fd5b67ffffffffffffffff81116103c457601f01601f191660200190565b81601f820112156105a9578035906105e1826105ae565b926105ef604051948561041d565b828452602083830101116105a957816000926020809301838601378301015290565b60206003198201126105a9576004359067ffffffffffffffff82116105a957610498916004016105ca565b346105a95761050a61066161065036610611565b6013546001600160a01b0316611788565b604051918291602083526020830190610462565b6001600160a01b038116036105a957565b346105a95760403660031901126105a95760206107006106f26106e46106506004356106b181610675565b60405163095ea7b360e01b878201526001600160a01b039091166024808301919091523560448201529182906064820190565b03601f19810183528261041d565b82808251830101910161153f565b6040519015158152f35b346105a95760203660031901126105a957602061075561074760405163073a938160e11b84820152600435602482015260248152610650816103a8565b828082518301019101611554565b604051908152f35b346105a95760003660031901126105a9576020600854604051908152f35b346105a95760203660031901126105a95760206107556107476004356107a081610675565b6040516305eff7ef60e21b858201526001600160a01b039182166024808301919091528152906107cf826103a8565b60135416611788565b346105a95760003660031901126105a9576020600d54604051908152f35b346105a95760003660031901126105a957602061075561074760405163182df0f560e01b848201526004815261082b816103c9565b611593565b346105a95760203660031901126105a95761001b60043561085081610675565b60405162df0cab60e51b60208201526001600160a01b039182166024808301919091528152906107cf826103a8565b60609060031901126105a95760043561089781610675565b906024356108a481610675565b9060443590565b346105a95760206107006106f26106e46106506108c73661087f565b6040516323b872dd60e01b898201526001600160a01b03938416602482015292909116604483015260648201529182906084820190565b346105a95760403660031901126105a95760206107556107476106e461065060043561092981610675565b6040516304c11f0360e31b878201526001600160a01b039091166024808301919091523560448201529182906064820190565b346105a95760003660031901126105a9576004546040516001600160a01b039091168152602090f35b346105a95760003660031901126105a957602060ff60035416604051908152f35b346105a95760003660031901126105a957602060405160018152f35b346105a95760203660031901126105a95760206107556107476004356109e781610675565b604051633af9e66960e01b858201526001600160a01b039182166024808301919091528152906107cf826103a8565b346105a95760003660031901126105a9576020610755610747604051631d8e90d160e11b848201526004815261082b816103c9565b346105a95760203660031901126105a95760206107556107476040516303e9410160e41b84820152600435602482015260248152610650816103a8565b346105a95761050a61066161082b36610611565b346105a95760203660031901126105a9576020610755610747600435610ac181610675565b604051634576b5db60e01b858201526001600160a01b039182166024808301919091528152906107cf826103a8565b346105a95760003660031901126105a9576020600b54604051908152f35b801515036105a957565b346105a95760603660031901126105a957600435610b3581610675565b60243590610b4282610b0e565b60443567ffffffffffffffff81116105a9576106e46106507fd604de94d45953f9138079ec1b82d533cb2160c906d1076d1f7ed54befbca97a94610b8d610bec9436906004016105ca565b600354909190610baa9060081c6001600160a01b0316331461164f565b610c0e575b601380546001600160a01b039687166001600160a01b0319821617909155604051630adccee560e31b602082015295169492839160248301610487565b50601354604080516001600160a01b03938416815292909116602083015290a1005b60405163153ab50560e01b602082015260048152610c2f90610650816103c9565b50610baf565b346105a95760003660031901126105a9576013546040516001600160a01b039091168152602090f35b346105a95760003660031901126105a9576005546040516001600160a01b039091168152602090f35b346105a95760203660031901126105a957602061075561074760405163601a0bf160e01b84820152600435602482015260248152610650816103a8565b346105a95760003660031901126105a9576020601154604051908152f35b346105a95760003660031901126105a9576012546040516001600160a01b039091168152602090f35b346105a95760203660031901126105a9576020610755610747600435610d3081610675565b6040516370a0823160e01b858201526001600160a01b03909116602480830191909152815261082b816103a8565b346105a95760003660031901126105a9576020610755610747604051630e759dd360e31b8482015260048152610650816103c9565b346105a95760203660031901126105a9576020610755610747604051634181842360e11b84820152600435602482015260248152610650816103a8565b346105a95760203660031901126105a957602061075561074760405163852a12e360e01b84820152600435602482015260248152610650816103a8565b346105a95760003660031901126105a957602060405160008152f35b346105a95760003660031901126105a9576020600c54604051908152f35b346105a9576000806003193601126105a6576040519080600254906001918060011c9260018216928315610f03575b6020926020861085146105885785885260208801949081156105675750600114610eaa5761050a876104fe8189038261041d565b600260005294509192917f405787fa12a823e0f2b7631cc41b3ba8828b3321ca811111fa75cd3aa3bb5ace5b838610610ef257505050910190506104fe8261050a38806104ee565b805485870152948201948101610ed6565b93607f1693610e76565b346105a95760203660031901126105a9576020610755610747600435610f3281610675565b6040516395dd919360e01b858201526001600160a01b03909116602480830191909152815261082b816103a8565b346105a95760203660031901126105a957602061075561074760405163140e25ad60e31b84820152600435602482015260248152610650816103a8565b346105a95760003660031901126105a957602061075561074760405163a6afed9560e01b8482015260048152610650816103c9565b346105a95760403660031901126105a95760206107006106f26106e4610650600435610ffd81610675565b60405163a9059cbb60e01b878201526001600160a01b039091166024808301919091523560448201529182906064820190565b346105a95760003660031901126105a9576020600a54604051908152f35b346105a95760003660031901126105a9576020610755610747604051630ae9d70b60e41b848201526004815261082b816103c9565b346105a95760206107556107476106e461065061109f3661087f565b60405163b2a02ff160e01b898201526001600160a01b03938416602482015292909116604483015260648201529182906084820190565b346105a95760203660031901126105a95760206107556107476004356110fb81610675565b604051632dc7468360e21b858201526001600160a01b039182166024808301919091528152906107cf826103a8565b346105a95760003660031901126105a957602061075561074760405163bd6d894d60e01b8482015260048152610650816103c9565b346105a95760203660031901126105a9576111ae60043561117f81610675565b6040516361bfb47160e11b60208201526001600160a01b03909116602480830191909152815261082b816103a8565b6080818051810103126105a957602081015161050a6040830151926080606082015191015190604051948594859094939260609260808301968352602083015260408201520152565b346105a95760203660031901126105a957602061075561074760405163317afabb60e21b84820152600435602482015260248152610650816103a8565b346105a95760003660031901126105a9576020600954604051908152f35b346105a95760a03660031901126105a95760443560ff81168091036105a9576112cd6112be61050a926040519063340923ed60e21b6020830152600435602483015260243560448301526064820152606435608482015260843560a482015260a48152610650816103e5565b60208082518301019101611554565b6040519081529081906020820190565b346105a95760203660031901126105a957602061075561074760405163db006a7560e01b84820152600435602482015260248152610650816103a8565b346105a95760403660031901126105a957602061075561074760043561133f81610675565b61082b6024359161134f83610675565b604051636eb1769f60e11b878201526001600160a01b0391821660248201529216604483015281606481016106e4565b346105a95760003660031901126105a95760206107556107476040516374e38a7960e11b8482015260048152610650816103c9565b346105a95760203660031901126105a95760206107556107476004356113d981610675565b60405163f2b3abbd60e01b858201526001600160a01b039182166024808301919091528152906107cf826103a8565b346105a95760003660031901126105a9576006546040516001600160a01b039091168152602090f35b346105a95760603660031901126105a95761050a6112cd6112be60043561145781610675565b60443561146381610675565b60405191637af1e23160e11b602084015260018060a01b03918280921660248501526024356044850152166064830152606482526107cf82610401565b346105a95760003660031901126105a95760035460405160089190911c6001600160a01b03168152602090f35b346105a95760003660031901126105a9576020610755610747604051631f1f3b4560e31b848201526004815261082b816103c9565b346105a95760203660031901126105a957602061075561074760405163fca7820b60e01b84820152600435602482015260248152610650816103a8565b908160209103126105a9575161049881610b0e565b908160209103126105a9575190565b3d1561158e573d90611574826105ae565b91611582604051938461041d565b82523d6000602084013e565b606090565b604051906020916115b8816106e485820194630933c1ed60e01b865260248301610487565b6000809281925190305afa916115cc611563565b9215611648578251830192818181860195031261164057818101519067ffffffffffffffff821161164457019083603f83011215611640578082015192611612846105ae565b94611620604051968761041d565b848652604085850101116105a6575090604061049893928501910161043f565b8280fd5b8380fd5b90503d9101fd5b1561165657565b60405162461bcd60e51b815260206004820152603960248201527f48457263323044656c656761746f723a3a5f736574496d706c656d656e74617460448201527f696f6e3a2043616c6c6572206d7573742062652061646d696e000000000000006064820152608490fd5b156116c857565b60405162461bcd60e51b815260206004820152603760248201527f48457263323044656c656761746f723a66616c6c6261636b3a2063616e6e6f7460448201527f2073656e642076616c756520746f2066616c6c6261636b0000000000000000006064820152608490fd5b61173d34156116c1565b565b61174934156116c1565b60008060018060a01b0360135416604051368382378036810184815203915af4611771611563565b50604051903d6000833e15611784573d90f35b3d90fd5b6000918291602082519201905af461179e611563565b90156117a75790565b60203d9101fdfea26469706673582212206e5159c4f0d0f6cf449229d3511be6777d98c891ef85766eafdd6756f104453464736f6c6343000817003360803461011057601f61048638819003918201601f19168301916001600160401b038311848410176101155780849260809460405283398101031261011057805190602081015160606040830151920151670de0b6b3a7640000808502948086048214901517156100fa57806301e13380809604049283600155818102908082048314901517156100fa5785829104049081600055808502948086048214901517156100fa577f6960ab234c7ef4b0c9197100f5393cfcde7c453ac910a27bd2000aa1dd4c068d956080950404908160025582600355604051938452602084015260408301526060820152a160405161035a908161012c8239f35b634e487b7160e01b600052601160045260246000fd5b600080fd5b634e487b7160e01b600052604160045260246000fdfe60806040818152600436101561001457600080fd5b600091823560e01c9081630c574861146101ce5750806315f24053146101b35780632191f92a1461019857806326c394f71461017a57806340bc0af41461015c5780636c2df6a7146101405780636e71e2d81461011e578063b8168816146100a65763fd2da3391461008557600080fd5b346100a257816003193601126100a2576020906003549051908152f35b5080fd5b50346100a25760803660031901126100a2576004359160243560443590670de0b6b3a76400009260643584039084821161010a57508282856100fb6100f6946100f6610102988c9860209d61024e565b61020b565b04936102c4565b049051908152f35b634e487b7160e01b81526011600452602490fd5b50346100a257602090610139610133366101ec565b916102c4565b9051908152f35b50346100a257816003193601126100a257602091549051908152f35b50346100a257816003193601126100a2576020906001549051908152f35b50346100a257816003193601126100a2576020906002549051908152f35b50346100a257816003193601126100a2576020905160018152f35b50346100a2576020906101396101c8366101ec565b9161024e565b8390346100a257816003193601126100a257806301e1338060209252f35b606090600319011261020657600435906024359060443590565b600080fd5b8181029291811591840414171561021e57565b634e487b7160e01b600052601160045260246000fd5b9190820180921161021e57565b9190820391821161021e57565b9061025992916102c4565b60035480821161028a5750670de0b6b3a764000061027d610287926000549061020b565b0460015490610234565b90565b90610287916102be6102b5670de0b6b3a7640000926102af8461027d6000548461020b565b94610241565b6002549061020b565b04610234565b91811561031c57670de0b6b3a7640000820292670de0b6b3a763ffff198385040161021e576102fb926102f691610234565b610241565b908115610306570490565b634e487b7160e01b600052601260045260246000fd5b50505060009056fea264697066735822122054703b89368fe3423ea3926063012eec52aa9b4b090485a2e1215da005fc73b264736f6c63430008170033a26469706673582212202f7da7ee47afb0e365f29dc3ef54db54d5f8e3a7952992bde11d3116fd35fe3864736f6c63430008170033","linkReferences":{}},"methodIdentifiers":{"RTOKEN_IMPLEMENTATION()":"f07ebb9e","assets(address)":"f11b8188","comptrollerProxy()":"4cbfb08a","deployAsset(address,string,string,uint8,uint256,uint256,uint256,uint256,uint256,uint256,address,uint256,uint256,uint256,uint256)":"52250505","deployerAddress()":"efdee94f","multisigWallet()":"9075becf","oracle()":"7dc0d1d0","transferOwnership()":"880ad0af","unitroller()":"bad1d3da"},"id":113}