{"abi":[{"type":"function","name":"calculateCompoundInterest","inputs":[{"name":"principal","type":"uint256","internalType":"uint256"},{"name":"ratePerSecond","type":"uint256","internalType":"uint256"},{"name":"timeInSeconds","type":"uint256","internalType":"uint256"}],"outputs":[{"name":"","type":"uint256","internalType":"uint256"}],"stateMutability":"pure"}],"bytecode":{"object":"0x6080806040523461001a5761011c9081610020823930815050f35b600080fdfe60806040526004361015601157600080fd5b6000803560e01c63e088abdd14602657600080fd5b606036600319011260bb5760443590670de0b6b3a76400009060243582019081831160a757506001818482161560a1575b9360011c91825b607757602084606e8760043560be565b04604051908152f35b608081859260be565b04918181166091575b811c9182605e565b93609b83859260be565b04936089565b50826057565b634e487b7160e01b81526011600452602490fd5b80fd5b8181029291811591840414171560d057565b634e487b7160e01b600052601160045260246000fdfea26469706673582212201767c45a8838b74636fe500f8553a4e3ad0da5cae8b6b22e8d565a7b729f545864736f6c63430008170033","linkReferences":{}},"methodIdentifiers":{"calculateCompoundInterest(uint256,uint256,uint256)":"e088abdd"},"id":131}