{"abi":[{"type":"constructor","inputs":[],"stateMutability":"nonpayable"},{"type":"function","name":"_addEmissionConfig","inputs":[{"name":"_hToken","type":"address","internalType":"contract HToken"},{"name":"_owner","type":"address","internalType":"address"},{"name":"_emissionToken","type":"address","internalType":"address"},{"name":"_supplyEmissionPerSec","type":"uint256","internalType":"uint256"},{"name":"_borrowEmissionsPerSec","type":"uint256","internalType":"uint256"},{"name":"_endTime","type":"uint256","internalType":"uint256"}],"outputs":[],"stateMutability":"nonpayable"},{"type":"function","name":"_pauseRewards","inputs":[],"outputs":[],"stateMutability":"nonpayable"},{"type":"function","name":"_rescueFunds","inputs":[{"name":"_tokenAddress","type":"address","internalType":"address"},{"name":"_amount","type":"uint256","internalType":"uint256"}],"outputs":[],"stateMutability":"nonpayable"},{"type":"function","name":"_setEmissionCap","inputs":[{"name":"_newEmissionCap","type":"uint256","internalType":"uint256"}],"outputs":[],"stateMutability":"nonpayable"},{"type":"function","name":"_setPauseGuardian","inputs":[{"name":"_newPauseGuardian","type":"address","internalType":"address"}],"outputs":[],"stateMutability":"nonpayable"},{"type":"function","name":"_unpauseRewards","inputs":[],"outputs":[],"stateMutability":"nonpayable"},{"type":"function","name":"_updateBorrowSpeed","inputs":[{"name":"_hToken","type":"address","internalType":"contract HToken"},{"name":"_emissionToken","type":"address","internalType":"address"},{"name":"_newBorrowSpeed","type":"uint256","internalType":"uint256"}],"outputs":[],"stateMutability":"nonpayable"},{"type":"function","name":"_updateEndTime","inputs":[{"name":"_hToken","type":"address","internalType":"contract HToken"},{"name":"_emissionToken","type":"address","internalType":"address"},{"name":"_newEndTime","type":"uint256","internalType":"uint256"}],"outputs":[],"stateMutability":"nonpayable"},{"type":"function","name":"_updateOwner","inputs":[{"name":"_hToken","type":"address","internalType":"contract HToken"},{"name":"_emissionToken","type":"address","internalType":"address"},{"name":"_newOwner","type":"address","internalType":"address"}],"outputs":[],"stateMutability":"nonpayable"},{"type":"function","name":"_updateSupplySpeed","inputs":[{"name":"_hToken","type":"address","internalType":"contract HToken"},{"name":"_emissionToken","type":"address","internalType":"address"},{"name":"_newSupplySpeed","type":"uint256","internalType":"uint256"}],"outputs":[],"stateMutability":"nonpayable"},{"type":"function","name":"comptroller","inputs":[],"outputs":[{"name":"","type":"address","internalType":"contract Comptroller"}],"stateMutability":"view"},{"type":"function","name":"disburseBorrowerRewards","inputs":[{"name":"_hToken","type":"address","internalType":"contract HToken"},{"name":"_borrower","type":"address","internalType":"address"},{"name":"_sendTokens","type":"bool","internalType":"bool"}],"outputs":[],"stateMutability":"nonpayable"},{"type":"function","name":"disburseSupplierRewards","inputs":[{"name":"_hToken","type":"address","internalType":"contract HToken"},{"name":"_supplier","type":"address","internalType":"address"},{"name":"_sendTokens","type":"bool","internalType":"bool"}],"outputs":[],"stateMutability":"nonpayable"},{"type":"function","name":"emissionCap","inputs":[],"outputs":[{"name":"","type":"uint256","internalType":"uint256"}],"stateMutability":"view"},{"type":"function","name":"getAllMarketConfigs","inputs":[{"name":"_hToken","type":"address","internalType":"contract HToken"}],"outputs":[{"name":"","type":"tuple[]","internalType":"struct MultiRewardDistributorCommon.MarketConfig[]","components":[{"name":"owner","type":"address","internalType":"address"},{"name":"emissionToken","type":"address","internalType":"address"},{"name":"endTime","type":"uint256","internalType":"uint256"},{"name":"supplyGlobalIndex","type":"uint224","internalType":"uint224"},{"name":"supplyGlobalTimestamp","type":"uint32","internalType":"uint32"},{"name":"borrowGlobalIndex","type":"uint224","internalType":"uint224"},{"name":"borrowGlobalTimestamp","type":"uint32","internalType":"uint32"},{"name":"supplyEmissionsPerSec","type":"uint256","internalType":"uint256"},{"name":"borrowEmissionsPerSec","type":"uint256","internalType":"uint256"}]}],"stateMutability":"view"},{"type":"function","name":"getConfigForMarket","inputs":[{"name":"_hToken","type":"address","internalType":"contract HToken"},{"name":"_emissionToken","type":"address","internalType":"address"}],"outputs":[{"name":"","type":"tuple","internalType":"struct MultiRewardDistributorCommon.MarketConfig","components":[{"name":"owner","type":"address","internalType":"address"},{"name":"emissionToken","type":"address","internalType":"address"},{"name":"endTime","type":"uint256","internalType":"uint256"},{"name":"supplyGlobalIndex","type":"uint224","internalType":"uint224"},{"name":"supplyGlobalTimestamp","type":"uint32","internalType":"uint32"},{"name":"borrowGlobalIndex","type":"uint224","internalType":"uint224"},{"name":"borrowGlobalTimestamp","type":"uint32","internalType":"uint32"},{"name":"supplyEmissionsPerSec","type":"uint256","internalType":"uint256"},{"name":"borrowEmissionsPerSec","type":"uint256","internalType":"uint256"}]}],"stateMutability":"view"},{"type":"function","name":"getCurrentEmissionCap","inputs":[],"outputs":[{"name":"","type":"uint256","internalType":"uint256"}],"stateMutability":"view"},{"type":"function","name":"getCurrentOwner","inputs":[{"name":"_hToken","type":"address","internalType":"contract HToken"},{"name":"_emissionToken","type":"address","internalType":"address"}],"outputs":[{"name":"","type":"address","internalType":"address"}],"stateMutability":"view"},{"type":"function","name":"getGlobalBorrowIndex","inputs":[{"name":"hToken","type":"address","internalType":"address"},{"name":"index","type":"uint256","internalType":"uint256"}],"outputs":[{"name":"","type":"uint256","internalType":"uint256"}],"stateMutability":"view"},{"type":"function","name":"getGlobalSupplyIndex","inputs":[{"name":"hToken","type":"address","internalType":"address"},{"name":"index","type":"uint256","internalType":"uint256"}],"outputs":[{"name":"","type":"uint256","internalType":"uint256"}],"stateMutability":"view"},{"type":"function","name":"getOutstandingRewardsForUser","inputs":[{"name":"_hToken","type":"address","internalType":"contract HToken"},{"name":"_user","type":"address","internalType":"address"}],"outputs":[{"name":"","type":"tuple[]","internalType":"struct MultiRewardDistributorCommon.RewardInfo[]","components":[{"name":"emissionToken","type":"address","internalType":"address"},{"name":"totalAmount","type":"uint256","internalType":"uint256"},{"name":"supplySide","type":"uint256","internalType":"uint256"},{"name":"borrowSide","type":"uint256","internalType":"uint256"}]}],"stateMutability":"view"},{"type":"function","name":"getOutstandingRewardsForUser","inputs":[{"name":"_user","type":"address","internalType":"address"}],"outputs":[{"name":"","type":"tuple[]","internalType":"struct MultiRewardDistributorCommon.RewardWithHToken[]","components":[{"name":"hToken","type":"address","internalType":"address"},{"name":"rewards","type":"tuple[]","internalType":"struct MultiRewardDistributorCommon.RewardInfo[]","components":[{"name":"emissionToken","type":"address","internalType":"address"},{"name":"totalAmount","type":"uint256","internalType":"uint256"},{"name":"supplySide","type":"uint256","internalType":"uint256"},{"name":"borrowSide","type":"uint256","internalType":"uint256"}]}]}],"stateMutability":"view"},{"type":"function","name":"initialIndexConstant","inputs":[],"outputs":[{"name":"","type":"uint224","internalType":"uint224"}],"stateMutability":"view"},{"type":"function","name":"initialize","inputs":[{"name":"_comptroller","type":"address","internalType":"address"},{"name":"_pauseGuardian","type":"address","internalType":"address"}],"outputs":[],"stateMutability":"nonpayable"},{"type":"function","name":"marketConfigs","inputs":[{"name":"","type":"address","internalType":"address"},{"name":"","type":"uint256","internalType":"uint256"}],"outputs":[{"name":"config","type":"tuple","internalType":"struct MultiRewardDistributorCommon.MarketConfig","components":[{"name":"owner","type":"address","internalType":"address"},{"name":"emissionToken","type":"address","internalType":"address"},{"name":"endTime","type":"uint256","internalType":"uint256"},{"name":"supplyGlobalIndex","type":"uint224","internalType":"uint224"},{"name":"supplyGlobalTimestamp","type":"uint32","internalType":"uint32"},{"name":"borrowGlobalIndex","type":"uint224","internalType":"uint224"},{"name":"borrowGlobalTimestamp","type":"uint32","internalType":"uint32"},{"name":"supplyEmissionsPerSec","type":"uint256","internalType":"uint256"},{"name":"borrowEmissionsPerSec","type":"uint256","internalType":"uint256"}]}],"stateMutability":"view"},{"type":"function","name":"pauseGuardian","inputs":[],"outputs":[{"name":"","type":"address","internalType":"address"}],"stateMutability":"view"},{"type":"function","name":"paused","inputs":[],"outputs":[{"name":"","type":"bool","internalType":"bool"}],"stateMutability":"view"},{"type":"function","name":"updateMarketBorrowIndex","inputs":[{"name":"_hToken","type":"address","internalType":"contract HToken"}],"outputs":[],"stateMutability":"nonpayable"},{"type":"function","name":"updateMarketBorrowIndexAndDisburseBorrowerRewards","inputs":[{"name":"_hToken","type":"address","internalType":"contract HToken"},{"name":"_borrower","type":"address","internalType":"address"},{"name":"_sendTokens","type":"bool","internalType":"bool"}],"outputs":[],"stateMutability":"nonpayable"},{"type":"function","name":"updateMarketSupplyIndex","inputs":[{"name":"_hToken","type":"address","internalType":"contract HToken"}],"outputs":[],"stateMutability":"nonpayable"},{"type":"function","name":"updateMarketSupplyIndexAndDisburseSupplierRewards","inputs":[{"name":"_hToken","type":"address","internalType":"contract HToken"},{"name":"_supplier","type":"address","internalType":"address"},{"name":"_sendTokens","type":"bool","internalType":"bool"}],"outputs":[],"stateMutability":"nonpayable"},{"type":"event","name":"DisbursedBorrowerRewards","inputs":[{"name":"hToken","type":"address","indexed":true,"internalType":"contract HToken"},{"name":"borrower","type":"address","indexed":true,"internalType":"address"},{"name":"emissionToken","type":"address","indexed":true,"internalType":"address"},{"name":"totalAccrued","type":"uint256","indexed":false,"internalType":"uint256"}],"anonymous":false},{"type":"event","name":"DisbursedSupplierRewards","inputs":[{"name":"hToken","type":"address","indexed":true,"internalType":"contract HToken"},{"name":"supplier","type":"address","indexed":true,"internalType":"address"},{"name":"emissionToken","type":"address","indexed":true,"internalType":"address"},{"name":"totalAccrued","type":"uint256","indexed":false,"internalType":"uint256"}],"anonymous":false},{"type":"event","name":"FundsRescued","inputs":[{"name":"token","type":"address","indexed":false,"internalType":"address"},{"name":"amount","type":"uint256","indexed":false,"internalType":"uint256"}],"anonymous":false},{"type":"event","name":"GlobalBorrowIndexUpdated","inputs":[{"name":"hToken","type":"address","indexed":false,"internalType":"contract HToken"},{"name":"emissionToken","type":"address","indexed":false,"internalType":"address"},{"name":"newIndex","type":"uint256","indexed":false,"internalType":"uint256"},{"name":"newTimestamp","type":"uint32","indexed":false,"internalType":"uint32"}],"anonymous":false},{"type":"event","name":"GlobalSupplyIndexUpdated","inputs":[{"name":"hToken","type":"address","indexed":false,"internalType":"contract HToken"},{"name":"emissionToken","type":"address","indexed":false,"internalType":"address"},{"name":"newSupplyIndex","type":"uint256","indexed":false,"internalType":"uint256"},{"name":"newSupplyGlobalTimestamp","type":"uint32","indexed":false,"internalType":"uint32"}],"anonymous":false},{"type":"event","name":"Initialized","inputs":[{"name":"version","type":"uint64","indexed":false,"internalType":"uint64"}],"anonymous":false},{"type":"event","name":"InsufficientTokensToEmit","inputs":[{"name":"user","type":"address","indexed":false,"internalType":"address payable"},{"name":"rewardToken","type":"address","indexed":false,"internalType":"address"},{"name":"amount","type":"uint256","indexed":false,"internalType":"uint256"}],"anonymous":false},{"type":"event","name":"NewBorrowRewardSpeed","inputs":[{"name":"hToken","type":"address","indexed":true,"internalType":"contract HToken"},{"name":"emissionToken","type":"address","indexed":true,"internalType":"address"},{"name":"oldRewardSpeed","type":"uint256","indexed":false,"internalType":"uint256"},{"name":"newRewardSpeed","type":"uint256","indexed":false,"internalType":"uint256"}],"anonymous":false},{"type":"event","name":"NewConfigCreated","inputs":[{"name":"hToken","type":"address","indexed":true,"internalType":"contract HToken"},{"name":"owner","type":"address","indexed":true,"internalType":"address"},{"name":"emissionToken","type":"address","indexed":true,"internalType":"address"},{"name":"supplySpeed","type":"uint256","indexed":false,"internalType":"uint256"},{"name":"borrowSpeed","type":"uint256","indexed":false,"internalType":"uint256"},{"name":"endTime","type":"uint256","indexed":false,"internalType":"uint256"}],"anonymous":false},{"type":"event","name":"NewEmissionCap","inputs":[{"name":"oldEmissionCap","type":"uint256","indexed":false,"internalType":"uint256"},{"name":"newEmissionCap","type":"uint256","indexed":false,"internalType":"uint256"}],"anonymous":false},{"type":"event","name":"NewEmissionConfigOwner","inputs":[{"name":"hToken","type":"address","indexed":true,"internalType":"contract HToken"},{"name":"emissionToken","type":"address","indexed":true,"internalType":"address"},{"name":"currentOwner","type":"address","indexed":false,"internalType":"address"},{"name":"newOwner","type":"address","indexed":false,"internalType":"address"}],"anonymous":false},{"type":"event","name":"NewPauseGuardian","inputs":[{"name":"oldPauseGuardian","type":"address","indexed":false,"internalType":"address"},{"name":"newPauseGuardian","type":"address","indexed":false,"internalType":"address"}],"anonymous":false},{"type":"event","name":"NewRewardEndTime","inputs":[{"name":"hToken","type":"address","indexed":true,"internalType":"contract HToken"},{"name":"emissionToken","type":"address","indexed":true,"internalType":"address"},{"name":"currentEndTime","type":"uint256","indexed":false,"internalType":"uint256"},{"name":"newEndTime","type":"uint256","indexed":false,"internalType":"uint256"}],"anonymous":false},{"type":"event","name":"NewSupplyRewardSpeed","inputs":[{"name":"hToken","type":"address","indexed":true,"internalType":"contract HToken"},{"name":"emissionToken","type":"address","indexed":true,"internalType":"address"},{"name":"oldRewardSpeed","type":"uint256","indexed":false,"internalType":"uint256"},{"name":"newRewardSpeed","type":"uint256","indexed":false,"internalType":"uint256"}],"anonymous":false},{"type":"event","name":"Paused","inputs":[{"name":"account","type":"address","indexed":false,"internalType":"address"}],"anonymous":false},{"type":"event","name":"RewardsPaused","inputs":[],"anonymous":false},{"type":"event","name":"RewardsUnpaused","inputs":[],"anonymous":false},{"type":"event","name":"Unpaused","inputs":[{"name":"account","type":"address","indexed":false,"internalType":"address"}],"anonymous":false},{"type":"error","name":"AddressEmptyCode","inputs":[{"name":"target","type":"address","internalType":"address"}]},{"type":"error","name":"AddressInsufficientBalance","inputs":[{"name":"account","type":"address","internalType":"address"}]},{"type":"error","name":"EnforcedPause","inputs":[]},{"type":"error","name":"ExpectedPause","inputs":[]},{"type":"error","name":"FailedInnerCall","inputs":[]},{"type":"error","name":"InvalidInitialization","inputs":[]},{"type":"error","name":"NotInitializing","inputs":[]},{"type":"error","name":"ReentrancyGuardReentrantCall","inputs":[]},{"type":"error","name":"SafeERC20FailedOperation","inputs":[{"name":"token","type":"address","internalType":"address"}]}],"bytecode":{"object":"0x60808060405234620000cb5760ff1960005416600055600180557ff0c57e16840df040f15088dc2f81fe391c3923bec73e23a9662efc9c229c6a009081549060ff8260401c16620000bc57506001600160401b036002600160401b03198282160162000076575b6040516137e99081620000d18239f35b6001600160401b031990911681179091556040519081527fc7f505b2f371ae2175ee4913f4499e1f2633a7b5936321eed1cdaeb6115181d290602090a138808062000066565b63f92ee8a960e01b8152600490fd5b600080fdfe60a080604052600436101561001357600080fd5b600090813560e01c908163019047d614611ca95750806307e8ce8514611c0b5780630cd8bbc5146105f457806310d47dc714611b7957806314f5577314611ae757806324a3d62214611abe5780632839238014611a2e5780633616b04b146118a4578063375fea29146117a2578063472db55d146116d1578063485cc9551461144c5780635c975abb1461142a5780635f5af1aa1461130e5780635fe3b567146112e5578063610393a01461119757806373a1f3d0146111575780637e218f901461104d5780637f7336ba14610eec5780638220d7cf14610e495780638b62a51a14610e0a578063ad1a928014610dc9578063adc75e5214610d29578063b2fa9e1014610cd6578063c11a70b314610c75578063c9a06b45146109f7578063dbc7779b14610806578063e0ed911614610763578063e66b98c914610612578063e88d9c1b146105f4578063ea0f3dff146101a25763ed302dfd1461017657600080fd5b3461019f578060031936011261019f5760206040516ec097ce7bc90715b34b9f10000000008152f35b80fd5b503461019f5760c036600319011261019f576101bc611d49565b6101c4611d64565b906101cd611d7a565b9060649060018060a01b039384600354166040516303e1469160e61b8152602081600481855afa9182156105e957610215886024946040948c916105ba575b5016331461248d565b8151638e8f294b60e01b8152858916600482015292839182905afa9081156105af578791610571575b5015610515576102606005546102578160643510612655565b6084351061270c565b600191600142018042116105015760a43511156104a65785811687526002602052604087209287948454955b868110610444575050506102c16102a161277e565b6102b36401000000004210918261344c565b6102bb61277e565b9061344c565b604051946102ce86611edc565b8683168652868116602087015260a43560408701526ec097ce7bc90715b34b9f1000000000606087015263ffffffff421660808701526ec097ce7bc90715b34b9f100000000060a087015263ffffffff421660c087015260643560e08701526084356101008701527fa76959d76a349a0b8fd3120607e3aea6af58897ae6531bfe60a0267c4ea0c2726060888080604051956064358752608435602088015260a4356040880152169616941692a46801000000000000000082101561043057916103a382600694600161010095018155611e78565b50815181549086166001600160a01b031991821617825560208301516001830180549190971691161790945560408101516002850155606081015160808201516001600160e01b039182166001600160e01b031960e092831b811691909117600388015560a084015160c085015193169290911b1617600485015560e08101516005850155015191015580f35b634e487b7160e01b85526041600452602485fd5b61044e8187611e78565b508301548916888a161461046357820161028c565b5060405162461bcd60e51b815260206004820152601e60248201527f456d697373696f6e20746f6b656e20616c7265616479206c69737465642100006044820152fd5b60405162461bcd60e51b815260206004820152602d60248201527f546865205f656e6454696d6520706172616d65746572206d757374206265206960448201526c6e20746865206675747572652160981b6064820152608490fd5b634e487b7160e01b88526011600452602488fd5b60405162461bcd60e51b815260206004820152602e60248201527f546865206d61726b65742072657175657374656420746f20626520616464656460448201526d20697320756e2d6c69737465642160901b6064820152608490fd5b90506040813d6040116105a7575b8161058c60409383611f31565b810103126105a35761059d90612648565b3861023e565b8680fd5b3d915061057f565b6040513d89823e3d90fd5b6105dc915060203d6020116105e2575b6105d48183611f31565b810190611fce565b3861020c565b503d6105ca565b6040513d8a823e3d90fd5b503461019f578060031936011261019f576020600554604051908152f35b503461019f57606036600319011261019f5761062c611d49565b610634611d64565b61063c611d7a565b906106478184613112565b54336001600160a01b03918216149182156106db575b6106877f6ca67f2e3675f2b549fe77271364ebde88b3c7eb3ef84af329c373ca64fa2578936124f3565b6106d56106948287613112565b80546001600160a01b0319811685881617909155604080516001600160a01b0392861683168152919096166020820152918316959092169390918291820190565b0390a380f35b6004925060208260035416604051948580926303e1469160e61b82525afa80156107585782610687917f6ca67f2e3675f2b549fe77271364ebde88b3c7eb3ef84af329c373ca64fa2578958991610739575b5016331493505061065d565b610752915060203d6020116105e2576105d48183611f31565b3861072d565b6040513d88823e3d90fd5b503461019f5761077236611d90565b9060018060a01b03928360035416938433149485156107ab575b505061079a6107a894611fed565b6107a3816131c0565b612d3d565b80f35b6040516303e1469160e61b8152919550602090829060049082905afa948515610758576107a89561079a9288916107e7575b501633149461078c565b610800915060203d6020116105e2576105d48183611f31565b386107dd565b503461019f57604036600319011261019f57610820611d49565b6003546040516303e1469160e61b808252926024359290916020916001600160a01b03908116918381600481865afa9081156105e95761086b9183918a916109e0575016331461248d565b83811691600019860361096d57508290600354169560046040518098819382525afa94851561075857869561094e575b506040516370a0823160e01b81523060048201528281602481855afa9283156105af578793610918575b5050907fc4474c2790e13695f6d2b6f1d8e164290b55370f87a542fd7711abe0a1bf40ac946108f392613342565b604080516001600160a01b039092168252602082019290925290819081015b0390a180f35b90809350813d8311610947575b61092f8183611f31565b8101031261094357905190846108f36108c5565b8580fd5b503d610925565b610966919550823d84116105e2576105d48183611f31565b933861089b565b92919582915060046040518095819382525afa8015610758577fc4474c2790e13695f6d2b6f1d8e164290b55370f87a542fd7711abe0a1bf40ac956109bc93869389936109c1575b5050613342565b6108f3565b6109d8929350803d106105e2576105d48183611f31565b9038806109b5565b6105dc9150863d88116105e2576105d48183611f31565b503461019f576020908160031936011261019f57610a13611d49565b91600460018060a01b038381600354166040519384809263b0772d0b60e01b82525afa918215610c6a578492610bca575b50815194610a6a610a548761205e565b96610a626040519889611f31565b80885261205e565b601f190184865b828110610ba757505050845b8351811015610adc5780610a9f8385610a9860019589612099565b51166120ad565b84610aaa8388612099565b51169060405191610aba83611eaa565b825287820152610aca828a612099565b52610ad58189612099565b5001610a7d565b8285888860405192808401918185528351809352604085018260408560051b880101950196825b858410610b105787870388f35b90919293809596603f19898203018552895182606081604085019388815116865201519360408382015284518094520192019084905b808210610b63575050509881019896959460010193019190610b03565b825180516001600160a01b03168552602080820151908601526040808201519086015260609081015190850152899460809094019390920191600190910190610b46565b604051610bb381611eaa565b88815260608382015282828b010152018590610a71565b9091503d8085833e610bdc8183611f31565b8101908381830312610c665780519067ffffffffffffffff821161094357019080601f83011215610c66578151610c128161205e565b92610c206040519485611f31565b818452858085019260051b8201019283116105a3578501905b828210610c4a575050509038610a44565b81518581168103610c62578152908501908501610c39565b8780fd5b8480fd5b6040513d86823e3d90fd5b503461019f57604036600319011261019f57610c8f611d49565b6001600160a01b031681526002602052604081208054602435929083101561019f57610120610cc7610cc18585611e78565b50611f53565b610cd46040518092611e03565bf35b503461019f57604036600319011261019f57602090610d12906001600160a01b03610cff611d49565b1681526002835260406024359120611e78565b50600401546040516001600160e01b039091168152f35b503461019f57610d3836611d90565b9060018060a01b0392836003541693843314948515610d6e575b5050610d606107a894611fed565b610d69816127b7565b612ebd565b6040516303e1469160e61b8152919550602090829060049082905afa948515610758576107a895610d60928891610daa575b5016331494610d52565b610dc3915060203d6020116105e2576105d48183611f31565b38610da0565b503461019f57604036600319011261019f576020610de5611d49565b6001600160a01b0390610e0090610dfa611d64565b90613112565b5416604051908152f35b503461019f57604036600319011261019f57610120610cc7610e44610e2d611d49565b610e35611d64565b90610e3e6126c7565b50613112565b611f53565b503461019f57602036600319011261019f57610e63611d49565b6003546001600160a01b039081163381149291908315610e91575b5050610e8c6107a892611fed565b6131c0565b6040516303e1469160e61b8152919350602090829060049082905afa928315610c6a576107a893610e8c928691610ecd575b5016331492610e7e565b610ee6915060203d6020116105e2576105d48183611f31565b38610ec3565b503461019f57610efb36611dce565b90610f068184613112565b546001600160a01b039290831633148015610ff2575b610f25906124f3565b6006610f318386613112565b0192835493848314610f8e577f8fc43850ed5c7aaa0ce83829a1a40202c3fcf8257788d69881611dff1a0b32e993836040948493610f72600554831061270c565b610f7b8a6127b7565b558451968752602087015216941692a380f35b60405162461bcd60e51b815260206004820152603660248201527f43616e277420736574206e657720626f72726f7720656d697373696f6e7320746044820152756f20626520657175616c20746f2063757272656e742160501b6064820152608490fd5b50600460208460035416604051928380926303e1469160e61b82525afa90811561075857610f25918591889161102e575b501633149050610f1c565b611047915060203d6020116105e2576105d48183611f31565b38611023565b503461019f57602080600319360112611153576001600160a01b03611070611d49565b168252600281526040822080546110868161205e565b916110946040519384611f31565b8183526110a08261205e565b601f1901855b818110611137575050845b828110611105575050506040519180830190808452825180925280604085019301945b8281106110e15784840385f35b90919282610120826110f66001948a51611e03565b019601910194929190946110d4565b80611118610cc160019385999799611e78565b6111228289612099565b5261112d8188612099565b50019492946110b1565b85906111449795976126c7565b82828a010152019593956110a6565b5080fd5b503461019f57604036600319011261019f57602090611180906001600160a01b03610cff611d49565b50600301546040516001600160e01b039091168152f35b503461019f576111a636611dce565b906111b18184613112565b546001600160a01b03929083163314801561128a575b6111d0906124f3565b60056111dc8386613112565b0192835493848314611226577fc4d50731808aa5d941c471c0b29364fecd810aa0565344f6cdcab2c873422baf9383604094849361121d6005548310612655565b610f7b8a6131c0565b60405162461bcd60e51b815260206004820152603660248201527f43616e277420736574206e657720737570706c7920656d697373696f6e7320746044820152756f20626520657175616c20746f2063757272656e742160501b6064820152608490fd5b50600460208460035416604051928380926303e1469160e61b82525afa908115610758576111d091859188916112c6575b5016331490506111c7565b6112df915060203d6020116105e2576105d48183611f31565b386112bb565b503461019f578060031936011261019f576003546040516001600160a01b039091168152602090f35b503461019f57602036600319011261019f57611328611d49565b600454336001600160a01b0380831691821493929084156113ad575b61136e7f0613b6ee6a04f0d09f390e4d9318894b9f6ac7fd83897cd8d18896ba579c401e9561256f565b83169061137c8215156125ed565b6001600160a01b03191617600455604080516001600160a01b03928316815292909116602083015281908101610912565b6004945060208160035416604051968780926303e1469160e61b82525afa8015610758578161136e917f0613b6ee6a04f0d09f390e4d9318894b9f6ac7fd83897cd8d18896ba579c401e97899161140b575b50163314955050611344565b611424915060203d6020116105e2576105d48183611f31565b386113ff565b503461019f578060031936011261019f5760ff60209154166040519015158152f35b503461019f57604036600319011261019f57611466611d49565b61146e611d64565b7ff0c57e16840df040f15088dc2f81fe391c3923bec73e23a9662efc9c229c6a009182549060ff8260401c16159167ffffffffffffffff8116801590816116c9575b60011490816116bf575b1590816116b6575b506116a45767ffffffffffffffff198116600117855582611685575b506001600160a01b0390811692831561163457166114fd8115156125ed565b6bffffffffffffffffffffffff60a01b838160035416176003556040518094623f1ee960e11b825281600460209788935afa9081156105af5787916115ff575b50156115a057600454161760045568056bc75e2d63100000600555611560578280f35b7fc7f505b2f371ae2175ee4913f4499e1f2633a7b5936321eed1cdaeb6115181d29168ff000000000000000019815416905560405160018152a138808280f35b60405162461bcd60e51b815260048101859052603160248201527f43616e27742062696e6420746f20736f6d657468696e6720746861742773206e6044820152706f74206120636f6d7074726f6c6c65722160781b6064820152608490fd5b90508481813d831161162d575b6116168183611f31565b810103126105a35761162790612648565b3861153d565b503d61160c565b60405162461bcd60e51b815260206004820152602360248201527f436f6d7074726f6c6c65722063616e277420626520746865203020616464726560448201526273732160e81b6064820152608490fd5b68ffffffffffffffffff191668010000000000000001178455386114de565b60405163f92ee8a960e01b8152600490fd5b905015386114c2565b303b1591506114ba565b8491506114b0565b503461019f578060031936011261019f576003546040516303e1469160e61b8152906001600160a01b03906020908390600490829085165afa8015611797576117239284916105ba575016331461248d565b805460ff8116156117855760ff191681557f5db9ee0a495bf2e6ff9c91a7834c1ba4fdd244a5e8aa4e537bd38aeae4b073aa6020604051338152a17f24abc2b8df8d63728da8fe06c1555853a3f293f812e1ebd4303a5d6df7173e6c8180a180f35b604051638dfc202b60e01b8152600490fd5b6040513d85823e3d90fd5b503461019f578060031936011261019f57600454336001600160a01b039182161490811561184c575b506117d59061256f565b805460ff811661183a5760019060ff19161781557f62e78cea01bee320cd4e420270b5ea74000d11b0c9f74754ebdbfc544b05a2586020604051338152a17fb83b93884b98604cbc549e7e4a81a9e49bd62c603026ec82f04915037258c5648180a180f35b60405163d93c066560e01b8152600490fd5b6004915060208160035416604051938480926303e1469160e61b82525afa8015611797576117d5928491611885575b50163314906117cb565b61189e915060203d6020116105e2576105d48183611f31565b3861187b565b503461019f576118b336611dce565b906118be8184613112565b546001600160a01b0392908316331480156119d3575b6118dd906124f3565b60026118e98386613112565b019283549384831115611982574283111561192f577f10f16113484fbc6e60553a394eb2a3ae47999b610e4212fad6903486dbca7f929383604094849361121d8a6127b7565b60405162461bcd60e51b815260206004820152602560248201527f5f6e6577456e6454696d65204d555354206265203e20626c6f636b2e74696d6560448201526407374616d760dc1b6064820152608490fd5b60405162461bcd60e51b8152602060048201526024808201527f5f6e6577456e6454696d65204d555354206265203e2063757272656e74456e6460448201526354696d6560e01b6064820152608490fd5b50600460208460035416604051928380926303e1469160e61b82525afa908115610758576118dd9185918891611a0f575b5016331490506118d4565b611a28915060203d6020116105e2576105d48183611f31565b38611a04565b503461019f57602036600319011261019f576003546040516303e1469160e61b81526001600160a01b039160048035916020918491829087165afa918215610c6a577f8d2ad4bb95e94ce8d50ed07769a97467ba4db3f80fc0badf6c81d0907a0b410a93604093611aa89287916105ba575016331461248d565b600554908060055582519182526020820152a180f35b503461019f578060031936011261019f576004546040516001600160a01b039091168152602090f35b503461019f57611af636611d90565b9060018060a01b0392836003541693843314948515611b1e575b5050610d696107a894611fed565b6040516303e1469160e61b8152919550602090829060049082905afa948515610758576107a895610d69928891611b5a575b5016331494611b10565b611b73915060203d6020116105e2576105d48183611f31565b38611b50565b503461019f57611b8836611d90565b9060018060a01b0392836003541693843314948515611bb0575b50506107a36107a894611fed565b6040516303e1469160e61b8152919550602090829060049082905afa948515610758576107a8956107a3928891611bec575b5016331494611ba2565b611c05915060203d6020116105e2576105d48183611f31565b38611be2565b503461019f57604036600319011261019f57611c36611c28611d49565b611c30611d64565b906120ad565b604051906020808301906020845282518092526020604085019301945b828110611c605784840385f35b90919282611c9d600192885190606060809260018060a01b0381511683526020810151602084015260408101516040840152015160608201520190565b96019593929101611c53565b90503461115357602036600319011261115357611cc4611d49565b6003546001600160a01b0390811633811493908415611cf2575b505050611ced6107a892611fed565b6127b7565b81929450906004816020936303e1469160e61b82525afa928315610c6a576107a893611ced928691611d2a575b501633149238611cde565b611d43915060203d6020116105e2576105d48183611f31565b38611d1f565b600435906001600160a01b0382168203611d5f57565b600080fd5b602435906001600160a01b0382168203611d5f57565b604435906001600160a01b0382168203611d5f57565b6060906003190112611d5f576001600160a01b03906004358281168103611d5f57916024359081168103611d5f57906044358015158103611d5f5790565b6060906003190112611d5f576001600160a01b03906004358281168103611d5f57916024359081168103611d5f579060443590565b60018060a01b03808251168352602082015116602083015260408101516040830152606081015160018060e01b03809116606084015260808201519063ffffffff809216608085015260a08301511660a084015260c08201511660c083015260e081015160e083015261010080910151910152565b8054821015611e9457600052600b602060002091020190600090565b634e487b7160e01b600052603260045260246000fd5b6040810190811067ffffffffffffffff821117611ec657604052565b634e487b7160e01b600052604160045260246000fd5b610120810190811067ffffffffffffffff821117611ec657604052565b6080810190811067ffffffffffffffff821117611ec657604052565b6020810190811067ffffffffffffffff821117611ec657604052565b90601f8019910116810190811067ffffffffffffffff821117611ec657604052565b90604051611f6081611edc565b82546001600160a01b03908116825260018401541660208201526002830154604082015260038301546001600160e01b03808216606084015260e091821c6080840152600485015490811660a0840152811c60c0830152600584015490820152600690920154610100830152565b90816020910312611d5f57516001600160a01b0381168103611d5f5790565b15611ff457565b608460405162461bcd60e51b815260206004820152604060248201527f4f6e6c792074686520636f6d7074726f6c6c6572206f7220636f6d7074726f6c60448201527f6c65722061646d696e2063616e2063616c6c20746869732066756e6374696f6e6064820152fd5b67ffffffffffffffff8111611ec65760051b60200190565b9190820180921161208357565b634e487b7160e01b600052601160045260246000fd5b8051821015611e945760209160051b010190565b6001600160a01b039081166000818152600260208181526040808420805496929593949092906120dc8861205e565b986120e984519a8b611f31565b888a52601f196120f88a61205e565b0188835b828110612461575050508351956318160ddd60e01b875260049589888881855afa978815612457578498612424575b5085516308f7a6e360e31b8152938a858981865afa9485156124185781956123e9575b50865163aa5af0fd60e01b81528b818a81875afa9081156123605782916123bc575b5087519061217d82611f15565b815287519560609a6060880188811067ffffffffffffffff8211176123a9578a5287528c870152878601528651926370a0823160e01b8452868516808a8601528c85602481855afa94851561239f57908d91849661236a575b5060248b8b5194859384926395dd919360e01b84528301525afa908115612360578291612333575b5087519361220b85611eaa565b84528b84015286519461221d86611eaa565b85528a85019283525b8c8c821061223e575050505050505050505050505090565b818c8c888a8c8a8f612250888c611e78565b509560058701549160038801549660e097600160e01b600190039485948b0154918284515191878116908d1c612285946129a4565b9860068b0154938b01549251888d820151910151906122a26134b3565b6122ab91613685565b90516122b6916134ec565b92858116911c6122c5946129a4565b955116828d51516122d69289612b9e565b945116918d5101518b51906122eb9387612c67565b926001015416926122fc8284612076565b908d519461230986611ef9565b85528401528b8301528c8201526123208284612099565b5261232a91612099565b50600101612226565b90508b81813d8311612359575b61234a8183611f31565b810103126111535751386121fe565b503d612340565b88513d84823e3d90fd5b8281939297503d8311612398575b6123828183611f31565b81010312612394578c905194386121d6565b8280fd5b503d612378565b89513d85823e3d90fd5b634e487b7160e01b855260418c52602485fd5b90508b81813d83116123e2575b6123d38183611f31565b81010312611153575138612170565b503d6123c9565b9094508a81813d8311612411575b6124018183611f31565b81010312610c665751933861214e565b503d6123f7565b508651903d90823e3d90fd5b9097508981813d8311612450575b61243c8183611f31565b8101031261244c5751963861212b565b8380fd5b503d612432565b86513d86823e3d90fd5b865182828f61246f84611ef9565b8884528883850152888b8501528860608501520101520189906120fc565b1561249457565b60405162461bcd60e51b815260206004820152603160248201527f4f6e6c792074686520636f6d7074726f6c6c657227732061646d696e6973747260448201527061746f722063616e20646f20746869732160781b6064820152608490fd5b156124fa57565b60405162461bcd60e51b815260206004820152604160248201527f4f6e6c792074686520636f6e666967206f776e6572206f7220636f6d7074726f60448201527f6c6c65722061646d696e2063616e2063616c6c20746869732066756e6374696f6064820152603760f91b608482015260a490fd5b1561257657565b60405162461bcd60e51b815260206004820152604360248201527f4f6e6c792074686520706175736520677561726469616e206f7220636f6d707460448201527f726f6c6c65722061646d696e2063616e2063616c6c20746869732066756e637460648201526234b7b760e91b608482015260a490fd5b156125f457565b60405162461bcd60e51b815260206004820152602660248201527f506175736520477561726469616e2063616e277420626520746865203020616460448201526564726573732160d01b6064820152608490fd5b51908115158203611d5f57565b1561265c57565b60405162461bcd60e51b815260206004820152603e60248201527f43616e6e6f7420736574206120737570706c792072657761726420737065656460448201527f20686967686572207468616e2074686520656d697373696f6e206361702100006064820152608490fd5b604051906126d482611edc565b816101006000918281528260208201528260408201528260608201528260808201528260a08201528260c08201528260e08201520152565b1561271357565b60405162461bcd60e51b815260206004820152603e60248201527f43616e6e6f7420736574206120626f72726f772072657761726420737065656460448201527f20686967686572207468616e2074686520656d697373696f6e206361702100006064820152608490fd5b6040519061278b82611eaa565b601f82527f626c6f636b2074696d657374616d7020657863656564732033322062697473006020830152565b6001600160a01b038181166000818152600260208181526040808420815163aa5af0fd60e01b81529397939693959194600494939283898781845afa98891561299a57829961296b575b509083600494939288519a6128158c611f15565b8b5288516308f7a6e360e31b815295869182905afa93841561241857819461293c575b505b815481101561293057898961284f8385611e78565b5060068101548982018054948301546001600160e01b039560e09592948c9490938b93908d61287c6134b3565b61288591613685565b9051612890916134ec565b90898416848a1c6128a0946129a4565b80519201516001600160e01b03928816831660e09190911b6001600160e01b031916179485905550600191909101548c516001600160a01b038f81168252939091169092166020830152938216909316604084015263ffffffff911c1660608201527f24b735e493aede533ed6134442bad7e2ea2e72d71739de4c97f020174f5e3bcd90608090a160010161283a565b50505050505050505050565b9093508281813d8311612964575b6129548183611f31565b8101031261244c57519238612838565b503d61294a565b9098508381813d8311612993575b6129838183611f31565b8101031261115357519783612801565b503d612979565b87513d84823e3d90fd5b929190926040948551936129b785611eaa565b600092838652836020809701526129dc6129cf61277e565b640100000000421061344c565b63ffffffff80421697169188516129f281611eaa565b60158152612a1f747375627472616374696f6e20756e646572666c6f7760581b91828a820152858b61366b565b93828a11612b60575b50505081158015612b58575b612b3757612abc939291612a5091612a4a6134b3565b91613712565b908015612b2157612a79612a7e92848a51612a6a81611f15565b52612a736134b3565b906136cf565b6134ec565b865190612a8a82611f15565b8152905b865190612a9a82611f15565b6001600160e01b0394851682528751612ab281611f15565b5251905190613543565b93848151612ac981611f15565b52612b0d8151612ad881611eaa565b601a81527f6e657720696e646578206578636565647320323234206269747300000000000085820152600160e01b871061344c565b5193612b1885611eaa565b16835282015290565b50508551612b2e81611f15565b81815290612a8e565b50505050925192612b4784611eaa565b6001600160e01b0316835282015290565b508015612a34565b929350909182811015612b9457612b8a928a5192612b7d84611eaa565b601584528984015261366b565b905b388080612a28565b5050508290612b8c565b6ec097ce7bc90715b34b9f1000000000612c3660089394612c20612c4a9760018060a01b0316968760005260078601602052604060002054801580612c54575b612c4d575b60405191612bf083611eaa565b60158352747375627472616374696f6e20756e646572666c6f7760581b60208401526001600160e01b031661366b565b80604051612c2d81611f15565b52612a4a6134b3565b049260005201602052604060002054613543565b90565b5084612be3565b506001600160e01b038216861115612bde565b9092612c366ec097ce7bc90715b34b9f100000000091612d19600a95612d116020612cf1612c4a9b60018060a01b03169a8b60005260098a018352604060002054801580612d2a575b612d23575b60405191612cc283611eaa565b60158352747375627472616374696f6e20756e646572666c6f7760581b858401526001600160e01b031661366b565b9460405195612cff87611f15565b86520151612d0b6134b3565b90613685565b9051906134ec565b9051612a4a6134b3565b5088612cb5565b506001600160e01b0382168a1115612cb0565b6001600160a01b03908116600081815260026020908152604080832081516370a0823160e01b8152878716600482018190529399989296949590918a83602481855afa928315612eb3578793612e84575b50865b8154811015612e76578988858e888d8b897f51761e1f6548bc99f2a61f299986e1b08a489f06622f689a413e02d7654a47668f8690612dee612dd38d8f611e78565b506003810154909c6001600160e01b039091169a8b8e612b9e565b98858b5260078c018352868b2055888660088d019b8c855220556001809b01541697889551908152a4612e28575b50505050600101612d91565b82908a8d52528b8b20546002845414612e65578f90849392612e5191600260019897558c613585565b928055898c52528a8a20559038808e612e1c565b8c51633ee5aeb560e01b8152600490fd5b505050505050505050509050565b9092508a81813d8311612eac575b612e9c8183611f31565b810103126105a357519138612d8e565b503d612e92565b88513d89823e3d90fd5b929160018060a01b0380941693600090858252602060805260026080515260409283832090845163aa5af0fd60e01b8152608051816004818c5afa9081156131085785916130d4575b50855190612f1382611f15565b81528551966370a0823160e01b8852848116938460048a01528a89602481608051935afa988915612eb357879961309e575b5087516395dd919360e01b815260048101869052608051816024818f5afa908115613094578891613060575b50885199612f7e8b611eaa565b8a526080518a0152865b8154811015612e7657898885878f8a8e917f48a32d6daeb4317b45f49c3a1c0b1bd7d53a175d1f46c425138e328900cdccb48e612fe08c612fc98c8e611e78565b509a60018060e01b0360048d015416998a8d612c67565b9684895260098a0160805152858920558685600a8b01998a608051522055600180990154169586945190815260805190a4613021575b505050600101612f88565b888b5281608051528b8b20546002845414612e655783929161304a91600260019796558b613585565b918055888b52608051528a8a2055903880613016565b90506080513d6080511161308d575b6130798183611f31565b816080519181010312610c62575138612f71565b503d61306f565b89513d8a823e3d90fd5b9098506080513d608051116130cd575b6130b88183611f31565b8160805191810103126105a357519738612f45565b503d6130ae565b90506080513d60805111613101575b6130ed8183611f31565b816080519181010312610c66575138612f06565b503d6130e3565b86513d87823e3d90fd5b6001600160a01b039081166000908152600260205260408120805493915b8481106131945760405162461bcd60e51b815260206004820152602f60248201527f556e61626c6520746f2066696e6420656d697373696f6e20746f6b656e20696e60448201526e2068546f6b656e20636f6e6669677360881b6064820152608490fd5b61319e8183611e78565b5084600182015416858516146131b75750600101613130565b94505050505090565b9060018060a01b0391600483821660009481865260029160209060028252604097826040822092604051978880926318160ddd60e01b82525afa958615613335578196613306575b505b81548110156132fb57807f79af45fe3972eecc4b95252214ad1d36529435ab4d4ae291d62a2ee5a0cc05008a896132f28a8a8a60018b6132b163ffffffff613253849d8f611e78565b509260058401549661327f60038601998a5499888060e01b039388015490848c16908c60e01c906129a4565b9081511680988460e01b1617895501511680969081549063ffffffff60e01b9060e01b169060018060e01b0316179055565b015495516001600160a01b039586168152951690931660208501526001600160e01b03909216604084015263ffffffff909116606083015281906080820190565b0390a10161320a565b505050505050509050565b9095508281813d831161332e575b61331e8183611f31565b8101031261094357519438613208565b503d613314565b50604051903d90823e3d90fd5b60405163a9059cbb60e01b602082019081526001600160a01b03939093166024820152604480820194909452928352601f1990613380606485611f31565b60018060a01b031692600080938192519082875af13d1561343f573d67ffffffffffffffff811161342b57906133d692916133c6602060405194601f8401160184611f31565b82523d84602084013e5b84613750565b8051918215159283613405575b5050506133ed5750565b60249060405190635274afe760e01b82526004820152fd5b82935091602091928101031261019f575060206134229101612648565b153880806133e3565b634e487b7160e01b84526041600452602484fd5b6133d691506060906133d0565b156134545750565b6040519062461bcd60e51b82528160208060048301528251908160248401526000935b82851061349a575050604492506000838284010152601f80199101168101030190fd5b8481018201518686016044015293810193859350613477565b604051906134c082611eaa565b601782527f6d756c7469706c69636174696f6e206f766572666c6f770000000000000000006020830152565b90612c4a9161352360405161350081611eaa565b600e81526d646976696465206279207a65726f60901b602082015283151561344c565b811561352d570490565b634e487b7160e01b600052601260045260246000fd5b90612c4a9061357c6040519161355883611eaa565b60118352706164646974696f6e206f766572666c6f7760781b602084015284612076565b9283101561344c565b9080156136655760009160ff83541661365e576040516370a0823160e01b81523060048201526001600160a01b039485169190602081602481865afa908115613653578591613621575b5083116135e35793612c4a93941690613342565b907f8b079e2b0be6cc9631b7883d8478590fe708e9d360391aab49aa147901fc7a37935060609294604051921682526020820152836040820152a190565b90506020813d60201161364b575b8161363c60209383611f31565b81010312610c665751386135cf565b3d915061362f565b6040513d87823e3d90fd5b5091505090565b91505090565b91613679908383111561344c565b81039081116120835790565b8015918280156136c7575b6136bf57670de0b6b3a76400008083029383850482141715612083576136b9612c4a9385613523565b1461344c565b505050600090565b506000613690565b80159182801561370a575b6136bf576ec097ce7bc90715b34b9f10000000008083029383850482141715612083576136b9612c4a9385613523565b5060006136da565b9091811592838015613748575b61373f578083029383850482141715612083576136b9612c4a9385613523565b50505050600090565b50801561371f565b90613777575080511561376557805190602001fd5b604051630a12f52160e11b8152600490fd5b815115806137aa575b613788575090565b604051639996b31560e01b81526001600160a01b039091166004820152602490fd5b50803b1561378056fea2646970667358221220c38f9e1325170b76dba4a3cd24e4a1ed1cc019e0eb60df0b8d3dc77cdcfd6e3c64736f6c63430008170033","linkReferences":{}},"methodIdentifiers":{"_addEmissionConfig(address,address,address,uint256,uint256,uint256)":"ea0f3dff","_pauseRewards()":"375fea29","_rescueFunds(address,uint256)":"dbc7779b","_setEmissionCap(uint256)":"28392380","_setPauseGuardian(address)":"5f5af1aa","_unpauseRewards()":"472db55d","_updateBorrowSpeed(address,address,uint256)":"7f7336ba","_updateEndTime(address,address,uint256)":"3616b04b","_updateOwner(address,address,address)":"e66b98c9","_updateSupplySpeed(address,address,uint256)":"610393a0","comptroller()":"5fe3b567","disburseBorrowerRewards(address,address,bool)":"14f55773","disburseSupplierRewards(address,address,bool)":"10d47dc7","emissionCap()":"0cd8bbc5","getAllMarketConfigs(address)":"7e218f90","getConfigForMarket(address,address)":"8b62a51a","getCurrentEmissionCap()":"e88d9c1b","getCurrentOwner(address,address)":"ad1a9280","getGlobalBorrowIndex(address,uint256)":"b2fa9e10","getGlobalSupplyIndex(address,uint256)":"73a1f3d0","getOutstandingRewardsForUser(address)":"c9a06b45","getOutstandingRewardsForUser(address,address)":"07e8ce85","initialIndexConstant()":"ed302dfd","initialize(address,address)":"485cc955","marketConfigs(address,uint256)":"c11a70b3","pauseGuardian()":"24a3d622","paused()":"5c975abb","updateMarketBorrowIndex(address)":"019047d6","updateMarketBorrowIndexAndDisburseBorrowerRewards(address,address,bool)":"adc75e52","updateMarketSupplyIndex(address)":"8220d7cf","updateMarketSupplyIndexAndDisburseSupplierRewards(address,address,bool)":"e0ed9116"},"id":110}