{"abi":[{"type":"constructor","inputs":[],"stateMutability":"nonpayable"},{"type":"fallback","stateMutability":"nonpayable"},{"type":"function","name":"_acceptAdmin","inputs":[],"outputs":[{"name":"","type":"uint256","internalType":"uint256"}],"stateMutability":"nonpayable"},{"type":"function","name":"_acceptImplementation","inputs":[],"outputs":[{"name":"","type":"uint256","internalType":"uint256"}],"stateMutability":"nonpayable"},{"type":"function","name":"_setPendingAdmin","inputs":[{"name":"newPendingAdmin","type":"address","internalType":"address"}],"outputs":[{"name":"","type":"uint256","internalType":"uint256"}],"stateMutability":"nonpayable"},{"type":"function","name":"_setPendingImplementation","inputs":[{"name":"newPendingImplementation","type":"address","internalType":"address"}],"outputs":[{"name":"","type":"uint256","internalType":"uint256"}],"stateMutability":"nonpayable"},{"type":"function","name":"admin","inputs":[],"outputs":[{"name":"","type":"address","internalType":"address"}],"stateMutability":"view"},{"type":"function","name":"comptrollerImplementation","inputs":[],"outputs":[{"name":"","type":"address","internalType":"address"}],"stateMutability":"view"},{"type":"function","name":"pendingAdmin","inputs":[],"outputs":[{"name":"","type":"address","internalType":"address"}],"stateMutability":"view"},{"type":"function","name":"pendingComptrollerImplementation","inputs":[],"outputs":[{"name":"","type":"address","internalType":"address"}],"stateMutability":"view"},{"type":"event","name":"Failure","inputs":[{"name":"error","type":"uint256","indexed":false,"internalType":"uint256"},{"name":"info","type":"uint256","indexed":false,"internalType":"uint256"},{"name":"detail","type":"uint256","indexed":false,"internalType":"uint256"}],"anonymous":false},{"type":"event","name":"NewAdmin","inputs":[{"name":"oldAdmin","type":"address","indexed":false,"internalType":"address"},{"name":"newAdmin","type":"address","indexed":false,"internalType":"address"}],"anonymous":false},{"type":"event","name":"NewImplementation","inputs":[{"name":"oldImplementation","type":"address","indexed":false,"internalType":"address"},{"name":"newImplementation","type":"address","indexed":false,"internalType":"address"}],"anonymous":false},{"type":"event","name":"NewPendingAdmin","inputs":[{"name":"oldPendingAdmin","type":"address","indexed":false,"internalType":"address"},{"name":"newPendingAdmin","type":"address","indexed":false,"internalType":"address"}],"anonymous":false},{"type":"event","name":"NewPendingImplementation","inputs":[{"name":"oldPendingImplementation","type":"address","indexed":false,"internalType":"address"},{"name":"newPendingImplementation","type":"address","indexed":false,"internalType":"address"}],"anonymous":false}],"bytecode":{"object":"0x6080806040523461002857600080546001600160a01b031916331790556105f0908161002e8239f35b600080fdfe6080604052600436101561001a575b3415610512575b600080fd5b6000803560e01c908163267822471461009d57508063b71d1a0c14610098578063bb82aa5e14610093578063c1e803341461008e578063dcfbc0c714610089578063e992a04114610084578063e9c714f21461007f5763f851a4400361000e576101a8565b61018d565b610175565b61014c565b610131565b610108565b6100e8565b346100c357806003193601126100c3576001546001600160a01b03166080908152602090f35b80fd5b6020906003190112610015576004356001600160a01b03811681036100155790565b346100155760206101006100fb366100c6565b6101d1565b604051908152f35b34610015576000366003190112610015576002546040516001600160a01b039091168152602090f35b34610015576000366003190112610015576020610100610275565b34610015576000366003190112610015576003546040516001600160a01b039091168152602090f35b34610015576020610100610188366100c6565b610376565b34610015576000366003190112610015576020610100610415565b34610015576000366003190112610015576000546040516001600160a01b039091168152602090f35b6000546001600160a01b03908116330361024757600180548383166001600160a01b031982161790915560408051929091166001600160a01b03908116835290921660208201527fca4f2f25d0898edd99413412fb94012f9e54ec8142f9b093e7720646a95b16a991819081015b0390a1600090565b505060008051602061059b833981519152606060405160018152600e602082015260006040820152a1600190565b6003546001600160a01b031633811480159061036e575b61034157600280546001600160a01b03198082166001600160a01b03858116918217909455600380549092169091556040805193909216835260208301527fe945ccee5d701fc83f9b8aa8ca94ea4219ec1fcbd4f4cab4f0ea57c5c3e1d81592917fd604de94d45953f9138079ec1b82d533cb2160c906d1076d1f7ed54befbca97a9190a16003546001600160a01b03165b604080516001600160a01b0393841681529290911660208301528190810161023f565b5060008051602061059b8339815191526060604051600181526001602082015260006040820152a1600190565b50801561028c565b6000546001600160a01b0390811633036103e757600380549282166001600160a01b03198416811790915560408051929093166001600160a01b0390811683521660208201527fe945ccee5d701fc83f9b8aa8ca94ea4219ec1fcbd4f4cab4f0ea57c5c3e1d815918190810161023f565b505060008051602061059b833981519152606060405160018152600f602082015260006040820152a1600190565b6001546001600160a01b039081163381148015906104f4575b6104c657600080546001600160a01b038381166001600160a01b0319808416821790945560018054909416909355604080519590921616845260208401919091527fca4f2f25d0898edd99413412fb94012f9e54ec8142f9b093e7720646a95b16a9927ff9ffabca9c8276e99321725bcb43fb076a6c66a54b7f21c4e8146d8519b417dc9190a16001546001600160a01b031661031e565b505060008051602061059b8339815191526060604051600181526000602082015260006040820152a1600190565b50331561042e565b634e487b7160e01b600052604160045260246000fd5b600254604051600091829182916001600160a01b031690368382378036810184815203915af43d156105955767ffffffffffffffff3d8181116105905760405191601f8201601f19908116603f01168301908111838210176105905760405281528260203d92013e5b604051913d90833e1561058c573d90f35b3d90fd5b6104fc565b61057b56fe45b96fe442630264581b197e84bbada861235052c5a1aadfff9ea4e40a969aa0a264697066735822122059d58bd06ee723670786cd7dfccce163d5313816014eb60b176c3b817375d9dc64736f6c63430008170033","linkReferences":{}},"methodIdentifiers":{"_acceptAdmin()":"e9c714f2","_acceptImplementation()":"c1e80334","_setPendingAdmin(address)":"b71d1a0c","_setPendingImplementation(address)":"e992a041","admin()":"f851a440","comptrollerImplementation()":"bb82aa5e","pendingAdmin()":"26782247","pendingComptrollerImplementation()":"dcfbc0c7"},"id":81}