{"abi":[{"type":"constructor","inputs":[{"name":"baseRatePerYear","type":"uint256","internalType":"uint256"},{"name":"multiplierPerYear","type":"uint256","internalType":"uint256"}],"stateMutability":"nonpayable"},{"type":"function","name":"baseRatePerTimestamp","inputs":[],"outputs":[{"name":"","type":"uint256","internalType":"uint256"}],"stateMutability":"view"},{"type":"function","name":"getBorrowRate","inputs":[{"name":"cash","type":"uint256","internalType":"uint256"},{"name":"borrows","type":"uint256","internalType":"uint256"},{"name":"reserves","type":"uint256","internalType":"uint256"}],"outputs":[{"name":"","type":"uint256","internalType":"uint256"}],"stateMutability":"view"},{"type":"function","name":"getSupplyRate","inputs":[{"name":"cash","type":"uint256","internalType":"uint256"},{"name":"borrows","type":"uint256","internalType":"uint256"},{"name":"reserves","type":"uint256","internalType":"uint256"},{"name":"reserveFactorMantissa","type":"uint256","internalType":"uint256"}],"outputs":[{"name":"","type":"uint256","internalType":"uint256"}],"stateMutability":"view"},{"type":"function","name":"isInterestRateModel","inputs":[],"outputs":[{"name":"","type":"bool","internalType":"bool"}],"stateMutability":"view"},{"type":"function","name":"multiplierPerTimestamp","inputs":[],"outputs":[{"name":"","type":"uint256","internalType":"uint256"}],"stateMutability":"view"},{"type":"function","name":"timestampsPerYear","inputs":[],"outputs":[{"name":"","type":"uint256","internalType":"uint256"}],"stateMutability":"view"},{"type":"function","name":"utilizationRate","inputs":[{"name":"cash","type":"uint256","internalType":"uint256"},{"name":"borrows","type":"uint256","internalType":"uint256"},{"name":"reserves","type":"uint256","internalType":"uint256"}],"outputs":[{"name":"","type":"uint256","internalType":"uint256"}],"stateMutability":"pure"},{"type":"event","name":"NewInterestParams","inputs":[{"name":"baseRatePerTimestamp","type":"uint256","indexed":false,"internalType":"uint256"},{"name":"multiplierPerTimestamp","type":"uint256","indexed":false,"internalType":"uint256"}],"anonymous":false}],"bytecode":{"object":"0x6080346100d857601f61072c38819003918201601f19168301916001600160401b038311848410176100dd5780849260409485528339810103126100d8576040816100a661007460207ff35fa19c15e9ba782633a5df62a98b20217151addc68e3ff2cd623a48d37ec279551930151926100f3565b61007c610182565b506301e1338091829161008d610182565b50670de0b6b3a7640000938491040493846001556100f3565b6100ae610182565b506100b7610182565b5004048060005582519182526020820152a160405161056090816101cc8239f35b600080fd5b634e487b7160e01b600052604160045260246000fd5b801561017c57670de0b6b3a764000080820291820480820361016657036101175790565b60405162461bcd60e51b815260206004820152602160248201527f536166654d6174683a206d756c7469706c69636174696f6e206f766572666c6f6044820152607760f81b6064820152608490fd5b634e487b7160e01b600052601160045260246000fd5b50600090565b60408051919082016001600160401b038111838210176100dd57604052601a82527f536166654d6174683a206469766973696f6e206279207a65726f000000000000602083015256fe60806040818152600436101561001457600080fd5b600091823560e01c9081630c574861146101ee5750806315f24053146101d35780632191f92a146101b857806340bc0af41461019a5780636c2df6a71461017e5780636e71e2d81461015c5763b81688161461006f57600080fd5b346101585760803660031901126101585760043591602435916044356064359261009761040c565b937f536166654d6174683a207375627472616374696f6e20756e646572666c6f770060208601526100d4670de0b6b3a764000095868311156104c3565b8403908482116101445750946100f8826100fd6020986100f8610131968a8761022b565b6103e7565b968679536166654d6174683a206469766973696f6e206279207a65726f60301b98898b610128610446565b01520493610285565b928461013b610446565b01525191048152f35b634e487b7160e01b81526011600452602490fd5b5080fd5b5034610158576020906101776101713661020c565b91610285565b9051908152f35b5034610158578160031936011261015857602091549051908152f35b50346101585781600319360112610158576020906001549051908152f35b50346101585781600319360112610158576020905160018152f35b5034610158576020906101776101e83661020c565b9161022b565b839034610158578160031936011261015857806301e1338060209252f35b606090600319011261022657600435906024359060443590565b600080fd5b610282926102459261023c92610285565b600054906103e7565b79536166654d6174683a206469766973696f6e206279207a65726f60301b602061026d610446565b0152670de0b6b3a7640000600154910461046a565b90565b9190801561033c578061029a6102a092610364565b9361046a565b916102db6102ac61040c565b7f536166654d6174683a207375627472616374696f6e20756e646572666c6f77006020820152848411156104c3565b818303918383116103265761028293610321916102f6610446565b9179536166654d6174683a206469766973696f6e206279207a65726f60301b602084015214156104c3565b610344565b634e487b7160e01b600052601160045260246000fd5b505050600090565b811561034e570490565b634e487b7160e01b600052601260045260246000fd5b80156103e157670de0b6b3a76400008082029180830482036103265761038a9083610344565b036103925790565b60405162461bcd60e51b815260206004820152602160248201527f536166654d6174683a206d756c7469706c69636174696f6e206f766572666c6f6044820152607760f81b6064820152608490fd5b50600090565b908115610405578082029180830482036103265761038a9083610344565b5050600090565b604051906040820182811067ffffffffffffffff82111761043057604052601f8252565b634e487b7160e01b600052604160045260246000fd5b604051906040820182811067ffffffffffffffff82111761043057604052601a8252565b9081019081811161032657811061047e5790565b60405162461bcd60e51b815260206004820152601b60248201527f536166654d6174683a206164646974696f6e206f766572666c6f7700000000006044820152606490fd5b156104cb5750565b6040519062461bcd60e51b82528160208060048301528251908160248401526000935b828510610511575050604492506000838284010152601f80199101168101030190fd5b84810182015186860160440152938101938593506104ee56fea2646970667358221220c7c409c4d3625650ddd2db618add723cbd73bed0265cb7c88936e98e83a7086c64736f6c63430008170033","linkReferences":{}},"methodIdentifiers":{"baseRatePerTimestamp()":"40bc0af4","getBorrowRate(uint256,uint256,uint256)":"15f24053","getSupplyRate(uint256,uint256,uint256,uint256)":"b8168816","isInterestRateModel()":"2191f92a","multiplierPerTimestamp()":"6c2df6a7","timestampsPerYear()":"0c574861","utilizationRate(uint256,uint256,uint256)":"6e71e2d8"},"id":90}