{"abi":[{"type":"constructor","inputs":[],"stateMutability":"nonpayable"},{"type":"function","name":"aggregators","inputs":[{"name":"","type":"address","internalType":"address"},{"name":"","type":"uint256","internalType":"uint256"}],"outputs":[{"name":"","type":"address","internalType":"address"}],"stateMutability":"view"},{"type":"function","name":"configs","inputs":[{"name":"","type":"address","internalType":"address"}],"outputs":[{"name":"underlying","type":"address","internalType":"contract ERC20"},{"name":"hToken","type":"address","internalType":"contract HToken"},{"name":"decimals","type":"uint8","internalType":"uint8"}],"stateMutability":"view"},{"type":"function","name":"freshCheck","inputs":[],"outputs":[{"name":"","type":"uint256","internalType":"uint256"}],"stateMutability":"view"},{"type":"function","name":"getAssetAggregators","inputs":[{"name":"hToken","type":"address","internalType":"contract HToken"}],"outputs":[{"name":"","type":"address[]","internalType":"address[]"}],"stateMutability":"view"},{"type":"function","name":"getFreshCheck","inputs":[],"outputs":[{"name":"","type":"uint256","internalType":"uint256"}],"stateMutability":"view"},{"type":"function","name":"getGracePeriodTime","inputs":[],"outputs":[{"name":"","type":"uint256","internalType":"uint256"}],"stateMutability":"view"},{"type":"function","name":"getPrice","inputs":[{"name":"hToken","type":"address","internalType":"contract HToken"}],"outputs":[{"name":"","type":"uint256","internalType":"uint256"}],"stateMutability":"view"},{"type":"function","name":"getRTokenConfig","inputs":[{"name":"hToken","type":"address","internalType":"contract HToken"}],"outputs":[{"name":"","type":"tuple","internalType":"struct ICompositeOracle.RTokenConfig","components":[{"name":"underlying","type":"address","internalType":"contract ERC20"},{"name":"hToken","type":"address","internalType":"contract HToken"},{"name":"decimals","type":"uint8","internalType":"uint8"}]}],"stateMutability":"view"},{"type":"function","name":"getSequencerUptimeFeed","inputs":[],"outputs":[{"name":"","type":"address","internalType":"address"}],"stateMutability":"view"},{"type":"function","name":"getUnderlying","inputs":[{"name":"hToken","type":"address","internalType":"contract HToken"}],"outputs":[{"name":"underlying","type":"address","internalType":"contract ERC20"}],"stateMutability":"view"},{"type":"function","name":"getUnderlyingPrice","inputs":[{"name":"hToken","type":"address","internalType":"contract HToken"}],"outputs":[{"name":"","type":"uint256","internalType":"uint256"}],"stateMutability":"view"},{"type":"function","name":"gracePeriodTime","inputs":[],"outputs":[{"name":"","type":"uint256","internalType":"uint256"}],"stateMutability":"view"},{"type":"function","name":"initialize","inputs":[],"outputs":[],"stateMutability":"nonpayable"},{"type":"function","name":"l2Aggregators","inputs":[{"name":"","type":"address","internalType":"address"}],"outputs":[{"name":"","type":"bool","internalType":"bool"}],"stateMutability":"view"},{"type":"function","name":"owner","inputs":[],"outputs":[{"name":"","type":"address","internalType":"address"}],"stateMutability":"view"},{"type":"function","name":"renounceOwnership","inputs":[],"outputs":[],"stateMutability":"nonpayable"},{"type":"function","name":"sequencerUptimeFeed","inputs":[],"outputs":[{"name":"","type":"address","internalType":"contract AggregatorV3Interface"}],"stateMutability":"view"},{"type":"function","name":"setFreshCheck","inputs":[{"name":"freshCheck_","type":"uint256","internalType":"uint256"}],"outputs":[],"stateMutability":"nonpayable"},{"type":"function","name":"setGracePeriodTime","inputs":[{"name":"gracePeriodTime_","type":"uint256","internalType":"uint256"}],"outputs":[],"stateMutability":"nonpayable"},{"type":"function","name":"setHTokenConfig","inputs":[{"name":"hToken","type":"address","internalType":"contract HToken"},{"name":"underlyingAddr","type":"address","internalType":"address"},{"name":"decimals","type":"uint8","internalType":"uint8"}],"outputs":[],"stateMutability":"nonpayable"},{"type":"function","name":"setL2Aggregators","inputs":[{"name":"aggregator_","type":"address","internalType":"address"},{"name":"flag","type":"bool","internalType":"bool"}],"outputs":[],"stateMutability":"nonpayable"},{"type":"function","name":"setOracle","inputs":[{"name":"hToken","type":"address","internalType":"contract HToken"},{"name":"aggregators_","type":"address[]","internalType":"address[]"}],"outputs":[],"stateMutability":"nonpayable"},{"type":"function","name":"setSequencerUptimeFeed","inputs":[{"name":"sequencerUptimeFeed_","type":"address","internalType":"address"}],"outputs":[],"stateMutability":"nonpayable"},{"type":"function","name":"transferOwnership","inputs":[{"name":"newOwner","type":"address","internalType":"address"}],"outputs":[],"stateMutability":"nonpayable"},{"type":"event","name":"Initialized","inputs":[{"name":"version","type":"uint64","indexed":false,"internalType":"uint64"}],"anonymous":false},{"type":"event","name":"OracleSetup","inputs":[{"name":"hToken","type":"address","indexed":true,"internalType":"address"},{"name":"feedsNum","type":"uint256","indexed":false,"internalType":"uint256"}],"anonymous":false},{"type":"event","name":"OwnershipTransferred","inputs":[{"name":"previousOwner","type":"address","indexed":true,"internalType":"address"},{"name":"newOwner","type":"address","indexed":true,"internalType":"address"}],"anonymous":false},{"type":"event","name":"RTokenConfigUpdate","inputs":[{"name":"hToken","type":"address","indexed":true,"internalType":"address"},{"name":"underlying","type":"address","indexed":true,"internalType":"address"}],"anonymous":false},{"type":"event","name":"UpdateFreshCheck","inputs":[{"name":"oldFreshCheck","type":"uint256","indexed":false,"internalType":"uint256"},{"name":"newFreshCheck","type":"uint256","indexed":false,"internalType":"uint256"}],"anonymous":false},{"type":"event","name":"UpdateGracePeriodTime","inputs":[{"name":"oldGracePeriodTime","type":"uint256","indexed":false,"internalType":"uint256"},{"name":"newGracePeriodTime","type":"uint256","indexed":false,"internalType":"uint256"}],"anonymous":false},{"type":"event","name":"UpdateSequencerUptimeFeed","inputs":[{"name":"oldSequencerUptimeFeed","type":"address","indexed":true,"internalType":"address"},{"name":"newSequencerUptimeFeed","type":"address","indexed":true,"internalType":"address"}],"anonymous":false},{"type":"error","name":"GracePeriodNotOver","inputs":[]},{"type":"error","name":"InvalidInitialization","inputs":[]},{"type":"error","name":"InvalidPrice","inputs":[]},{"type":"error","name":"NoPriceFeedAvailable","inputs":[]},{"type":"error","name":"NotInitializing","inputs":[]},{"type":"error","name":"OwnableInvalidOwner","inputs":[{"name":"owner","type":"address","internalType":"address"}]},{"type":"error","name":"OwnableUnauthorizedAccount","inputs":[{"name":"account","type":"address","internalType":"address"}]},{"type":"error","name":"PriceNotFresh","inputs":[]},{"type":"error","name":"SequencerDown","inputs":[]}],"bytecode":{"object":"0x608080604052346100b8577ff0c57e16840df040f15088dc2f81fe391c3923bec73e23a9662efc9c229c6a009081549060ff8260401c166100a957506001600160401b036002600160401b031982821601610064575b60405161118790816100be8239f35b6001600160401b031990911681179091556040519081527fc7f505b2f371ae2175ee4913f4499e1f2633a7b5936321eed1cdaeb6115181d290602090a1388080610055565b63f92ee8a960e01b8152600490fd5b600080fdfe6040608081526004908136101561001557600080fd5b600091823560e01c908163032d907614610b545781630e8238be1461034d578163247d8fb31461090a5781633a460ae514610aa557816341976e0914610a5f57816346fd313514610a0c5781634e89a711146109d157816354c53f701461092757816365fbf01c1461090a578163715018a6146108a05781638129fc1c146107745781638967c774146105ad5781638da5cb5b14610577578163a056076c1461054e578163a72647051461054e578163b1deddd01461050d578163b8acde701461042a578163b8f44963146103bf578163bf513e901461036c578163d5bd765c1461034d578163e77cb416146102be578163f2fde38b14610291578163fc57d4df14610185575063fce898781461012b57600080fd5b34610181576020366003190112610181576060916001600160a01b03919060ff90829084610157610ba5565b168152600360205220926001818554169401549083519485528116602085015260a01c1690820152f35b5080fd5b82843461028e5760209283600319360112610181576101a2610ba5565b6001600160a01b0380821684526003865284842054919391839187911680610224575050506101fe6101e46101d8601295610dab565b905060ff871691611104565b9360011b1660240391602483116102115750509061020461020a92610d10565b90610c14565b9051908152f35b634e487b7160e01b825260119052602490fd5b865163313ce56760e01b815292839182905afa908115610284576101d86101fe926101e4928591610257575b5095610dab565b6102779150893d8b1161027d575b61026f8183610bf2565b810190610cea565b89610250565b503d610265565b85513d84823e3d90fd5b80fd5b833461028e57602036600319011261028e576102bb6102ae610ba5565b6102b6610cb1565b610c3d565b80f35b50503461018157602036600319011261018157908160ff6060936102e0610ba5565b93808280516102ee81610bc0565b828152826020820152015260018060a01b0380951681526003602052209282519061031882610bc0565b60018186541695868452015491838560208301928486168452019360a01c168352845195865251166020850152511690820152f35b5050346101815781600319360112610181576020906001549051908152f35b505034610181578060031936011261018157610386610ba5565b6001600160a01b0390811683526002602052818320805460243591908210156103bb5784526020938490200154915191168152f35b8480fd5b833461028e57602036600319011261028e576103d9610ba5565b6103e1610cb1565b600580546001600160a01b039283166001600160a01b0319821681179092559091167fe0dba568f2242d2b5f94e862f9c35cbf906443bc01009cfc2be5c8f03f8f92f28380a380f35b50503461018157606036600319011261018157610445610ba5565b6001600160a01b03602435818116939192908490036103bb576044359060ff8216809203610509578390610477610cb1565b16926001835161048681610bc0565b868152826020820195878752808301958652878a52600360205289209151166bffffffffffffffffffffffff60a01b8254161781550192511682549160ff60a01b905160a01b16916affffffffffffffffffffff60a81b16171790557f85e7a2836f745d89f0fc6e20ce9692c0e230d0b6292ec8cc9629d3f79050b8cf8380a380f35b8580fd5b90503461054a57602036600319011261054a5760209260ff918391906001600160a01b03610539610ba5565b168252855220541690519015158152f35b8280fd5b50503461018157816003193601126101815760055490516001600160a01b039091168152602090f35b5050346101815781600319360112610181576000805160206111328339815191525490516001600160a01b039091168152602090f35b8383346101815780600319360112610181576105c7610ba5565b9260249182359167ffffffffffffffff8084116105095736602385011215610509578382013591818311610762578260051b60209585519461060b88840187610bf2565b85528685018881938301019136831161075e578901905b82821061073b57505050610634610cb1565b8351156107035760018060a01b0380991696878952600287528589209285519485116106f2576801000000000000000085116106f257505081548383558084106106cd575b50908752848720875b8381106106b95788887fc6af8c19868e9d65f4115f49b59074e4e670833d6096b624eb65091316639552898989519051908152a280f35b82518a168282015591860191600101610682565b82895283878a2091820191015b8181106106e75750610679565b8981556001016106da565b634e487b7160e01b8a526041905288fd5b845162461bcd60e51b8152808301879052601381890152722737903b30b634b21030b3b3b932b3b0ba37b960691b6044820152606490fd5b81356001600160a01b038116810361075a578152908801908801610622565b8b80fd5b8a80fd5b634e487b7160e01b8752604190528486fd5b90503461054a578260031936011261054a577ff0c57e16840df040f15088dc2f81fe391c3923bec73e23a9662efc9c229c6a0090815460ff81851c16159167ffffffffffffffff821680159081610898575b600114908161088e575b159081610885575b50610877575067ffffffffffffffff198116600117835581610858575b506107fe610d1e565b610806610d1e565b61080f33610c3d565b610817578280f35b805468ff00000000000000001916905551600181527fc7f505b2f371ae2175ee4913f4499e1f2633a7b5936321eed1cdaeb6115181d290602090a138808280f35b68ffffffffffffffffff191668010000000000000001178255386107f5565b845163f92ee8a960e01b8152fd5b905015386107d8565b303b1591506107d0565b8491506107c6565b833461028e578060031936011261028e576108b9610cb1565b60008051602061113283398151915280546001600160a01b0319811690915581906001600160a01b03167f8be0079c531659141344cd1fd0a4f28419497f9722a3daafe3b4186f6b6457e08280a380f35b505034610181578160031936011261018157602091549051908152f35b5050346101815760208060031936011261054a576001600160a01b03928361094d610ba5565b1681526002825282812091835190818185549182815201908195855282852090855b8181106109bb5750505082610985910383610bf2565b8451948186019282875251809352850193925b8281106109a55785850386f35b8351871685529381019392810192600101610998565b82548a168452928401926001928301920161096f565b505034610181576020366003190112610181576020916001600160a01b03908290826109fb610ba5565b168152600385522054169051908152f35b9190503461054a57602036600319011261054a577ff50bb82e9439ab9ba8922d5193bcbc1289d0d9ce7b80d66f314daf5b4da8a6c69135610a4b610cb1565b83549080855582519182526020820152a180f35b82843461028e57602036600319011261028e5750610a83610a7e610ba5565b610dab565b508092915015610a97576020925051908152f35b5162bfc92160e01b81529050fd5b90503461054a57602036600319011261054a57803590610ac3610cb1565b8115610b035750907f65ffb770745ab5332b5dd657c61f51a0348c2cff1758187e0b026c4213f1b54891600154908060015582519182526020820152a180f35b608490602084519162461bcd60e51b8352820152602560248201527f677261636520706572696f642074696d65206d75737420677265617465722074604482015264068616e20360dc1b6064820152fd5b9190503461054a578060031936011261054a57610b6f610ba5565b91602435928315158094036103bb57610b86610cb1565b60018060a01b0316845260205282209060ff8019835416911617905580f35b600435906001600160a01b0382168203610bbb57565b600080fd5b6060810190811067ffffffffffffffff821117610bdc57604052565b634e487b7160e01b600052604160045260246000fd5b90601f8019910116810190811067ffffffffffffffff821117610bdc57604052565b81810292918115918404141715610c2757565b634e487b7160e01b600052601160045260246000fd5b6001600160a01b03908116908115610c985760008051602061113283398151915280546001600160a01b031981168417909155167f8be0079c531659141344cd1fd0a4f28419497f9722a3daafe3b4186f6b6457e0600080a3565b604051631e4fbdf760e01b815260006004820152602490fd5b600080516020611132833981519152546001600160a01b03163303610cd257565b60405163118cdaa760e01b8152336004820152602490fd5b90816020910312610bbb575160ff81168103610bbb5790565b91908203918211610c2757565b604d8111610c2757600a0a90565b60ff7ff0c57e16840df040f15088dc2f81fe391c3923bec73e23a9662efc9c229c6a005460401c1615610d4d57565b604051631afcd79f60e31b8152600490fd5b519069ffffffffffffffffffff82168203610bbb57565b908160a0910312610bbb57610d8a81610d5f565b91602082015191604081015191610da8608060608401519301610d5f565b90565b9060018060a01b03806000931683526020926002845260409081812094825195868783835492838152018093865284862092865b8682821061109457505050610df692500388610bf2565b86511561105057939180965b80518089101561103f571561102b57838651169081835260049485855260ff97888886205416610f89575b8751633fabe5a360e21b87820190815288825267ffffffffffffffff91808b0183811182821017610f76578b52518791829190885afa3d15610f6d573d918211610f5a57895191610e87601f8201601f19168a0184610bf2565b82523d878984013e5b15610f4a57808780610ea793518301019101610d76565b50919d925050868d1380159190610f35575b50610f1d5750505050829085519485809263313ce56760e01b82525afa938415610f13575092610ef6575b50501690610ef282846110ac565b9190565b610f0c9250803d1061027d5761026f8183610bf2565b3880610ee4565b51903d90823e3d90fd5b929a509395509650600191505b019694929094610e02565b610f40915042610d03565b8654111538610eb9565b5093955096509760019150610f2a565b634e487b7160e01b875260418952602487fd5b60609150610e90565b634e487b7160e01b895260418b52602489fd5b816005541688518091633fabe5a360e21b8252818a60a09384935afa9182156110215787918893610fec575b5050610fdd57610fc59042610d03565b60015410610e2d57875163d15f73b560e01b81528790fd5b885162032b3d60e81b81528890fd5b61100f935080919250903d1061101a575b6110078183610bf2565b810190610d76565b505091503880610fb5565b503d610ffd565b8a513d89823e3d90fd5b634e487b7160e01b82526032600452602482fd5b855163617a0d6f60e11b8152600490fd5b835162461bcd60e51b815260048101839052601960248201527f4e6f2061676772656761746f727320636f6e66696775726564000000000000006044820152606490fd5b85548b1684526001958601958d955093019201610ddf565b9060128111156110ec576011198101908111610c27576110cb90610d10565b9081156110d6570490565b634e487b7160e01b600052601260045260246000fd5b6012039060128211610c2757610204610da892610d10565b919081811115611120576110cb9161111b91610d03565b610d10565b61111b61020491610da89493610d0356fe9016d09d72d40fdae2fd8ceac6b6234c7706214fd39c1cd1e609a0528c199300a26469706673582212209573bf039b64947eadc17b3009fd2cf92a2e33698cef10137cbf77a4287d050164736f6c63430008170033","linkReferences":{}},"methodIdentifiers":{"aggregators(address,uint256)":"bf513e90","configs(address)":"fce89878","freshCheck()":"247d8fb3","getAssetAggregators(address)":"54c53f70","getFreshCheck()":"65fbf01c","getGracePeriodTime()":"0e8238be","getPrice(address)":"41976e09","getRTokenConfig(address)":"e77cb416","getSequencerUptimeFeed()":"a056076c","getUnderlying(address)":"4e89a711","getUnderlyingPrice(address)":"fc57d4df","gracePeriodTime()":"d5bd765c","initialize()":"8129fc1c","l2Aggregators(address)":"b1deddd0","owner()":"8da5cb5b","renounceOwnership()":"715018a6","sequencerUptimeFeed()":"a7264705","setFreshCheck(uint256)":"46fd3135","setGracePeriodTime(uint256)":"3a460ae5","setHTokenConfig(address,address,uint8)":"b8acde70","setL2Aggregators(address,bool)":"032d9076","setOracle(address,address[])":"8967c774","setSequencerUptimeFeed(address)":"b8f44963","transferOwnership(address)":"f2fde38b"},"id":102}