{"abi":[{"type":"constructor","inputs":[{"name":"account","type":"address","internalType":"address"}],"stateMutability":"nonpayable"},{"type":"function","name":"DELEGATION_TYPEHASH","inputs":[],"outputs":[{"name":"","type":"bytes32","internalType":"bytes32"}],"stateMutability":"view"},{"type":"function","name":"DOMAIN_TYPEHASH","inputs":[],"outputs":[{"name":"","type":"bytes32","internalType":"bytes32"}],"stateMutability":"view"},{"type":"function","name":"PERMIT_TYPEHASH","inputs":[],"outputs":[{"name":"","type":"bytes32","internalType":"bytes32"}],"stateMutability":"view"},{"type":"function","name":"allowance","inputs":[{"name":"account","type":"address","internalType":"address"},{"name":"spender","type":"address","internalType":"address"}],"outputs":[{"name":"","type":"uint256","internalType":"uint256"}],"stateMutability":"view"},{"type":"function","name":"approve","inputs":[{"name":"spender","type":"address","internalType":"address"},{"name":"rawAmount","type":"uint256","internalType":"uint256"}],"outputs":[{"name":"","type":"bool","internalType":"bool"}],"stateMutability":"nonpayable"},{"type":"function","name":"balanceOf","inputs":[{"name":"account","type":"address","internalType":"address"}],"outputs":[{"name":"","type":"uint256","internalType":"uint256"}],"stateMutability":"view"},{"type":"function","name":"checkpoints","inputs":[{"name":"","type":"address","internalType":"address"},{"name":"","type":"uint32","internalType":"uint32"}],"outputs":[{"name":"fromBlock","type":"uint32","internalType":"uint32"},{"name":"votes","type":"uint96","internalType":"uint96"}],"stateMutability":"view"},{"type":"function","name":"decimals","inputs":[],"outputs":[{"name":"","type":"uint8","internalType":"uint8"}],"stateMutability":"view"},{"type":"function","name":"delegate","inputs":[{"name":"delegatee","type":"address","internalType":"address"}],"outputs":[],"stateMutability":"nonpayable"},{"type":"function","name":"delegateBySig","inputs":[{"name":"delegatee","type":"address","internalType":"address"},{"name":"nonce","type":"uint256","internalType":"uint256"},{"name":"expiry","type":"uint256","internalType":"uint256"},{"name":"v","type":"uint8","internalType":"uint8"},{"name":"r","type":"bytes32","internalType":"bytes32"},{"name":"s","type":"bytes32","internalType":"bytes32"}],"outputs":[],"stateMutability":"nonpayable"},{"type":"function","name":"delegates","inputs":[{"name":"","type":"address","internalType":"address"}],"outputs":[{"name":"","type":"address","internalType":"address"}],"stateMutability":"view"},{"type":"function","name":"getCurrentVotes","inputs":[{"name":"account","type":"address","internalType":"address"}],"outputs":[{"name":"","type":"uint96","internalType":"uint96"}],"stateMutability":"view"},{"type":"function","name":"getPriorVotes","inputs":[{"name":"account","type":"address","internalType":"address"},{"name":"blockNumber","type":"uint256","internalType":"uint256"}],"outputs":[{"name":"","type":"uint96","internalType":"uint96"}],"stateMutability":"view"},{"type":"function","name":"name","inputs":[],"outputs":[{"name":"","type":"string","internalType":"string"}],"stateMutability":"view"},{"type":"function","name":"nonces","inputs":[{"name":"","type":"address","internalType":"address"}],"outputs":[{"name":"","type":"uint256","internalType":"uint256"}],"stateMutability":"view"},{"type":"function","name":"numCheckpoints","inputs":[{"name":"","type":"address","internalType":"address"}],"outputs":[{"name":"","type":"uint32","internalType":"uint32"}],"stateMutability":"view"},{"type":"function","name":"permit","inputs":[{"name":"owner","type":"address","internalType":"address"},{"name":"spender","type":"address","internalType":"address"},{"name":"rawAmount","type":"uint256","internalType":"uint256"},{"name":"deadline","type":"uint256","internalType":"uint256"},{"name":"v","type":"uint8","internalType":"uint8"},{"name":"r","type":"bytes32","internalType":"bytes32"},{"name":"s","type":"bytes32","internalType":"bytes32"}],"outputs":[],"stateMutability":"nonpayable"},{"type":"function","name":"symbol","inputs":[],"outputs":[{"name":"","type":"string","internalType":"string"}],"stateMutability":"view"},{"type":"function","name":"totalSupply","inputs":[],"outputs":[{"name":"","type":"uint256","internalType":"uint256"}],"stateMutability":"view"},{"type":"function","name":"transfer","inputs":[{"name":"dst","type":"address","internalType":"address"},{"name":"rawAmount","type":"uint256","internalType":"uint256"}],"outputs":[{"name":"","type":"bool","internalType":"bool"}],"stateMutability":"nonpayable"},{"type":"function","name":"transferFrom","inputs":[{"name":"src","type":"address","internalType":"address"},{"name":"dst","type":"address","internalType":"address"},{"name":"rawAmount","type":"uint256","internalType":"uint256"}],"outputs":[{"name":"","type":"bool","internalType":"bool"}],"stateMutability":"nonpayable"},{"type":"event","name":"Approval","inputs":[{"name":"owner","type":"address","indexed":true,"internalType":"address"},{"name":"spender","type":"address","indexed":true,"internalType":"address"},{"name":"amount","type":"uint256","indexed":false,"internalType":"uint256"}],"anonymous":false},{"type":"event","name":"DelegateChanged","inputs":[{"name":"delegator","type":"address","indexed":true,"internalType":"address"},{"name":"fromDelegate","type":"address","indexed":true,"internalType":"address"},{"name":"toDelegate","type":"address","indexed":true,"internalType":"address"}],"anonymous":false},{"type":"event","name":"DelegateVotesChanged","inputs":[{"name":"delegate","type":"address","indexed":true,"internalType":"address"},{"name":"previousBalance","type":"uint256","indexed":false,"internalType":"uint256"},{"name":"newBalance","type":"uint256","indexed":false,"internalType":"uint256"}],"anonymous":false},{"type":"event","name":"Transfer","inputs":[{"name":"from","type":"address","indexed":true,"internalType":"address"},{"name":"to","type":"address","indexed":true,"internalType":"address"},{"name":"amount","type":"uint256","indexed":false,"internalType":"uint256"}],"anonymous":false}],"bytecode":{"object":"0x6080346100b657601f6119a438819003918201601f19168301916001600160401b038311848410176100bb578084926020946040528339810103126100b657516001600160a01b038116908190036100b65780600052600160205260007fddf252ad1be2c89b69c2b068fc378daa952ba7f163c4a11628f55a4df523b3ef6020604083206b033b2e3c9fd0803ce8000000908160018060601b0319825416179055604051908152a36040516118d290816100d28239f35b600080fd5b634e487b7160e01b600052604160045260246000fdfe60806040908082526004908136101561001757600080fd5b600091823560e01c91826306fdde0314610dae57508163095ea7b314610cfd57816318160ddd14610cd657816320606b7014610c9b57816323b872dd14610b4657816330adf81f14610b0b578163313ce56714610aef578163587cde1e14610ab45781635c19a95c14610a915781636fcfff4514610a5257816370a0823114610a10578163782d6fe1146109d75781637ecebe001461099f57816395d89b4114610960578163a9059cbb146108d5578163b4b5ea571461085e578163c3cda5201461059a578163d505accf1461020857508063dd62ed3e146101b7578063e7a324dc146101785763f1127ed81461010d57600080fd5b34610175578160031936011261017557610125610eca565b9060243563ffffffff92838216809203610171576001600160a01b0316825260036020908152848320918352908152908390205483519281168352811c6001600160601b031690820152f35b8280fd5b80fd5b5090346101b357816003193601126101b357602090517fe48329057bfd03d55e49b547132e39cffd9c1820ad7b9d4c5307691425d15adf8152f35b5080fd5b5090346101b357806003193601126101b3576001600160601b03816020936101dd610eca565b6101e5610ee5565b6001600160a01b0391821683528287528383209116825285522054915191168152f35b839150346101715760e036600319011261017157610224610eca565b9061022d610ee5565b9160443593606435926084359360ff85168503610596576000198703610536576001600160601b03935b83519561026387610df5565b600f87526e2430b9b4283934b6b2902a37b5b2b760891b6020809801528451878101907f8cad95687ba82c2ce50e74f7b754645e5117c3a5bec8151c0726d5857980a86682527fc35b67cb18d0a885b37d0cb55110323fe1d0420004006067d3e2d97a401a196e87820152466060820152306080820152608081526102e781610e43565b5190206001600160a01b03928316808c5260058952868c208054919a919061030e82611179565b9055875190858b8301937f6e71edae12b1b97f4d1f60370fef10105fa2faae0126114a169c64845d6126c985528d8b850152169c8d6060840152608083015260a08201528560c082015260c0815260e081019181831067ffffffffffffffff841117610523578289528151902061190160f01b6101008301908152610102830194909452610122909101526042815288928c9290916103ae606282610e5f565b519020875190815260ff91909116602082015260a435604082015260c435606082015281805260809060015afa156105195788511680156104d65786036104945742116104535750838652858352808620858752835280862080546bffffffffffffffffffffffff19166001600160601b039093169283179055519081527f8c5be1e5ebec7d5bd14f71427d1e84f3dd0314c0f7b2291e5b200ac8c7c3b9259190a380f35b83606492519162461bcd60e51b8352820152601f60248201527f526174653a3a7065726d69743a207369676e61747572652065787069726564006044820152fd5b5083606492519162461bcd60e51b8352820152601a60248201527f526174653a3a7065726d69743a20756e617574686f72697a65640000000000006044820152fd5b835162461bcd60e51b8152808401879052601f60248201527f526174653a3a7065726d69743a20696e76616c6964207369676e6174757265006044820152606490fd5b83513d8a823e3d90fd5b634e487b7160e01b8e526041885260248efd5b610586835161054481610e27565b602481527f526174653a3a7065726d69743a20616d6f756e742065786365656473203936206020820152636269747360e01b85820152600160601b8910611188565b6001600160601b03871693610257565b8780fd5b9050346101b35760c03660031901126101b3576105b5610eca565b9060443560243560643560ff8116810361085a57916e2430b9b4283934b6b2902a37b5b2b760891b91859493878951916105ee83610df5565b600f835260209586809401528a51838101907f8cad95687ba82c2ce50e74f7b754645e5117c3a5bec8151c0726d5857980a86682527fc35b67cb18d0a885b37d0cb55110323fe1d0420004006067d3e2d97a401a196e8d8201524660608201523060808201526080815261066181610e43565b5190206106e36106f18d8051878101907fe48329057bfd03d55e49b547132e39cffd9c1820ad7b9d4c5307691425d15adf825260018060a01b03809e16838201528960608201528a6080820152608081526106bb81610e43565b51902090519283918883019586909160429261190160f01b8352600283015260228201520190565b03601f198101835282610e5f565b5190208b5190815260ff919091166020820152608435604082015260a435606082015281805260809060015afa1561085057865194851680156107fe578752600583528787209081549161074483611179565b9055036107b057421161075f578461075c8585611401565b80f35b855162461bcd60e51b815291820152602660248201527f526174653a3a64656c656761746542795369673a207369676e617475726520656044820152651e1c1a5c995960d21b606482015260849150fd5b865162461bcd60e51b8152808401839052602260248201527f526174653a3a64656c656761746542795369673a20696e76616c6964206e6f6e604482015261636560f01b6064820152608490fd5b885162461bcd60e51b8152808601859052602660248201527f526174653a3a64656c656761746542795369673a20696e76616c6964207369676044820152656e617475726560d01b6064820152608490fd5b87513d88823e3d90fd5b8580fd5b83833461017557602092836003193601126101b3576001600160601b0391906001600160a01b0361088d610eca565b16825284528281205463ffffffff918491831680156108cb578493600388526108b884842092610f42565b16825286522054841c16915b5191168152f35b50915050916108c4565b8284346101b357806003193601126101b3576020906109596108f5610eca565b6001600160601b03602435610951855161090e81610e27565b602681527f526174653a3a7472616e736665723a20616d6f756e7420657863656564732039888201526536206269747360d01b87820152600160601b8310611188565b1690336111d8565b5160018152f35b8284346101b357816003193601126101b357805161099b9161098182610df5565b600382526204853560ec1b60208301525191829182610e81565b0390f35b8284346101b35760203660031901126101b35760209181906001600160a01b036109c7610eca565b1681526005845220549051908152f35b8284346101b357806003193601126101b3576020906001600160601b03610a086109ff610eca565b60243590610f84565b915191168152f35b8284346101b35760203660031901126101b3576020916001600160601b039082906001600160a01b03610a41610eca565b168152600185522054169051908152f35b839150346101715760203660031901126101715760209263ffffffff918391906001600160a01b03610a82610eca565b16825285522054169051908152f35b82346101755760203660031901126101755761075c610aae610eca565b33611401565b8284346101b35760203660031901126101b3576020916001600160a01b0390829082610ade610eca565b168152600285522054169051908152f35b8284346101b357816003193601126101b3576020905160128152f35b8284346101b357816003193601126101b357602090517f6e71edae12b1b97f4d1f60370fef10105fa2faae0126114a169c64845d6126c98152f35b8284346101b35760603660031901126101b357610959610b64610eca565b610b6c610ee5565b6001600160a01b038216808652602086815285872033885281528587205490966001600160601b03918216949290918781604435610bb7610bab610efb565b600160601b8310611188565b16968a888533141580610c91575b610bd6575b505050505050506111d8565b610c38927f526174653a3a7472616e7366657246726f6d3a207472616e7366657220616d6f855193610c0785610e27565b603d85528401527f756e742065786365656473207370656e64657220616c6c6f77616e6365000000858401526111b0565b93838152808b528181203382528b5220921691826001600160601b031982541617905586519182527f8c5be1e5ebec7d5bd14f71427d1e84f3dd0314c0f7b2291e5b200ac8c7c3b925883393a386808087818a88610bca565b5084831415610bc5565b8284346101b357816003193601126101b357602090517f8cad95687ba82c2ce50e74f7b754645e5117c3a5bec8151c0726d5857980a8668152f35b8284346101b357816003193601126101b357602090516b033b2e3c9fd0803ce80000008152f35b8284346101b357806003193601126101b357602091610d1a610eca565b90602435836000198203610d92576001600160601b03809250925b3381528087528181209460018060a01b031694858252875220911690816001600160601b031982541617905582519081527f8c5be1e5ebec7d5bd14f71427d1e84f3dd0314c0f7b2291e5b200ac8c7c3b925843392a35160018152f35b6001600160601b038092610da7610bab610efb565b1692610d35565b8390853461017157826003193601126101715761099b9250610dcf82610df5565b600f82526e2430b9b4283934b6b2902a37b5b2b760891b60208301525191829182610e81565b6040810190811067ffffffffffffffff821117610e1157604052565b634e487b7160e01b600052604160045260246000fd5b6060810190811067ffffffffffffffff821117610e1157604052565b60a0810190811067ffffffffffffffff821117610e1157604052565b90601f8019910116810190811067ffffffffffffffff821117610e1157604052565b6020808252825181830181905290939260005b828110610eb657505060409293506000838284010152601f8019910116010190565b818101860151848201604001528501610e94565b600435906001600160a01b0382168203610ee057565b600080fd5b602435906001600160a01b0382168203610ee057565b60405190610f0882610e27565b6025825264206269747360d81b6040837f526174653a3a617070726f76653a20616d6f756e74206578636565647320393660208201520152565b63ffffffff9081166000190191908211610f5857565b634e487b7160e01b600052601160045260246000fd5b63ffffffff9182169082160391908211610f5857565b438210156111245760018060a01b03166000908082526020916004835263ffffffff60409281848420541695861561111a57600380875285852084610fc88a610f42565b16865287528184878720541611156110ee5782855260038752858520858052875281848787205416116110e357969291906110038594610f42565b975b838516848a16116110335750506001600160601b0396508352600385528383209116825283522054901c1690565b90879896949795939291611059637fffffff61104f8b8b610f6e565b60011c1689610f6e565b838652818852868620858216875288528686209987519a6110798c610df5565b549a868c16908181526001600160601b039d8e91019c8b1c168c528481146000146110ae575050505050505050505050511690565b90929496989a50839597999b50929092106000146110d35750975b9793929190611005565b98506110de90610f42565b6110c9565b505050509250505090565b5050906001600160601b03959183526003855261110d84842092610f42565b16825283522054901c1690565b5050509250505090565b60405162461bcd60e51b815260206004820152602760248201527f526174653a3a6765745072696f72566f7465733a206e6f742079657420646574604482015266195c9b5a5b995960ca1b6064820152608490fd5b6000198114610f585760010190565b156111905750565b60405162461bcd60e51b81529081906111ac9060048301610e81565b0390fd5b91906111cd6001600160601b038080951692169282841115611188565b03908111610f585790565b6001600160a01b039081169291831561139657811690811561132b57826113299460026000918083526020906001825286817fddf252ad1be2c89b69c2b068fc378daa952ba7f163c4a11628f55a4df523b3ef846001600160601b03886112f78360409c8d6f616d6f756e74206f766572666c6f777360801b86826112b682828a2054168683519161126983610e27565b603683527f526174653a3a5f7472616e73666572546f6b656e733a207472616e7366657220809a84015275616d6f756e7420657863656564732062616c616e636560501b858401526111b0565b978c815260018b52818120836001600160601b03199a168a8254161790558d8152205416918051946112e786610e27565b603086528986015284015261147e565b90868b5260018452828c8c209216908254161790558951908d168152a3835252828282205416938152205416906114a8565b565b60405162461bcd60e51b815260206004820152603a60248201527f526174653a3a5f7472616e73666572546f6b656e733a2063616e6e6f7420747260448201527f616e7366657220746f20746865207a65726f20616464726573730000000000006064820152608490fd5b60405162461bcd60e51b815260206004820152603c60248201527f526174653a3a5f7472616e73666572546f6b656e733a2063616e6e6f7420747260448201527f616e736665722066726f6d20746865207a65726f2061646472657373000000006064820152608490fd5b6113299160018060a01b03809216600092818452600260205280604085205416809260016020527f3134e8a2e6d97e929a7e54011ea5485d7d196dd5f0ba4d4ef95803e8e3fc257f6001600160601b036040882054169660026020526040812094871694856001600160601b0360a01b82541617905580a46114a8565b90916001600160601b03808093169316830192828411610f58576114a59284161015611188565b90565b6001600160a01b038281169391908116908185141580611646575b6114cf575b5050505050565b81611599575b5050826114e4575b80806114c8565b60009283526004602052604083205461158a9363ffffffff9182169161158491908315611592576001600160601b039160409160036020528282209061152987610f42565b168252602052205460201c16925b6040519061154482610e27565b602782527f526174653a3a5f6d6f7665566f7465733a20766f746520616d6f756e74206f766020830152666572666c6f777360c81b60408301528461147e565b92611658565b3880806114dd565b5092611537565b6000918252600460205260408220546116389263ffffffff91821691821561163f576001600160601b03916040916003602052828220906115d986610f42565b168252602052205460201c16905b6115846040516115f681610e27565b602881527f526174653a3a5f6d6f7665566f7465733a20766f746520616d6f756e7420756e602082015267646572666c6f777360c01b604082015286846111b0565b38806114d5565b50906115e7565b506001600160601b03831615156114c3565b939291909360409182519061166c82610e27565b603482526116c46020927f526174653a3a5f7772697465436865636b706f696e743a20626c6f636b206e7584820152736d6265722065786365656473203332206269747360601b868201526401000000004310611188565b63ffffffff9687431688821680151580611867575b156117795750507fdec2bacdd2f05b59de34da9b523dff8be42e5e38e818c82fdb0bae774387a72495969760018060a01b038516600052600384526117218660002092610f42565b166000528252611757868560002090640100000000600160801b0382549160201b1690640100000000600160801b031916179055565b83516001600160601b0391821681529516908501526001600160a01b031692a2565b909150859886519261178a84610df5565b83526001600160601b0388168584019081526001600160a01b0387166000818152600388528c812085825288529b8c20945185549251640100000000600160801b0360209190911b166fffffffffffffffffffffffffffffffff199093169084166fffffffffffffffffffffffff000000001916179190911790935563ffffffff199160010192818411611853578a88917fdec2bacdd2f05b59de34da9b523dff8be42e5e38e818c82fdb0bae774387a7249a9b9c526004875220921690825416179055611757565b634e487b7160e01b8b52601160045260248bfd5b506001600160a01b0386166000908152600386528790208a61188885610f42565b166000528552818a886000205416146116d956fea26469706673582212207c1e28b4173c5308a45e725925cfb0d92d44bbe58841f3f1458642659d49869b64736f6c63430008170033","linkReferences":{}},"methodIdentifiers":{"DELEGATION_TYPEHASH()":"e7a324dc","DOMAIN_TYPEHASH()":"20606b70","PERMIT_TYPEHASH()":"30adf81f","allowance(address,address)":"dd62ed3e","approve(address,uint256)":"095ea7b3","balanceOf(address)":"70a08231","checkpoints(address,uint32)":"f1127ed8","decimals()":"313ce567","delegate(address)":"5c19a95c","delegateBySig(address,uint256,uint256,uint8,bytes32,bytes32)":"c3cda520","delegates(address)":"587cde1e","getCurrentVotes(address)":"b4b5ea57","getPriorVotes(address,uint256)":"782d6fe1","name()":"06fdde03","nonces(address)":"7ecebe00","numCheckpoints(address)":"6fcfff45","permit(address,address,uint256,uint256,uint8,bytes32,bytes32)":"d505accf","symbol()":"95d89b41","totalSupply()":"18160ddd","transfer(address,uint256)":"a9059cbb","transferFrom(address,address,uint256)":"23b872dd"},"id":80}