{"abi":[{"type":"constructor","inputs":[{"name":"_exchangeRateFeedAddress","type":"address","internalType":"address"},{"name":"_originPriceFeed","type":"address","internalType":"address"},{"name":"_description","type":"string","internalType":"string"}],"stateMutability":"nonpayable"},{"type":"function","name":"decimals","inputs":[],"outputs":[{"name":"","type":"uint8","internalType":"uint8"}],"stateMutability":"pure"},{"type":"function","name":"description","inputs":[],"outputs":[{"name":"","type":"string","internalType":"string"}],"stateMutability":"view"},{"type":"function","name":"exchangeRateFeed","inputs":[],"outputs":[{"name":"","type":"address","internalType":"contract AggregatorV3Interface"}],"stateMutability":"view"},{"type":"function","name":"latestRoundData","inputs":[],"outputs":[{"name":"roundId","type":"uint80","internalType":"uint80"},{"name":"answer","type":"int256","internalType":"int256"},{"name":"startedAt","type":"uint256","internalType":"uint256"},{"name":"updatedAt","type":"uint256","internalType":"uint256"},{"name":"answeredInRound","type":"uint80","internalType":"uint80"}],"stateMutability":"view"},{"type":"function","name":"originPriceFeed","inputs":[],"outputs":[{"name":"","type":"address","internalType":"contract AggregatorV3Interface"}],"stateMutability":"view"},{"type":"function","name":"version","inputs":[],"outputs":[{"name":"","type":"uint256","internalType":"uint256"}],"stateMutability":"pure"}],"bytecode":{"object":"0x608060405234610236576107ec803803806100198161023b565b9283398101906060818303126102365761003281610260565b91602092610041848401610260565b60408401516001600160401b0394919391858211610236570194601f9282848801121561023657865186811161020c57601f19976100848287018a16850161023b565b9482865284838301011161023657839060005b8381106102225750506000918501015260018060a01b038060018060a01b031992168260005416176000556001951690855416178455815194851161020c576002548481811c91168015610202575b828210146101ec578381116101a5575b508092851160011461013f575083945090839291600094610134575b50501b916000199060031b1c1916176002555b60405161057790816102758239f35b015192503880610112565b929484908116600260005284600020946000905b8883831061018b5750505010610172575b505050811b01600255610125565b015160001960f88460031b161c19169055388080610164565b858701518855909601959485019487935090810190610153565b6002600052816000208480880160051c8201928489106101e3575b0160051c019085905b8281106101d75750506100f6565b600081550185906101c9565b925081926101c0565b634e487b7160e01b600052602260045260246000fd5b90607f16906100e6565b634e487b7160e01b600052604160045260246000fd5b818101830151878201840152859201610097565b600080fd5b6040519190601f01601f191682016001600160401b0381118382101761020c57604052565b51906001600160a01b03821682036102365756fe608060408181526004918236101561001657600080fd5b600090813560e01c908163313ce5671461044d5750806354fd4d50146104315780636e43f229146104085780637284e416146102c3578063f32a4686146102975763feaf968c1461006657600080fd5b3461029457806003193601126102945780548251633fabe5a360e21b80825260a095926001600160a01b03919082169087848681855afa94851561028a578680819582978399610258575b5060015416908a519485528b858581855afa94851561024e57839561021a575b508a51602081868163313ce56760e01b9a8b82525afa908115610210579060ff9185916101f1575b5016601203601281116101de5760209161011561011b9261050a565b9061052e565b95848c518094819382525afa9081156101d4579060ff9183916101a5575b501660120391601283116101925750509161016361016892610115670de0b6b3a76400009561050a565b61052e565b049480519569ffffffffffffffffffff809616875260208701528501526060840152166080820152f35b634e487b7160e01b825260119052602490fd5b6101c7915060203d6020116101cd575b6101bf8183610468565b8101906104f1565b38610139565b503d6101b5565b8a513d84823e3d90fd5b634e487b7160e01b845260118552602484fd5b61020a915060203d6020116101cd576101bf8183610468565b386100f9565b8c513d86823e3d90fd5b61023b9195508c8d3d10610247575b6102338183610468565b8101906104bc565b505050905093386100d1565b503d610229565b8b513d85823e3d90fd5b9399509750509350610278919450883d8a11610247576102338183610468565b939893979096919591939290386100b1565b87513d88823e3d90fd5b80fd5b5090346102bf57816003193601126102bf57905490516001600160a01b039091168152602090f35b5080fd5b50346102945780600319360112610294578151908060025460018160011c916001811680156103fe575b60209889851082146103eb57509183918995938895865290816000146103ca575060011461036e575b50506103289250959392950382610468565b82519382859384528251928382860152825b84811061035857505050828201840152601f01601f19168101030190f35b818101830151888201880152879550820161033a565b600286527f405787fa12a823e0f2b7631cc41b3ba8828b3321ca811111fa75cd3aa3bb5ace9492508591905b8183106103b257508894505082010161032838610316565b8554888401850152948501948794509183019161039a565b91505061032894925060ff191682840152151560051b820101869238610316565b634e487b7160e01b875260229052602486fd5b92607f16926102ed565b5090346102bf57816003193601126102bf5760015490516001600160a01b039091168152602090f35b5090346102bf57816003193601126102bf576020905160088152f35b9050346102bf57816003193601126102bf5780601260209252f35b90601f8019910116810190811067ffffffffffffffff82111761048a57604052565b634e487b7160e01b600052604160045260246000fd5b519069ffffffffffffffffffff821682036104b757565b600080fd5b908160a09103126104b7576104d0816104a0565b916020820151916040810151916104ee6080606084015193016104a0565b90565b908160209103126104b7575160ff811681036104b75790565b604d811161051857600a0a90565b634e487b7160e01b600052601160045260246000fd5b818102929181159184041417156105185756fea2646970667358221220c4db36c4bb7cbd2f9a8f9a4b68063f23bac761d27ea64aea6675739f22b81b0264736f6c63430008170033","linkReferences":{}},"methodIdentifiers":{"decimals()":"313ce567","description()":"7284e416","exchangeRateFeed()":"f32a4686","latestRoundData()":"feaf968c","originPriceFeed()":"6e43f229","version()":"54fd4d50"},"id":115}