{"abi":[{"type":"constructor","inputs":[{"name":"_exchangeRateFeedAddress","type":"address","internalType":"address"},{"name":"_originPriceFeed","type":"address","internalType":"address"},{"name":"_description","type":"string","internalType":"string"}],"stateMutability":"nonpayable"},{"type":"function","name":"decimals","inputs":[],"outputs":[{"name":"","type":"uint8","internalType":"uint8"}],"stateMutability":"pure"},{"type":"function","name":"description","inputs":[],"outputs":[{"name":"","type":"string","internalType":"string"}],"stateMutability":"view"},{"type":"function","name":"exchangeRateFeed","inputs":[],"outputs":[{"name":"","type":"address","internalType":"contract IProxy"}],"stateMutability":"view"},{"type":"function","name":"freshCheck","inputs":[],"outputs":[{"name":"","type":"uint256","internalType":"uint256"}],"stateMutability":"view"},{"type":"function","name":"latestRoundData","inputs":[],"outputs":[{"name":"roundId","type":"uint80","internalType":"uint80"},{"name":"answer","type":"int256","internalType":"int256"},{"name":"startedAt","type":"uint256","internalType":"uint256"},{"name":"updatedAt","type":"uint256","internalType":"uint256"},{"name":"answeredInRound","type":"uint80","internalType":"uint80"}],"stateMutability":"view"},{"type":"function","name":"originPriceFeed","inputs":[],"outputs":[{"name":"","type":"address","internalType":"contract AggregatorV3Interface"}],"stateMutability":"view"},{"type":"function","name":"version","inputs":[],"outputs":[{"name":"","type":"uint256","internalType":"uint256"}],"stateMutability":"pure"},{"type":"error","name":"PriceNotFresh","inputs":[]}],"bytecode":{"object":"0x60806040523461023c576108168038038061001981610241565b92833981019060608183031261023c5761003281610266565b91602092610041848401610266565b60408401516001600160401b039491939185821161023c570194601f9282848801121561023c57865186811161021257601f19976100848287018a168501610241565b9482865284838301011161023c57839060005b83811061022857505060009185010152610e1060035560018060a01b038060018060a01b0319921682600054161760005560019516908554161784558151948511610212576002548481811c91168015610208575b828210146101f2578381116101ab575b508092851160011461014557508394509083929160009461013a575b50501b916000199060031b1c1916176002555b60405161059b908161027b8239f35b015192503880610118565b929484908116600260005284600020946000905b888383106101915750505010610178575b505050811b0160025561012b565b015160001960f88460031b161c1916905538808061016a565b858701518855909601959485019487935090810190610159565b6002600052816000208480880160051c8201928489106101e9575b0160051c019085905b8281106101dd5750506100fc565b600081550185906101cf565b925081926101c6565b634e487b7160e01b600052602260045260246000fd5b90607f16906100ec565b634e487b7160e01b600052604160045260246000fd5b818101830151878201840152859201610097565b600080fd5b6040519190601f01601f191682016001600160401b0381118382101761021257604052565b51906001600160a01b038216820361023c5756fe608060408181526004918236101561001657600080fd5b600090813560e01c908163247d8fb3146104cc57508063313ce567146104b057806354fd4d50146104945780636e43f2291461046b5780637284e41614610326578063f32a4686146102fe5763feaf968c1461007157600080fd5b346102fb57806003193601126102fb57805482516315f789a960e21b8152906001600160a01b0390849083908790829085165afa80156102f1578392849161029b575b5063ffffffff16904282038281116102885760035410156102535760015416928451633fabe5a360e21b815260a0818881885afa93841561024957878396849385976101ee575b5060209089519283809263313ce56760e01b82525afa80156101e45784906101a3575b60ff915016601203926012841161019057604d8411610190575060a097508392610161670de0b6b3a7640000936101669360018060e01b031692600a0a9061053c565b61053c565b049480519569ffffffffffffffffffff809616875260208701528501526060840152166080820152f35b634e487b7160e01b815260118952602490fd5b506020813d6020116101dc575b816101bd602093836104e8565b810103126101d8575160ff811681036101d85760ff9061011e565b8380fd5b3d91506101b0565b88513d86823e3d90fd5b9750955050905060a0853d60a011610241575b8161020e60a093836104e8565b8101031261023d5761021f85610520565b908760206102336080828a01519901610520565b93979396906100fb565b5080fd5b3d9150610201565b86513d84823e3d90fd5b845162461bcd60e51b8152602081880152600f60248201526e4e6f742076616c696420707269636560881b6044820152606490fd5b634e487b7160e01b855260118752602485fd5b809350858092503d83116102ea575b6102b481836104e8565b810103126102e65781519182601b0b83036101d857602001519163ffffffff831683036101d8579163ffffffff6100b4565b8280fd5b503d6102aa565b84513d85823e3d90fd5b80fd5b50903461023d578160031936011261023d57905490516001600160a01b039091168152602090f35b50346102fb57806003193601126102fb578151908060025460018160011c91600181168015610461575b602098898510821461044e575091839189959388958652908160001461042d57506001146103d1575b505061038b92509593929503826104e8565b82519382859384528251928382860152825b8481106103bb57505050828201840152601f01601f19168101030190f35b818101830151888201880152879550820161039d565b600286527f405787fa12a823e0f2b7631cc41b3ba8828b3321ca811111fa75cd3aa3bb5ace9492508591905b81831061041557508894505082010161038b38610379565b855488840185015294850194879450918301916103fd565b91505061038b94925060ff191682840152151560051b820101869238610379565b634e487b7160e01b875260229052602486fd5b92607f1692610350565b50903461023d578160031936011261023d5760015490516001600160a01b039091168152602090f35b50903461023d578160031936011261023d576020905160018152f35b50903461023d578160031936011261023d576020905160128152f35b90503461023d578160031936011261023d576020906003548152f35b90601f8019910116810190811067ffffffffffffffff82111761050a57604052565b634e487b7160e01b600052604160045260246000fd5b519069ffffffffffffffffffff8216820361053757565b600080fd5b8181029291811591840414171561054f57565b634e487b7160e01b600052601160045260246000fdfea2646970667358221220df239ada0d986359019512b351ccddc2cccb974063ddad2f5b9d145656f396fa64736f6c63430008170033","linkReferences":{}},"methodIdentifiers":{"decimals()":"313ce567","description()":"7284e416","exchangeRateFeed()":"f32a4686","freshCheck()":"247d8fb3","latestRoundData()":"feaf968c","originPriceFeed()":"6e43f229","version()":"54fd4d50"},"id":113}