{"abi":[{"type":"constructor","inputs":[],"stateMutability":"nonpayable"},{"type":"function","name":"_acceptAdmin","inputs":[],"outputs":[{"name":"","type":"uint256","internalType":"uint256"}],"stateMutability":"nonpayable"},{"type":"function","name":"_addReserves","inputs":[{"name":"addAmount","type":"uint256","internalType":"uint256"}],"outputs":[{"name":"","type":"uint256","internalType":"uint256"}],"stateMutability":"nonpayable"},{"type":"function","name":"_becomeImplementation","inputs":[{"name":"data","type":"bytes","internalType":"bytes"}],"outputs":[],"stateMutability":"nonpayable"},{"type":"function","name":"_reduceReserves","inputs":[{"name":"reduceAmount","type":"uint256","internalType":"uint256"}],"outputs":[{"name":"","type":"uint256","internalType":"uint256"}],"stateMutability":"nonpayable"},{"type":"function","name":"_resignImplementation","inputs":[],"outputs":[],"stateMutability":"nonpayable"},{"type":"function","name":"_setComptroller","inputs":[{"name":"newComptroller","type":"address","internalType":"contract ComptrollerInterface"}],"outputs":[{"name":"","type":"uint256","internalType":"uint256"}],"stateMutability":"nonpayable"},{"type":"function","name":"_setInterestRateModel","inputs":[{"name":"newInterestRateModel","type":"address","internalType":"contract InterestRateModel"}],"outputs":[{"name":"","type":"uint256","internalType":"uint256"}],"stateMutability":"nonpayable"},{"type":"function","name":"_setPendingAdmin","inputs":[{"name":"newPendingAdmin","type":"address","internalType":"address payable"}],"outputs":[{"name":"","type":"uint256","internalType":"uint256"}],"stateMutability":"nonpayable"},{"type":"function","name":"_setProtocolSeizeShare","inputs":[{"name":"newProtocolSeizeShareMantissa","type":"uint256","internalType":"uint256"}],"outputs":[{"name":"","type":"uint256","internalType":"uint256"}],"stateMutability":"nonpayable"},{"type":"function","name":"_setReserveFactor","inputs":[{"name":"newReserveFactorMantissa","type":"uint256","internalType":"uint256"}],"outputs":[{"name":"","type":"uint256","internalType":"uint256"}],"stateMutability":"nonpayable"},{"type":"function","name":"accrualBlockTimestamp","inputs":[],"outputs":[{"name":"","type":"uint256","internalType":"uint256"}],"stateMutability":"view"},{"type":"function","name":"accrueInterest","inputs":[],"outputs":[{"name":"","type":"uint256","internalType":"uint256"}],"stateMutability":"nonpayable"},{"type":"function","name":"admin","inputs":[],"outputs":[{"name":"","type":"address","internalType":"address payable"}],"stateMutability":"view"},{"type":"function","name":"allowance","inputs":[{"name":"owner","type":"address","internalType":"address"},{"name":"spender","type":"address","internalType":"address"}],"outputs":[{"name":"","type":"uint256","internalType":"uint256"}],"stateMutability":"view"},{"type":"function","name":"approve","inputs":[{"name":"spender","type":"address","internalType":"address"},{"name":"amount","type":"uint256","internalType":"uint256"}],"outputs":[{"name":"","type":"bool","internalType":"bool"}],"stateMutability":"nonpayable"},{"type":"function","name":"balanceOf","inputs":[{"name":"owner","type":"address","internalType":"address"}],"outputs":[{"name":"","type":"uint256","internalType":"uint256"}],"stateMutability":"view"},{"type":"function","name":"balanceOfUnderlying","inputs":[{"name":"owner","type":"address","internalType":"address"}],"outputs":[{"name":"","type":"uint256","internalType":"uint256"}],"stateMutability":"nonpayable"},{"type":"function","name":"borrow","inputs":[{"name":"borrowAmount","type":"uint256","internalType":"uint256"}],"outputs":[{"name":"","type":"uint256","internalType":"uint256"}],"stateMutability":"nonpayable"},{"type":"function","name":"borrowBalanceCurrent","inputs":[{"name":"account","type":"address","internalType":"address"}],"outputs":[{"name":"","type":"uint256","internalType":"uint256"}],"stateMutability":"nonpayable"},{"type":"function","name":"borrowBalanceStored","inputs":[{"name":"account","type":"address","internalType":"address"}],"outputs":[{"name":"","type":"uint256","internalType":"uint256"}],"stateMutability":"view"},{"type":"function","name":"borrowIndex","inputs":[],"outputs":[{"name":"","type":"uint256","internalType":"uint256"}],"stateMutability":"view"},{"type":"function","name":"borrowRatePerBlock","inputs":[],"outputs":[{"name":"","type":"uint256","internalType":"uint256"}],"stateMutability":"view"},{"type":"function","name":"comptroller","inputs":[],"outputs":[{"name":"","type":"address","internalType":"contract ComptrollerInterface"}],"stateMutability":"view"},{"type":"function","name":"decimals","inputs":[],"outputs":[{"name":"","type":"uint8","internalType":"uint8"}],"stateMutability":"view"},{"type":"function","name":"exchangeRateCurrent","inputs":[],"outputs":[{"name":"","type":"uint256","internalType":"uint256"}],"stateMutability":"nonpayable"},{"type":"function","name":"exchangeRateStored","inputs":[],"outputs":[{"name":"","type":"uint256","internalType":"uint256"}],"stateMutability":"view"},{"type":"function","name":"getAccountSnapshot","inputs":[{"name":"account","type":"address","internalType":"address"}],"outputs":[{"name":"","type":"uint256","internalType":"uint256"},{"name":"","type":"uint256","internalType":"uint256"},{"name":"","type":"uint256","internalType":"uint256"},{"name":"","type":"uint256","internalType":"uint256"}],"stateMutability":"view"},{"type":"function","name":"getCash","inputs":[],"outputs":[{"name":"","type":"uint256","internalType":"uint256"}],"stateMutability":"view"},{"type":"function","name":"implementation","inputs":[],"outputs":[{"name":"","type":"address","internalType":"address"}],"stateMutability":"view"},{"type":"function","name":"initialize","inputs":[{"name":"underlying_","type":"address","internalType":"address"},{"name":"comptroller_","type":"address","internalType":"contract ComptrollerInterface"},{"name":"interestRateModel_","type":"address","internalType":"contract InterestRateModel"},{"name":"initialExchangeRateMantissa_","type":"uint256","internalType":"uint256"},{"name":"name_","type":"string","internalType":"string"},{"name":"symbol_","type":"string","internalType":"string"},{"name":"decimals_","type":"uint8","internalType":"uint8"}],"outputs":[],"stateMutability":"nonpayable"},{"type":"function","name":"initialize","inputs":[{"name":"comptroller_","type":"address","internalType":"contract ComptrollerInterface"},{"name":"interestRateModel_","type":"address","internalType":"contract InterestRateModel"},{"name":"initialExchangeRateMantissa_","type":"uint256","internalType":"uint256"},{"name":"name_","type":"string","internalType":"string"},{"name":"symbol_","type":"string","internalType":"string"},{"name":"decimals_","type":"uint8","internalType":"uint8"}],"outputs":[],"stateMutability":"nonpayable"},{"type":"function","name":"interestRateModel","inputs":[],"outputs":[{"name":"","type":"address","internalType":"contract InterestRateModel"}],"stateMutability":"view"},{"type":"function","name":"isEthDerivative","inputs":[],"outputs":[{"name":"","type":"bool","internalType":"bool"}],"stateMutability":"view"},{"type":"function","name":"isRToken","inputs":[],"outputs":[{"name":"","type":"bool","internalType":"bool"}],"stateMutability":"view"},{"type":"function","name":"liquidateBorrow","inputs":[{"name":"borrower","type":"address","internalType":"address"},{"name":"repayAmount","type":"uint256","internalType":"uint256"},{"name":"hTokenCollateral","type":"address","internalType":"contract HTokenInterface"}],"outputs":[{"name":"","type":"uint256","internalType":"uint256"}],"stateMutability":"nonpayable"},{"type":"function","name":"mint","inputs":[{"name":"mintAmount","type":"uint256","internalType":"uint256"}],"outputs":[{"name":"","type":"uint256","internalType":"uint256"}],"stateMutability":"nonpayable"},{"type":"function","name":"mintWithPermit","inputs":[{"name":"mintAmount","type":"uint256","internalType":"uint256"},{"name":"deadline","type":"uint256","internalType":"uint256"},{"name":"v","type":"uint8","internalType":"uint8"},{"name":"r","type":"bytes32","internalType":"bytes32"},{"name":"s","type":"bytes32","internalType":"bytes32"}],"outputs":[{"name":"","type":"uint256","internalType":"uint256"}],"stateMutability":"nonpayable"},{"type":"function","name":"name","inputs":[],"outputs":[{"name":"","type":"string","internalType":"string"}],"stateMutability":"view"},{"type":"function","name":"pendingAdmin","inputs":[],"outputs":[{"name":"","type":"address","internalType":"address payable"}],"stateMutability":"view"},{"type":"function","name":"protocolSeizeShareMantissa","inputs":[],"outputs":[{"name":"","type":"uint256","internalType":"uint256"}],"stateMutability":"view"},{"type":"function","name":"redeem","inputs":[{"name":"redeemTokens","type":"uint256","internalType":"uint256"}],"outputs":[{"name":"","type":"uint256","internalType":"uint256"}],"stateMutability":"nonpayable"},{"type":"function","name":"redeemUnderlying","inputs":[{"name":"redeemAmount","type":"uint256","internalType":"uint256"}],"outputs":[{"name":"","type":"uint256","internalType":"uint256"}],"stateMutability":"nonpayable"},{"type":"function","name":"repayBorrow","inputs":[{"name":"repayAmount","type":"uint256","internalType":"uint256"}],"outputs":[{"name":"","type":"uint256","internalType":"uint256"}],"stateMutability":"nonpayable"},{"type":"function","name":"repayBorrowBehalf","inputs":[{"name":"borrower","type":"address","internalType":"address"},{"name":"repayAmount","type":"uint256","internalType":"uint256"}],"outputs":[{"name":"","type":"uint256","internalType":"uint256"}],"stateMutability":"nonpayable"},{"type":"function","name":"reserveFactorMantissa","inputs":[],"outputs":[{"name":"","type":"uint256","internalType":"uint256"}],"stateMutability":"view"},{"type":"function","name":"seize","inputs":[{"name":"liquidator","type":"address","internalType":"address"},{"name":"borrower","type":"address","internalType":"address"},{"name":"seizeTokens","type":"uint256","internalType":"uint256"}],"outputs":[{"name":"","type":"uint256","internalType":"uint256"}],"stateMutability":"nonpayable"},{"type":"function","name":"supplyRatePerBlock","inputs":[],"outputs":[{"name":"","type":"uint256","internalType":"uint256"}],"stateMutability":"view"},{"type":"function","name":"sweepToken","inputs":[{"name":"token","type":"address","internalType":"contract EIP20NonStandardInterface"}],"outputs":[],"stateMutability":"nonpayable"},{"type":"function","name":"symbol","inputs":[],"outputs":[{"name":"","type":"string","internalType":"string"}],"stateMutability":"view"},{"type":"function","name":"totalBorrows","inputs":[],"outputs":[{"name":"","type":"uint256","internalType":"uint256"}],"stateMutability":"view"},{"type":"function","name":"totalBorrowsCurrent","inputs":[],"outputs":[{"name":"","type":"uint256","internalType":"uint256"}],"stateMutability":"nonpayable"},{"type":"function","name":"totalReserves","inputs":[],"outputs":[{"name":"","type":"uint256","internalType":"uint256"}],"stateMutability":"view"},{"type":"function","name":"totalSupply","inputs":[],"outputs":[{"name":"","type":"uint256","internalType":"uint256"}],"stateMutability":"view"},{"type":"function","name":"transfer","inputs":[{"name":"dst","type":"address","internalType":"address"},{"name":"amount","type":"uint256","internalType":"uint256"}],"outputs":[{"name":"","type":"bool","internalType":"bool"}],"stateMutability":"nonpayable"},{"type":"function","name":"transferFrom","inputs":[{"name":"src","type":"address","internalType":"address"},{"name":"dst","type":"address","internalType":"address"},{"name":"amount","type":"uint256","internalType":"uint256"}],"outputs":[{"name":"","type":"bool","internalType":"bool"}],"stateMutability":"nonpayable"},{"type":"function","name":"underlying","inputs":[],"outputs":[{"name":"","type":"address","internalType":"address"}],"stateMutability":"view"},{"type":"event","name":"AccrueInterest","inputs":[{"name":"cashPrior","type":"uint256","indexed":false,"internalType":"uint256"},{"name":"interestAccumulated","type":"uint256","indexed":false,"internalType":"uint256"},{"name":"borrowIndex","type":"uint256","indexed":false,"internalType":"uint256"},{"name":"totalBorrows","type":"uint256","indexed":false,"internalType":"uint256"}],"anonymous":false},{"type":"event","name":"Approval","inputs":[{"name":"owner","type":"address","indexed":true,"internalType":"address"},{"name":"spender","type":"address","indexed":true,"internalType":"address"},{"name":"amount","type":"uint256","indexed":false,"internalType":"uint256"}],"anonymous":false},{"type":"event","name":"Borrow","inputs":[{"name":"borrower","type":"address","indexed":false,"internalType":"address"},{"name":"borrowAmount","type":"uint256","indexed":false,"internalType":"uint256"},{"name":"accountBorrows","type":"uint256","indexed":false,"internalType":"uint256"},{"name":"totalBorrows","type":"uint256","indexed":false,"internalType":"uint256"}],"anonymous":false},{"type":"event","name":"Failure","inputs":[{"name":"error","type":"uint256","indexed":false,"internalType":"uint256"},{"name":"info","type":"uint256","indexed":false,"internalType":"uint256"},{"name":"detail","type":"uint256","indexed":false,"internalType":"uint256"}],"anonymous":false},{"type":"event","name":"LiquidateBorrow","inputs":[{"name":"liquidator","type":"address","indexed":false,"internalType":"address"},{"name":"borrower","type":"address","indexed":false,"internalType":"address"},{"name":"repayAmount","type":"uint256","indexed":false,"internalType":"uint256"},{"name":"hTokenCollateral","type":"address","indexed":false,"internalType":"address"},{"name":"seizeTokens","type":"uint256","indexed":false,"internalType":"uint256"}],"anonymous":false},{"type":"event","name":"Mint","inputs":[{"name":"minter","type":"address","indexed":false,"internalType":"address"},{"name":"mintAmount","type":"uint256","indexed":false,"internalType":"uint256"},{"name":"mintTokens","type":"uint256","indexed":false,"internalType":"uint256"}],"anonymous":false},{"type":"event","name":"NewAdmin","inputs":[{"name":"oldAdmin","type":"address","indexed":false,"internalType":"address"},{"name":"newAdmin","type":"address","indexed":false,"internalType":"address"}],"anonymous":false},{"type":"event","name":"NewComptroller","inputs":[{"name":"oldComptroller","type":"address","indexed":false,"internalType":"contract ComptrollerInterface"},{"name":"newComptroller","type":"address","indexed":false,"internalType":"contract ComptrollerInterface"}],"anonymous":false},{"type":"event","name":"NewMarketInterestRateModel","inputs":[{"name":"oldInterestRateModel","type":"address","indexed":false,"internalType":"contract InterestRateModel"},{"name":"newInterestRateModel","type":"address","indexed":false,"internalType":"contract InterestRateModel"}],"anonymous":false},{"type":"event","name":"NewPendingAdmin","inputs":[{"name":"oldPendingAdmin","type":"address","indexed":false,"internalType":"address"},{"name":"newPendingAdmin","type":"address","indexed":false,"internalType":"address"}],"anonymous":false},{"type":"event","name":"NewProtocolSeizeShare","inputs":[{"name":"oldProtocolSeizeShareMantissa","type":"uint256","indexed":false,"internalType":"uint256"},{"name":"newProtocolSeizeShareMantissa","type":"uint256","indexed":false,"internalType":"uint256"}],"anonymous":false},{"type":"event","name":"NewRedemptionReserveFactor","inputs":[{"name":"oldRedemptionReserveFactor","type":"uint256","indexed":false,"internalType":"uint256"},{"name":"newRedemptionReserveFactor","type":"uint256","indexed":false,"internalType":"uint256"}],"anonymous":false},{"type":"event","name":"NewReserveFactor","inputs":[{"name":"oldReserveFactorMantissa","type":"uint256","indexed":false,"internalType":"uint256"},{"name":"newReserveFactorMantissa","type":"uint256","indexed":false,"internalType":"uint256"}],"anonymous":false},{"type":"event","name":"Redeem","inputs":[{"name":"redeemer","type":"address","indexed":false,"internalType":"address"},{"name":"redeemAmount","type":"uint256","indexed":false,"internalType":"uint256"},{"name":"redeemTokens","type":"uint256","indexed":false,"internalType":"uint256"}],"anonymous":false},{"type":"event","name":"RepayBorrow","inputs":[{"name":"payer","type":"address","indexed":false,"internalType":"address"},{"name":"borrower","type":"address","indexed":false,"internalType":"address"},{"name":"repayAmount","type":"uint256","indexed":false,"internalType":"uint256"},{"name":"accountBorrows","type":"uint256","indexed":false,"internalType":"uint256"},{"name":"totalBorrows","type":"uint256","indexed":false,"internalType":"uint256"}],"anonymous":false},{"type":"event","name":"ReservesAdded","inputs":[{"name":"benefactor","type":"address","indexed":false,"internalType":"address"},{"name":"addAmount","type":"uint256","indexed":false,"internalType":"uint256"},{"name":"newTotalReserves","type":"uint256","indexed":false,"internalType":"uint256"}],"anonymous":false},{"type":"event","name":"ReservesReduced","inputs":[{"name":"admin","type":"address","indexed":false,"internalType":"address"},{"name":"reduceAmount","type":"uint256","indexed":false,"internalType":"uint256"},{"name":"newTotalReserves","type":"uint256","indexed":false,"internalType":"uint256"}],"anonymous":false},{"type":"event","name":"Transfer","inputs":[{"name":"from","type":"address","indexed":true,"internalType":"address"},{"name":"to","type":"address","indexed":true,"internalType":"address"},{"name":"amount","type":"uint256","indexed":false,"internalType":"uint256"}],"anonymous":false}],"bytecode":{"object":"0x6080806040523461001757615c3a90816200001d8239f35b600080fdfe6080604052600436101561001257600080fd5b60003560e01c806306fdde0314610397578063095ea7b3146103925780630e7527021461038d578063153ab50514610388578063173b99041461038357806317bfdfbc1461037e57806318160ddd14610379578063182df0f5146103745780631a31d4651461036f5780631be195601461036a57806323b872dd146103655780632608f81814610360578063267822471461035b578063313ce567146103565780633630a6b5146103515780633af9e6691461034c5780633b1d21a2146103475780633e941010146103425780634576b5db1461033d57806347bd37181461033857806356e67728146103335780635c60da1b1461032e5780635fe3b56714610329578063601a0bf1146103245780636752e7021461031f5780636f307dc31461031a57806370a082311461031557806373acee9814610310578063830308461461030b578063852a12e314610306578063895dabad146103015780638f840ddd146102fc57806395d89b41146102f757806395dd9193146102f257806399d8c1b4146102ed578063a0712d68146102e8578063a6afed95146102e3578063a9059cbb146102de578063aa5af0fd146102d9578063ae9d70b0146102d4578063b2a02ff1146102cf578063b71d1a0c146102ca578063bd6d894d146102c5578063c37f68e2146102c0578063c5ebeaec146102bb578063cfa99201146102b6578063d0248fb4146102b1578063db006a75146102ac578063dd62ed3e146102a7578063e9c714f2146102a2578063f2b3abbd1461029d578063f3fdb15a14610298578063f5e3c46214610293578063f851a4401461028e578063f8f9da28146102895763fca7820b1461028457600080fd5b611585565b611522565b6114f5565b6114a3565b61147a565b611453565b611438565b6113d5565b61139d565b6112ee565b6112d0565b611298565b61124e565b611233565b61120c565b6111d4565b61112d565b61110f565b6110c9565b6110ae565b611076565b610ff7565b610fd5565b610f2d565b610f0f565b610ef3565b610ebb565b610e83565b610e39565b610dfc565b610dd3565b610db5565b610d7d565b610d54565b610d2b565b610c77565b610c59565b610c32565b610bfa565b610bdf565b610b26565b610b0a565b610ae9565b610ac0565b610a7a565b610a30565b6108dd565b61084f565b6107a9565b61078b565b610727565b610709565b610686565b61063c565b6105ad565b6104b4565b60009103126103a757565b600080fd5b90600182811c921680156103dc575b60208310146103c657565b634e487b7160e01b600052602260045260246000fd5b91607f16916103bb565b634e487b7160e01b600052604160045260246000fd5b6001600160401b03811161040f57604052565b6103e6565b602081019081106001600160401b0382111761040f57604052565b604081019081106001600160401b0382111761040f57604052565b90601f801991011681019081106001600160401b0382111761040f57604052565b6020808252825181830181905290939260005b8281106104a057505060409293506000838284010152601f8019910116010190565b81810186015184820160400152850161047e565b346103a75760008060031936011261059957604051908060018054906104d9826103ac565b808652926020926001811690811561056c5750600114610514575b610510866105048188038261044a565b6040519182918261046b565b0390f35b9350600184527fb10e2d527612073b26eecdfd717e6a320cf44b4afac2b0732d9fcbe2b7fa0cf65b8385106105595750505050810160200161050482610510386104f4565b805486860184015293820193810161053c565b90508695506105109693506020925061050494915060ff191682840152151560051b8201019293386104f4565b80fd5b6001600160a01b038116036103a757565b346103a75760403660031901126103a7576004356105ca8161059c565b6024359033600052600f602052816105f88260406000209060018060a01b0316600052602052604060002090565b556040519182526001600160a01b03169033907f8c5be1e5ebec7d5bd14f71427d1e84f3dd0314c0f7b2291e5b200ac8c7c3b92590602090a3602060405160018152f35b346103a75760203660031901126103a757602060005461065e60ff82166115bd565b60ff199081166000556001610674600435612674565b50916000541617600055604051908152f35b346103a75760003660031901126103a75760035460081c6001600160a01b031633036106ae57005b60405162461bcd60e51b815260206004820152602d60248201527f6f6e6c79207468652061646d696e206d61792063616c6c205f72657369676e4960448201526c36b83632b6b2b73a30ba34b7b760991b6064820152608490fd5b346103a75760003660031901126103a7576020600854604051908152f35b346103a75760203660031901126103a75760206004356107468161059c565b600161077a6000549261075b60ff85166115bd565b60ff1993841660005561077561076f6120c9565b15611616565b611a71565b916000541617600055604051908152f35b346103a75760003660031901126103a7576020600d54604051908152f35b346103a75760003660031901126103a75760206107c4611665565b604051908152f35b604051906107d982610414565b565b9291926001600160401b03821161040f5760405191610804601f8201601f19166020018461044a565b8294818452818301116103a7578281602093846000960137010152565b9080601f830112156103a75781602061083c933591016107db565b90565b6044359060ff821682036103a757565b346103a75760e03660031901126103a75760043561086c8161059c565b602435906108798261059c565b604435906108868261059c565b6001600160401b036084358181116103a7576108a6903690600401610821565b9060a4359081116103a7576108bf903690600401610821565b9160c4359360ff851685036103a7576108db95606435926116fc565b005b346103a75760203660031901126103a7576004356108fa8161059c565b60035460081c6001600160a01b0316906001600160a01b03906109203383851614611769565b6012549116919061094c90610945906001600160a01b03165b6001600160a01b031690565b83146117cd565b6040516370a0823160e01b8152306004820152602081602481865afa9081156109d0576000916109d5575b50823b156103a75760405163a9059cbb60e01b81526001600160a01b039290921660048301526024820152906000908290604490829084905af180156109d0576109bd57005b806109ca6108db926103fc565b8061039c565b6116f0565b6109f7915060203d6020116109fd575b6109ef818361044a565b8101906116e1565b38610977565b503d6109e5565b60609060031901126103a757600435610a1c8161059c565b90602435610a298161059c565b9060443590565b346103a7576020610a676001610a4536610a04565b9060009492945494610a5960ff87166115bd565b60ff19958616600055611834565b9160005416176000556040519015158152f35b346103a75760403660031901126103a7576020600435610a998161059c565b600161067460005492610aae60ff85166115bd565b60ff199384166000556024359061299a565b346103a75760003660031901126103a7576004546040516001600160a01b039091168152602090f35b346103a75760003660031901126103a757602060ff60035416604051908152f35b346103a75760003660031901126103a757602060405160018152f35b346103a75760203660031901126103a757610b7c600435610b468161059c565b610b4e612407565b9060405191610b5c83610414565b82526001600160a01b03166000908152600e6020526040902054906129eb565b906004811015610bda57610b9557604051908152602090f35b60405162461bcd60e51b815260206004820152601f60248201527f62616c616e636520636f756c64206e6f742062652063616c63756c61746564006044820152606490fd5b6115f6565b346103a75760003660031901126103a75760206107c4612a1e565b346103a75760203660031901126103a7576020600054610c1c60ff82166115bd565b60ff19908116600055600161077a600435612a75565b346103a75760203660031901126103a75760206107c4600435610c548161059c565b6118db565b346103a75760003660031901126103a7576020600b54604051908152f35b346103a75760203660031901126103a7576004356001600160401b0381116103a757366023820112156103a757610cb89036906024816004013591016107db565b5060035460081c6001600160a01b03163303610cd057005b60405162461bcd60e51b815260206004820152602d60248201527f6f6e6c79207468652061646d696e206d61792063616c6c205f6265636f6d654960448201526c36b83632b6b2b73a30ba34b7b760991b6064820152608490fd5b346103a75760003660031901126103a7576013546040516001600160a01b039091168152602090f35b346103a75760003660031901126103a7576005546040516001600160a01b039091168152602090f35b346103a75760203660031901126103a7576020600054610d9f60ff82166115bd565b60ff19908116600055600161077a6004356119db565b346103a75760003660031901126103a7576020601154604051908152f35b346103a75760003660031901126103a7576012546040516001600160a01b039091168152602090f35b346103a75760203660031901126103a757600435610e198161059c565b60018060a01b0316600052600e6020526020604060002054604051908152f35b346103a757600080600319360112610599578054602091610e5c60ff83166115bd565b60ff199182168155610e6f61076f6120c9565b6001600b5492825416179055604051908152f35b346103a75760203660031901126103a7576020600054610ea560ff82166115bd565b60ff19908116600055600161077a600435611a26565b346103a75760203660031901126103a7576020600054610edd60ff82166115bd565b60ff19908116600055600161077a60043561322c565b346103a75760003660031901126103a757602060405160008152f35b346103a75760003660031901126103a7576020600c54604051908152f35b346103a75760008060031936011261059957604051908060025490610f51826103ac565b8085529160209160019182811690811561056c5750600114610f7d57610510866105048188038261044a565b9350600284527f405787fa12a823e0f2b7631cc41b3ba8828b3321ca811111fa75cd3aa3bb5ace5b838510610fc25750505050810160200161050482610510386104f4565b8054868601840152938201938101610fa5565b346103a75760203660031901126103a75760206107c46004356107758161059c565b346103a75760c03660031901126103a7576004356110148161059c565b602435906110218261059c565b6001600160401b036064358181116103a757611041903690600401610821565b906084359081116103a75761105a903690600401610821565b9060a4359260ff841684036103a7576108db9460443591611f11565b346103a75760203660031901126103a757602060005461109860ff82166115bd565b60ff1990811660005560016106746004356133bd565b346103a75760003660031901126103a75760206107c46120c9565b346103a75760403660031901126103a75760206004356110e88161059c565b6001610a67600054926110fd60ff85166115bd565b60ff1993841660005560243590612326565b346103a75760003660031901126103a7576020600a54604051908152f35b346103a75760003660031901126103a7576006546001600160a01b03166020611154612a1e565b600b54600c54600854604051635c0b440b60e11b815260048101949094526024840192909252604483015260648201529182908180608481015b03915afa80156109d057610510916000916111b5575b506040519081529081906020820190565b6111ce915060203d6020116109fd576109ef818361044a565b386111a4565b346103a757602061077a60016111e936610a04565b90600094929454946111fd60ff87166115bd565b60ff199586166000553361398e565b346103a75760203660031901126103a75760206107c460043561122e8161059c565b612364565b346103a75760003660031901126103a75760206107c4612407565b346103a75760203660031901126103a7576105106112766004356112718161059c565b612440565b6040805194855260208501939093529183015260608201529081906080820190565b346103a75760203660031901126103a75760206000546112ba60ff82166115bd565b60ff19908116600055600161077a600435613cd8565b346103a75760003660031901126103a7576020600954604051908152f35b346103a75760a03660031901126103a75760043561130a61083f565b9060018060a01b036012541690813b156103a75760405163d505accf60e01b815233600482015230602480830191909152604482018390523560648083019190915260ff94909416608480830191909152933560a4820152923560c4840152610510926111a492600090829060e490829084905af161138a575b5061338b565b806109ca611397926103fc565b38611384565b346103a75760203660031901126103a75760206000546113bf60ff82166115bd565b60ff19908116600055600161077a600435613d24565b346103a75760403660031901126103a757602061142f6004356113f78161059c565b602435906114048261059c565b60018060a01b0316600052600f835260406000209060018060a01b0316600052602052604060002090565b54604051908152f35b346103a75760003660031901126103a75760206107c46124aa565b346103a75760203660031901126103a75760206107c46004356114758161059c565b6125de565b346103a75760003660031901126103a7576006546040516001600160a01b039091168152602090f35b346103a75760603660031901126103a75760206004356114c28161059c565b60016106746044356114d38161059c565b600054936114e360ff86166115bd565b60ff1994851660005560243590613d3d565b346103a75760003660031901126103a75760035460405160089190911c6001600160a01b03168152602090f35b346103a75760003660031901126103a75760065461118e906020906001600160a01b031661154e612a1e565b600b54600c546040516315f2405360e01b815260048101939093526024830191909152604482015292839190829081906064820190565b346103a75760203660031901126103a75760206000546115a760ff82166115bd565b60ff19908116600055600161077a600435612629565b156115c457565b60405162461bcd60e51b815260206004820152600a6024820152691c994b595b9d195c995960b21b6044820152606490fd5b634e487b7160e01b600052602160045260246000fd5b60121115610bda57565b1561161d57565b60405162461bcd60e51b81526020600482015260166024820152751858d8dc9d59481a5b9d195c995cdd0819985a5b195960521b6044820152606490fd5b60041115610bda57565b61166d6126c8565b906004811015610bda5761167e5790565b60405162461bcd60e51b815260206004820152603560248201527f65786368616e67655261746553746f7265643a2065786368616e67655261746560448201527414dd1bdc9959125b9d195c9b985b0819985a5b1959605a1b6064820152608490fd5b908160209103126103a7575190565b6040513d6000823e3d90fd5b9361170e936004979360209793611f11565b601280546001600160a01b0319166001600160a01b039290921691821790556040516318160ddd60e01b815292839182905afa80156109d05761174e5750565b6117669060203d6020116109fd576109ef818361044a565b50565b1561177057565b60405162461bcd60e51b815260206004820152602f60248201527f4845726332303a3a7377656570546f6b656e3a206f6e6c792061646d696e206360448201526e616e20737765657020746f6b656e7360881b6064820152608490fd5b156117d457565b60405162461bcd60e51b815260206004820152603260248201527f4845726332303a3a7377656570546f6b656e3a2063616e206e6f74207377656560448201527138103ab73232b9363cb4b733903a37b5b2b760711b6064820152608490fd5b91906001600160a01b0380821630149081611865575b5061185d57611859923361273e565b1590565b505050600090565b905060035460081c163314153861184a565b908160209103126103a7575180151581036103a75790565b1561189657565b60405162461bcd60e51b815260206004820152601c60248201527f6d61726b6572206d6574686f642072657475726e65642066616c7365000000006044820152606490fd5b6003546118f39060081c6001600160a01b0316610939565b33036119d2576005546001600160a01b0316604051623f1ee960e11b815291906020836004816001600160a01b0386165afa9283156109d0577f7ac369dbd14fa5ea3f473ed67cc9d598964a77501540ba6751eb0b3decf5870d93611960916000916119a3575b5061188f565b600580546001600160a01b0319166001600160a01b0384161790555b604080516001600160a01b039283168152929091166020830152819081015b0390a1600090565b6119c5915060203d6020116119cb575b6119bd818361044a565b810190611877565b3861195a565b503d6119b3565b5061083c612ac4565b6119e36120c9565b90816119f35761083c9150613084565b506012811015610bda57600080516020615bc583398151915260606040518381526032602082015260006040820152a190565b611a2e6120c9565b9081611a3e5761083c9150613172565b506012811015610bda57600080516020615bc583398151915260606040518381526056602082015260006040820152a190565b611a7a90613258565b906004811015610bda57611a8b5790565b60405162461bcd60e51b815260206004820152603760248201527f626f72726f7742616c616e636553746f7265643a20626f72726f7742616c616e60448201527f636553746f726564496e7465726e616c206661696c65640000000000000000006064820152608490fd5b15611afd57565b60405162461bcd60e51b815260206004820152602360248201527f6d61726b6574206d6179206f6e6c7920626520696e697469616c697a6564206f6044820152626e636560e81b6064820152608490fd5b15611b5557565b60405162461bcd60e51b815260206004820152603060248201527f696e697469616c2065786368616e67652072617465206d75737420626520677260448201526f32b0ba32b9103a3430b7103d32b9379760811b6064820152608490fd5b15611bba57565b60405162461bcd60e51b815260206004820152601a60248201527f73657474696e6720636f6d7074726f6c6c6572206661696c65640000000000006044820152606490fd5b15611c0657565b60405162461bcd60e51b815260206004820152602260248201527f73657474696e6720696e7465726573742072617465206d6f64656c206661696c604482015261195960f21b6064820152608490fd5b90601f8211611c63575050565b60019160009060016000527fb10e2d527612073b26eecdfd717e6a320cf44b4afac2b0732d9fcbe2b7fa0cf6906020601f850160051c83019410611cc2575b601f0160051c01915b828110611cb85750505050565b8181558301611cab565b9092508290611ca2565b601f8111611cd8575050565b60009060026000527f405787fa12a823e0f2b7631cc41b3ba8828b3321ca811111fa75cd3aa3bb5ace906020601f850160051c83019410611d34575b601f0160051c01915b828110611d2957505050565b818155600101611d1d565b9092508290611d14565b9081516001600160401b03811161040f57600190611d6581611d6084546103ac565b611c56565b602080601f8311600114611da857508190611d99939495600092611d9d575b50508160011b916000199060031b1c19161790565b9055565b015190503880611d84565b90601f19831695611ddb60016000527fb10e2d527612073b26eecdfd717e6a320cf44b4afac2b0732d9fcbe2b7fa0cf690565b926000905b888210611e165750508385969710611dfd575b505050811b019055565b015160001960f88460031b161c19169055388080611df3565b808785968294968601518155019501930190611de0565b9081516001600160401b03811161040f57611e5281611e4d6002546103ac565b611ccc565b602080601f8311600114611e8957508190611e849394600092611d9d5750508160011b916000199060031b1c19161790565b600255565b90601f19831694611ebc60026000527f405787fa12a823e0f2b7631cc41b3ba8828b3321ca811111fa75cd3aa3bb5ace90565b926000905b878210611ef9575050836001959610611ee0575b505050811b01600255565b015160001960f88460031b161c19169055388080611ed5565b80600185968294968601518155019501930190611ec1565b60035490959492939060081c6001600160a01b03163303611fcd57611f97611f91611f9c93611f72611f6c611fb19a611f5f611fa19a6009541580611fc3575b611f5a90611af6565b600755565b610c546007541515611b4e565b15611bb3565b611f7b42600955565b611f8c670de0b6b3a7640000600a55565b6132cb565b15611bff565b611d3e565b611e2d565b60ff1660ff196003541617600355565b6107d9600160ff196000541617600055565b50600a5415611f51565b60405162461bcd60e51b8152602060048201526024808201527f6f6e6c792061646d696e206d617920696e697469616c697a6520746865206d616044820152631c9ad95d60e21b6064820152608490fd5b1561202557565b60405162461bcd60e51b815260206004820152601c60248201527f626f72726f772072617465206973206162737572646c792068696768000000006044820152606490fd5b1561207157565b60405162461bcd60e51b815260206004820152601f60248201527f636f756c64206e6f742063616c63756c61746520626c6f636b2064656c7461006044820152606490fd5b604051906120c382610414565b60008252565b600954428114612320576120db612a1e565b600b5490600c5492600a54906120fb61093960065460018060a01b031690565b6040516315f2405360e01b815260048101859052602481018690526044810187905290602090829060649082905afa80156109d0576121879261216e926000926122fb575b5061215d9061215765048c2739500084111561201e565b426133ef565b92906121688161165b565b1561206a565b6121766120b6565b5061217f6107cc565b908152613411565b91906121928161165b565b806122e357506121a284836129eb565b94906121ad8161165b565b806122ca57506121bd9085613887565b95906121c88161165b565b806122b157506121e690856008546121de6107cc565b9081526138a8565b92906121f18161165b565b8061229857509080612202926138a8565b919061220d8161165b565b8061228057509361199b9161225d7f4dec04e750ca11537cabcd8a9eab06494de08da3735bc8871cd41250e190bc049661224642600955565b61224f83600a55565b61225884600b55565b600c55565b604051948594859094939260609260808301968352602083015260408201520152565b935050505061083c91506122938161165b565b613517565b94505050505061083c91506122ac8161165b565b6134eb565b94505050505061083c91506122c58161165b565b6134bf565b94505050505061083c91506122de8161165b565b613493565b935050505061083c91506122f68161165b565b613467565b61215d9192506123199060203d6020116109fd576109ef818361044a565b9190612140565b50600090565b906001600160a01b0380831630149081612352575b5061234b5761185991333361273e565b5050600090565b905060035460081c163314153861233b565b6003546001600160a01b039060081c811633036123d957600480548383166001600160a01b031982161790915560408051929091166001600160a01b03908116835290921660208201527fca4f2f25d0898edd99413412fb94012f9e54ec8142f9b093e7720646a95b16a9918190810161199b565b5050600080516020615bc58339815191526060604051600181526047602082015260006040820152a1600190565b6000549061241760ff83166115bd565b60ff1991821660005561242b61076f6120c9565b6001612435611665565b926000541617600055565b6001600160a01b0381166000908152600e6020526040812054929161246490613258565b92906004811015610bda5761249d5761247b6126c8565b92906124868161165b565b6124905793929190565b6009945092508291508190565b9150915060099180918190565b6004546001600160a01b03163381148015906125d6575b6125a9576003547fca4f2f25d0898edd99413412fb94012f9e54ec8142f9b093e7720646a95b16a991907ff9ffabca9c8276e99321725bcb43fb076a6c66a54b7f21c4e8146d8519b417dc906125229060081c6001600160a01b0316610939565b60038054610100600160a81b031916600885901b610100600160a81b0316179055600480546001600160a01b031916905560035460081c6001600160a01b0316604080516001600160a01b039384168152929091166020830152819081010390a1600454604080516001600160a01b0393841681529290911660208301528190810161199b565b50600080516020615bc58339815191526060604051600181526000602082015260006040820152a1600190565b5033156124c1565b6125e66120c9565b90816125f65761083c91506132cb565b506012811015610bda57600080516020615bc583398151915260606040518381526042602082015260006040820152a190565b6126316120c9565b90816126415761083c9150613e07565b506012811015610bda57600080516020615bc583398151915260606040518381526048602082015260006040820152a190565b61267c6120c9565b90816126925761268e91503333613fe1565b9091565b506012811015610bda57600080516020615bc583398151915260606040518381526038602082015260006040820152a190600090565b600d54806126d95750600754600091565b6126ff6126e4612a1e565b60006040516126f281610414565b52600b54600c549161425e565b61270a82939261165b565b826127365761271992506142b8565b906127238161165b565b8061272f575051600091565b9160009150565b505090600090565b60055490939290612757906001600160a01b0316610939565b6040516317b9b84b60e31b81523060048201526001600160a01b038481166024830152831660448201526064810185905290602090829060849082906000905af19081156109d05760009161297b575b508061296d57506001600160a01b0381811694838216949185871461295e578116850361293457600019935b6127dd83866133ef565b92906127e88161165b565b612924576001600160a01b0382166000908152600e602052604090206128119085905b546133ef565b969061281c8161165b565b612913576001600160a01b0386166000908152600e6020526040902061284490869054613887565b9061284e8161165b565b612901576128a06128ba97600080516020615be5833981519152996128858760018060a01b0316600052600e602052604060002090565b556001600160a01b03166000908152600e6020526040902090565b55196128c2575b5050604051918252509081906020820190565b0390a3600090565b6128e16128f89260018060a01b0316600052600f602052604060002090565b9060018060a01b0316600052602052604060002090565b553880806128a7565b5050505050505050505061083c612b74565b50505050505050505061083c612b48565b505050505050505061083c612b1c565b6001600160a01b0384166000908152600f602052604090206129579082906128e1565b54936127d3565b5050505050505061083c612af0565b9250505061083c9150613543565b612994915060203d6020116109fd576109ef818361044a565b386127a7565b906129a36120c9565b91826129b45761268e925033613fe1565b50506012811015610bda57600080516020615bc583398151915260606040518381526037602082015260006040820152a190600090565b906129f591613411565b6004821015610bda5781612a1757670de0b6b3a7640000915051049060009190565b5090600090565b6012546040516370a0823160e01b815230600482015290602090829060249082906001600160a01b03165afa9081156109d057600091612a5c575090565b61083c915060203d6020116109fd576109ef818361044a565b612a7d6120c9565b9081612a9157612a8d915061431d565b5090565b506012811015610bda57600080516020615bc583398151915260606040518381526053602082015260006040820152a190565b600080516020615bc58339815191526060604051600181526041602082015260006040820152a1600190565b600080516020615bc58339815191526060604051600281526050602082015260006040820152a1600290565b600080516020615bc58339815191526060604051600981526050602082015260006040820152a1600990565b600080516020615bc58339815191526060604051600981526051602082015260006040820152a1600990565b600080516020615bc58339815191526060604051600981526052602082015260006040820152a1600990565b600080516020615bc58339815191526060604051600181526033602082015260006040820152a1600190565b600080516020615bc58339815191526060604051600a81526035602082015260006040820152a1600a90565b600080516020615bc58339815191526060604051600f81526034602082015260006040820152a1600f90565b600080516020615bc58339815191526060604051600281526036602082015260006040820152a1600290565b6012811015610bda57600080516020615bc583398151915260606040518381526028602082015260006040820152a190565b600080516020615bc58339815191526060604051600181526044602082015260006040820152a1600190565b600080516020615bc58339815191526060604051600a81526043602082015260006040820152a1600a90565b6012811015610bda57600080516020615bc58339815191526060604051838152601e602082015260006040820152a190565b600080516020615bc5833981519152606060405160068152601c602082015260006040820152a1600690565b6012811015610bda57600080516020615bc583398151915260606040518381526010602082015260006040820152a190565b600080516020615bc58339815191526060604051600a8152604a602082015260006040820152a1600a90565b600080516020615bc5833981519152606060405160028152604b602082015260006040820152a1600290565b600080516020615bc58339815191526060604051600a8152603b602082015260006040820152a1600a90565b600080516020615bc58339815191526060604051600a81526054602082015260006040820152a1600a90565b600080516020615bc58339815191526060604051600a8152602e602082015260006040820152a1600a90565b600080516020615bc58339815191526060604051600f81526031602082015260006040820152a1600f90565b600080516020615bc58339815191526060604051600a81526022602082015260006040820152a1600a90565b600080516020615bc58339815191526060604051600a8152600a602082015260006040820152a1600a90565b600080516020615bc58339815191526060604051600f81526009602082015260006040820152a1600f90565b600080516020615bc58339815191526060604051600a81526016602082015260006040820152a1600a90565b600080516020615bc58339815191526060604051600a81526011602082015260006040820152a1600a90565b600080516020615bc58339815191526060604051600681526017602082015260006040820152a1600690565b600080516020615bc58339815191526060604051600781526015602082015260006040820152a1600790565b600080516020615bc58339815191526060604051600781526014602082015260006040820152a1600790565b6012811015610bda57600080516020615bc583398151915260606040518381526018602082015260006040820152a190565b634e487b7160e01b600052601160045260246000fd5b9190820391821161302757565b613004565b1561303357565b60405162461bcd60e51b8152602060048201526024808201527f72656475636520726573657276657320756e657870656374656420756e646572604482015263666c6f7760e01b6064820152608490fd5b60035461309c9060081c6001600160a01b0316610939565b330361316957600954420361316057806130b4612a1e565b1061315757600c549081811161314d57816130fc6130f3837f3bad0c59cf2f06e7314077049f48a93578cd16f5ef92329f1dab1420a99c177e9561301a565b9182111561302c565b61310581600c55565b60035461311f90839060081c6001600160a01b03166143e8565b6003546040805160089290921c6001600160a01b03168252602082019390935291820152806060810161199b565b505061083c612c24565b5061083c612bf8565b5061083c612bcc565b5061083c612ba0565b60035460081c6001600160a01b031633036131ff5760095442036131d25760118054908290556040805191825260208201929092527ff5815f353a60e815cce7553e4f60c533a59d26b1b5504ea4b6db8d60da3e4da2918190810161199b565b50600080516020615bc58339815191526060604051600a81526058602082015260006040820152a1600a90565b50600080516020615bc58339815191526060604051600181526057602082015260006040820152a1600190565b6132346120c9565b90816132455761083c91503361456e565b506012811015610bda5761083c90612c50565b6001600160a01b03166000908152601060205260408120805491929180156132c557600a5461328691614c25565b906004811015610bda57806132be575060016132a492015490614c5f565b92906132af8161165b565b806132b957509190565b925090565b9150509190565b50508190565b6003546132e39060081c6001600160a01b0316610939565b3303613382576009544203613379576006546001600160a01b03166040516310c8fc9560e11b815291906020836004816001600160a01b0386165afa9283156109d0577fedffc32e068c7c95dfd4bdfd5c4d939a084d6b11c4199eac8436ed234d72f92693613359916000916119a3575061188f565b600680546001600160a01b0319166001600160a01b03841617905561197c565b5061083c612cae565b5061083c612c82565b6001916133af600054926133a160ff85166115bd565b60ff199384166000556133bd565b939093926000541617600055565b6133c56120c9565b90816133d65761268e915033614dfc565b506012811015610bda576133e990612cda565b90600090565b91908281116134075782039182116130275760009190565b5060039150600090565b9061342b91600060405161342481610414565b5251614c25565b91906004811015610bda578061345157506040519161344983610414565b825260009190565b604051925061345f83610414565b600083529190565b6060600080516020615bc5833981519152916040519060098252600660208301526040820152a1600990565b6060600080516020615bc5833981519152916040519060098252600160208301526040820152a1600990565b6060600080516020615bc5833981519152916040519060098252600460208301526040820152a1600990565b6060600080516020615bc5833981519152916040519060098252600560208301526040820152a1600990565b6060600080516020615bc5833981519152916040519060098252600360208301526040820152a1600990565b6060600080516020615bc5833981519152916040519060038252604f60208301526040820152a1600390565b6060600080516020615bc5833981519152916040519060038252601b60208301526040820152a1600390565b6060600080516020615bc5833981519152916040519060098252601a60208301526040820152a1600990565b6060600080516020615bc5833981519152916040519060098252601960208301526040820152a1600990565b6060600080516020615bc5833981519152916040519060038252603a60208301526040820152a1600390565b6060600080516020615bc5833981519152916040519060098252603960208301526040820152a1600990565b6060600080516020615bc5833981519152916040519060098252602d60208301526040820152a1600990565b6060600080516020615bc5833981519152916040519060098252602b60208301526040820152a1600990565b6060600080516020615bc5833981519152916040519060098252602a60208301526040820152a1600990565b6060600080516020615bc5833981519152916040519060038252602960208301526040820152a1600390565b6060600080516020615bc5833981519152916040519060098252603060208301526040820152a1600990565b6060600080516020615bc5833981519152916040519060098252602f60208301526040820152a1600990565b6060600080516020615bc5833981519152916040519060038252601f60208301526040820152a1600390565b6060600080516020615bc5833981519152916040519060098252602160208301526040820152a1600990565b6060600080516020615bc5833981519152916040519060038252600e60208301526040820152a1600390565b6060600080516020615bc5833981519152916040519060098252600760208301526040820152a1600990565b6060600080516020615bc5833981519152916040519060098252600c60208301526040820152a1600990565b6060600080516020615bc5833981519152916040519060098252600b60208301526040820152a1600990565b6060600080516020615bc5833981519152916040519060038252601260208301526040820152a1600390565b919082019182811161302757821061389f5760009190565b60029150600090565b906138b291613411565b91906004811015610bda57806138d75750670de0b6b3a764000061268e925104613887565b91505090600090565b6040519061012082018281106001600160401b0382111761040f57604052816101006000918281528260208201528260408201528260608201528260808201528260a08201528260c08201528260e08201520152565b6004821015610bda5752565b1561394957565b60405162461bcd60e51b815260206004820152601860248201527f65786368616e67652072617465206d617468206572726f7200000000000000006044820152606490fd5b926020838293958660006139ac61093960055460018060a01b031690565b60405163d02f735160e01b81523060048201526001600160a01b03948516602482015292841660448401529390921660648201526084810194909452839160a49183915af19081156109d057600091613cb9575b5080613cac57506001600160a01b038381169190831690818314613c9f57613a5a92613a2a6138e0565b94613a4b8361280b8360018060a01b0316600052600e602052604060002090565b95906020880196875287613936565b8551613a658161165b565b613a6e8161165b565b613c7d57613b6696613aa6670de0b6b3a7640000613a9860115480613a916107cc565b5287615af0565b0460808901958187526150d9565b9160608801928352613afc613acb613abc6126c8565b919060c08c019283528b613936565b613ae88a51613ad98161165b565b613ae28161165b565b15613942565b51613af16107cc565b908152865190615120565b96613b1060a08a0198808a52600c54615155565b9860e08101998a52613b26600d548851906150d9565b906101008101918252613b57613b4e8660018060a01b0316600052600e602052604060002090565b54875190613887565b9c90604083019d8e5282613936565b8051613b718161165b565b613b7a8161165b565b613c5557507fa91e67c5ea634cd43a12c5a482724b03de01e85ca68702a53d0c2f45cb7c1dc59a8897969593613be4613c259a9694613bc7613c02958f613bc19051600c55565b51600d55565b516001600160a01b039092166000908152600e6020526040902090565b55516001600160a01b039092166000908152600e6020526040902090565b555160405180600080516020615be5833981519152978893829190602083019252565b0390a351604051908152309290602090a3519051604080513081526020810193909352820152806060810161199b565b995050505050505050505061083c915051613c6f8161165b565b613c788161165b565b6135c7565b505050505061083c915051613c918161165b565b613c9a8161165b565b61359b565b505050505061083c612d0c565b91505061083c915061356f565b613cd2915060203d6020116109fd576109ef818361044a565b38613a00565b613ce06120c9565b9081613cf15761083c9150336151cb565b506012811015610bda57600080516020615bc583398151915260606040518381526008602082015260006040820152a190565b613d2c6120c9565b90816132455761083c915033614900565b9190613d476120c9565b80613dc5575060405163a6afed9560e01b81529260208460048160006001600160a01b0388165af19384156109d057600094613da4575b5083613d8f5761268e93503361554c565b50505080613d9f6133e99261160c565b612d38565b613dbe91945060203d6020116109fd576109ef818361044a565b9238613d7e565b92505050613dd28161160c565b6012811015610bda57600080516020615bc58339815191526060604051838152600f602082015260006040820152a190600090565b60035460081c6001600160a01b03163303613e8d576009544203613e8457670de0b6b3a76400008111613e7b577faaa68312e2ea9d50e16af5068410ab56e1a1fd06037b1a35664812c30f82146090600854613e6282600855565b604080519182526020820192909252908190810161199b565b5061083c612d96565b5061083c612d6a565b50600080516020615bc58339815191526060604051600181526049602082015260006040820152a1600190565b6040519061010082018281106001600160401b0382111761040f576040528160e06000918281528260208201528260408201528260608201528260808201528260a08201528260c08201520152565b15613f1057565b60405162461bcd60e51b815260206004820152603a60248201527f52455041595f424f52524f575f4e45575f4143434f554e545f424f52524f575f60448201527f42414c414e43455f43414c43554c4154494f4e5f4641494c45440000000000006064820152608490fd5b15613f8257565b60405162461bcd60e51b815260206004820152603160248201527f52455041595f424f52524f575f4e45575f544f54414c5f42414c414e43455f43604482015270105310d55310551253d397d19052531151607a1b6064820152608490fd5b60055491939291613ffa906001600160a01b0316610939565b604051631200453160e11b81523060048201526001600160a01b038381166024830152861660448201526064810184905260009591602090829060849082908a905af19081156109d057869161423f575b50806142325750600954420361422757614063613eba565b9160016140828360018060a01b03166000526010602052604060002090565b0154606084015261409282613258565b9390946140aa60208301966080840196875287613936565b85516140b58161165b565b6140be8161165b565b6142025760c06141897f1a2a22cb034d26d1854bdc6666a5b91fe25efbbb5dcad3b0355478d6f5c362a196976141706141f1956141389560001981146000146141f857508a5160408201525b61412961411b60408301518a615981565b60e083018181529c516133ef565b969060a0830197885284613936565b61415583516141468161165b565b61414f8161165b565b15613f09565b614163600b548c51906133ef565b9590910194855282613936565b5161417a8161165b565b6141838161165b565b15613f7b565b81516001600160a01b0386166000908152601060205260409020908155600a5460019091015551600b8190559086519051604080516001600160a01b0396871681529690951660208701529385015260608401929092526080830191909152819060a0820190565b0390a15190565b604082015261410a565b505050505061422390516142158161165b565b61421e8161165b565b61361f565b9190565b505050614223612dc2565b91505061422391506135f3565b614258915060203d6020116109fd576109ef818361044a565b3861404b565b9061426891613887565b60048293921015610bda57826127365761268e92506133ef565b61429a90600060405161429481610414565b52614c4a565b91906142a58161165b565b8061345157506040519161344983610414565b6142d39092919260006040516142cd81610414565b52614bbe565b60048294921015610bda57836142ee5761429a929350614c5f565b50506040519161345f83610414565b8115614307570490565b634e487b7160e01b600052601260045260246000fd5b60095442036143df576143309033615981565b90600c548281019081811161302757811061439b57614392816143737fa91e67c5ea634cd43a12c5a482724b03de01e85ca68702a53d0c2f45cb7c1dc593600c55565b6040805133815260208101879052908101919091529081906060820190565b0390a160009190565b606460405162461bcd60e51b815260206004820152602060248201527f61646420726573657276657320756e6578706563746564206f766572666c6f776044820152fd5b506133e9612dee565b919060018060a01b036012541690813b156103a75760405163a9059cbb60e01b81526001600160a01b0394909416600485015260248401526000929083908290604490829084905af180156109d0576144ae575b503d80156144a35760201461444f575080fd5b90602081803e515b1561445e57565b60405162461bcd60e51b815260206004820152601960248201527f544f4b454e5f5452414e534645525f4f55545f4641494c4544000000000000006044820152606490fd5b509050600019614457565b6144b7906103fc565b3861443c565b156144c457565b60405162461bcd60e51b815260206004820152603460248201527f6f6e65206f662072656465656d546f6b656e73496e206f722072656465656d416044820152736d6f756e74496e206d757374206265207a65726f60601b6064820152608490fd5b6040519060e082018281106001600160401b0382111761040f576040528160c06000918281528260208201528260408201528260608201528260808201528260a08201520152565b614576614526565b61457e6126c8565b909361459560208401956040850193845286613936565b84516145a08161165b565b6145a98161165b565b6148e057916145f2826145cf614601956145de9551906145c76107cc565b918252615ae6565b94906060850195865288613936565b516145e76107cc565b9081528351906129eb565b93906080830194855286613936565b845161460c8161165b565b6146158161165b565b6148c05760055461462e906001600160a01b0316610939565b825160405163eabe7d9160e01b81523060048201526001600160a01b0387166024820152604481019190915260009691602090829060649082908b905af19081156109d05787916148a1575b508061489157506009544203614883576146ab9161469c600d548551906133ef565b939060a0830194855283613936565b81516146b68161165b565b6146bf8161165b565b614860576001600160a01b0386166000908152600e6020526040902060c09392916146f19161416390548751906133ef565b80516146fc8161165b565b6147058161165b565b61483d5750614712612a1e565b84511161482f5751600d555b516001600160a01b0384166000818152600e602090815260409182902093909355835190519081523092600080516020615be583398151915291a381518151604080516001600160a01b038716815260208101939093528201527fe5b754fb1abb7f01b499791d0b820ae3b6af3424ac1c59768edb53f4ec31a92990606090a16005546147b3906001600160a01b0316610939565b8251915191813b1561482b576040516351dff98960e01b81523060048201526001600160a01b038616602482015260448101919091526064810192909252909291908490849060849082905afa9283156109d05761083c93614818575b5051906143e8565b806109ca614825926103fc565b38614810565b8580fd5b50505050505061083c612e46565b94505050505061083c9150516148528161165b565b61485b8161165b565b613727565b50935050505061083c9150516148758161165b565b61487e8161165b565b6136fb565b50505050505061083c612e1a565b94505050505061083c91506136cf565b6148ba915060203d6020116109fd576109ef818361044a565b3861467a565b5050505061083c90516148d28161165b565b6148db8161165b565b613677565b5050505061083c90516148f28161165b565b6148fb8161165b565b61364b565b81159182159283614ba3575b614915906144bd565b61491d614526565b906149266126c8565b91909461493e60208501966040860194855287613936565b85516149498161165b565b6149528161165b565b614b905715614b2e5761497e90614989926060850191825251906149746107cc565b91825251906129eb565b608084015284613936565b82516149948161165b565b61499d8161165b565b614b10575b6005546149b7906001600160a01b0316610939565b60608201805160405163eabe7d9160e01b81523060048201526001600160a01b038616602482015260448101919091526000959192602090829060649082908a905af19081156109d0578691614af1575b5080614ae257506009544203614ad557614a3990614a2a600d548451906133ef565b929060a0860193845282613936565b8051614a448161165b565b614a4d8161165b565b614ac1576001600160a01b0385166000908152600e60205260409020614a8b929190614a7c90548551906133ef565b939060c0870194855282613936565b8051614a968161165b565b614a9f8161165b565b61483d57506080614aae612a1e565b94019384511161482f5751600d5561471e565b935050505061083c9150516148758161165b565b505050505061083c612e1a565b935050505061083c91506136cf565b614b0a915060203d6020116109fd576109ef818361044a565b38614a08565b505061083c9051614b208161165b565b614b298161165b565b6136a3565b5061497e614b5d82614b4e614b679451614b466107cc565b908152615acd565b92906060870193845288613936565b51906149746107cc565b8251614b728161165b565b614b7b8161165b565b156149a257505061083c90516148d28161165b565b505050505061083c90516148f28161165b565b50600161490c565b8181029291811591840414171561302757565b8015614bf757670de0b6b3a764000080820291808304820361302757614be490836142fd565b14614bf25750600290600090565b600091565b50600090600090565b670de0b6b3a7640000908082029182048082036130275714614bf25750600290600090565b908115614c4057614be4614c398284614bab565b92836142fd565b5050600090600090565b15614c5757600090600090565b600190600090565b908015614c6f57614bf2916142fd565b5050600190600090565b15614c8057565b606460405162461bcd60e51b815260206004820152602060248201527f4d494e545f45584348414e47455f43414c43554c4154494f4e5f4641494c45446044820152fd5b15614ccb57565b60405162461bcd60e51b815260206004820152602860248201527f4d494e545f4e45575f544f54414c5f535550504c595f43414c43554c4154494f6044820152671397d1905253115160c21b6064820152608490fd5b15614d2857565b60405162461bcd60e51b815260206004820152602b60248201527f4d494e545f4e45575f4143434f554e545f42414c414e43455f43414c43554c4160448201526a151253d397d1905253115160aa1b6064820152608490fd5b9060209081838203126103a75782516001600160401b03938482116103a7570181601f820112156103a757805193841161040f578360051b9060405194614dca8584018761044a565b855283808601928201019283116103a7578301905b828210614ded575050505090565b81518152908301908301614ddf565b60055490929190614e15906001600160a01b0316610939565b604051634ef4c3e160e01b81523060048201526001600160a01b038516602482015260448101839052600094916020908290606490829089905af19081156109d05785916150ba575b50806150ae575060095442036150a45783614e77614526565b91614e806126c8565b93614e9660208201926040830196875283613936565b8151614ea18161165b565b614eaa8161165b565b61508257614eba84959684615981565b60c082019681885251614ecb6107cc565b908152614ed791615ae6565b929060608301938452614eea9082613936565b8051614ef58161165b565b614efe8161165b565b15614f0890614c79565b600d548351614f1691613887565b919060808401928352614f299082613936565b8051614f348161165b565b614f3d8161165b565b15614f4790614cc4565b6001600160a01b0385166000908152600e60205260409020548451614f6b91613887565b9360a001938452614f7c9082613936565b51614f868161165b565b614f8f8161165b565b15614f9990614d21565b51600d55516001600160a01b0383166000908152600e602052604090205584518151604080516001600160a01b038616815260208101939093528201528060608101037f4c209b5fc8ad50758f13e2e1088ba56a560dff690a1c6fef26394f4c03821c4f91a1516040519081526001600160a01b038216903090600080516020615be583398151915290602090a3600554604051631ea016b760e21b81526001600160a01b039283166004820152938492602492849291165af180156109d05761506257505190565b61507d903d8086833e615075818361044a565b810190614d81565b505190565b50925050506142239150516150968161165b565b61509f8161165b565b61377f565b5050614223612e72565b90506142239150613753565b6150d3915060203d6020116109fd576109ef818361044a565b38614e5e565b906151146040516150e98161042f565b60158152747375627472616374696f6e20756e646572666c6f7760581b602082015283831115615b30565b81039081116130275790565b670de0b6b3a76400009161514391600060405161513c81610414565b5251615af0565b8060405161515081610414565b520490565b604051916151628361042f565b60118352706164646974696f6e206f766572666c6f7760781b60208401528101918282116130275761083c91831015615b30565b60405190608082018281106001600160401b0382111761040f5760405260006060838281528260208201528260408201520152565b6005549091906151e3906001600160a01b0316610939565b60405163368f515360e21b81523060048201526001600160a01b03841660248201526044810183905290602090829060649082906000905af19081156109d057600091615420575b50806154145750600954420361540a5780615244612a1e565b1061540057615251615196565b916152766152676001600160a01b038316613258565b91906020860192835285613936565b83516152818161165b565b61528a8161165b565b6153e1579261529d836152ac9551613887565b94906040830195865282613936565b80516152b78161165b565b6152c08161165b565b6153c1576152e3906152d484600b54613887565b92906060830193845282613936565b80516152ee8161165b565b6152f78161165b565b6153a05750837f13ed6866d4e1ee6da46f845c46d7e54120883d75c5ea9a2dacc1c4ca8984ab809161539b95516153408560018060a01b03166000526010602052604060002090565b55600a546001600160a01b038516600090815260106020526040902060010155519061536b82600b55565b51604080516001600160a01b038616815260208101879052908101919091526060810191909152608090a16143e8565b600090565b9250505061083c9150516153b38161165b565b6153bc8161165b565b61382f565b91505061083c9150516153d38161165b565b6153dc8161165b565b613803565b50505061083c90516153f28161165b565b6153fb8161165b565b6137d7565b505061083c612eca565b505061083c612e9e565b905061083c91506137ab565b615439915060203d6020116109fd576109ef818361044a565b3861522b565b91908260409103126103a7576020825192015190565b1561545c57565b60405162461bcd60e51b815260206004820152603360248201527f4c49515549444154455f434f4d5054524f4c4c45525f43414c43554c4154455f604482015272105353d5539517d4d152569157d19052531151606a1b6064820152608490fd5b156154c457565b60405162461bcd60e51b815260206004820152601860248201527f4c49515549444154455f5345495a455f544f4f5f4d55434800000000000000006044820152606490fd5b1561551057565b60405162461bcd60e51b81526020600482015260146024820152731d1bdad95b881cd95a5e9d5c994819985a5b195960621b6044820152606490fd5b60055492949392615565906001600160a01b0316610939565b60408051632fe3f38f60e11b81523060048201526001600160a01b03958616602482018190528487166044830152858716606483015260848201899052602098929690939091908990829060a49082905afa9081156109d0576000916158cc575b50806158ba575060095442036158aa57855163cfa9920160e01b81528881600481875afa9081156109d05760009161588d575b50420361587d578084169085161461586e57801561585f57600019811461585057615625908484613fe1565b9690806158365750600554615642906001600160a01b0316610939565b855163c488847b60e01b81523060048201526001600160a01b03841660248201526044810189905295908190879060649082905afa9586156109d057600090600097615804575b506156949015615455565b80516370a0823160e01b81526001600160a01b0386166004820152918083602481875afa80156109d057876156d5918b956000916157e7575b5010156154bd565b30840361574e57509185916143929361571a6157147f298637f684da70674f26509b10f07ec2fbc77a335ab1e7d6215a4b2484d8bb529989893061398e565b15615509565b516001600160a01b0395861681529585166020870152604086015290921660608401526080830191909152819060a0820190565b815163b2a02ff160e01b81526001600160a01b03868116600483015287166024820152604481018890529096919391925086816064816000865af19384156109d05761571a614392958b937f298637f684da70674f26509b10f07ec2fbc77a335ab1e7d6215a4b2484d8bb529a6000926157ca575b5050615714565b6157e09250803d106109fd576109ef818361044a565b38806157c3565b6157fe9150843d86116109fd576109ef818361044a565b386156cd565b61569497506158299150823d841161582f575b615821818361044a565b81019061543f565b96615689565b503d615817565b9450505050506133e991925061584b8161160c565b612fd2565b505050505090506133e9612fa6565b505050505090506133e9612f7a565b505050505090506133e9612f4e565b50505050505090506133e9612f22565b6158a49150893d8b116109fd576109ef818361044a565b386155f9565b50505050505090506133e9612ef6565b955050505050506133e991925061385b565b6158e39150893d8b116109fd576109ef818361044a565b386155c6565b156158f057565b60405162461bcd60e51b815260206004820152601860248201527f544f4b454e5f5452414e534645525f494e5f4641494c454400000000000000006044820152606490fd5b1561593c57565b60405162461bcd60e51b815260206004820152601a60248201527f544f4b454e5f5452414e534645525f494e5f4f564552464c4f570000000000006044820152606490fd5b6012546040516370a0823160e01b80825230600483015260209491936001600160a01b03909316929091908585602481875afa9485156109d057600095615aae575b50833b156103a7576040516323b872dd60e01b81526001600160a01b03919091166004820152306024820152604481019190915260008160648183875af180156109d057615a9b575b503d848115615a8d5750602014615a2257600080fd5b8390816000803e615a346000516158e9565b60405190815230600482015291829060249082905afa9081156109d05761083c93600092615a70575b5050615a6b82821015615935565b61301a565b615a869250803d106109fd576109ef818361044a565b3880615a5d565b919050615a346000196158e9565b806109ca615aa8926103fc565b38615a0c565b615ac6919550863d88116109fd576109ef818361044a565b93386159c3565b6129f5906000604051615adf81610414565b5251614282565b906129f591615b58565b61083c9160405191615b018361042f565b601783527f6d756c7469706c69636174696f6e206f766572666c6f770000000000000000006020840152615b90565b15615b385750565b60405162461bcd60e51b8152908190615b54906004830161046b565b0390fd5b615b73909291926000604051615b6d81610414565b52614c00565b90926004841015610bda57836142ee5761268e92935051906142b8565b9182158015615bbc575b61185d5781615bb6615baf61083c9486614bab565b94856142fd565b14615b30565b508115615b9a56fe45b96fe442630264581b197e84bbada861235052c5a1aadfff9ea4e40a969aa0ddf252ad1be2c89b69c2b068fc378daa952ba7f163c4a11628f55a4df523b3efa2646970667358221220af119fc4ce1c386af666e9b840d33701650879c0ea4c6ff264ab72e76a502dd464736f6c63430008170033","linkReferences":{}},"methodIdentifiers":{"_acceptAdmin()":"e9c714f2","_addReserves(uint256)":"3e941010","_becomeImplementation(bytes)":"56e67728","_reduceReserves(uint256)":"601a0bf1","_resignImplementation()":"153ab505","_setComptroller(address)":"4576b5db","_setInterestRateModel(address)":"f2b3abbd","_setPendingAdmin(address)":"b71d1a0c","_setProtocolSeizeShare(uint256)":"83030846","_setReserveFactor(uint256)":"fca7820b","accrualBlockTimestamp()":"cfa99201","accrueInterest()":"a6afed95","admin()":"f851a440","allowance(address,address)":"dd62ed3e","approve(address,uint256)":"095ea7b3","balanceOf(address)":"70a08231","balanceOfUnderlying(address)":"3af9e669","borrow(uint256)":"c5ebeaec","borrowBalanceCurrent(address)":"17bfdfbc","borrowBalanceStored(address)":"95dd9193","borrowIndex()":"aa5af0fd","borrowRatePerBlock()":"f8f9da28","comptroller()":"5fe3b567","decimals()":"313ce567","exchangeRateCurrent()":"bd6d894d","exchangeRateStored()":"182df0f5","getAccountSnapshot(address)":"c37f68e2","getCash()":"3b1d21a2","implementation()":"5c60da1b","initialize(address,address,address,uint256,string,string,uint8)":"1a31d465","initialize(address,address,uint256,string,string,uint8)":"99d8c1b4","interestRateModel()":"f3fdb15a","isEthDerivative()":"895dabad","isRToken()":"3630a6b5","liquidateBorrow(address,uint256,address)":"f5e3c462","mint(uint256)":"a0712d68","mintWithPermit(uint256,uint256,uint8,bytes32,bytes32)":"d0248fb4","name()":"06fdde03","pendingAdmin()":"26782247","protocolSeizeShareMantissa()":"6752e702","redeem(uint256)":"db006a75","redeemUnderlying(uint256)":"852a12e3","repayBorrow(uint256)":"0e752702","repayBorrowBehalf(address,uint256)":"2608f818","reserveFactorMantissa()":"173b9904","seize(address,address,uint256)":"b2a02ff1","supplyRatePerBlock()":"ae9d70b0","sweepToken(address)":"1be19560","symbol()":"95d89b41","totalBorrows()":"47bd3718","totalBorrowsCurrent()":"73acee98","totalReserves()":"8f840ddd","totalSupply()":"18160ddd","transfer(address,uint256)":"a9059cbb","transferFrom(address,address,uint256)":"23b872dd","underlying()":"6f307dc3"},"id":76}