{"abi":[{"type":"constructor","inputs":[{"name":"_description","type":"string","internalType":"string"},{"name":"_decimals","type":"uint8","internalType":"uint8"}],"stateMutability":"nonpayable"},{"type":"function","name":"decimals","inputs":[],"outputs":[{"name":"","type":"uint8","internalType":"uint8"}],"stateMutability":"view"},{"type":"function","name":"description","inputs":[],"outputs":[{"name":"","type":"string","internalType":"string"}],"stateMutability":"view"},{"type":"function","name":"getRoundData","inputs":[{"name":"_roundId","type":"uint80","internalType":"uint80"}],"outputs":[{"name":"roundId_","type":"uint80","internalType":"uint80"},{"name":"answer","type":"int256","internalType":"int256"},{"name":"startedAt","type":"uint256","internalType":"uint256"},{"name":"updatedAt","type":"uint256","internalType":"uint256"},{"name":"answeredInRound","type":"uint80","internalType":"uint80"}],"stateMutability":"view"},{"type":"function","name":"latestRoundData","inputs":[],"outputs":[{"name":"roundId_","type":"uint80","internalType":"uint80"},{"name":"answer","type":"int256","internalType":"int256"},{"name":"startedAt","type":"uint256","internalType":"uint256"},{"name":"updatedAt","type":"uint256","internalType":"uint256"},{"name":"answeredInRound","type":"uint80","internalType":"uint80"}],"stateMutability":"view"},{"type":"function","name":"roundId","inputs":[],"outputs":[{"name":"","type":"uint80","internalType":"uint80"}],"stateMutability":"view"},{"type":"function","name":"rounds","inputs":[{"name":"","type":"uint80","internalType":"uint80"}],"outputs":[{"name":"id","type":"uint80","internalType":"uint80"},{"name":"answer","type":"int256","internalType":"int256"},{"name":"timestamp","type":"uint256","internalType":"uint256"}],"stateMutability":"view"},{"type":"function","name":"updatePrice","inputs":[{"name":"_answer","type":"int256","internalType":"int256"}],"outputs":[],"stateMutability":"nonpayable"},{"type":"function","name":"version","inputs":[],"outputs":[{"name":"","type":"uint256","internalType":"uint256"}],"stateMutability":"view"}],"bytecode":{"object":"0x6080604052346101fd576106c28038038061001981610216565b9283398101906040818303126101fd5780516001600160401b0391908281116101fd57810191601f8481850112156101fd578351928284116101e757602093601f199561006b86888685011601610216565b978289528683830101116101fd579085929160005b828110610202575050826000918901015201519260ff84168094036101fd5785519283116101e757600054946001958681811c911680156101dd575b838210146101c757838111610181575b508192841160011461011e57505081929394600092610113575b5050600019600383901b1c191690831b176000555b815460ff1916179055604051610486908161023c8239f35b0151905038806100e6565b6000808052828120918516979193925b88821061016a57505083869796959610610151575b505050811b016000556100fb565b015160001960f88460031b161c19169055388080610143565b80888596829496860151815501950193019061012e565b60008052826000208480870160051c8201928588106101be575b0160051c019087905b8281106101b25750506100cc565b600081550187906101a4565b9250819261019b565b634e487b7160e01b600052602260045260246000fd5b90607f16906100bc565b634e487b7160e01b600052604160045260246000fd5b600080fd5b8181018501518a8201860152879401610080565b6040519190601f01601f191682016001600160401b038111838210176101e75760405256fe608060408181526004918236101561001657600080fd5b600092833560e01c9182632ede662f1461037957508163313ce5671461035757816354fd4d50146103385781637284e416146101d95781638cd221c9146101b15781639a6fc8f514610178578163d4c19bda146100e2575063feaf968c1461007d57600080fd5b346100de57816003193601126100de576100da906100a56001600160501b0360035416610405565b94516001600160501b0394851681526020810193909352604083019190915260608201529116608082015290819060a0820190565b0390f35b5080fd5b8383346100de5760203660031901126100de576003546001600160501b039081811682811461016557829160029360018893011692836001600160501b031980931617600355855195610134876103d3565b8487526020870193803585528188019542875289526020528720955116908554161784555160018401555191015580f35b634e487b7160e01b855260118652602485fd5b9050346101ad5760203660031901126101ad5735916001600160501b03831683036101aa57506100a56100da92610405565b80fd5b8280fd5b5050346100de57816003193601126100de576020906001600160501b03600354169051908152f35b919050346101ad57826003193601126101ad5780518380546001958160011c6001831697881561032e575b6020938483108a1461031b57848798999a84895291826000146102ff5750506001146102ac575b5050601f801995869203011683019583871067ffffffffffffffff881117610299575085929391838652818452845191828186015281955b8387106102815750508394508582601f949501015201168101030190f35b86810182015189880189015295810195889550610263565b634e487b7160e01b835260419052602482fd5b8480528492507f290decd9548b62a8d60345a988386fc84ba6bc95484008f6362f93160ef3e5635b8284106102e95750505083018101388061022b565b80548885018601528796509284019281016102d4565b925093505060ff191682860152151560051b840101388061022b565b634e487b7160e01b865260228952602486fd5b90607f1690610204565b5050346100de57816003193601126100de576020906002549051908152f35b5050346100de57816003193601126100de5760209060ff600154169051908152f35b849184346103cf5760203660031901126103cf578135916001600160501b03928381168091036103cb579482916060968252602052209182541691600260018201549101549284526020840152820152f35b8580fd5b8380fd5b6060810190811067ffffffffffffffff8211176103ef57604052565b634e487b7160e01b600052604160045260246000fd5b906001600160501b0380921660005260046020526040806000209281519061042c826103d3565b8454169081815260026001860154958660208401520154928391015280939282919056fea2646970667358221220ee737e8d17ea78d85716097fda89045248bda3b71368a53f8cbced0af07264e764736f6c63430008170033","linkReferences":{}},"methodIdentifiers":{"decimals()":"313ce567","description()":"7284e416","getRoundData(uint80)":"9a6fc8f5","latestRoundData()":"feaf968c","roundId()":"8cd221c9","rounds(uint80)":"2ede662f","updatePrice(int256)":"d4c19bda","version()":"54fd4d50"},"id":99}