{"abi":[{"type":"constructor","inputs":[{"name":"_initialAmount","type":"uint256","internalType":"uint256"},{"name":"_tokenName","type":"string","internalType":"string"},{"name":"_decimalUnits","type":"uint8","internalType":"uint8"},{"name":"_tokenSymbol","type":"string","internalType":"string"}],"stateMutability":"nonpayable"},{"type":"function","name":"allocateTo","inputs":[{"name":"_owner","type":"address","internalType":"address"},{"name":"value","type":"uint256","internalType":"uint256"}],"outputs":[],"stateMutability":"nonpayable"},{"type":"function","name":"allowance","inputs":[{"name":"owner","type":"address","internalType":"address"},{"name":"spender","type":"address","internalType":"address"}],"outputs":[{"name":"","type":"uint256","internalType":"uint256"}],"stateMutability":"view"},{"type":"function","name":"approve","inputs":[{"name":"spender","type":"address","internalType":"address"},{"name":"value","type":"uint256","internalType":"uint256"}],"outputs":[{"name":"","type":"bool","internalType":"bool"}],"stateMutability":"nonpayable"},{"type":"function","name":"balanceOf","inputs":[{"name":"account","type":"address","internalType":"address"}],"outputs":[{"name":"","type":"uint256","internalType":"uint256"}],"stateMutability":"view"},{"type":"function","name":"decimals","inputs":[],"outputs":[{"name":"","type":"uint8","internalType":"uint8"}],"stateMutability":"view"},{"type":"function","name":"name","inputs":[],"outputs":[{"name":"","type":"string","internalType":"string"}],"stateMutability":"view"},{"type":"function","name":"owner","inputs":[],"outputs":[{"name":"","type":"address","internalType":"address"}],"stateMutability":"view"},{"type":"function","name":"renounceOwnership","inputs":[],"outputs":[],"stateMutability":"nonpayable"},{"type":"function","name":"symbol","inputs":[],"outputs":[{"name":"","type":"string","internalType":"string"}],"stateMutability":"view"},{"type":"function","name":"totalSupply","inputs":[],"outputs":[{"name":"","type":"uint256","internalType":"uint256"}],"stateMutability":"view"},{"type":"function","name":"transfer","inputs":[{"name":"to","type":"address","internalType":"address"},{"name":"value","type":"uint256","internalType":"uint256"}],"outputs":[{"name":"","type":"bool","internalType":"bool"}],"stateMutability":"nonpayable"},{"type":"function","name":"transferFrom","inputs":[{"name":"from","type":"address","internalType":"address"},{"name":"to","type":"address","internalType":"address"},{"name":"value","type":"uint256","internalType":"uint256"}],"outputs":[{"name":"","type":"bool","internalType":"bool"}],"stateMutability":"nonpayable"},{"type":"function","name":"transferOwnership","inputs":[{"name":"newOwner","type":"address","internalType":"address"}],"outputs":[],"stateMutability":"nonpayable"},{"type":"event","name":"Approval","inputs":[{"name":"owner","type":"address","indexed":true,"internalType":"address"},{"name":"spender","type":"address","indexed":true,"internalType":"address"},{"name":"value","type":"uint256","indexed":false,"internalType":"uint256"}],"anonymous":false},{"type":"event","name":"OwnershipTransferred","inputs":[{"name":"previousOwner","type":"address","indexed":true,"internalType":"address"},{"name":"newOwner","type":"address","indexed":true,"internalType":"address"}],"anonymous":false},{"type":"event","name":"Transfer","inputs":[{"name":"from","type":"address","indexed":true,"internalType":"address"},{"name":"to","type":"address","indexed":true,"internalType":"address"},{"name":"value","type":"uint256","indexed":false,"internalType":"uint256"}],"anonymous":false},{"type":"error","name":"ERC20InsufficientAllowance","inputs":[{"name":"spender","type":"address","internalType":"address"},{"name":"allowance","type":"uint256","internalType":"uint256"},{"name":"needed","type":"uint256","internalType":"uint256"}]},{"type":"error","name":"ERC20InsufficientBalance","inputs":[{"name":"sender","type":"address","internalType":"address"},{"name":"balance","type":"uint256","internalType":"uint256"},{"name":"needed","type":"uint256","internalType":"uint256"}]},{"type":"error","name":"ERC20InvalidApprover","inputs":[{"name":"approver","type":"address","internalType":"address"}]},{"type":"error","name":"ERC20InvalidReceiver","inputs":[{"name":"receiver","type":"address","internalType":"address"}]},{"type":"error","name":"ERC20InvalidSender","inputs":[{"name":"sender","type":"address","internalType":"address"}]},{"type":"error","name":"ERC20InvalidSpender","inputs":[{"name":"spender","type":"address","internalType":"address"}]},{"type":"error","name":"OwnableInvalidOwner","inputs":[{"name":"owner","type":"address","internalType":"address"}]},{"type":"error","name":"OwnableUnauthorizedAccount","inputs":[{"name":"account","type":"address","internalType":"address"}]}],"bytecode":{"object":"0x60406080815234620004185762000dbb803803806200001e816200041d565b92833981019060808183031262000418578051602080830151919290916001600160401b0391908281116200041857856200005b91830162000443565b90868101519560ff871680970362000418576060820151848111620004185762000086920162000443565b91815181811162000318576003908154906001948583811c931680156200040d575b88841014620003f7578190601f93848111620003a1575b5088908483116001146200033a576000926200032e575b505060001982851b1c191690851b1782555b8451928311620003185760049485548581811c911680156200030d575b88821014620002f857828111620002ad575b5086918411600114620002425793839491849260009562000236575b50501b92600019911b1c19161781555b33156200021f57600254908382018092116200020a57506000917fddf252ad1be2c89b69c2b068fc378daa952ba7f163c4a11628f55a4df523b3ef9160025533835282815285832084815401905585519384523393a3600580546001600160a81b03198116831733600881811b610100600160a81b031692909217909355935193919260ff1990911617901c6001600160a01b03167f8be0079c531659141344cd1fd0a4f28419497f9722a3daafe3b4186f6b6457e0600080a36109059081620004b68239f35b601190634e487b7160e01b6000525260246000fd5b602490600086519163ec442f0560e01b8352820152fd5b01519350388062000133565b9190601f198416928660005284886000209460005b8a898383106200029557505050106200027a575b50505050811b01815562000143565b01519060f884600019921b161c19169055388080806200026b565b86860151895590970196948501948893500162000257565b86600052876000208380870160051c8201928a8810620002ee575b0160051c019086905b828110620002e157505062000117565b60008155018690620002d1565b92508192620002c8565b602287634e487b7160e01b6000525260246000fd5b90607f169062000105565b634e487b7160e01b600052604160045260246000fd5b015190503880620000d6565b90879350601f19831691866000528a6000209260005b8c8282106200038a575050841162000371575b505050811b018255620000e8565b015160001983871b60f8161c1916905538808062000363565b8385015186558b9790950194938401930162000350565b90915084600052886000208480850160051c8201928b8610620003ed575b918991869594930160051c01915b828110620003dd575050620000bf565b60008155859450899101620003cd565b92508192620003bf565b634e487b7160e01b600052602260045260246000fd5b92607f1692620000a8565b600080fd5b6040519190601f01601f191682016001600160401b038111838210176200031857604052565b919080601f84011215620004185782516001600160401b038111620003185760209062000479601f8201601f191683016200041d565b92818452828287010111620004185760005b818110620004a157508260009394955001015290565b85810183015184820184015282016200048b56fe6080604081815260048036101561001557600080fd5b600092833560e01c90816306fdde03146106515750806308bca56614610596578063095ea7b3146104ed57806318160ddd146104ce57806323b872dd146103db578063313ce567146103b957806370a0823114610382578063715018a61461031e5780638da5cb5b146102f157806395d89b41146101cf578063a9059cbb1461019e578063dd62ed3e146101515763f2fde38b146100b257600080fd5b3461014d57602036600319011261014d576100cb610791565b6100d36107c2565b6001600160a01b0381811693909290841561013757505060058054610100600160a81b03198116600893841b610100600160a81b031617909155901c167f8be0079c531659141344cd1fd0a4f28419497f9722a3daafe3b4186f6b6457e08380a380f35b51631e4fbdf760e01b8152908101859052602490fd5b8280fd5b50503461019a578060031936011261019a578060209261016f610791565b6101776107ac565b6001600160a01b0391821683526001865283832091168252845220549051908152f35b5080fd5b50503461019a578060031936011261019a576020906101c86101be610791565b60243590336107f1565b5160018152f35b5091903461019a578160031936011261019a5780519082845460018160011c90600183169283156102e7575b60209384841081146102d4578388529081156102b85750600114610263575b505050829003601f01601f191682019267ffffffffffffffff841183851017610250575082918261024c925282610748565b0390f35b634e487b7160e01b815260418552602490fd5b8787529192508591837f8a35acfbc15ff81a39ae7d344fd709f28e8600b4aa8c65c6b64bfe7fe36bd19b5b8385106102a4575050505083010138808061021a565b80548886018301529301928490820161028e565b60ff1916878501525050151560051b840101905038808061021a565b634e487b7160e01b895260228a52602489fd5b91607f16916101fb565b50503461019a578160031936011261019a57600554905160089190911c6001600160a01b03168152602090f35b833461037f578060031936011261037f576103376107c2565b60058054610100600160a81b03198116909155819060081c6001600160a01b03167f8be0079c531659141344cd1fd0a4f28419497f9722a3daafe3b4186f6b6457e08280a380f35b80fd5b50503461019a57602036600319011261019a5760209181906001600160a01b036103aa610791565b16815280845220549051908152f35b50503461019a578160031936011261019a5760209060ff600554169051908152f35b50823461037f57606036600319011261037f576103f6610791565b6103fe6107ac565b916044359360018060a01b03831680835260016020528683203384526020528683205491600019830361043a575b6020886101c88989896107f1565b8683106104a257811561048b573315610474575082526001602090815286832033845281529186902090859003905582906101c88761042c565b8751634a1406b160e11b8152908101849052602490fd5b875163e602df0560e01b8152908101849052602490fd5b8751637dc7a0d960e11b8152339181019182526020820193909352604081018790528291506060010390fd5b50503461019a578160031936011261019a576020906002549051908152f35b503461014d578160031936011261014d57610506610791565b60243590331561057f576001600160a01b031691821561056857508083602095338152600187528181208582528752205582519081527f8c5be1e5ebec7d5bd14f71427d1e84f3dd0314c0f7b2291e5b200ac8c7c3b925843392a35160018152f35b8351634a1406b160e11b8152908101859052602490fd5b835163e602df0560e01b8152808401869052602490fd5b5091903461019a578060031936011261019a576105b1610791565b602435906105bd6107c2565b6001600160a01b031691821561063b576002548281018091116106285790602091600255838552848252808520838154019055838582518581527fddf252ad1be2c89b69c2b068fc378daa952ba7f163c4a11628f55a4df523b3ef948591a35191825260203092a380f35b634e487b7160e01b855260118652602485fd5b5163ec442f0560e01b8152808501849052602490fd5b849150833461014d578260031936011261014d578260035460018160011c906001831692831561073e575b60209384841081146102d45783885290811561072257506001146106cc57505050829003601f01601f191682019267ffffffffffffffff841183851017610250575082918261024c925282610748565b600387529192508591837fc2575a0e9e593c00f959f8c92f12db2869c3395a3b0502d05e2516446f71f85b5b83851061070e575050505083010185808061021a565b8054888601830152930192849082016106f8565b60ff1916878501525050151560051b840101905085808061021a565b91607f169161067c565b6020808252825181830181905290939260005b82811061077d57505060409293506000838284010152601f8019910116010190565b81810186015184820160400152850161075b565b600435906001600160a01b03821682036107a757565b600080fd5b602435906001600160a01b03821682036107a757565b60055460081c6001600160a01b031633036107d957565b60405163118cdaa760e01b8152336004820152602490fd5b916001600160a01b038084169283156108b6571692831561089d576000908382528160205260408220549083821061086b575091604082827fddf252ad1be2c89b69c2b068fc378daa952ba7f163c4a11628f55a4df523b3ef958760209652828652038282205586815220818154019055604051908152a3565b60405163391434e360e21b81526001600160a01b03919091166004820152602481019190915260448101839052606490fd5b60405163ec442f0560e01b815260006004820152602490fd5b604051634b637e8f60e11b815260006004820152602490fdfea2646970667358221220df92c81232d509df8dd31a9623104952678032215edcfae61f4dad9882dd61ae64736f6c63430008170033","linkReferences":{}},"methodIdentifiers":{"allocateTo(address,uint256)":"08bca566","allowance(address,address)":"dd62ed3e","approve(address,uint256)":"095ea7b3","balanceOf(address)":"70a08231","decimals()":"313ce567","name()":"06fdde03","owner()":"8da5cb5b","renounceOwnership()":"715018a6","symbol()":"95d89b41","totalSupply()":"18160ddd","transfer(address,uint256)":"a9059cbb","transferFrom(address,address,uint256)":"23b872dd","transferOwnership(address)":"f2fde38b"},"id":107}