{"abi":[{"type":"constructor","inputs":[{"name":"_initialAmount","type":"uint256","internalType":"uint256"},{"name":"_tokenName","type":"string","internalType":"string"},{"name":"_decimalUnits","type":"uint8","internalType":"uint8"},{"name":"_tokenSymbol","type":"string","internalType":"string"}],"stateMutability":"nonpayable"},{"type":"function","name":"DOMAIN_SEPARATOR","inputs":[],"outputs":[{"name":"","type":"bytes32","internalType":"bytes32"}],"stateMutability":"view"},{"type":"function","name":"allocateTo","inputs":[{"name":"_owner","type":"address","internalType":"address"},{"name":"value","type":"uint256","internalType":"uint256"}],"outputs":[],"stateMutability":"nonpayable"},{"type":"function","name":"allowance","inputs":[{"name":"owner","type":"address","internalType":"address"},{"name":"spender","type":"address","internalType":"address"}],"outputs":[{"name":"","type":"uint256","internalType":"uint256"}],"stateMutability":"view"},{"type":"function","name":"approve","inputs":[{"name":"spender","type":"address","internalType":"address"},{"name":"value","type":"uint256","internalType":"uint256"}],"outputs":[{"name":"","type":"bool","internalType":"bool"}],"stateMutability":"nonpayable"},{"type":"function","name":"balanceOf","inputs":[{"name":"account","type":"address","internalType":"address"}],"outputs":[{"name":"","type":"uint256","internalType":"uint256"}],"stateMutability":"view"},{"type":"function","name":"decimals","inputs":[],"outputs":[{"name":"","type":"uint8","internalType":"uint8"}],"stateMutability":"view"},{"type":"function","name":"eip712Domain","inputs":[],"outputs":[{"name":"fields","type":"bytes1","internalType":"bytes1"},{"name":"name","type":"string","internalType":"string"},{"name":"version","type":"string","internalType":"string"},{"name":"chainId","type":"uint256","internalType":"uint256"},{"name":"verifyingContract","type":"address","internalType":"address"},{"name":"salt","type":"bytes32","internalType":"bytes32"},{"name":"extensions","type":"uint256[]","internalType":"uint256[]"}],"stateMutability":"view"},{"type":"function","name":"name","inputs":[],"outputs":[{"name":"","type":"string","internalType":"string"}],"stateMutability":"view"},{"type":"function","name":"nonces","inputs":[{"name":"owner","type":"address","internalType":"address"}],"outputs":[{"name":"","type":"uint256","internalType":"uint256"}],"stateMutability":"view"},{"type":"function","name":"owner","inputs":[],"outputs":[{"name":"","type":"address","internalType":"address"}],"stateMutability":"view"},{"type":"function","name":"permit","inputs":[{"name":"owner","type":"address","internalType":"address"},{"name":"spender","type":"address","internalType":"address"},{"name":"value","type":"uint256","internalType":"uint256"},{"name":"deadline","type":"uint256","internalType":"uint256"},{"name":"v","type":"uint8","internalType":"uint8"},{"name":"r","type":"bytes32","internalType":"bytes32"},{"name":"s","type":"bytes32","internalType":"bytes32"}],"outputs":[],"stateMutability":"nonpayable"},{"type":"function","name":"renounceOwnership","inputs":[],"outputs":[],"stateMutability":"nonpayable"},{"type":"function","name":"symbol","inputs":[],"outputs":[{"name":"","type":"string","internalType":"string"}],"stateMutability":"view"},{"type":"function","name":"totalSupply","inputs":[],"outputs":[{"name":"","type":"uint256","internalType":"uint256"}],"stateMutability":"view"},{"type":"function","name":"transfer","inputs":[{"name":"to","type":"address","internalType":"address"},{"name":"value","type":"uint256","internalType":"uint256"}],"outputs":[{"name":"","type":"bool","internalType":"bool"}],"stateMutability":"nonpayable"},{"type":"function","name":"transferFrom","inputs":[{"name":"from","type":"address","internalType":"address"},{"name":"to","type":"address","internalType":"address"},{"name":"value","type":"uint256","internalType":"uint256"}],"outputs":[{"name":"","type":"bool","internalType":"bool"}],"stateMutability":"nonpayable"},{"type":"function","name":"transferOwnership","inputs":[{"name":"newOwner","type":"address","internalType":"address"}],"outputs":[],"stateMutability":"nonpayable"},{"type":"event","name":"Approval","inputs":[{"name":"owner","type":"address","indexed":true,"internalType":"address"},{"name":"spender","type":"address","indexed":true,"internalType":"address"},{"name":"value","type":"uint256","indexed":false,"internalType":"uint256"}],"anonymous":false},{"type":"event","name":"EIP712DomainChanged","inputs":[],"anonymous":false},{"type":"event","name":"OwnershipTransferred","inputs":[{"name":"previousOwner","type":"address","indexed":true,"internalType":"address"},{"name":"newOwner","type":"address","indexed":true,"internalType":"address"}],"anonymous":false},{"type":"event","name":"Transfer","inputs":[{"name":"from","type":"address","indexed":true,"internalType":"address"},{"name":"to","type":"address","indexed":true,"internalType":"address"},{"name":"value","type":"uint256","indexed":false,"internalType":"uint256"}],"anonymous":false},{"type":"error","name":"ECDSAInvalidSignature","inputs":[]},{"type":"error","name":"ECDSAInvalidSignatureLength","inputs":[{"name":"length","type":"uint256","internalType":"uint256"}]},{"type":"error","name":"ECDSAInvalidSignatureS","inputs":[{"name":"s","type":"bytes32","internalType":"bytes32"}]},{"type":"error","name":"ERC20InsufficientAllowance","inputs":[{"name":"spender","type":"address","internalType":"address"},{"name":"allowance","type":"uint256","internalType":"uint256"},{"name":"needed","type":"uint256","internalType":"uint256"}]},{"type":"error","name":"ERC20InsufficientBalance","inputs":[{"name":"sender","type":"address","internalType":"address"},{"name":"balance","type":"uint256","internalType":"uint256"},{"name":"needed","type":"uint256","internalType":"uint256"}]},{"type":"error","name":"ERC20InvalidApprover","inputs":[{"name":"approver","type":"address","internalType":"address"}]},{"type":"error","name":"ERC20InvalidReceiver","inputs":[{"name":"receiver","type":"address","internalType":"address"}]},{"type":"error","name":"ERC20InvalidSender","inputs":[{"name":"sender","type":"address","internalType":"address"}]},{"type":"error","name":"ERC20InvalidSpender","inputs":[{"name":"spender","type":"address","internalType":"address"}]},{"type":"error","name":"ERC2612ExpiredSignature","inputs":[{"name":"deadline","type":"uint256","internalType":"uint256"}]},{"type":"error","name":"ERC2612InvalidSigner","inputs":[{"name":"signer","type":"address","internalType":"address"},{"name":"owner","type":"address","internalType":"address"}]},{"type":"error","name":"InvalidAccountNonce","inputs":[{"name":"account","type":"address","internalType":"address"},{"name":"currentNonce","type":"uint256","internalType":"uint256"}]},{"type":"error","name":"InvalidShortString","inputs":[]},{"type":"error","name":"OwnableInvalidOwner","inputs":[{"name":"owner","type":"address","internalType":"address"}]},{"type":"error","name":"OwnableUnauthorizedAccount","inputs":[{"name":"account","type":"address","internalType":"address"}]},{"type":"error","name":"StringTooLong","inputs":[{"name":"str","type":"string","internalType":"string"}]}],"bytecode":{"object":"0x6101606040908082523462000527576200192f80380380916200002382856200052c565b8339810190608081830312620005275780516020808301516001600160401b039491908581116200052757826200005c91860162000575565b93868101519260ff841680940362000527576060820151878111620005275762000087920162000575565b95805192818401848110888211176200042657825260019485855283850195603160f81b87528751898111620004265760038054918383811c931680156200051c575b888410146200050657601f92838111620004bb575b50808884821160011462000448576000916200043c575b5060001982841b1c191690841b1781555b8b51918b8311620004265760049c8d548581811c911680156200041b575b8a82101462000406578e838211620003bb575b50508d8992851160011462000350575093839491849260009562000344575b50501b92600019911b1c19161789555b33156200032d576002548181018091116200031857600255336000526000845282600020818154019055825190815260007fddf252ad1be2c89b69c2b068fc378daa952ba7f163c4a11628f55a4df523b3ef853393a3600580546001600160a81b03198116831733600881811b610100600160a81b031692909217909355919260ff1990911617901c6001600160a01b03167f8be0079c531659141344cd1fd0a4f28419497f9722a3daafe3b4186f6b6457e0600080a36200022985620005d0565b936101209485526200023b8462000778565b95610140968752838151910120938460e05251902096610100978089524660a0528251938401947f8b73c3c69bb8fe3d512ecc4cf759cc79239f7b179b0ffacaa9a75d522b39400f86528385015260608401524660808401523060a084015260a0835260c0830196838810908811176200030357508590525190206080523060c05261105f9384620008d0853960805184610bcb015260a05184610c97015260c05184610b95015260e05184610c1a01525183610c4001525182610496015251816104c00152f35b604190634e487b7160e01b6000525260246000fd5b60118a634e487b7160e01b6000525260246000fd5b825163ec442f0560e01b81526000818b0152602490fd5b01519350388062000157565b929190601f19851693600052848a6000209460005b8c89838310620003a3575050501062000388575b50505050811b01895562000167565b01519060f884600019921b161c191690553880808062000379565b86860151895590970196948501948893500162000365565b600052896000208380870160051c8201928c8810620003fc575b0160051c019086905b828110620003ef5750508e62000138565b60008155018690620003de565b92508192620003d5565b60228f634e487b7160e01b6000525260246000fd5b90607f169062000125565b634e487b7160e01b600052604160045260246000fd5b90508b015138620000f6565b8592508c90601f198316856000528b600020928c6000915b8383106200049957505050831162000480575b5050811b01815562000107565b8d015160001983861b60f8161c19169055388062000473565b948482949597989293960151815501940192019087949392918f8d9062000460565b82600052886000208480840160051c8201928b8510620004fc575b0160051c019085905b828110620004ef575050620000df565b60008155018590620004df565b92508192620004d6565b634e487b7160e01b600052602260045260246000fd5b92607f1692620000ca565b600080fd5b601f909101601f19168101906001600160401b038211908210176200042657604052565b60005b838110620005645750506000910152565b818101518382015260200162000553565b81601f82011215620005275780516001600160401b038111620004265760405192620005ac601f8301601f1916602001856200052c565b818452602082840101116200052757620005cd916020808501910162000550565b90565b8051602090818110156200064e5750601f8251116200060c5780825192015190808310620005fd57501790565b82600019910360031b1b161790565b604490620006409260405193849263305a27a960e01b84528060048501528251928391826024870152868601910162000550565b601f01601f19168101030190fd5b906001600160401b0382116200042657600654926001938481811c911680156200076d575b838210146200050657601f811162000733575b5081601f8411600114620006c75750928293918392600094620006bb575b50501b916000199060031b1c19161760065560ff90565b015192503880620006a4565b919083601f198116600660005284600020946000905b88838310620007185750505010620006fe575b505050811b0160065560ff90565b015160001960f88460031b161c19169055388080620006f0565b858701518855909601959485019487935090810190620006dd565b600660005284601f84600020920160051c820191601f860160051c015b8281106200076057505062000686565b6000815501859062000750565b90607f169062000673565b805160209081811015620007a55750601f8251116200060c5780825192015190808310620005fd57501790565b906001600160401b0382116200042657600754926001938481811c91168015620008c4575b838210146200050657601f81116200088a575b5081601f84116001146200081e575092829391839260009462000812575b50501b916000199060031b1c19161760075560ff90565b015192503880620007fb565b919083601f198116600760005284600020946000905b888383106200086f575050501062000855575b505050811b0160075560ff90565b015160001960f88460031b161c1916905538808062000847565b85870151885590960195948501948793509081019062000834565b600760005284601f84600020920160051c820191601f860160051c015b828110620008b7575050620007dd565b60008155018590620008a7565b90607f1690620007ca56fe6080604081815260048036101561001557600080fd5b600092833560e01c90816306fdde03146108ae5750806308bca566146107f3578063095ea7b3146107c957806318160ddd146107aa57806323b872dd146106b7578063313ce567146106955780633644e5151461067157806370a082311461063a578063715018a6146105d65780637ecebe001461059e57806384b0196e1461047f5780638da5cb5b1461045257806395d89b4114610363578063a9059cbb14610332578063d505accf146101ca578063dd62ed3e1461017d5763f2fde38b146100de57600080fd5b34610179576020366003190112610179576100f76109c6565b6100ff610a85565b6001600160a01b0381811693909290841561016357505060058054610100600160a81b03198116600893841b610100600160a81b031617909155901c167f8be0079c531659141344cd1fd0a4f28419497f9722a3daafe3b4186f6b6457e08380a380f35b51631e4fbdf760e01b8152908101859052602490fd5b8280fd5b5050346101c657806003193601126101c6578060209261019b6109c6565b6101a36109e1565b6001600160a01b0391821683526001865283832091168252845220549051908152f35b5080fd5b508290346101c65760e03660031901126101c6576101e66109c6565b6101ee6109e1565b906044359260643560843560ff8116810361032e578142116103175760018060a01b0390818516928389526008602052898920908154916001830190558a519060208201927f6e71edae12b1b97f4d1f60370fef10105fa2faae0126114a169c64845d6126c98452868d840152858a1660608401528a608084015260a083015260c082015260c0815260e0810181811067ffffffffffffffff821117610304578b525190206102d2916102c9916102a3610b92565b908c519161190160f01b83526002830152602282015260c43591604260a4359220610f14565b90929192610fa4565b168181036102e957866102e6878787610cbd565b80f35b87516325c0072360e11b815292830152602482015260449150fd5b634e487b7160e01b8b526041875260248bfd5b875163313c898160e11b8152808401839052602490fd5b8680fd5b5050346101c657806003193601126101c65760209061035c6103526109c6565b6024359033610ab4565b5160018152f35b5090346101795782600319360112610179578051838194908454610386816109f7565b91828552602096600192886001821691826000146104285750506001146103cd575b85886103c9896103ba848a0385610a63565b51928284938452830190610986565b0390f35b815286935091907f8a35acfbc15ff81a39ae7d344fd709f28e8600b4aa8c65c6b64bfe7fe36bd19b5b82841061041057505050820101816103ba6103c9386103a8565b8054848a0186015288955087949093019281016103f6565b60ff19168882015294151560051b870190940194508593506103ba92506103c991503890506103a8565b5050346101c657816003193601126101c657600554905160089190911c6001600160a01b03168152602090f35b5090346101795782600319360112610179576104ba7f0000000000000000000000000000000000000000000000000000000000000000610d50565b926104e47f0000000000000000000000000000000000000000000000000000000000000000610e54565b90825192602092602085019585871067ffffffffffffffff88111761058b5750926020610541838896610534998b9996528686528151998a99600f60f81b8b5260e0868c015260e08b0190610986565b91898303908a0152610986565b924660608801523060808801528460a088015286840360c088015251928381520193925b82811061057457505050500390f35b835185528695509381019392810192600101610565565b634e487b7160e01b845260419052602483fd5b5050346101c65760203660031901126101c65760209181906001600160a01b036105c66109c6565b1681526008845220549051908152f35b83346106375780600319360112610637576105ef610a85565b60058054610100600160a81b03198116909155819060081c6001600160a01b03167f8be0079c531659141344cd1fd0a4f28419497f9722a3daafe3b4186f6b6457e08280a380f35b80fd5b5050346101c65760203660031901126101c65760209181906001600160a01b036106626109c6565b16815280845220549051908152f35b5050346101c657816003193601126101c65760209061068e610b92565b9051908152f35b5050346101c657816003193601126101c65760209060ff600554169051908152f35b508234610637576060366003190112610637576106d26109c6565b6106da6109e1565b916044359360018060a01b038316808352600160205286832033845260205286832054916000198303610716575b60208861035c898989610ab4565b86831061077e5781156107675733156107505750825260016020908152868320338452815291869020908590039055829061035c87610708565b8751634a1406b160e11b8152908101849052602490fd5b875163e602df0560e01b8152908101849052602490fd5b8751637dc7a0d960e11b8152339181019182526020820193909352604081018790528291506060010390fd5b5050346101c657816003193601126101c6576020906002549051908152f35b5050346101c657806003193601126101c65760209061035c6107e96109c6565b6024359033610cbd565b509190346101c657806003193601126101c65761080e6109c6565b6024359061081a610a85565b6001600160a01b0316918215610898576002548281018091116108855790602091600255838552848252808520838154019055838582518581527fddf252ad1be2c89b69c2b068fc378daa952ba7f163c4a11628f55a4df523b3ef948591a35191825260203092a380f35b634e487b7160e01b855260118652602485fd5b5163ec442f0560e01b8152808501849052602490fd5b8484346101c657816003193601126101c65782826003546108ce816109f7565b908184526020956001918760018216918260001461095f575050600114610903575b5050506103c992916103ba910385610a63565b9190869350600383527fc2575a0e9e593c00f959f8c92f12db2869c3395a3b0502d05e2516446f71f85b5b82841061094757505050820101816103ba6103c96108f0565b8054848a01860152889550879490930192810161092e565b60ff19168782015293151560051b860190930193508492506103ba91506103c990506108f0565b919082519283825260005b8481106109b2575050826000602080949584010152601f8019910116010190565b602081830181015184830182015201610991565b600435906001600160a01b03821682036109dc57565b600080fd5b602435906001600160a01b03821682036109dc57565b90600182811c92168015610a27575b6020831014610a1157565b634e487b7160e01b600052602260045260246000fd5b91607f1691610a06565b6040810190811067ffffffffffffffff821117610a4d57604052565b634e487b7160e01b600052604160045260246000fd5b90601f8019910116810190811067ffffffffffffffff821117610a4d57604052565b60055460081c6001600160a01b03163303610a9c57565b60405163118cdaa760e01b8152336004820152602490fd5b916001600160a01b03808416928315610b795716928315610b605760009083825281602052604082205490838210610b2e575091604082827fddf252ad1be2c89b69c2b068fc378daa952ba7f163c4a11628f55a4df523b3ef958760209652828652038282205586815220818154019055604051908152a3565b60405163391434e360e21b81526001600160a01b03919091166004820152602481019190915260448101839052606490fd5b60405163ec442f0560e01b815260006004820152602490fd5b604051634b637e8f60e11b815260006004820152602490fd5b307f00000000000000000000000000000000000000000000000000000000000000006001600160a01b03161480610c94575b15610bed577f000000000000000000000000000000000000000000000000000000000000000090565b60405160208101907f8b73c3c69bb8fe3d512ecc4cf759cc79239f7b179b0ffacaa9a75d522b39400f82527f000000000000000000000000000000000000000000000000000000000000000060408201527f000000000000000000000000000000000000000000000000000000000000000060608201524660808201523060a082015260a0815260c0810181811067ffffffffffffffff821117610a4d5760405251902090565b507f00000000000000000000000000000000000000000000000000000000000000004614610bc4565b6001600160a01b03908116918215610d375716918215610d1e5760207f8c5be1e5ebec7d5bd14f71427d1e84f3dd0314c0f7b2291e5b200ac8c7c3b925918360005260018252604060002085600052825280604060002055604051908152a3565b604051634a1406b160e11b815260006004820152602490fd5b60405163e602df0560e01b815260006004820152602490fd5b60ff8114610d8e5760ff811690601f8211610d7c5760405191610d7283610a31565b8252602082015290565b604051632cd44ac360e21b8152600490fd5b50604051600654816000610da1836109f7565b80835292602090600190818116908115610e305750600114610dcf575b5050610dcc92500382610a63565b90565b91509260066000527ff652222313e28459528d920b65115c16c04f3efc82aaedc97be59f3f377c0d3f936000925b828410610e185750610dcc9450505081016020013880610dbe565b85548785018301529485019486945092810192610dfd565b91505060209250610dcc94915060ff191682840152151560051b8201013880610dbe565b60ff8114610e765760ff811690601f8211610d7c5760405191610d7283610a31565b50604051600754816000610e89836109f7565b80835292602090600190818116908115610e305750600114610eb3575050610dcc92500382610a63565b91509260076000527fa66cc928b5edb82af9bd49922954155ab7b0942694bea4ce44661d9a8736c688936000925b828410610efc5750610dcc9450505081016020013880610dbe565b85548785018301529485019486945092810192610ee1565b91907f7fffffffffffffffffffffffffffffff5d576e7357a4501ddfe92f46681b20a08411610f9857926020929160ff608095604051948552168484015260408301526060820152600092839182805260015afa15610f8c5780516001600160a01b03811615610f8357918190565b50809160019190565b604051903d90823e3d90fd5b50505060009160039190565b60048110156110135780610fb6575050565b60018103610fd05760405163f645eedf60e01b8152600490fd5b60028103610ff15760405163fce698f760e01b815260048101839052602490fd5b600314610ffb5750565b602490604051906335e2f38360e21b82526004820152fd5b634e487b7160e01b600052602160045260246000fdfea2646970667358221220639595367a1e0404ce1eab16115588789cf7c6021506c01d26322eee8cefaa8064736f6c63430008170033","linkReferences":{}},"methodIdentifiers":{"DOMAIN_SEPARATOR()":"3644e515","allocateTo(address,uint256)":"08bca566","allowance(address,address)":"dd62ed3e","approve(address,uint256)":"095ea7b3","balanceOf(address)":"70a08231","decimals()":"313ce567","eip712Domain()":"84b0196e","name()":"06fdde03","nonces(address)":"7ecebe00","owner()":"8da5cb5b","permit(address,address,uint256,uint256,uint8,bytes32,bytes32)":"d505accf","renounceOwnership()":"715018a6","symbol()":"95d89b41","totalSupply()":"18160ddd","transfer(address,uint256)":"a9059cbb","transferFrom(address,address,uint256)":"23b872dd","transferOwnership(address)":"f2fde38b"},"id":107}