{"abi":[{"type":"constructor","inputs":[{"name":"_pyth","type":"address","internalType":"address"},{"name":"_priceId","type":"bytes32","internalType":"bytes32"}],"stateMutability":"nonpayable"},{"type":"function","name":"decimals","inputs":[],"outputs":[{"name":"","type":"uint8","internalType":"uint8"}],"stateMutability":"view"},{"type":"function","name":"description","inputs":[],"outputs":[{"name":"","type":"string","internalType":"string"}],"stateMutability":"pure"},{"type":"function","name":"getAnswer","inputs":[{"name":"","type":"uint256","internalType":"uint256"}],"outputs":[{"name":"","type":"int256","internalType":"int256"}],"stateMutability":"view"},{"type":"function","name":"getRoundData","inputs":[{"name":"_roundId","type":"uint80","internalType":"uint80"}],"outputs":[{"name":"roundId","type":"uint80","internalType":"uint80"},{"name":"answer","type":"int256","internalType":"int256"},{"name":"startedAt","type":"uint256","internalType":"uint256"},{"name":"updatedAt","type":"uint256","internalType":"uint256"},{"name":"answeredInRound","type":"uint80","internalType":"uint80"}],"stateMutability":"view"},{"type":"function","name":"getTimestamp","inputs":[{"name":"","type":"uint256","internalType":"uint256"}],"outputs":[{"name":"","type":"uint256","internalType":"uint256"}],"stateMutability":"view"},{"type":"function","name":"latestAnswer","inputs":[],"outputs":[{"name":"","type":"int256","internalType":"int256"}],"stateMutability":"view"},{"type":"function","name":"latestRound","inputs":[],"outputs":[{"name":"","type":"uint256","internalType":"uint256"}],"stateMutability":"view"},{"type":"function","name":"latestRoundData","inputs":[],"outputs":[{"name":"roundId","type":"uint80","internalType":"uint80"},{"name":"answer","type":"int256","internalType":"int256"},{"name":"startedAt","type":"uint256","internalType":"uint256"},{"name":"updatedAt","type":"uint256","internalType":"uint256"},{"name":"answeredInRound","type":"uint80","internalType":"uint80"}],"stateMutability":"view"},{"type":"function","name":"latestTimestamp","inputs":[],"outputs":[{"name":"","type":"uint256","internalType":"uint256"}],"stateMutability":"view"},{"type":"function","name":"priceId","inputs":[],"outputs":[{"name":"","type":"bytes32","internalType":"bytes32"}],"stateMutability":"view"},{"type":"function","name":"pyth","inputs":[],"outputs":[{"name":"","type":"address","internalType":"contract IPyth"}],"stateMutability":"view"},{"type":"function","name":"updateFeeds","inputs":[{"name":"priceUpdateData","type":"bytes[]","internalType":"bytes[]"}],"outputs":[],"stateMutability":"payable"},{"type":"function","name":"version","inputs":[],"outputs":[{"name":"","type":"uint256","internalType":"uint256"}],"stateMutability":"pure"}],"bytecode":{"object":"0x60803461007c57601f61096538819003918201601f19168301916001600160401b0383118484101761008157808492604094855283398101031261007c5780516001600160a01b038116919082900361007c5760200151600055600180546001600160a01b0319169190911790556040516108cd90816100988239f35b600080fd5b634e487b7160e01b600052604160045260246000fdfe6080604081815260048036101561001557600080fd5b600092833560e01c908163311893341461064057508063313ce5671461059957806350d25bcd1461057c57806354fd4d5014610560578063668a0f021461047f5780637284e416146104845780638205bf6a1461047f5780639a6fc8f5146103ae578063b5ab58dc14610390578063b633620c1461036b578063bc36c0a9146101a8578063f98d06f01461017b5763feaf968c146100b257600080fd5b34610177578260031936011261017757600154835483516396834ad360e01b815292830152608090829060249082906001600160a01b03165afa92831561016c579261013b575b506060828101519251915169ffffffffffffffffffff841680825260079390930b60208201526040810184905290810192909252608082015260a090f35b0390f35b61015e91925060803d608011610165575b6101568183610682565b8101906106ba565b90386100f9565b503d61014c565b8251903d90823e3d90fd5b8280fd5b5050346101a457816003193601126101a45760015490516001600160a01b039091168152602090f35b5080fd5b50906020908160031936011261032a5767ffffffffffffffff83358181116103675736602382011215610367578581860135918383116101a4576024810190602436918560051b0101116101a457600154855163d47eed4560e01b815293916001600160a01b039091169087858061022386858e84016107f3565b0381855afa94851561035d57849561032e575b50813b1561032a578651631df3cbc560e31b81529485938492839161025d918d84016107f3565b03925af18015610320576102fa575b508480808047335af1903d156102f4573d9081116102df5782519061029a601f8201601f1916860183610682565b815285843d92013e5b156102ac578380f35b5162461bcd60e51b815291820152600f60248201526e151c985b9cd9995c8819985a5b1959608a1b604482015260649150fd5b604185634e487b7160e01b6000525260246000fd5b506102a3565b81819692961161030d578252933861026c565b634e487b7160e01b825260418552602482fd5b83513d88823e3d90fd5b8380fd5b9094508781813d8311610356575b6103468183610682565b8101031261032a57519338610236565b503d61033c565b87513d86823e3d90fd5b8580fd5b5050346101a45760203660031901126101a457602090610389610793565b9051908152f35b5050346101a45760203660031901126101a457602090610389610727565b508290346101a45760203660031901126101a45780359069ffffffffffffffffffff8216820361017757600154835485516396834ad360e01b815292830152608090829060249082906001600160a01b03165afa928315610474579261044f575b508151606092830151935169ffffffffffffffffffff9290921680835260079190910b60208301526040820184905291810192909252608082015260a090f35b61013791925061046d9060803d608011610165576101568183610682565b919061040f565b8451903d90823e3d90fd5b61065a565b5034610177578260031936011261017757815190606082019082821067ffffffffffffffff83111761054d57508252603e81526020907f4120706f7274206f66206120636861696e6c696e6b2061676772656761746f7260208201527f20706f77657265642062792070797468206e6574776f726b206665656473000083820152825193849260208452825192836020860152825b84811061053757505050828201840152601f01601f19168101030190f35b8181018301518882018801528795508201610519565b634e487b7160e01b855260419052602484fd5b5050346101a457816003193601126101a4576020905160018152f35b5050346101a457816003193601126101a457602090610389610727565b50823461063d578060031936011261063d5760018060a01b03600154166080825460248651809481936396834ad360e01b8352888301525afa908115610633579084918391610614575b500151810b8103918280830b036106015760208360ff865191168152f35b634e487b7160e01b825260119052602490fd5b61062d915060803d608011610165576101568183610682565b856105e3565b84513d84823e3d90fd5b80fd5b8490346101a457816003193601126101a457602091548152f35b3461067d57600036600319011261067d576020610675610793565b604051908152f35b600080fd5b90601f8019910116810190811067ffffffffffffffff8211176106a457604052565b634e487b7160e01b600052604160045260246000fd5b9081608091031261067d576040519067ffffffffffffffff60808301818111848210176106a45760405281518060070b810361067d5783526020820151908116810361067d5760208301526040810151908160030b820361067d5760609160408401520151606082015290565b60018060a01b036001541660806000546024604051809481936396834ad360e01b835260048301525afa90811561078757600091610768575b505160070b90565b610781915060803d608011610165576101568183610682565b38610760565b6040513d6000823e3d90fd5b60018060a01b036001541660806000546024604051809481936396834ad360e01b835260048301525afa8015610787576060916000916107d4575b50015190565b6107ed915060803d608011610165576101568183610682565b386107ce565b9160208181850182865252604084019360408360051b82010194846000925b858410610823575050505050505090565b90919293949596603f198282030184528735601e198436030181121561067d57830186810191903567ffffffffffffffff811161067d57803603831361067d5787828280600196849695859652848401376000828201840152601f01601f191601019901979695919091019301919061081256fea26469706673582212203b70508dd3feeb27bc1a2810459b8ca304da87424d0f23811defc7a117507c7a64736f6c63430008170033","linkReferences":{}},"methodIdentifiers":{"decimals()":"313ce567","description()":"7284e416","getAnswer(uint256)":"b5ab58dc","getRoundData(uint80)":"9a6fc8f5","getTimestamp(uint256)":"b633620c","latestAnswer()":"50d25bcd","latestRound()":"668a0f02","latestRoundData()":"feaf968c","latestTimestamp()":"8205bf6a","priceId()":"31189334","pyth()":"f98d06f0","updateFeeds(bytes[])":"bc36c0a9","version()":"54fd4d50"},"id":121}