{"abi":[{"type":"constructor","inputs":[{"name":"baseRatePerYear","type":"uint256","internalType":"uint256"},{"name":"multiplierPerYear","type":"uint256","internalType":"uint256"},{"name":"jumpMultiplierPerYear","type":"uint256","internalType":"uint256"},{"name":"kink_","type":"uint256","internalType":"uint256"}],"stateMutability":"nonpayable"},{"type":"function","name":"baseRatePerTimestamp","inputs":[],"outputs":[{"name":"","type":"uint256","internalType":"uint256"}],"stateMutability":"view"},{"type":"function","name":"getBorrowRate","inputs":[{"name":"cash","type":"uint256","internalType":"uint256"},{"name":"borrows","type":"uint256","internalType":"uint256"},{"name":"reserves","type":"uint256","internalType":"uint256"}],"outputs":[{"name":"","type":"uint256","internalType":"uint256"}],"stateMutability":"view"},{"type":"function","name":"getSupplyRate","inputs":[{"name":"cash","type":"uint256","internalType":"uint256"},{"name":"borrows","type":"uint256","internalType":"uint256"},{"name":"reserves","type":"uint256","internalType":"uint256"},{"name":"reserveFactorMantissa","type":"uint256","internalType":"uint256"}],"outputs":[{"name":"","type":"uint256","internalType":"uint256"}],"stateMutability":"view"},{"type":"function","name":"isInterestRateModel","inputs":[],"outputs":[{"name":"","type":"bool","internalType":"bool"}],"stateMutability":"view"},{"type":"function","name":"jumpMultiplierPerTimestamp","inputs":[],"outputs":[{"name":"","type":"uint256","internalType":"uint256"}],"stateMutability":"view"},{"type":"function","name":"kink","inputs":[],"outputs":[{"name":"","type":"uint256","internalType":"uint256"}],"stateMutability":"view"},{"type":"function","name":"multiplierPerTimestamp","inputs":[],"outputs":[{"name":"","type":"uint256","internalType":"uint256"}],"stateMutability":"view"},{"type":"function","name":"timestampsPerYear","inputs":[],"outputs":[{"name":"","type":"uint256","internalType":"uint256"}],"stateMutability":"view"},{"type":"function","name":"utilizationRate","inputs":[{"name":"cash","type":"uint256","internalType":"uint256"},{"name":"borrows","type":"uint256","internalType":"uint256"},{"name":"reserves","type":"uint256","internalType":"uint256"}],"outputs":[{"name":"","type":"uint256","internalType":"uint256"}],"stateMutability":"pure"},{"type":"event","name":"NewInterestParams","inputs":[{"name":"baseRatePerTimestamp","type":"uint256","indexed":false,"internalType":"uint256"},{"name":"multiplierPerTimestamp","type":"uint256","indexed":false,"internalType":"uint256"},{"name":"jumpMultiplierPerTimestamp","type":"uint256","indexed":false,"internalType":"uint256"},{"name":"kink","type":"uint256","indexed":false,"internalType":"uint256"}],"anonymous":false}],"bytecode":{"object":"0x60803461011057601f61048638819003918201601f19168301916001600160401b038311848410176101155780849260809460405283398101031261011057805190602081015160606040830151920151670de0b6b3a7640000808502948086048214901517156100fa57806301e13380809604049283600155818102908082048314901517156100fa5785829104049081600055808502948086048214901517156100fa577f6960ab234c7ef4b0c9197100f5393cfcde7c453ac910a27bd2000aa1dd4c068d956080950404908160025582600355604051938452602084015260408301526060820152a160405161035a908161012c8239f35b634e487b7160e01b600052601160045260246000fd5b600080fd5b634e487b7160e01b600052604160045260246000fdfe60806040818152600436101561001457600080fd5b600091823560e01c9081630c574861146101ce5750806315f24053146101b35780632191f92a1461019857806326c394f71461017a57806340bc0af41461015c5780636c2df6a7146101405780636e71e2d81461011e578063b8168816146100a65763fd2da3391461008557600080fd5b346100a257816003193601126100a2576020906003549051908152f35b5080fd5b50346100a25760803660031901126100a2576004359160243560443590670de0b6b3a76400009260643584039084821161010a57508282856100fb6100f6946100f6610102988c9860209d61024e565b61020b565b04936102c4565b049051908152f35b634e487b7160e01b81526011600452602490fd5b50346100a257602090610139610133366101ec565b916102c4565b9051908152f35b50346100a257816003193601126100a257602091549051908152f35b50346100a257816003193601126100a2576020906001549051908152f35b50346100a257816003193601126100a2576020906002549051908152f35b50346100a257816003193601126100a2576020905160018152f35b50346100a2576020906101396101c8366101ec565b9161024e565b8390346100a257816003193601126100a257806301e1338060209252f35b606090600319011261020657600435906024359060443590565b600080fd5b8181029291811591840414171561021e57565b634e487b7160e01b600052601160045260246000fd5b9190820180921161021e57565b9190820391821161021e57565b9061025992916102c4565b60035480821161028a5750670de0b6b3a764000061027d610287926000549061020b565b0460015490610234565b90565b90610287916102be6102b5670de0b6b3a7640000926102af8461027d6000548461020b565b94610241565b6002549061020b565b04610234565b91811561031c57670de0b6b3a7640000820292670de0b6b3a763ffff198385040161021e576102fb926102f691610234565b610241565b908115610306570490565b634e487b7160e01b600052601260045260246000fd5b50505060009056fea264697066735822122054703b89368fe3423ea3926063012eec52aa9b4b090485a2e1215da005fc73b264736f6c63430008170033","linkReferences":{}},"methodIdentifiers":{"baseRatePerTimestamp()":"40bc0af4","getBorrowRate(uint256,uint256,uint256)":"15f24053","getSupplyRate(uint256,uint256,uint256,uint256)":"b8168816","isInterestRateModel()":"2191f92a","jumpMultiplierPerTimestamp()":"26c394f7","kink()":"fd2da339","multiplierPerTimestamp()":"6c2df6a7","timestampsPerYear()":"0c574861","utilizationRate(uint256,uint256,uint256)":"6e71e2d8"},"id":96}