{"abi":[{"type":"constructor","inputs":[{"name":"_price","type":"int256","internalType":"int256"},{"name":"decimals_","type":"uint8","internalType":"uint8"}],"stateMutability":"nonpayable"},{"type":"function","name":"_decimals","inputs":[],"outputs":[{"name":"","type":"uint8","internalType":"uint8"}],"stateMutability":"view"},{"type":"function","name":"decimals","inputs":[],"outputs":[{"name":"","type":"uint8","internalType":"uint8"}],"stateMutability":"view"},{"type":"function","name":"getRoundData","inputs":[],"outputs":[{"name":"","type":"uint80","internalType":"uint80"},{"name":"","type":"int256","internalType":"int256"},{"name":"","type":"uint256","internalType":"uint256"},{"name":"","type":"uint256","internalType":"uint256"},{"name":"","type":"uint80","internalType":"uint80"}],"stateMutability":"view"},{"type":"function","name":"getUpdatedAt","inputs":[],"outputs":[{"name":"","type":"uint256","internalType":"uint256"}],"stateMutability":"view"},{"type":"function","name":"latestRoundData","inputs":[],"outputs":[{"name":"","type":"uint80","internalType":"uint80"},{"name":"","type":"int256","internalType":"int256"},{"name":"","type":"uint256","internalType":"uint256"},{"name":"","type":"uint256","internalType":"uint256"},{"name":"","type":"uint80","internalType":"uint80"}],"stateMutability":"view"},{"type":"function","name":"price","inputs":[],"outputs":[{"name":"","type":"int256","internalType":"int256"}],"stateMutability":"view"},{"type":"function","name":"roundId","inputs":[],"outputs":[{"name":"","type":"uint8","internalType":"uint8"}],"stateMutability":"view"},{"type":"function","name":"setPrice","inputs":[{"name":"_price","type":"int256","internalType":"int256"},{"name":"decimals_","type":"uint8","internalType":"uint8"}],"outputs":[],"stateMutability":"nonpayable"},{"type":"function","name":"updatedAt","inputs":[],"outputs":[{"name":"","type":"uint256","internalType":"uint256"}],"stateMutability":"view"},{"type":"event","name":"PriceUpdated","inputs":[{"name":"newPrice","type":"int256","indexed":false,"internalType":"int256"},{"name":"updatedAt","type":"uint256","indexed":false,"internalType":"uint256"}],"anonymous":false}],"bytecode":{"object":"0x6080346100dc57601f61034438819003918201601f19168301916001600160401b038311848410176100e15780849260409485528339810103126100dc57602081519101519060ff82168092036100dc57806000556002549042600155600160ff84811985161760081c16019160ff83116100c6577fdb6fb3cf4cc5fb760bcd63b958a53b2396776dff32c063188e864296541e76bd9361ff0060409460081b169161ffff191617176002558151908152426020820152a160405161024c90816100f88239f35b634e487b7160e01b600052601160045260246000fd5b600080fd5b634e487b7160e01b600052604160045260246000fdfe60806040818152600436101561001457600080fd5b600090813560e01c928363313ce567146101b05750826332424aa31461019057826372142a45146100875782637519ab501461008c5782638cd221c91461016d578263a035b1fe14610152578263d7de9c41146100ad578263e83558531461008c57505063feaf968c1461008757600080fd5b6101cf565b346100a957816003193601126100a9576020906001549051908152f35b5080fd5b903461014f578160031936011261014f57600435916024359260ff841680940361014b5780835560025442600155600160ff86811984161760081c16019460ff86116101375761ff007fdb6fb3cf4cc5fb760bcd63b958a53b2396776dff32c063188e864296541e76bd959660081b169161ffff191617176002558151908152426020820152a180f35b634e487b7160e01b85526011600452602485fd5b8280fd5b80fd5b346100a957816003193601126100a957602091549051908152f35b346100a957816003193601126100a95760209060ff60025460081c169051908152f35b346100a957816003193601126100a95760209060ff600254169051908152f35b9050346100a957816003193601126100a95760209060ff600254168152f35b346102115760003660031901126102115760a060ff60025460081c16600054600154906040519283526020830152604082015242606082015260006080820152f35b600080fdfea26469706673582212208c4635450b5fb145dcc0deaaf717e92a022bfb8bd802ab03bb69afefe349329d64736f6c63430008170033","linkReferences":{}},"methodIdentifiers":{"_decimals()":"32424aa3","decimals()":"313ce567","getRoundData()":"72142a45","getUpdatedAt()":"e8355853","latestRoundData()":"feaf968c","price()":"a035b1fe","roundId()":"8cd221c9","setPrice(int256,uint8)":"d7de9c41","updatedAt()":"7519ab50"},"id":100}