{"abi":[{"type":"constructor","inputs":[],"stateMutability":"nonpayable"},{"type":"function","name":"_become","inputs":[{"name":"unitroller","type":"address","internalType":"contract Unitroller"}],"outputs":[],"stateMutability":"nonpayable"},{"type":"function","name":"_rescueFunds","inputs":[{"name":"_tokenAddress","type":"address","internalType":"address"},{"name":"_amount","type":"uint256","internalType":"uint256"}],"outputs":[],"stateMutability":"nonpayable"},{"type":"function","name":"_setBlackList","inputs":[{"name":"account_","type":"address","internalType":"address"},{"name":"state","type":"bool","internalType":"bool"}],"outputs":[],"stateMutability":"nonpayable"},{"type":"function","name":"_setBorrowCapGuardian","inputs":[{"name":"newBorrowCapGuardian","type":"address","internalType":"address"}],"outputs":[],"stateMutability":"nonpayable"},{"type":"function","name":"_setBorrowPaused","inputs":[{"name":"hToken","type":"address","internalType":"contract HToken"},{"name":"state","type":"bool","internalType":"bool"}],"outputs":[{"name":"","type":"bool","internalType":"bool"}],"stateMutability":"nonpayable"},{"type":"function","name":"_setCloseFactor","inputs":[{"name":"newCloseFactorMantissa","type":"uint256","internalType":"uint256"}],"outputs":[{"name":"","type":"uint256","internalType":"uint256"}],"stateMutability":"nonpayable"},{"type":"function","name":"_setCollateralFactor","inputs":[{"name":"hToken","type":"address","internalType":"contract HToken"},{"name":"newCollateralFactorMantissa","type":"uint256","internalType":"uint256"}],"outputs":[{"name":"","type":"uint256","internalType":"uint256"}],"stateMutability":"nonpayable"},{"type":"function","name":"_setLiquidationIncentive","inputs":[{"name":"newLiquidationIncentiveMantissa","type":"uint256","internalType":"uint256"}],"outputs":[{"name":"","type":"uint256","internalType":"uint256"}],"stateMutability":"nonpayable"},{"type":"function","name":"_setMarketBorrowCaps","inputs":[{"name":"hTokens","type":"address[]","internalType":"contract HToken[]"},{"name":"newBorrowCaps","type":"uint256[]","internalType":"uint256[]"}],"outputs":[],"stateMutability":"nonpayable"},{"type":"function","name":"_setMarketSupplyCaps","inputs":[{"name":"hTokens","type":"address[]","internalType":"contract HToken[]"},{"name":"newSupplyCaps","type":"uint256[]","internalType":"uint256[]"}],"outputs":[],"stateMutability":"nonpayable"},{"type":"function","name":"_setMintPaused","inputs":[{"name":"hToken","type":"address","internalType":"contract HToken"},{"name":"state","type":"bool","internalType":"bool"}],"outputs":[{"name":"","type":"bool","internalType":"bool"}],"stateMutability":"nonpayable"},{"type":"function","name":"_setPauseGuardian","inputs":[{"name":"newPauseGuardian","type":"address","internalType":"address"}],"outputs":[{"name":"","type":"uint256","internalType":"uint256"}],"stateMutability":"nonpayable"},{"type":"function","name":"_setPriceOracle","inputs":[{"name":"newOracle","type":"address","internalType":"contract PriceOracle"}],"outputs":[{"name":"","type":"uint256","internalType":"uint256"}],"stateMutability":"nonpayable"},{"type":"function","name":"_setProtocalPaused","inputs":[],"outputs":[{"name":"","type":"bool","internalType":"bool"}],"stateMutability":"nonpayable"},{"type":"function","name":"_setRedeemPaused","inputs":[{"name":"hToken","type":"address","internalType":"contract HToken"},{"name":"state","type":"bool","internalType":"bool"}],"outputs":[{"name":"","type":"bool","internalType":"bool"}],"stateMutability":"nonpayable"},{"type":"function","name":"_setRewardDistributor","inputs":[{"name":"newRewardDistributor","type":"address","internalType":"contract IMultiRewardDistributor"}],"outputs":[],"stateMutability":"nonpayable"},{"type":"function","name":"_setSeizePaused","inputs":[{"name":"state","type":"bool","internalType":"bool"}],"outputs":[{"name":"","type":"bool","internalType":"bool"}],"stateMutability":"nonpayable"},{"type":"function","name":"_setSupplyCapGuardian","inputs":[{"name":"newSupplyCapGuardian","type":"address","internalType":"address"}],"outputs":[],"stateMutability":"nonpayable"},{"type":"function","name":"_setTransferPaused","inputs":[{"name":"state","type":"bool","internalType":"bool"}],"outputs":[{"name":"","type":"bool","internalType":"bool"}],"stateMutability":"nonpayable"},{"type":"function","name":"_supportMarket","inputs":[{"name":"hToken","type":"address","internalType":"contract HToken"}],"outputs":[{"name":"","type":"uint256","internalType":"uint256"}],"stateMutability":"nonpayable"},{"type":"function","name":"accountAssets","inputs":[{"name":"","type":"address","internalType":"address"},{"name":"","type":"uint256","internalType":"uint256"}],"outputs":[{"name":"","type":"address","internalType":"contract HToken"}],"stateMutability":"view"},{"type":"function","name":"admin","inputs":[],"outputs":[{"name":"","type":"address","internalType":"address"}],"stateMutability":"view"},{"type":"function","name":"allMarkets","inputs":[{"name":"","type":"uint256","internalType":"uint256"}],"outputs":[{"name":"","type":"address","internalType":"contract HToken"}],"stateMutability":"view"},{"type":"function","name":"blackList","inputs":[{"name":"","type":"address","internalType":"address"}],"outputs":[{"name":"","type":"bool","internalType":"bool"}],"stateMutability":"view"},{"type":"function","name":"borrowAllowed","inputs":[{"name":"hToken","type":"address","internalType":"address"},{"name":"borrower","type":"address","internalType":"address"},{"name":"borrowAmount","type":"uint256","internalType":"uint256"}],"outputs":[{"name":"","type":"uint256","internalType":"uint256"}],"stateMutability":"nonpayable"},{"type":"function","name":"borrowCapGuardian","inputs":[],"outputs":[{"name":"","type":"address","internalType":"address"}],"stateMutability":"view"},{"type":"function","name":"borrowCaps","inputs":[{"name":"","type":"address","internalType":"address"}],"outputs":[{"name":"","type":"uint256","internalType":"uint256"}],"stateMutability":"view"},{"type":"function","name":"borrowGuardianPaused","inputs":[{"name":"","type":"address","internalType":"address"}],"outputs":[{"name":"","type":"bool","internalType":"bool"}],"stateMutability":"view"},{"type":"function","name":"checkMembership","inputs":[{"name":"account","type":"address","internalType":"address"},{"name":"hToken","type":"address","internalType":"contract HToken"}],"outputs":[{"name":"","type":"bool","internalType":"bool"}],"stateMutability":"view"},{"type":"function","name":"claimReward","inputs":[{"name":"holders","type":"address[]","internalType":"address[]"},{"name":"hTokens","type":"address[]","internalType":"contract HToken[]"},{"name":"borrowers","type":"bool","internalType":"bool"},{"name":"suppliers","type":"bool","internalType":"bool"}],"outputs":[],"stateMutability":"nonpayable"},{"type":"function","name":"claimReward","inputs":[{"name":"holder","type":"address","internalType":"address"},{"name":"hTokens","type":"address[]","internalType":"contract HToken[]"}],"outputs":[],"stateMutability":"nonpayable"},{"type":"function","name":"claimReward","inputs":[],"outputs":[],"stateMutability":"nonpayable"},{"type":"function","name":"claimReward","inputs":[{"name":"holder","type":"address","internalType":"address"}],"outputs":[],"stateMutability":"nonpayable"},{"type":"function","name":"closeFactorMantissa","inputs":[],"outputs":[{"name":"","type":"uint256","internalType":"uint256"}],"stateMutability":"view"},{"type":"function","name":"comptrollerImplementation","inputs":[],"outputs":[{"name":"","type":"address","internalType":"address"}],"stateMutability":"view"},{"type":"function","name":"enterAllMarkets","inputs":[{"name":"account","type":"address","internalType":"address"}],"outputs":[{"name":"","type":"uint256[]","internalType":"uint256[]"}],"stateMutability":"nonpayable"},{"type":"function","name":"enterMarkets","inputs":[{"name":"hTokens","type":"address[]","internalType":"address[]"}],"outputs":[{"name":"","type":"uint256[]","internalType":"uint256[]"}],"stateMutability":"nonpayable"},{"type":"function","name":"exitMarket","inputs":[{"name":"hTokenAddress","type":"address","internalType":"address"}],"outputs":[{"name":"","type":"uint256","internalType":"uint256"}],"stateMutability":"nonpayable"},{"type":"function","name":"getAccountLiquidity","inputs":[{"name":"account","type":"address","internalType":"address"}],"outputs":[{"name":"","type":"uint256","internalType":"uint256"},{"name":"","type":"uint256","internalType":"uint256"},{"name":"","type":"uint256","internalType":"uint256"}],"stateMutability":"view"},{"type":"function","name":"getAllMarkets","inputs":[],"outputs":[{"name":"","type":"address[]","internalType":"contract HToken[]"}],"stateMutability":"view"},{"type":"function","name":"getAssetsIn","inputs":[{"name":"account","type":"address","internalType":"address"}],"outputs":[{"name":"","type":"address[]","internalType":"contract HToken[]"}],"stateMutability":"view"},{"type":"function","name":"getHypotheticalAccountLiquidity","inputs":[{"name":"account","type":"address","internalType":"address"},{"name":"hTokenModify","type":"address","internalType":"address"},{"name":"redeemTokens","type":"uint256","internalType":"uint256"},{"name":"borrowAmount","type":"uint256","internalType":"uint256"}],"outputs":[{"name":"","type":"uint256","internalType":"uint256"},{"name":"","type":"uint256","internalType":"uint256"},{"name":"","type":"uint256","internalType":"uint256"}],"stateMutability":"view"},{"type":"function","name":"isComptroller","inputs":[],"outputs":[{"name":"","type":"bool","internalType":"bool"}],"stateMutability":"view"},{"type":"function","name":"isDeprecated","inputs":[{"name":"hToken","type":"address","internalType":"contract HToken"}],"outputs":[{"name":"","type":"bool","internalType":"bool"}],"stateMutability":"view"},{"type":"function","name":"isInLiquidateWhiteList","inputs":[{"name":"user","type":"address","internalType":"address"}],"outputs":[{"name":"","type":"bool","internalType":"bool"}],"stateMutability":"view"},{"type":"function","name":"liquidatable","inputs":[],"outputs":[{"name":"","type":"bool","internalType":"bool"}],"stateMutability":"view"},{"type":"function","name":"liquidateBorrowAllowed","inputs":[{"name":"hTokenBorrowed","type":"address","internalType":"address"},{"name":"hTokenCollateral","type":"address","internalType":"address"},{"name":"liquidator","type":"address","internalType":"address"},{"name":"borrower","type":"address","internalType":"address"},{"name":"repayAmount","type":"uint256","internalType":"uint256"}],"outputs":[{"name":"","type":"uint256","internalType":"uint256"}],"stateMutability":"view"},{"type":"function","name":"liquidateCalculateSeizeTokens","inputs":[{"name":"hTokenBorrowed","type":"address","internalType":"address"},{"name":"hTokenCollateral","type":"address","internalType":"address"},{"name":"actualRepayAmount","type":"uint256","internalType":"uint256"}],"outputs":[{"name":"","type":"uint256","internalType":"uint256"},{"name":"","type":"uint256","internalType":"uint256"}],"stateMutability":"view"},{"type":"function","name":"liquidationIncentiveMantissa","inputs":[],"outputs":[{"name":"","type":"uint256","internalType":"uint256"}],"stateMutability":"view"},{"type":"function","name":"liquidatorWhiteList","inputs":[{"name":"","type":"address","internalType":"address"}],"outputs":[{"name":"","type":"bool","internalType":"bool"}],"stateMutability":"view"},{"type":"function","name":"markets","inputs":[{"name":"","type":"address","internalType":"address"}],"outputs":[{"name":"isListed","type":"bool","internalType":"bool"},{"name":"collateralFactorMantissa","type":"uint256","internalType":"uint256"}],"stateMutability":"view"},{"type":"function","name":"mintAllowed","inputs":[{"name":"hToken","type":"address","internalType":"address"},{"name":"minter","type":"address","internalType":"address"},{"name":"mintAmount","type":"uint256","internalType":"uint256"}],"outputs":[{"name":"","type":"uint256","internalType":"uint256"}],"stateMutability":"nonpayable"},{"type":"function","name":"mintGuardianPaused","inputs":[{"name":"","type":"address","internalType":"address"}],"outputs":[{"name":"","type":"bool","internalType":"bool"}],"stateMutability":"view"},{"type":"function","name":"oracle","inputs":[],"outputs":[{"name":"","type":"address","internalType":"contract PriceOracle"}],"stateMutability":"view"},{"type":"function","name":"pauseGuardian","inputs":[],"outputs":[{"name":"","type":"address","internalType":"address"}],"stateMutability":"view"},{"type":"function","name":"pendingAdmin","inputs":[],"outputs":[{"name":"","type":"address","internalType":"address"}],"stateMutability":"view"},{"type":"function","name":"pendingComptrollerImplementation","inputs":[],"outputs":[{"name":"","type":"address","internalType":"address"}],"stateMutability":"view"},{"type":"function","name":"redeemAllowed","inputs":[{"name":"hToken","type":"address","internalType":"address"},{"name":"redeemer","type":"address","internalType":"address"},{"name":"redeemTokens","type":"uint256","internalType":"uint256"}],"outputs":[{"name":"","type":"uint256","internalType":"uint256"}],"stateMutability":"nonpayable"},{"type":"function","name":"redeemGuardianPaused","inputs":[{"name":"","type":"address","internalType":"address"}],"outputs":[{"name":"","type":"bool","internalType":"bool"}],"stateMutability":"view"},{"type":"function","name":"redeemVerify","inputs":[{"name":"hToken","type":"address","internalType":"address"},{"name":"redeemer","type":"address","internalType":"address"},{"name":"redeemAmount","type":"uint256","internalType":"uint256"},{"name":"redeemTokens","type":"uint256","internalType":"uint256"}],"outputs":[],"stateMutability":"pure"},{"type":"function","name":"repayBorrowAllowed","inputs":[{"name":"hToken","type":"address","internalType":"address"},{"name":"payer","type":"address","internalType":"address"},{"name":"borrower","type":"address","internalType":"address"},{"name":"repayAmount","type":"uint256","internalType":"uint256"}],"outputs":[{"name":"","type":"uint256","internalType":"uint256"}],"stateMutability":"nonpayable"},{"type":"function","name":"rewardDistributor","inputs":[],"outputs":[{"name":"","type":"address","internalType":"contract IMultiRewardDistributor"}],"stateMutability":"view"},{"type":"function","name":"seizeAllowed","inputs":[{"name":"hTokenCollateral","type":"address","internalType":"address"},{"name":"hTokenBorrowed","type":"address","internalType":"address"},{"name":"liquidator","type":"address","internalType":"address"},{"name":"borrower","type":"address","internalType":"address"},{"name":"seizeTokens","type":"uint256","internalType":"uint256"}],"outputs":[{"name":"","type":"uint256","internalType":"uint256"}],"stateMutability":"nonpayable"},{"type":"function","name":"seizeGuardianPaused","inputs":[],"outputs":[{"name":"","type":"bool","internalType":"bool"}],"stateMutability":"view"},{"type":"function","name":"supplyCapGuardian","inputs":[],"outputs":[{"name":"","type":"address","internalType":"address"}],"stateMutability":"view"},{"type":"function","name":"supplyCaps","inputs":[{"name":"","type":"address","internalType":"address"}],"outputs":[{"name":"","type":"uint256","internalType":"uint256"}],"stateMutability":"view"},{"type":"function","name":"transferAllowed","inputs":[{"name":"hToken","type":"address","internalType":"address"},{"name":"src","type":"address","internalType":"address"},{"name":"dst","type":"address","internalType":"address"},{"name":"transferTokens","type":"uint256","internalType":"uint256"}],"outputs":[{"name":"","type":"uint256","internalType":"uint256"}],"stateMutability":"nonpayable"},{"type":"function","name":"transferGuardianPaused","inputs":[],"outputs":[{"name":"","type":"bool","internalType":"bool"}],"stateMutability":"view"},{"type":"function","name":"triggerLiquidation","inputs":[{"name":"state","type":"bool","internalType":"bool"}],"outputs":[{"name":"","type":"bool","internalType":"bool"}],"stateMutability":"nonpayable"},{"type":"function","name":"updateLiquidateWhiteList","inputs":[{"name":"user","type":"address","internalType":"address"},{"name":"state","type":"bool","internalType":"bool"}],"outputs":[],"stateMutability":"nonpayable"},{"type":"event","name":"ActionPaused","inputs":[{"name":"action","type":"string","indexed":false,"internalType":"string"},{"name":"pauseState","type":"bool","indexed":false,"internalType":"bool"}],"anonymous":false},{"type":"event","name":"ActionPaused","inputs":[{"name":"hToken","type":"address","indexed":false,"internalType":"contract HToken"},{"name":"action","type":"string","indexed":false,"internalType":"string"},{"name":"pauseState","type":"bool","indexed":false,"internalType":"bool"}],"anonymous":false},{"type":"event","name":"Failure","inputs":[{"name":"error","type":"uint256","indexed":false,"internalType":"uint256"},{"name":"info","type":"uint256","indexed":false,"internalType":"uint256"},{"name":"detail","type":"uint256","indexed":false,"internalType":"uint256"}],"anonymous":false},{"type":"event","name":"MarketEntered","inputs":[{"name":"hToken","type":"address","indexed":false,"internalType":"contract HToken"},{"name":"account","type":"address","indexed":false,"internalType":"address"}],"anonymous":false},{"type":"event","name":"MarketExited","inputs":[{"name":"hToken","type":"address","indexed":false,"internalType":"contract HToken"},{"name":"account","type":"address","indexed":false,"internalType":"address"}],"anonymous":false},{"type":"event","name":"MarketListed","inputs":[{"name":"hToken","type":"address","indexed":false,"internalType":"contract HToken"}],"anonymous":false},{"type":"event","name":"NewBorrowCap","inputs":[{"name":"hToken","type":"address","indexed":true,"internalType":"contract HToken"},{"name":"newBorrowCap","type":"uint256","indexed":false,"internalType":"uint256"}],"anonymous":false},{"type":"event","name":"NewBorrowCapGuardian","inputs":[{"name":"oldBorrowCapGuardian","type":"address","indexed":false,"internalType":"address"},{"name":"newBorrowCapGuardian","type":"address","indexed":false,"internalType":"address"}],"anonymous":false},{"type":"event","name":"NewCloseFactor","inputs":[{"name":"oldCloseFactorMantissa","type":"uint256","indexed":false,"internalType":"uint256"},{"name":"newCloseFactorMantissa","type":"uint256","indexed":false,"internalType":"uint256"}],"anonymous":false},{"type":"event","name":"NewCollateralFactor","inputs":[{"name":"hToken","type":"address","indexed":false,"internalType":"contract HToken"},{"name":"oldCollateralFactorMantissa","type":"uint256","indexed":false,"internalType":"uint256"},{"name":"newCollateralFactorMantissa","type":"uint256","indexed":false,"internalType":"uint256"}],"anonymous":false},{"type":"event","name":"NewLiquidationIncentive","inputs":[{"name":"oldLiquidationIncentiveMantissa","type":"uint256","indexed":false,"internalType":"uint256"},{"name":"newLiquidationIncentiveMantissa","type":"uint256","indexed":false,"internalType":"uint256"}],"anonymous":false},{"type":"event","name":"NewPauseGuardian","inputs":[{"name":"oldPauseGuardian","type":"address","indexed":false,"internalType":"address"},{"name":"newPauseGuardian","type":"address","indexed":false,"internalType":"address"}],"anonymous":false},{"type":"event","name":"NewPriceOracle","inputs":[{"name":"oldPriceOracle","type":"address","indexed":false,"internalType":"contract PriceOracle"},{"name":"newPriceOracle","type":"address","indexed":false,"internalType":"contract PriceOracle"}],"anonymous":false},{"type":"event","name":"NewRewardDistributor","inputs":[{"name":"oldRewardDistributor","type":"address","indexed":false,"internalType":"contract IMultiRewardDistributor"},{"name":"newRewardDistributor","type":"address","indexed":false,"internalType":"contract IMultiRewardDistributor"}],"anonymous":false},{"type":"event","name":"NewSupplyCap","inputs":[{"name":"hToken","type":"address","indexed":true,"internalType":"contract HToken"},{"name":"newSupplyCap","type":"uint256","indexed":false,"internalType":"uint256"}],"anonymous":false},{"type":"event","name":"NewSupplyCapGuardian","inputs":[{"name":"oldSupplyCapGuardian","type":"address","indexed":false,"internalType":"address"},{"name":"newSupplyCapGuardian","type":"address","indexed":false,"internalType":"address"}],"anonymous":false},{"type":"error","name":"AddressEmptyCode","inputs":[{"name":"target","type":"address","internalType":"address"}]},{"type":"error","name":"AddressInsufficientBalance","inputs":[{"name":"account","type":"address","internalType":"address"}]},{"type":"error","name":"FailedInnerCall","inputs":[]},{"type":"error","name":"SafeERC20FailedOperation","inputs":[{"name":"token","type":"address","internalType":"address"}]}],"bytecode":{"object":"0x6080806040523461002957600080546001600160a01b031916331790556155fb90816200002f8239f35b600080fdfe608080604052600436101561001357600080fd5b60003560e01c9081627e3dd2146120895750806302c3bcbb1461204f578063114b9d1914611d1f57806318c882a514611c2c5780631d504dc614611ab557806321af456914611a8c57806324008a6214611a7057806324a3d62214611a475780632678224714611a1e5780632d70db781461194d578063317b0b771461189f5780633685ffe71461186257806338b8f4c314611783578063391957d7146116a35780633bcf7ec1146115b25780634838d165146115735780634a584432146115395780634ada90af1461151b5780634e79238f146114f85780634ef4c3e1146114df5780634fd42e17146114c157806351a485e41461138157806351dff9891461131e57806352d84d1e146112dc57806355ee1fe1146112ad57806359a34bf71461122a5780635c254d11146111ad5780635ec88c79146111605780635f5af1aa1461113d5780635fc7e71e14611121578063607ef6c114610fdc5780636c7c9bd714610cab5780636d154ea514610f9d5780637160a87014610eca578063731f0c2b14610e8b5780637a805adc14610d395780637dc0d1d014610d1057806387f7630314610cea5780638c4cdce314610cab5780638e8f294b14610c635780638ebf636414610b8f578063929fe9a114610b3357806394543c1514610b06578063a76b3fda14610ae3578063a91a53b314610ac0578063a979f0c514610a97578063aa71aebd14610944578063abfceffc1461090a578063ac0b0bb7146108e4578063acc2166a146108bb578063b0772d0b14610893578063b88a802f14610871578063bb82aa5e14610848578063bdcdc2581461082c578063c299823814610753578063c488847b1461072e578063d02f735114610711578063d279c191146106e7578063d320c548146106a8578063da3d454c1461068f578063dbc7779b146105c0578063dce1544914610567578063dcfbc0c71461053e578063e4028eee14610517578063e8755446146104f9578063ea321e3414610431578063eabe7d9114610418578063ede4edd0146103ed578063f851a440146103c45763fd0dad5d1461032057600080fd5b346103bf5760403660031901126103bf576103396120a3565b6103416121e2565b6000546001600160a01b03908116330361037a576103789216600052601660205260406000209060ff801983541691151516179055565b005b60405162461bcd60e51b815260206004820152601c60248201527f6f6e6c792061646d696e2063616e2073657420626c61636b6c697374000000006044820152606490fd5b600080fd5b346103bf5760003660031901126103bf576000546040516001600160a01b039091168152602090f35b346103bf5760203660031901126103bf57602061041061040b6120a3565b613d4c565b604051908152f35b346103bf57602061041061042b3661227a565b91613ce6565b346103bf5760403660031901126103bf5761044a6120a3565b6104526121e2565b60018060a01b038161046982600054163314612cf8565b610491575b6103789216600052601360205260406000209060ff801983541691151516179055565b808316600052601360205260ff604060002054161561046e5760405162461bcd60e51b815260206004820152602160248201527f5573657220697320616c726561647920696e20746865207768697465206c69736044820152601d60fa1b6064820152608490fd5b346103bf5760003660031901126103bf576020600554604051908152f35b346103bf5760403660031901126103bf5760206104106105356120a3565b60243590613b19565b346103bf5760003660031901126103bf576003546040516001600160a01b039091168152602090f35b346103bf5760403660031901126103bf576105806120a3565b6024359060018060a01b038091166000526007602052604060002080548310156103bf576020926105b091612378565b9190546040519260031b1c168152f35b346103bf5760403660031901126103bf576105d96120a3565b6000546001600160a01b03908116916024359082906105f9338614612cf8565b169260001982036106835750506000546040516370a0823160e01b8152306004820152929116602083602481855afa91821561067757600092610641575b6103789350615289565b91506020833d60201161066f575b8161065c60209383612138565b810103126103bf57610378925191610637565b3d915061064f565b6040513d6000823e3d90fd5b90915061037892615289565b346103bf5760206104106106a23661227a565b9161383c565b346103bf5760203660031901126103bf576001600160a01b036106c96120a3565b166000526015602052602060ff604060002054166040519015158152f35b346103bf5760203660031901126103bf576103786107036120a3565b61070b6132ed565b906125f9565b346103bf57602061041061072436612390565b50929190916136b3565b346103bf5760406107476107413661227a565b91613433565b82519182526020820152f35b346103bf576020806003193601126103bf5760043567ffffffffffffffff81116103bf57610785903690600401612172565b805190610791826125c7565b9260005b8381106107ae57604051806107aa87826123df565b0390f35b6001600160a01b03806107c18386612460565b5116600052600b835260ff60406000205416610823576107ee9033906107e78487612460565b5116615064565b90601282101561080d576001916108058288612460565b525b01610795565b634e487b7160e01b600052602160045260246000fd5b50600190610807565b346103bf57602061041061083f36612200565b929190916133c0565b346103bf5760003660031901126103bf576002546040516001600160a01b039091168152602090f35b346103bf5760003660031901126103bf5761037861088d6132ed565b336125f9565b346103bf5760003660031901126103bf576107aa6108af6132ed565b6040519182918261241b565b346103bf5760003660031901126103bf576011546040516001600160a01b039091168152602090f35b346103bf5760003660031901126103bf57602060ff60095460a81c166040519015158152f35b346103bf5760203660031901126103bf576001600160a01b0361092b6120a3565b1660005260076020526107aa6108af6040600020613366565b346103bf5760003660031901126103bf576009546001600160a01b0390811633148015610a8a575b610975906124d1565b60005b600c54811015610a6957808261098f60019361232b565b90549060031b1c1680600052602090600b8252604060002090849160ff19908382825416179055600a8452604060002083828254161790556015845282604060002091825416179055604051916552656465656d60d01b606094838552858186015260048686015260809063135a5b9d60e21b828701528360408701526000805160206155a6833981519152968760a08098a1806040519287845281818501528989600695868582015265426f72726f7760d01b88820152896040820152a16040519788528701528501528301526040820152a101610978565b6009805461ffff60a01b191661010160a01b17905560405160018152602090f35b506000548116331461096c565b346103bf5760003660031901126103bf57600e546040516001600160a01b039091168152602090f35b346103bf5760003660031901126103bf57602060ff601454166040519015158152f35b346103bf5760203660031901126103bf576020610410610b016120a3565b6130c3565b346103bf5760203660031901126103bf576020610b29610b246120a3565b612fd8565b6040519015158152f35b346103bf5760403660031901126103bf57610b4c6120a3565b6001600160a01b03602435818116908190036103bf57600052600860205260026040600020019116600052602052602060ff604060002054166040519015158152f35b346103bf5760203660031901126103bf576020610baa6121f1565b600954906001600160a01b0333818416148015610c56575b610bcb906124d1565b6000541633148015610c4a575b610be19061252d565b15159060ff60a01b8260a01b169060ff60a01b1916176009557fef159d9a32b2472e32b098f954f3ce62d232939f1c207070b584df1814de2de060806040516040815260086040820152672a3930b739b332b960c11b60608201528385820152a1604051908152f35b50801515600114610bd8565b5060005481163314610bc2565b346103bf5760203660031901126103bf576001600160a01b03610c846120a3565b166000526008602052604080600020600160ff825416910154825191151582526020820152f35b346103bf5760203660031901126103bf576001600160a01b03610ccc6120a3565b166000526013602052602060ff604060002054166040519015158152f35b346103bf5760003660031901126103bf57602060ff60095460a01c166040519015158152f35b346103bf5760003660031901126103bf576004546040516001600160a01b039091168152602090f35b346103bf576020806003193601126103bf57610d536120a3565b90600c5491610d61836125c7565b9260009060005b818110610e4157505015610dfd57825191610d82836125c7565b9360005b848110610d9b57604051806107aa88826123df565b836001600160a01b0380610daf8486612460565b5116600052600b855260ff60406000205416610df35790610dd4916107e78486612460565b90601282101561080d57600191610deb8289612460565b525b01610d86565b5050600190610ded565b606460405162461bcd60e51b815260206004820152602060248201527f53656e646572206d75737420626520612048546f6b656e20636f6e74726163746044820152fd5b610e4a8161232b565b90546001600160a01b039160031b1c8116610e658389612460565b523390610e728389612460565b511614610e82575b600101610d68565b60019250610e7a565b346103bf5760203660031901126103bf576001600160a01b03610eac6120a3565b16600052600a602052602060ff604060002054166040519015158152f35b346103bf5760403660031901126103bf576020610ee56120a3565b6000805160206155a683398151915260a0610efe6121e2565b610f39600180841b03809516948560005260088752610f2460ff60406000205416612474565b80600954163314908115610f8f575b506124d1565b8360005260158552610f5b8160406000209060ff801983541691151516179055565b604051938452606085850152600660608501526552656465656d60d01b6080850152151592836040820152a1604051908152f35b905060005416331487610f33565b346103bf5760203660031901126103bf576001600160a01b03610fbe6120a3565b16600052600b602052602060ff604060002054166040519015158152f35b346103bf57610fea366122e0565b60005490936001600160a01b039391841633148015611114575b156110b157811515806110a8575b61101b90612c02565b60005b82811061102757005b806110356001928887612c3e565b358661104a611045848888612c3e565b612c4e565b16600052602090600f82526040600020557f6f1951b2aad10f3fc81b86d91105b413a5b3f847a34bbc5ce1904201b14438f661108a611045848888612c3e565b9188611097858c8b612c3e565b35936040519485521692a20161101e565b50818514611012565b60405162461bcd60e51b815260206004820152603560248201527f6f6e6c792061646d696e206f7220626f72726f772063617020677561726469616044820152746e2063616e2073657420626f72726f77206361707360581b6064820152608490fd5b5083600d54163314611004565b346103bf57602061041061113436612390565b93929092612dd6565b346103bf5760203660031901126103bf57602061041061115b6120a3565b612d33565b346103bf5760203660031901126103bf5761118161117c6120a3565b61407d565b6012839293101561080d576107aa90604051938493846040919493926060820195825260208201520152565b346103bf5760203660031901126103bf576001600160a01b03600435818116908190036103bf57816040916112087f8ddca872a7a62d68235cff1a03badc845dc3007cfaa6145379f7bf3452ecb9b994600054163314612cf8565b601180546001600160a01b0319811683179091558351921682526020820152a1005b346103bf5760203660031901126103bf5760206112456121f1565b6009546001600160a01b03908116331480156112a0575b611265906124d1565b6000541633148015611294575b61127b9061252d565b151560ff196014541660ff821617601455604051908152f35b50801515600114611272565b506000548116331461125c565b346103bf5760203660031901126103bf576004356001600160a01b03811681036103bf57610410602091612c62565b346103bf5760203660031901126103bf57600435600c548110156103bf5761130560209161232b565b905460405160039290921b1c6001600160a01b03168152f35b346103bf5761132c36612241565b159250905081611377575b5061133e57005b60405162461bcd60e51b815260206004820152601160248201527072656465656d546f6b656e73207a65726f60781b6044820152606490fd5b9050151581611337565b346103bf5761138f366122e0565b60005490936001600160a01b0393918416331480156114b4575b156114515781151580611448575b6113c090612c02565b60005b8281106113cc57005b806113da6001928887612c3e565b35866113ea611045848888612c3e565b16600052602090601082526040600020557f9e0ad9cee10bdf36b7fbd38910c0bdff0f275ace679b45b922381c2723d676f861142a611045848888612c3e565b9188611437858c8b612c3e565b35936040519485521692a2016113c3565b508185146113b7565b60405162461bcd60e51b815260206004820152603560248201527f6f6e6c792061646d696e206f7220737570706c792063617020677561726469616044820152746e2063616e2073657420737570706c79206361707360581b6064820152608490fd5b5083600e541633146113a9565b346103bf5760203660031901126103bf576020610410600435612b87565b346103bf5760206104106114f23661227a565b916128f7565b346103bf5761118161150936612241565b9290916001600160a01b031690614cb8565b346103bf5760003660031901126103bf576020600654604051908152f35b346103bf5760203660031901126103bf576001600160a01b0361155a6120a3565b16600052600f6020526020604060002054604051908152f35b346103bf5760203660031901126103bf576001600160a01b036115946120a3565b166000526016602052602060ff604060002054166040519015158152f35b346103bf5760403660031901126103bf5760206115cd6120a3565b6000805160206155a683398151915260a06115e66121e2565b600180831b0380941693846000526008865261160960ff60406000205416612474565b806009541633148015611696575b611620906124d1565b600054163314801561168a575b6116369061252d565b83600052600a85526116588160406000209060ff801983541691151516179055565b6040519384526060858501526004606085015263135a5b9d60e21b6080850152151592836040820152a1604051908152f35b5080151560011461162d565b5060005481163314611617565b346103bf5760203660031901126103bf576116bc6120a3565b6000546001600160a01b03908116330361172f57600d80548383166001600160a01b031982161790915560408051929091166001600160a01b03908116835290921660208201527feda98690e518e9a05f8ec6837663e188211b2da8f4906648b323f2c1d4434e2991819081015b0390a1005b60405162461bcd60e51b815260206004820152602660248201527f6f6e6c792061646d696e2063616e2073657420626f72726f772063617020677560448201526530b93234b0b760d11b6064820152608490fd5b346103bf5760203660031901126103bf5761179c6120a3565b6000546001600160a01b03908116330361180e57600e80548383166001600160a01b031982161790915560408051929091166001600160a01b03908116835290921660208201527fb0d3622c24ac9bd967d8f37a25808b3e668fe7ed4f3075bbe82842d3e287c044918190810161172a565b60405162461bcd60e51b815260206004820152602660248201527f6f6e6c792061646d696e2063616e2073657420737570706c792063617020677560448201526530b93234b0b760d11b6064820152608490fd5b346103bf5760403660031901126103bf5761187b6120a3565b6024359067ffffffffffffffff82116103bf5761070b610378923690600401612172565b346103bf5760203660031901126103bf57600054600435906001600160a01b031633036119085760407f3b9670cf975d26958e754b57098eaa2ac914d8d2a31b83257997b9f346110fd991600554908060055582519182526020820152a1602060405160008152f35b60405162461bcd60e51b815260206004820152601f60248201527f6f6e6c792061646d696e2063616e2073657420636c6f736520666163746f72006044820152606490fd5b346103bf5760203660031901126103bf5760206119686121f1565b600954906001600160a01b0333818416148015611a11575b611989906124d1565b6000541633148015611a05575b61199f9061252d565b15159060ff60a81b8260a81b169060ff60a81b1916176009557fef159d9a32b2472e32b098f954f3ce62d232939f1c207070b584df1814de2de060806040516040815260056040820152645365697a6560d81b60608201528385820152a1604051908152f35b50801515600114611996565b5060005481163314611980565b346103bf5760003660031901126103bf576001546040516001600160a01b039091168152602090f35b346103bf5760003660031901126103bf576009546040516001600160a01b039091168152602090f35b346103bf576020610410611a8336612200565b50919050612572565b346103bf5760003660031901126103bf57600d546040516001600160a01b039091168152602090f35b346103bf576020806003193601126103bf576004356001600160a01b03818116918290036103bf576040516303e1469160e61b81528381600481865afa90811561067757600091611bf6575b50163303611ba1578160009160046040518094819363307a00cd60e21b83525af190811561067757600091611b74575b50611b3857005b6064906040519062461bcd60e51b82526004820152601560248201527418da185b99d9481b9bdd08185d5d1a1bdc9a5e9959605a1b6044820152fd5b90508181813d8311611b9a575b611b8b8183612138565b810103126103bf575182611b31565b503d611b81565b60405162461bcd60e51b815260048101839052602760248201527f6f6e6c7920756e6974726f6c6c65722061646d696e2063616e206368616e676560448201526620627261696e7360c81b6064820152608490fd5b90508381813d8311611c25575b611c0d8183612138565b810103126103bf575181811681036103bf5784611b01565b503d611c03565b346103bf5760403660031901126103bf576020611c476120a3565b6000805160206155a683398151915260a0611c606121e2565b600180831b03809416938460005260088652611c8360ff60406000205416612474565b806009541633148015611d12575b611c9a906124d1565b6000541633148015611d06575b611cb09061252d565b83600052600b8552611cd28160406000209060ff801983541691151516179055565b6040519384526060858501526006606085015265426f72726f7760d01b6080850152151592836040820152a1604051908152f35b50801515600114611ca7565b5060005481163314611c91565b346103bf5760803660031901126103bf5767ffffffffffffffff6004358181116103bf57611d51903690600401612172565b906024359081116103bf57611d6a903690600401612172565b604480358015158091036103bf576064358015158091036103bf576011546001600160a01b0316156120005760005b8451811015610378576001600160a01b03611db48287612460565b51168060005260206008815260ff6040600020541615611fc5575060018314611ed9575b60018414611dea575b50600101611d99565b939094919260018060a01b0360115416803b156103bf576000809160246040518094819362c823eb60e11b83528b60048401525af1801561067757611eca575b5060005b8751811015611ebb576011546001600160a01b039081169190611e51828b612460565b511691803b156103bf576040516314f5577360e01b81526001600160a01b038981166004830152939093166024840152600160448401526000908390606490829084905af191821561067757600192611eac575b5001611e2e565b611eb5906120b9565b89611ea5565b50929194600191945090611de1565b611ed3906120b9565b87611e2a565b9360018060a0979395971b0360115416803b156103bf5760008091602460405180948193638220d7cf60e01b83528b60048401525af1801561067757611fb6575b5060005b8751811015611fab576011546001600160a01b039081169190611f41828b612460565b511691803b156103bf576040516310d47dc760e01b81526001600160a01b038981166004830152939093166024840152600160448401526000908390606490829084905af191821561067757600192611f9c575b5001611f1e565b611fa5906120b9565b89611f95565b509394929094611dd8565b611fbf906120b9565b87611f1a565b606490741b585c9ad95d081b5d5cdd081899481b1a5cdd1959605a1b876040519262461bcd60e51b8452600484015260156024840152820152fd5b60405162461bcd60e51b815260206004820152602160248201527f4e6f20726577617264206469737472696275746f7220636f6e666967757265646044820152602160f81b6064820152608490fd5b346103bf5760203660031901126103bf576001600160a01b036120706120a3565b1660005260106020526020604060002054604051908152f35b346103bf5760003660031901126103bf5780600160209252f35b600435906001600160a01b03821682036103bf57565b67ffffffffffffffff81116120cd57604052565b634e487b7160e01b600052604160045260246000fd5b6020810190811067ffffffffffffffff8211176120cd57604052565b610140810190811067ffffffffffffffff8211176120cd57604052565b6040810190811067ffffffffffffffff8211176120cd57604052565b90601f8019910116810190811067ffffffffffffffff8211176120cd57604052565b67ffffffffffffffff81116120cd5760051b60200190565b9080601f830112156103bf57602090823561218c8161215a565b9361219a6040519586612138565b81855260208086019260051b8201019283116103bf57602001905b8282106121c3575050505090565b81356001600160a01b03811681036103bf5781529083019083016121b5565b6024359081151582036103bf57565b6004359081151582036103bf57565b60809060031901126103bf576001600160a01b0360043581811681036103bf579160243582811681036103bf579160443590811681036103bf579060643590565b60809060031901126103bf576001600160a01b039060043582811681036103bf579160243590811681036103bf57906044359060643590565b60609060031901126103bf576001600160a01b039060043582811681036103bf579160243590811681036103bf579060443590565b9181601f840112156103bf5782359167ffffffffffffffff83116103bf576020808501948460051b0101116103bf57565b60406003198201126103bf5767ffffffffffffffff916004358381116103bf578261230d916004016122af565b939093926024359182116103bf57612327916004016122af565b9091565b600c5481101561236257600c6000527fdf6966c971051c3d54ec59162606531493a51404a002842f56009d7e5cf4a8c70190600090565b634e487b7160e01b600052603260045260246000fd5b80548210156123625760005260206000200190600090565b60a09060031901126103bf576001600160a01b039060043582811681036103bf579160243581811681036103bf579160443582811681036103bf579160643590811681036103bf579060843590565b602090602060408183019282815285518094520193019160005b828110612407575050505090565b8351855293810193928101926001016123f9565b602090602060408183019282815285518094520193019160005b828110612443575050505090565b83516001600160a01b031685529381019392810192600101612435565b80518210156123625760209160051b010190565b1561247b57565b60405162461bcd60e51b815260206004820152602860248201527f63616e6e6f742070617573652061206d61726b65742074686174206973206e6f6044820152671d081b1a5cdd195960c21b6064820152608490fd5b156124d857565b60405162461bcd60e51b815260206004820152602760248201527f6f6e6c7920706175736520677561726469616e20616e642061646d696e2063616044820152666e20706175736560c81b6064820152608490fd5b1561253457565b60405162461bcd60e51b81526020600482015260166024820152756f6e6c792061646d696e2063616e20756e706175736560501b6044820152606490fd5b9060018060a01b03808216600052601660205260ff604060002054166125bf578216600052600860205260ff60406000205416156125b8576125b391613ffa565b600090565b5050600990565b505050600e90565b906125d18261215a565b6125de6040519182612138565b82815280926125ef601f199161215a565b0190602036910137565b919091604080519161260a8361211c565b600191828452602091602085016020368237855115612362576001600160a01b039182169052601180549095908216156128a957600097855b612653575b505050505050509050565b80518910156128a457826126678a83612460565b5116806000526008865260ff856000205416156128685783885416803b156103bf5760008651638220d7cf60e01b8152818160049486868301528160249586925af1801561279757612859575b506000895b6127c1575b50858a541690813b156103bf57600091829189518094819362c823eb60e11b835288888401525af180156127b657908992916127a7575b50906000905b61270d575b5050509785019785612643565b84518110156127a257858a5416866127258388612460565b511690803b156103bf5788516314f5577360e01b81526001600160a01b03808716868301908152931660208401526001604084015291600091839182908490829060600103925af1801561279757918a9392918492612788575b500190916126fb565b612791906120b9565b3861277f565b88513d6000823e3d90fd5b612700565b6127b0906120b9565b386126f5565b87513d6000823e3d90fd5b855181101561285457868b5416876127d98389612460565b511690803b156103bf5789516310d47dc760e01b81526001600160a01b03808816878301908152931660208401526001604084015291600091839182908490829060600103925af1801561284957918b9291839261283a575b5001906126b9565b612843906120b9565b38612832565b89513d6000823e3d90fd5b6126be565b612862906120b9565b386126b4565b845162461bcd60e51b81526004810187905260156024820152741b585c9ad95d081b5d5cdd081899481b1a5cdd1959605a1b6044820152606490fd5b612648565b825162461bcd60e51b815260206004820152602160248201527f4e6f20726577617264206469737472696275746f7220636f6e666967757265646044820152602160f81b6064820152608490fd5b6001600160a01b038181166000818152600a60209081526040808320549297919490939260ff16612b52578288526008855260ff848920541615612b4557861687526016845260ff8388205416612b39578187526010845282872054918261296c575b50505050509061296991615004565b90565b8351631d8e90d160e11b81528581600481855afa908115612b2f578991612afe575b5084516308f7a6e360e31b8152918683600481845afa908115612ac15787908b92612acb575b8751638f840ddd60e01b81529450849060049082905afa928315612ac1578a93612a8c575b50916129f5612a3292612a3b95946129ef614fd7565b916153f2565b612a2d8751612a038161211c565b60158152747375627472616374696f6e20756e646572666c6f7760581b8a8201528284111561538b565b613d29565b906129ef614fd7565b1015612a495780808061295a565b60649250519062461bcd60e51b82526004820152601960248201527f6d61726b657420737570706c79206361702072656163686564000000000000006044820152fd5b9092508681813d8311612aba575b612aa48183612138565b81010312612ab65751916129f56129d9565b8980fd5b503d612a9a565b86513d8c823e3d90fd5b9293809250813d8311612af7575b612ae38183612138565b81010312612ab657516004929187906129b4565b503d612ad9565b90508581813d8311612b28575b612b158183612138565b81010312612b2457513861298e565b8880fd5b503d612b0b565b85513d8b823e3d90fd5b50505050505050600e90565b5050505050505050600990565b835162461bcd60e51b815260048101869052600e60248201526d1b5a5b9d081a5cc81c185d5cd95960921b6044820152606490fd5b6000546001600160a01b03163303612bd55760407faeba5a6c40a8ac138134bff1aaa65debf25971188a58804bad717f82f0ec131691600654908060065582519182526020820152a1600090565b50600080516020615586833981519152606060405160018152600b602082015260006040820152a1600190565b15612c0957565b60405162461bcd60e51b815260206004820152600d60248201526c1a5b9d985b1a59081a5b9c1d5d609a1b6044820152606490fd5b91908110156123625760051b0190565b356001600160a01b03811681036103bf5790565b6000546001600160a01b039081163303612cca577fd52b2b9b7e9ee655fcb95d2e5b9e0c9f69e7ef2b8e9d2d0ea78402d576d22e229181604092600454921690816bffffffffffffffffffffffff60a01b8416176004558351921682526020820152a1600090565b50506000805160206155868339815191526060604051600181526010602082015260006040820152a1600190565b15612cff57565b60405162461bcd60e51b815260206004820152600c60248201526b155b985d5d1a1bdc9a5e995960a21b6044820152606490fd5b6000546001600160a01b039081163303612da857600980549282166001600160a01b03198416811790915560408051929093166001600160a01b0390811683521660208201527f0613b6ee6a04f0d09f390e4d9318894b9f6ac7fd83897cd8d18896ba579c401e91819081015b0390a1600090565b50506000805160206155868339815191526060604051600181526013602082015260006040820152a1600190565b9293909160ff601454169081612fb4575b50612fab5760018060a01b03809316926000948486526020946008865260409460ff8689205416158015612f98575b612b45578316875260028588200192821692838852865260ff858820541615612f8c578451926395dd919360e01b845260048401528583602481845afa928315612f82578793612f4d575b50612e6b90612fd8565b15612ecf575010612e7b57505090565b60849250519062461bcd60e51b82526004820152602860248201527f43616e206e6f74207265706179206d6f7265207468616e2074686520746f74616044820152676c20626f72726f7760c01b6064820152fd5b612edc9193929450614408565b9190506012811015612f395780612f30575015612f2757670de0b6b3a764000091612f1791600554905190612f10826120e3565b8152615409565b510410612f215790565b50601190565b50505050600390565b94505050505090565b634e487b7160e01b86526021600452602486fd5b9092508581813d8311612f7b575b612f658183612138565b81010312612f77575191612e6b612e61565b8680fd5b503d612f5b565b85513d89823e3d90fd5b50505050505050600890565b50838116885260ff868920541615612e16565b50505050600190565b6001600160a01b031660009081526013602052604090205460ff1615905038612de7565b6001600160a01b03166000818152600860209081526040822060010154159290919083613093575b8361300c575b50505090565b6040516305cee64160e21b815293508290849060049082905afa91821561308657819261304a575b5050670de0b6b3a7640000915014388080613006565b90915082813d831161307f575b6130618183612138565b8101031261307c5750670de0b6b3a764000090513880613034565b80fd5b503d613057565b50604051903d90823e3d90fd5b600b8352604082205460ff1615156001149350613000565b908160209103126103bf575180151581036103bf5790565b6000805490916001600160a01b0391821633036132bf5781168083526020916008835260409060ff8286205416613293578151633630a6b560e01b815260049085818381885afa90811561328957879161325c575b50156132245790838652600885528286209086600180938160ff1982541617815501558692600c54935b8481106131cb5750505050600160401b8110156131b757906131af836131918460017fcf583bb0c569eb967f806b11601c4cb93c10310485c67add5f8362c2f212321f98979601600c5561232b565b90919060018060a01b038084549260031b9316831b921b1916179055565b51908152a190565b634e487b7160e01b85526041600452602485fd5b86836131d68361232b565b90549060031b1c16146131ea578301613142565b855162461bcd60e51b815280830189905260146024820152731b585c9ad95d08185b1c9958591e48185919195960621b6044820152606490fd5b825162461bcd60e51b815260048101869052601160248201527026bab9ba1031329030b710242a37b5b2b760791b6044820152606490fd5b61327c9150863d8811613282575b6132748183612138565b8101906130ab565b38613118565b503d61326a565b84513d89823e3d90fd5b50606092915092836011600080516020615586833981519152955193600a8552840152820152a1600a90565b50506060600080516020615586833981519152916040519060018252601260208301526040820152a1600190565b60405190600c54808352826020916020820190600c6000527fdf6966c971051c3d54ec59162606531493a51404a002842f56009d7e5cf4a8c7936000905b8282106133435750505061334192500383612138565b565b85546001600160a01b03168452600195860195889550938101939091019061332b565b90604051918281549182825260209260208301916000526020600020936000905b82821061339d5750505061334192500383612138565b85546001600160a01b031684526001958601958895509381019390910190613387565b909260ff60095460a01c166133f9576133da908483615132565b806133f257506133ed6125b39382615004565b615004565b9250505090565b60405162461bcd60e51b81526020600482015260126024820152711d1c985b9cd9995c881a5cc81c185d5cd95960721b6044820152606490fd5b600480546040805163fc57d4df60e01b8082526001600160a01b039586169482019490945291841695949093602093929184836024818b5afa9283156136895790859291600094613658575b501692602486518099819382528660048301525afa95861561360857600096613629575b5080158015613621575b613613578260049285519384809263182df0f560e01b82525afa918215613608576000926135c9575b5091670de0b6b3a7640000956135af61357f6135616135b495613546899860006135c09c9b51613505816120e3565b5260008a51613513816120e3565b5260008a51613521816120e3565b526006548a5190613531826120e3565b81528a519161353f836120e3565b8252615248565b94885190613553826120e3565b815288519161353f836120e3565b926000875161356f816120e3565b5251613579615434565b9061546d565b9151926d646976696465206279207a65726f60901b8651916135a08361211c565b600e835282015283151561538b565b615228565b905190612f10826120e3565b51049060009190565b9493928091925085813d8311613601575b6135e48183612138565b810103126103bf5793519293919290670de0b6b3a76400006134d6565b503d6135da565b84513d6000823e3d90fd5b505050505050600d90600090565b5085156134ad565b9095508281813d8311613651575b6136418183612138565b810103126103bf575194386134a3565b503d613637565b8381949295503d8311613682575b6136708183612138565b810103126103bf57849151923861347f565b503d613666565b86513d6000823e3d90fd5b908160209103126103bf57516001600160a01b03811681036103bf5790565b9291909260ff60095460a81c166137e85760018060a01b038082169060009582875260206008815260409160ff838a2054161580156137d5575b6137c7578251948286600481635fe3b56760e01b948582525afa9586156137bd578a96613792575b5091809160048694865195869384928352165afa928315613789575090839291899261375c575b505016911603613753576133ed6129699382615004565b50505050600290565b61377b9250803d10613782575b6137738183612138565b810190613694565b388061373c565b503d613769565b513d8a823e3d90fd5b839290839297506137b260049188963d8611613782576137738183612138565b979250509192613715565b84513d8c823e3d90fd5b505050505050505050600990565b50838116895260ff838a205416156136ed565b60405162461bcd60e51b815260206004820152600f60248201526e1cd95a5e99481a5cc81c185d5cd959608a1b6044820152606490fd5b1561382657565b634e487b7160e01b600052600160045260246000fd5b919060018060a01b0392838116926000938085526020600b8152604060ff8188205416613ae3578287526008825260ff818820541615612b45578786168088526016835260ff8289205416613ad55783885260088352600282892001818952835260ff828920541615613a31575b50600497885416828460248b8551948593849263fc57d4df60e01b84528301525afa908115613a275788916139f6575b50156139e957828752600f82528087205480613933575b505050906138ff91846146b3565b91905060128110156139205780612f30575061300657612969929350613ffa565b634e487b7160e01b855260218652602485fd5b81516308f7a6e360e31b815283818b81885afa80156139df5789906139b0575b6139619150866129ef614fd7565b101561396d57806138f1565b5162461bcd60e51b815280880191909152601960248201527f6d61726b657420626f72726f77206361702072656163686564000000000000006044820152606490fd5b508381813d83116139d8575b6139c68183612138565b81010312612b24576139619051613953565b503d6139bc565b83513d8b823e3d90fd5b5050505050505050600d90565b90508281813d8311613a20575b613a0d8183612138565b81010312613a1c5751386138da565b8780fd5b503d613a03565b82513d8a823e3d90fd5b833303613a9957613a428733615064565b6012811015613a855780613a785750838852600883526002828920019088528252613a7260ff828920541661381f565b386138aa565b9850505050505050505090565b634e487b7160e01b89526021600452602489fd5b815162461bcd60e51b815260048101849052601560248201527439b2b73232b91036bab9ba10313290342a37b5b2b760591b6044820152606490fd5b505050505050505050600e90565b60649250519062461bcd60e51b82526004820152601060248201526f189bdc9c9bddc81a5cc81c185d5cd95960821b6044820152fd5b6000805490926001600160a01b0392909183163303613cb7578216918284526020600881526040918286209060ff82541615613c89578351613b5a816120e3565b858152845190613b69826120e3565b670c7d713b49da00008092525111613c5b57828515159182613bf7575b5050613bca576001018054908490558251948552908401528201527f70483e6592cd5182d45ac970e05bc62cdcc90e9d8ef2c2dbe686cf383bcd7fc590606090a190565b5091506060925092836009600080516020615586833981519152955193600d8552840152820152a1600d90565b602492506004541685519283809263fc57d4df60e01b82528a60048301525afa908115613289578791613c2e575b50158238613b86565b90508281813d8311613c54575b613c458183612138565b81010312612f77575138613c25565b503d613c3b565b50509150606092509283600860008051602061558683398151915295519360068552840152820152a1600690565b50509150606092509283600760008051602061558683398151915295519360098552840152820152a1600990565b5050506060600080516020615586833981519152916040519060018252600660208301526040820152a1600190565b91613cf2908284615132565b9182613d02576125b39250615004565b505090565b91908260809103126103bf578151916020810151916060604083015192015190565b91908203918211613d3657565b634e487b7160e01b600052601160045260246000fd5b604080516361bfb47160e11b81523360048201526001600160a01b0383811693909190608082602481885afa80156136085760008093600092613fc3575b50613f7157613f415790613d9f913390615132565b80613f155750826000526008602052600282600020013360005260205281600020805460ff811615613f0b5760ff191690556007602052613de282600020613366565b928351928360005b818110613ee4575b5084613e039293949596501061381f565b336000526007602052806000209283549460001995868101908111613d3657613e629183613e34613e3e9389612378565b9390549289612378565b92909360031b1c169060018060a01b038084549260031b9316831b921b1916179055565b8354938415613ece577fe699a64c18b07ac5b7301aa273f36a2287239eb9501d81950672794afba29a0d95612da0950191613e9d8383612378565b815460039190911b9290921b19909116905555516001600160a01b0390911681523360208201529081906040820190565b634e487b7160e01b600052603160045260246000fd5b8385613ef0838a612460565b511614613eff57600101613dea565b90955093508438613df2565b5050505050600090565b8251600e81526003602082015292830152506000805160206155868339815191529150606090a1600e90565b50505060008051602061558683398151915291508060006060925191600c835260026020840152820152a1600c90565b845162461bcd60e51b815260206004820152602560248201527f657869744d61726b65743a206765744163636f756e74536e617073686f742066604482015264185a5b195960da1b6064820152608490fd5b915050613fe991925060803d608011613ff3575b613fe18183612138565b810190613d07565b5090929138613d8a565b503d613fd7565b6011546001600160a01b039290831680614015575b50505050565b803b156103bf576040516356e3af2960e11b81526001600160a01b03939094168316600485015291166024830152600060448301819052908290818381606481015b03925af180156106775761406e575b80808061400f565b614077906120b9565b38614066565b604051614089816120ff565b6000815260006020820152600060408201526000606082015260006080820152600060a08201526040516140bc816120e3565b6000815260c08201526040516140d1816120e3565b6000815260e08201526040516140e6816120e3565b600081526101008201526040516140fc816120e3565b6000815261012082015260018060a01b03821660005260076020526141246040600020613366565b6004549092906001600160a01b031660005b84518110156143c5576001600160a01b036141518287612460565b516040516361bfb47160e11b81526001600160a01b038616600482015291169190608081602481865afa8015610677576000916000916000916000916143a2575b5060808901526060880152604087015261439157816000526008602052600160406000200154604051906141c5826120e3565b815260c08601526080850151604051906141de826120e3565b815260e086015260405163fc57d4df60e01b81526004810183905291602083602481875afa9283156106775760009361435d575b508260a0870152821561434b5760405160019361422e826120e3565b815261010087015261425861424c60c088015160e089015190615248565b61010088015190615248565b8061012088015261428a60408801519188519061427f670de0b6b3a7640000948592615409565b5104906129ef614fd7565b87526142a96101008801518261427f60608b015160208c015193615409565b91826020890152156142be575b505001614136565b61430b61433f926142ec6101208a015160006040516142dc816120e3565b52516142e6615434565b506154b7565b90816040516142fa816120e3565b5283614304614fd7565b92046153f2565b80602089015261432861010089015160006040516142dc816120e3565b9182604051614336816120e3565b52614304614fd7565b602086015238806142b6565b50505050505050600d90600090600090565b9092506020813d602011614389575b8161437960209383612138565b810103126103bf57519138614212565b3d915061436c565b505050505050600f90600090600090565b925050506143bf915060803d608011613ff357613fe18183612138565b38614192565b5050509050805160208201518082116000146143f55750508060206143ee925191015190613d29565b6000918290565b6143ff9250613d29565b60009160009190565b604051614414816120ff565b6000815260006020820152600060408201526000606082015260006080820152600060a0820152604051614447816120e3565b6000815260c082015260405161445c816120e3565b6000815260e0820152604051614471816120e3565b60008152610100820152604051614487816120e3565b6000815261012082015260018060a01b03821660005260076020526144af6040600020613366565b6004549092906001600160a01b031660005b84518110156143c5576001600160a01b036144dc8287612460565b516040516361bfb47160e11b81526001600160a01b038616600482015291169190608081602481865afa801561067757600091600091600091600091614690575b506080890152606088015260408701526143915781600052600860205260016040600020015460405190614550826120e3565b815260c0860152608085015160405190614569826120e3565b815260e086015260405163fc57d4df60e01b81526004810183905291602083602481875afa9283156106775760009361465c575b508260a0870152821561434b576040516001936145b9826120e3565b81526101008701526145d761424c60c088015160e089015190615248565b806101208801526145fe60408801519188519061427f670de0b6b3a7640000948592615409565b875261461d6101008801518261427f60608b015160208c015193615409565b9182602089015215614632575b5050016144c1565b61430b614650926142ec6101208a015160006040516142dc816120e3565b6020860152388061462a565b9092506020813d602011614688575b8161467860209383612138565b810103126103bf5751913861459d565b3d915061466b565b925050506146ad915060803d608011613ff357613fe18183612138565b3861451d565b604051916146c0836120ff565b6000835260006020840152600060408401526000606084015260006080840152600060a08401526040516146f3816120e3565b6000815260c0840152604051614708816120e3565b6000815260e084015260405161471d816120e3565b60008152610100840152604051614733816120e3565b6000815261012084015260018060a01b038216600052600760205261475b6040600020613366565b6004549094906001600160a01b031660005b86518110156149b1576001600160a01b036147888289612460565b516040516361bfb47160e11b81526001600160a01b038816600482015291169190608081602481865afa80156106775760009160009160009160009161498e575b5060808b015260608a0152604089015261497b57816000526008602052600160406000200154604051906147fc826120e3565b815260c0880152608087015160405190614815826120e3565b815260e088015260405163fc57d4df60e01b81526004810183905291602083602481875afa92831561067757600093614947575b508260a0890152821561493357604051600193614865826120e3565b815261010089015261488f61488360c08a015160e08b015190615248565b6101008a015190615248565b806101208a01526148b660408a0151918a519061427f670de0b6b3a7640000948592615409565b89526148d66101008a01518261427f8c6020606082015191015193615409565b918260208b0152848060a01b038816146148f3575b50500161476d565b614911614927926142ec6101208c015160006040516142dc816120e3565b908160208b015261427f876101008c0151615409565b602088015238806148eb565b505050505050505050600d90600090600090565b9092506020813d602011614973575b8161496360209383612138565b810103126103bf57519138614849565b3d9150614956565b5050505050505050600f90600090600090565b925050506149ab915060803d608011613ff357613fe18183612138565b386147c9565b50505050509050805160208201518082116000146143f55750508060206143ee925191015190613d29565b91604051916149ea836120ff565b6000835260006020840152600060408401526000606084015260006080840152600060a0840152604051614a1d816120e3565b6000815260c0840152604051614a32816120e3565b6000815260e0840152604051614a47816120e3565b60008152610100840152604051614a5d816120e3565b6000815261012084015260018060a01b0384166000526007602052614a856040600020613366565b6004549094906001600160a01b031660005b86518110156149b1576001600160a01b03614ab28289612460565b516040516361bfb47160e11b81526001600160a01b038616600482015291169190608081602481865afa801561067757600091600091600091600091614c95575b5060808b015260608a0152604089015261497b5781600052600860205260016040600020015460405190614b26826120e3565b815260c0880152608087015160405190614b3f826120e3565b815260e088015260405163fc57d4df60e01b815260048101839052602081602481875afa90811561067757600091614c63575b508060a0890152801561493357600192879160405190614b91826120e3565b81526101008a015288614bbc614bb060c083015160e084015190615248565b61010083015190615248565b9182610120830152614be460408301519383519061427f670de0b6b3a7640000968792615409565b8252614c036101008301518461427f6060860151602087015193615409565b90816020840152868060a01b038a1614614c22575b5050505001614a97565b8261427f614c5595610120614c38950151615409565b8060208b01526143286101008b015160006040516142dc816120e3565b602088015285388881614c18565b90506020813d602011614c8d575b81614c7e60209383612138565b810103126103bf575138614b72565b3d9150614c71565b92505050614cb2915060803d608011613ff357613fe18183612138565b38614af3565b929160405192614cc7846120ff565b6000845260006020850152600060408501526000606085015260006080850152600060a0850152604051614cfa816120e3565b6000815260c0850152604051614d0f816120e3565b6000815260e0850152604051614d24816120e3565b60008152610100850152604051614d3a816120e3565b6000815261012085015260018060a01b0385166000526007602052614d626040600020613366565b6004549095906001600160a01b031660005b8751811015614fab576001600160a01b03614d8f828a612460565b516040516361bfb47160e11b81526001600160a01b038616600482015291169190608081602481865afa801561067757600091600091600091600091614f88575b5060808c015260608b015260408a0152614f745781600052600860205260016040600020015460405190614e03826120e3565b815260c0890152608088015160405190614e1c826120e3565b815260e089015260405163fc57d4df60e01b815260048101839052602081602481875afa90811561067757600091614f42575b508060a08a01528015614f2d57600192879160405190614e6e826120e3565b81526101008b015289614e8d614bb060c083015160e084015190615248565b9182610120830152614eb560408301519383519061427f670de0b6b3a7640000968792615409565b8252614ed46101008301518461427f6060860151602087015193615409565b90816020840152868060a01b038c1614614ef3575b5050505001614d74565b8261427f614f1f95610120614f09950151615409565b908160208c015261427f886101008d0151615409565b602089015285388981614ee9565b50505050505050505050600d90600090600090565b90506020813d602011614f6c575b81614f5d60209383612138565b810103126103bf575138614e4f565b3d9150614f50565b505050505050505050600f90600090600090565b92505050614fa5915060803d608011613ff357613fe18183612138565b38614dd0565b5050505050509050805160208201518082116000146143f55750508060206143ee925191015190613d29565b60405190614fe48261211c565b60118252706164646974696f6e206f766572666c6f7760781b6020830152565b6011546001600160a01b03929083168061501e5750505050565b803b156103bf57604051637076c88b60e11b81526001600160a01b0393909416831660048501529116602483015260006044830181905290829081838160648101614057565b6001600160a01b0380821660009081526008602052604081208054919493929160ff1615615128576002918416855201602052604083208054600160ff82161515146151215760ff19166001179055600760205260408320805490600160401b8210156131b75782613191836151029360017f3ab23ab0d51cccc0c3085aec51f99228625aa1a922b3a8ca89a26b0f2027a1a5989796018155612378565b604080516001600160a01b03928316815292909116602083015290a190565b5050505090565b5050505050600990565b6001600160a01b039081166000818152601560205260408120549094929060ff166151f0578316808552601660205260ff6040862054166151e65781855260086020526040852060ff815416156151db5760029186520160205260ff60408520541615613006576151a2926149dc565b91905060128110156151c757806151c157506151bb5790565b50600490565b91505090565b634e487b7160e01b83526021600452602483fd5b505050505050600990565b5050505050600e90565b60405162461bcd60e51b815260206004820152601060248201526f1c995919595b481a5cc81c185d5cd95960821b6044820152606490fd5b8115615232570490565b634e487b7160e01b600052601260045260246000fd5b670de0b6b3a764000091615276916000604051615264816120e3565b52519051615270615434565b916154e4565b0460405190615284826120e3565b815290565b60405163a9059cbb60e01b602082019081526001600160a01b039384166024830152604480830195909552938152929167ffffffffffffffff9160808501838111868210176120cd576040521692600080938192519082875af1903d1561537d573d9081116153695760405161532093929161530f601f8201601f191660200183612138565b8152809260203d92013e5b83615522565b805190811515918261534e575b50506153365750565b60249060405190635274afe760e01b82526004820152fd5b61536192506020809183010191016130ab565b15388061532d565b634e487b7160e01b83526041600452602483fd5b50615320915060609061531a565b156153935750565b6040519062461bcd60e51b82528160208060048301528251908160248401526000935b8285106153d9575050604492506000838284010152601f80199101168101030190fd5b84810182015186860160440152938101938593506153b6565b90810191828211613d36576129699183101561538b565b9061542791600060405161541c816120e3565b525190615270615434565b60405190615284826120e3565b604051906154418261211c565b601782527f6d756c7469706c69636174696f6e206f766572666c6f770000000000000000006020830152565b8015918280156154af575b6154a757670de0b6b3a76400008083029383850482141715613d36576154a16129699385615228565b1461538b565b505050600090565b506000615478565b158080156154dc575b6154d6576001811715613d365761523257600090565b50600090565b5060016154c0565b909181159283801561551a575b615511578083029383850482141715613d36576154a16129699385615228565b50505050600090565b5080156154f1565b90615549575080511561553757805190602001fd5b604051630a12f52160e11b8152600490fd5b8151158061557c575b61555a575090565b604051639996b31560e01b81526001600160a01b039091166004820152602490fd5b50803b1561555256fe45b96fe442630264581b197e84bbada861235052c5a1aadfff9ea4e40a969aa071aec636243f9709bb0007ae15e9afb8150ab01716d75fd7573be5cc096e03b0a2646970667358221220e3e3a84eb4796b0e616322071f4284b0f3ea54d67a557335f568ee77f4053d9164736f6c63430008170033","linkReferences":{}},"methodIdentifiers":{"_become(address)":"1d504dc6","_rescueFunds(address,uint256)":"dbc7779b","_setBlackList(address,bool)":"fd0dad5d","_setBorrowCapGuardian(address)":"391957d7","_setBorrowPaused(address,bool)":"18c882a5","_setCloseFactor(uint256)":"317b0b77","_setCollateralFactor(address,uint256)":"e4028eee","_setLiquidationIncentive(uint256)":"4fd42e17","_setMarketBorrowCaps(address[],uint256[])":"607ef6c1","_setMarketSupplyCaps(address[],uint256[])":"51a485e4","_setMintPaused(address,bool)":"3bcf7ec1","_setPauseGuardian(address)":"5f5af1aa","_setPriceOracle(address)":"55ee1fe1","_setProtocalPaused()":"aa71aebd","_setRedeemPaused(address,bool)":"7160a870","_setRewardDistributor(address)":"5c254d11","_setSeizePaused(bool)":"2d70db78","_setSupplyCapGuardian(address)":"38b8f4c3","_setTransferPaused(bool)":"8ebf6364","_supportMarket(address)":"a76b3fda","accountAssets(address,uint256)":"dce15449","admin()":"f851a440","allMarkets(uint256)":"52d84d1e","blackList(address)":"4838d165","borrowAllowed(address,address,uint256)":"da3d454c","borrowCapGuardian()":"21af4569","borrowCaps(address)":"4a584432","borrowGuardianPaused(address)":"6d154ea5","checkMembership(address,address)":"929fe9a1","claimReward()":"b88a802f","claimReward(address)":"d279c191","claimReward(address,address[])":"3685ffe7","claimReward(address[],address[],bool,bool)":"114b9d19","closeFactorMantissa()":"e8755446","comptrollerImplementation()":"bb82aa5e","enterAllMarkets(address)":"7a805adc","enterMarkets(address[])":"c2998238","exitMarket(address)":"ede4edd0","getAccountLiquidity(address)":"5ec88c79","getAllMarkets()":"b0772d0b","getAssetsIn(address)":"abfceffc","getHypotheticalAccountLiquidity(address,address,uint256,uint256)":"4e79238f","isComptroller()":"007e3dd2","isDeprecated(address)":"94543c15","isInLiquidateWhiteList(address)":"8c4cdce3","liquidatable()":"a91a53b3","liquidateBorrowAllowed(address,address,address,address,uint256)":"5fc7e71e","liquidateCalculateSeizeTokens(address,address,uint256)":"c488847b","liquidationIncentiveMantissa()":"4ada90af","liquidatorWhiteList(address)":"6c7c9bd7","markets(address)":"8e8f294b","mintAllowed(address,address,uint256)":"4ef4c3e1","mintGuardianPaused(address)":"731f0c2b","oracle()":"7dc0d1d0","pauseGuardian()":"24a3d622","pendingAdmin()":"26782247","pendingComptrollerImplementation()":"dcfbc0c7","redeemAllowed(address,address,uint256)":"eabe7d91","redeemGuardianPaused(address)":"d320c548","redeemVerify(address,address,uint256,uint256)":"51dff989","repayBorrowAllowed(address,address,address,uint256)":"24008a62","rewardDistributor()":"acc2166a","seizeAllowed(address,address,address,address,uint256)":"d02f7351","seizeGuardianPaused()":"ac0b0bb7","supplyCapGuardian()":"a979f0c5","supplyCaps(address)":"02c3bcbb","transferAllowed(address,address,address,uint256)":"bdcdc258","transferGuardianPaused()":"87f76303","triggerLiquidation(bool)":"59a34bf7","updateLiquidateWhiteList(address,bool)":"ea321e34"},"id":67}