{"abi":[{"type":"function","name":"convertToUint","inputs":[{"name":"price","type":"int64","internalType":"int64"},{"name":"expo","type":"int32","internalType":"int32"},{"name":"targetDecimals","type":"uint8","internalType":"uint8"}],"outputs":[{"name":"","type":"uint256","internalType":"uint256"}],"stateMutability":"pure"}],"bytecode":{"object":"0x6080806040523461001a576101df9081610020823930815050f35b600080fdfe6080604052600436101561001257600080fd5b6000803560e01c63b55522b21461002857600080fd5b6060366003190112610072576004358060070b810361007957602435908160030b8203610075576044359260ff8416840361007257602061006a8585856100bb565b604051908152f35b80fd5b8280fd5b5080fd5b9060ff8091169116039060ff821161009157565b634e487b7160e01b600052601160045260246000fd5b63ffffffff16604d811161009157600a0a90565b600091828260070b12801561019d575b801561018f575b6100755760030b8203808060030b0361017b5760ff16908160ff85161015600014610140576101116101179267ffffffffffffffff60ff93169561007d565b166100a7565b9182810292818404149015171561012c575090565b634e487b7160e01b81526011600452602490fd5b919261011160ff916101519361007d565b918215610167575067ffffffffffffffff160490565b634e487b7160e01b81526012600452602490fd5b634e487b7160e01b83526011600452602483fd5b5060fe198160030b126100d2565b50828160030b136100cb56fea264697066735822122074bf5444456b33d6f744339ea0c83d718b1ef1451204247853263a805e3b917b64736f6c63430008170033","linkReferences":{}},"methodIdentifiers":{"convertToUint(int64,int32,uint8)":"b55522b2"},"id":124}