{"abi":[{"type":"constructor","inputs":[{"name":"underlying_","type":"address","internalType":"address"},{"name":"comptroller_","type":"address","internalType":"contract ComptrollerInterface"},{"name":"interestRateModel_","type":"address","internalType":"contract InterestRateModel"},{"name":"initialExchangeRateMantissa_","type":"uint256","internalType":"uint256"},{"name":"name_","type":"string","internalType":"string"},{"name":"symbol_","type":"string","internalType":"string"},{"name":"decimals_","type":"uint8","internalType":"uint8"},{"name":"admin_","type":"address","internalType":"address payable"},{"name":"implementation_","type":"address","internalType":"address"},{"name":"becomeImplementationData","type":"bytes","internalType":"bytes"}],"stateMutability":"nonpayable"},{"type":"fallback","stateMutability":"payable"},{"type":"receive","stateMutability":"payable"},{"type":"function","name":"_acceptAdmin","inputs":[],"outputs":[{"name":"","type":"uint256","internalType":"uint256"}],"stateMutability":"nonpayable"},{"type":"function","name":"_addReserves","inputs":[{"name":"addAmount","type":"uint256","internalType":"uint256"}],"outputs":[{"name":"","type":"uint256","internalType":"uint256"}],"stateMutability":"nonpayable"},{"type":"function","name":"_reduceReserves","inputs":[{"name":"reduceAmount","type":"uint256","internalType":"uint256"}],"outputs":[{"name":"","type":"uint256","internalType":"uint256"}],"stateMutability":"nonpayable"},{"type":"function","name":"_setComptroller","inputs":[{"name":"newComptroller","type":"address","internalType":"contract ComptrollerInterface"}],"outputs":[{"name":"","type":"uint256","internalType":"uint256"}],"stateMutability":"nonpayable"},{"type":"function","name":"_setImplementation","inputs":[{"name":"implementation_","type":"address","internalType":"address"},{"name":"allowResign","type":"bool","internalType":"bool"},{"name":"becomeImplementationData","type":"bytes","internalType":"bytes"}],"outputs":[],"stateMutability":"nonpayable"},{"type":"function","name":"_setInterestRateModel","inputs":[{"name":"newInterestRateModel","type":"address","internalType":"contract InterestRateModel"}],"outputs":[{"name":"","type":"uint256","internalType":"uint256"}],"stateMutability":"nonpayable"},{"type":"function","name":"_setPendingAdmin","inputs":[{"name":"newPendingAdmin","type":"address","internalType":"address payable"}],"outputs":[{"name":"","type":"uint256","internalType":"uint256"}],"stateMutability":"nonpayable"},{"type":"function","name":"_setProtocolSeizeShare","inputs":[{"name":"newProtocolSeizeShareMantissa","type":"uint256","internalType":"uint256"}],"outputs":[{"name":"","type":"uint256","internalType":"uint256"}],"stateMutability":"nonpayable"},{"type":"function","name":"_setReserveFactor","inputs":[{"name":"newReserveFactorMantissa","type":"uint256","internalType":"uint256"}],"outputs":[{"name":"","type":"uint256","internalType":"uint256"}],"stateMutability":"nonpayable"},{"type":"function","name":"accrualBlockTimestamp","inputs":[],"outputs":[{"name":"","type":"uint256","internalType":"uint256"}],"stateMutability":"view"},{"type":"function","name":"accrueInterest","inputs":[],"outputs":[{"name":"","type":"uint256","internalType":"uint256"}],"stateMutability":"nonpayable"},{"type":"function","name":"admin","inputs":[],"outputs":[{"name":"","type":"address","internalType":"address payable"}],"stateMutability":"view"},{"type":"function","name":"allowance","inputs":[{"name":"owner","type":"address","internalType":"address"},{"name":"spender","type":"address","internalType":"address"}],"outputs":[{"name":"","type":"uint256","internalType":"uint256"}],"stateMutability":"view"},{"type":"function","name":"approve","inputs":[{"name":"spender","type":"address","internalType":"address"},{"name":"amount","type":"uint256","internalType":"uint256"}],"outputs":[{"name":"","type":"bool","internalType":"bool"}],"stateMutability":"nonpayable"},{"type":"function","name":"balanceOf","inputs":[{"name":"owner","type":"address","internalType":"address"}],"outputs":[{"name":"","type":"uint256","internalType":"uint256"}],"stateMutability":"view"},{"type":"function","name":"balanceOfUnderlying","inputs":[{"name":"owner","type":"address","internalType":"address"}],"outputs":[{"name":"","type":"uint256","internalType":"uint256"}],"stateMutability":"nonpayable"},{"type":"function","name":"borrow","inputs":[{"name":"borrowAmount","type":"uint256","internalType":"uint256"}],"outputs":[{"name":"","type":"uint256","internalType":"uint256"}],"stateMutability":"nonpayable"},{"type":"function","name":"borrowBalanceCurrent","inputs":[{"name":"account","type":"address","internalType":"address"}],"outputs":[{"name":"","type":"uint256","internalType":"uint256"}],"stateMutability":"nonpayable"},{"type":"function","name":"borrowBalanceStored","inputs":[{"name":"account","type":"address","internalType":"address"}],"outputs":[{"name":"","type":"uint256","internalType":"uint256"}],"stateMutability":"view"},{"type":"function","name":"borrowIndex","inputs":[],"outputs":[{"name":"","type":"uint256","internalType":"uint256"}],"stateMutability":"view"},{"type":"function","name":"borrowRatePerBlock","inputs":[],"outputs":[{"name":"","type":"uint256","internalType":"uint256"}],"stateMutability":"view"},{"type":"function","name":"comptroller","inputs":[],"outputs":[{"name":"","type":"address","internalType":"contract ComptrollerInterface"}],"stateMutability":"view"},{"type":"function","name":"decimals","inputs":[],"outputs":[{"name":"","type":"uint8","internalType":"uint8"}],"stateMutability":"view"},{"type":"function","name":"delegateToImplementation","inputs":[{"name":"data","type":"bytes","internalType":"bytes"}],"outputs":[{"name":"","type":"bytes","internalType":"bytes"}],"stateMutability":"nonpayable"},{"type":"function","name":"delegateToViewImplementation","inputs":[{"name":"data","type":"bytes","internalType":"bytes"}],"outputs":[{"name":"","type":"bytes","internalType":"bytes"}],"stateMutability":"view"},{"type":"function","name":"exchangeRateCurrent","inputs":[],"outputs":[{"name":"","type":"uint256","internalType":"uint256"}],"stateMutability":"nonpayable"},{"type":"function","name":"exchangeRateStored","inputs":[],"outputs":[{"name":"","type":"uint256","internalType":"uint256"}],"stateMutability":"view"},{"type":"function","name":"getAccountSnapshot","inputs":[{"name":"account","type":"address","internalType":"address"}],"outputs":[{"name":"","type":"uint256","internalType":"uint256"},{"name":"","type":"uint256","internalType":"uint256"},{"name":"","type":"uint256","internalType":"uint256"},{"name":"","type":"uint256","internalType":"uint256"}],"stateMutability":"view"},{"type":"function","name":"getCash","inputs":[],"outputs":[{"name":"","type":"uint256","internalType":"uint256"}],"stateMutability":"view"},{"type":"function","name":"implementation","inputs":[],"outputs":[{"name":"","type":"address","internalType":"address"}],"stateMutability":"view"},{"type":"function","name":"interestRateModel","inputs":[],"outputs":[{"name":"","type":"address","internalType":"contract InterestRateModel"}],"stateMutability":"view"},{"type":"function","name":"isEthDerivative","inputs":[],"outputs":[{"name":"","type":"bool","internalType":"bool"}],"stateMutability":"view"},{"type":"function","name":"isRToken","inputs":[],"outputs":[{"name":"","type":"bool","internalType":"bool"}],"stateMutability":"view"},{"type":"function","name":"liquidateBorrow","inputs":[{"name":"borrower","type":"address","internalType":"address"},{"name":"repayAmount","type":"uint256","internalType":"uint256"},{"name":"hTokenCollateral","type":"address","internalType":"contract HTokenInterface"}],"outputs":[{"name":"","type":"uint256","internalType":"uint256"}],"stateMutability":"nonpayable"},{"type":"function","name":"mint","inputs":[{"name":"mintAmount","type":"uint256","internalType":"uint256"}],"outputs":[{"name":"","type":"uint256","internalType":"uint256"}],"stateMutability":"nonpayable"},{"type":"function","name":"mintWithPermit","inputs":[{"name":"mintAmount","type":"uint256","internalType":"uint256"},{"name":"deadline","type":"uint256","internalType":"uint256"},{"name":"v","type":"uint8","internalType":"uint8"},{"name":"r","type":"bytes32","internalType":"bytes32"},{"name":"s","type":"bytes32","internalType":"bytes32"}],"outputs":[{"name":"","type":"uint256","internalType":"uint256"}],"stateMutability":"nonpayable"},{"type":"function","name":"name","inputs":[],"outputs":[{"name":"","type":"string","internalType":"string"}],"stateMutability":"view"},{"type":"function","name":"pendingAdmin","inputs":[],"outputs":[{"name":"","type":"address","internalType":"address payable"}],"stateMutability":"view"},{"type":"function","name":"protocolSeizeShareMantissa","inputs":[],"outputs":[{"name":"","type":"uint256","internalType":"uint256"}],"stateMutability":"view"},{"type":"function","name":"redeem","inputs":[{"name":"redeemTokens","type":"uint256","internalType":"uint256"}],"outputs":[{"name":"","type":"uint256","internalType":"uint256"}],"stateMutability":"nonpayable"},{"type":"function","name":"redeemUnderlying","inputs":[{"name":"redeemAmount","type":"uint256","internalType":"uint256"}],"outputs":[{"name":"","type":"uint256","internalType":"uint256"}],"stateMutability":"nonpayable"},{"type":"function","name":"repayBorrow","inputs":[{"name":"repayAmount","type":"uint256","internalType":"uint256"}],"outputs":[{"name":"","type":"uint256","internalType":"uint256"}],"stateMutability":"nonpayable"},{"type":"function","name":"repayBorrowBehalf","inputs":[{"name":"borrower","type":"address","internalType":"address"},{"name":"repayAmount","type":"uint256","internalType":"uint256"}],"outputs":[{"name":"","type":"uint256","internalType":"uint256"}],"stateMutability":"nonpayable"},{"type":"function","name":"reserveFactorMantissa","inputs":[],"outputs":[{"name":"","type":"uint256","internalType":"uint256"}],"stateMutability":"view"},{"type":"function","name":"seize","inputs":[{"name":"liquidator","type":"address","internalType":"address"},{"name":"borrower","type":"address","internalType":"address"},{"name":"seizeTokens","type":"uint256","internalType":"uint256"}],"outputs":[{"name":"","type":"uint256","internalType":"uint256"}],"stateMutability":"nonpayable"},{"type":"function","name":"supplyRatePerBlock","inputs":[],"outputs":[{"name":"","type":"uint256","internalType":"uint256"}],"stateMutability":"view"},{"type":"function","name":"sweepToken","inputs":[{"name":"token","type":"address","internalType":"contract EIP20NonStandardInterface"}],"outputs":[],"stateMutability":"nonpayable"},{"type":"function","name":"symbol","inputs":[],"outputs":[{"name":"","type":"string","internalType":"string"}],"stateMutability":"view"},{"type":"function","name":"totalBorrows","inputs":[],"outputs":[{"name":"","type":"uint256","internalType":"uint256"}],"stateMutability":"view"},{"type":"function","name":"totalBorrowsCurrent","inputs":[],"outputs":[{"name":"","type":"uint256","internalType":"uint256"}],"stateMutability":"nonpayable"},{"type":"function","name":"totalReserves","inputs":[],"outputs":[{"name":"","type":"uint256","internalType":"uint256"}],"stateMutability":"view"},{"type":"function","name":"totalSupply","inputs":[],"outputs":[{"name":"","type":"uint256","internalType":"uint256"}],"stateMutability":"view"},{"type":"function","name":"transfer","inputs":[{"name":"dst","type":"address","internalType":"address"},{"name":"amount","type":"uint256","internalType":"uint256"}],"outputs":[{"name":"","type":"bool","internalType":"bool"}],"stateMutability":"nonpayable"},{"type":"function","name":"transferFrom","inputs":[{"name":"src","type":"address","internalType":"address"},{"name":"dst","type":"address","internalType":"address"},{"name":"amount","type":"uint256","internalType":"uint256"}],"outputs":[{"name":"","type":"bool","internalType":"bool"}],"stateMutability":"nonpayable"},{"type":"function","name":"underlying","inputs":[],"outputs":[{"name":"","type":"address","internalType":"address"}],"stateMutability":"view"},{"type":"event","name":"AccrueInterest","inputs":[{"name":"cashPrior","type":"uint256","indexed":false,"internalType":"uint256"},{"name":"interestAccumulated","type":"uint256","indexed":false,"internalType":"uint256"},{"name":"borrowIndex","type":"uint256","indexed":false,"internalType":"uint256"},{"name":"totalBorrows","type":"uint256","indexed":false,"internalType":"uint256"}],"anonymous":false},{"type":"event","name":"Approval","inputs":[{"name":"owner","type":"address","indexed":true,"internalType":"address"},{"name":"spender","type":"address","indexed":true,"internalType":"address"},{"name":"amount","type":"uint256","indexed":false,"internalType":"uint256"}],"anonymous":false},{"type":"event","name":"Borrow","inputs":[{"name":"borrower","type":"address","indexed":false,"internalType":"address"},{"name":"borrowAmount","type":"uint256","indexed":false,"internalType":"uint256"},{"name":"accountBorrows","type":"uint256","indexed":false,"internalType":"uint256"},{"name":"totalBorrows","type":"uint256","indexed":false,"internalType":"uint256"}],"anonymous":false},{"type":"event","name":"LiquidateBorrow","inputs":[{"name":"liquidator","type":"address","indexed":false,"internalType":"address"},{"name":"borrower","type":"address","indexed":false,"internalType":"address"},{"name":"repayAmount","type":"uint256","indexed":false,"internalType":"uint256"},{"name":"hTokenCollateral","type":"address","indexed":false,"internalType":"address"},{"name":"seizeTokens","type":"uint256","indexed":false,"internalType":"uint256"}],"anonymous":false},{"type":"event","name":"Mint","inputs":[{"name":"minter","type":"address","indexed":false,"internalType":"address"},{"name":"mintAmount","type":"uint256","indexed":false,"internalType":"uint256"},{"name":"mintTokens","type":"uint256","indexed":false,"internalType":"uint256"}],"anonymous":false},{"type":"event","name":"NewAdmin","inputs":[{"name":"oldAdmin","type":"address","indexed":false,"internalType":"address"},{"name":"newAdmin","type":"address","indexed":false,"internalType":"address"}],"anonymous":false},{"type":"event","name":"NewComptroller","inputs":[{"name":"oldComptroller","type":"address","indexed":false,"internalType":"contract ComptrollerInterface"},{"name":"newComptroller","type":"address","indexed":false,"internalType":"contract ComptrollerInterface"}],"anonymous":false},{"type":"event","name":"NewImplementation","inputs":[{"name":"oldImplementation","type":"address","indexed":false,"internalType":"address"},{"name":"newImplementation","type":"address","indexed":false,"internalType":"address"}],"anonymous":false},{"type":"event","name":"NewMarketInterestRateModel","inputs":[{"name":"oldInterestRateModel","type":"address","indexed":false,"internalType":"contract InterestRateModel"},{"name":"newInterestRateModel","type":"address","indexed":false,"internalType":"contract InterestRateModel"}],"anonymous":false},{"type":"event","name":"NewPendingAdmin","inputs":[{"name":"oldPendingAdmin","type":"address","indexed":false,"internalType":"address"},{"name":"newPendingAdmin","type":"address","indexed":false,"internalType":"address"}],"anonymous":false},{"type":"event","name":"NewProtocolSeizeShare","inputs":[{"name":"oldProtocolSeizeShareMantissa","type":"uint256","indexed":false,"internalType":"uint256"},{"name":"newProtocolSeizeShareMantissa","type":"uint256","indexed":false,"internalType":"uint256"}],"anonymous":false},{"type":"event","name":"NewRedemptionReserveFactor","inputs":[{"name":"oldRedemptionReserveFactor","type":"uint256","indexed":false,"internalType":"uint256"},{"name":"newRedemptionReserveFactor","type":"uint256","indexed":false,"internalType":"uint256"}],"anonymous":false},{"type":"event","name":"NewReserveFactor","inputs":[{"name":"oldReserveFactorMantissa","type":"uint256","indexed":false,"internalType":"uint256"},{"name":"newReserveFactorMantissa","type":"uint256","indexed":false,"internalType":"uint256"}],"anonymous":false},{"type":"event","name":"Redeem","inputs":[{"name":"redeemer","type":"address","indexed":false,"internalType":"address"},{"name":"redeemAmount","type":"uint256","indexed":false,"internalType":"uint256"},{"name":"redeemTokens","type":"uint256","indexed":false,"internalType":"uint256"}],"anonymous":false},{"type":"event","name":"RepayBorrow","inputs":[{"name":"payer","type":"address","indexed":false,"internalType":"address"},{"name":"borrower","type":"address","indexed":false,"internalType":"address"},{"name":"repayAmount","type":"uint256","indexed":false,"internalType":"uint256"},{"name":"accountBorrows","type":"uint256","indexed":false,"internalType":"uint256"},{"name":"totalBorrows","type":"uint256","indexed":false,"internalType":"uint256"}],"anonymous":false},{"type":"event","name":"ReservesAdded","inputs":[{"name":"benefactor","type":"address","indexed":false,"internalType":"address"},{"name":"addAmount","type":"uint256","indexed":false,"internalType":"uint256"},{"name":"newTotalReserves","type":"uint256","indexed":false,"internalType":"uint256"}],"anonymous":false},{"type":"event","name":"ReservesReduced","inputs":[{"name":"admin","type":"address","indexed":false,"internalType":"address"},{"name":"reduceAmount","type":"uint256","indexed":false,"internalType":"uint256"},{"name":"newTotalReserves","type":"uint256","indexed":false,"internalType":"uint256"}],"anonymous":false},{"type":"event","name":"Transfer","inputs":[{"name":"from","type":"address","indexed":true,"internalType":"address"},{"name":"to","type":"address","indexed":true,"internalType":"address"},{"name":"amount","type":"uint256","indexed":false,"internalType":"uint256"}],"anonymous":false}],"bytecode":{"object":"0x60808060405234620000e85762001d0080380380916200001f8262000103565b83396101408183019112620000e8576200003862000166565b906200004362000177565b926200004e62000186565b60e051610100516001600160401b0396929190878111620000e8578562000077918601620001f6565b9061012051888111620000e8578662000092918701620001f6565b926200009d62000243565b94620000a862000195565b96620000b3620001a5565b986101a0519b8c11620000e857620000d89b620000d19201620001f6565b986200027c565b6040516117e490816200051c8239f35b600080fd5b634e487b7160e01b600052604160045260246000fd5b6080601f91909101601f19168101906001600160401b038211908210176200012a57604052565b620000ed565b601f909101601f19168101906001600160401b038211908210176200012a57604052565b6001600160a01b03811603620000e857565b60805190620001758262000154565b565b60a05190620001758262000154565b60c05190620001758262000154565b6101605190620001758262000154565b6101805190620001758262000154565b6001600160401b0381116200012a57601f01601f191660200190565b60005b838110620001e55750506000910152565b8181015183820152602001620001d4565b81601f82011215620000e85780516200020f81620001b5565b926200021f604051948562000130565b81845260208284010111620000e857620002409160208085019101620001d1565b90565b610140519060ff82168203620000e857565b906020916200027081518092818552858086019101620001d1565b601f01601f1916010190565b60038054610100600160a81b0319163360081b610100600160a81b0316179055604051631a31d46560e01b60208201526001600160a01b0391821660248201529181166044830152919091166064820152608481019190915260e060a482015262000175969495620003499594909362000342936200033b928492909160ff916200032591620003129061010487019062000255565b8581036023190160c48701529062000255565b911660e483015203601f19810183528262000130565b8262000370565b50620003d9565b60038054610100600160a81b03191660089290921b610100600160a81b0316919091179055565b6000918291602082519201905af43d15620003bd573d906200039282620001b5565b91620003a2604051938462000130565b82523d6000602084013e5b15620003b65790565b60203d9101fd5b606090620003ad565b9060206200024092818152019062000255565b6003546001600160a01b039060081c81163303620004b057620004756200048e91620004847fd604de94d45953f9138079ec1b82d533cb2160c906d1076d1f7ed54befbca97a95620004586200043660135460018060a01b031690565b601380546001600160a01b0319166001600160a01b0390991698909817909755565b604051630adccee560e31b602082015293849160248301620003c6565b03601f19810184528362000130565b6013541662000370565b50601354604080516001600160a01b03938416815292909116602083015290a1565b60405162461bcd60e51b815260206004820152603960248201527f48457263323044656c656761746f723a3a5f736574496d706c656d656e74617460448201527f696f6e3a2043616c6c6572206d7573742062652061646d696e000000000000006064820152608490fdfe6080604052600436101561001d575b3661173f5761001b611733565b005b60003560e01c806306fdde031461038d5780630933c1ed14610388578063095ea7b3146103835780630e7527021461037e578063173b99041461037957806317bfdfbc1461037457806318160ddd1461036f578063182df0f51461036a5780631be195601461036557806323b872dd146103605780632608f8181461035b5780632678224714610356578063313ce567146103515780633630a6b51461034c5780633af9e669146103475780633b1d21a2146103425780633e9410101461033d5780634487152f146103385780634576b5db1461033357806347bd37181461032e578063555bcc40146103295780635c60da1b146103245780635fe3b5671461031f578063601a0bf11461031a5780636752e702146103155780636f307dc31461031057806370a082311461030b57806373acee98146103065780638303084614610301578063852a12e3146102fc578063895dabad146102f75780638f840ddd146102f257806395d89b41146102ed57806395dd9193146102e8578063a0712d68146102e3578063a6afed95146102de578063a9059cbb146102d9578063aa5af0fd146102d4578063ae9d70b0146102cf578063b2a02ff1146102ca578063b71d1a0c146102c5578063bd6d894d146102c0578063c37f68e2146102bb578063c5ebeaec146102b6578063cfa99201146102b1578063d0248fb4146102ac578063db006a75146102a7578063dd62ed3e146102a2578063e9c714f21461029d578063f2b3abbd14610298578063f3fdb15a14610293578063f5e3c4621461028e578063f851a44014610289578063f8f9da28146102845763fca7820b0361000e57611502565b6114cd565b6114a0565b611431565b611408565b6113b4565b61137f565b61131a565b6112dd565b611252565b611234565b6111f7565b61115f565b61112a565b6110d6565b611083565b61104e565b611030565b610fd2565b610f9d565b610f60565b610f0d565b610e47565b610e29565b610e0d565b610dd0565b610d93565b610d5e565b610d0b565b610ce2565b610cc4565b610c87565b610c5e565b610c35565b610b18565b610af0565b610a9c565b610a88565b610a4b565b610a16565b6109c2565b6109a6565b610985565b61095c565b6108fe565b6108ab565b610830565b6107f6565b6107d8565b61077b565b61075d565b61070a565b610686565b61063c565b61049b565b634e487b7160e01b600052604160045260246000fd5b6060810190811067ffffffffffffffff8211176103c457604052565b610392565b6040810190811067ffffffffffffffff8211176103c457604052565b60e0810190811067ffffffffffffffff8211176103c457604052565b60a0810190811067ffffffffffffffff8211176103c457604052565b90601f8019910116810190811067ffffffffffffffff8211176103c457604052565b60005b8381106104525750506000910152565b8181015183820152602001610442565b9060209161047b8151809281855285808601910161043f565b601f01601f1916010190565b906020610498928181520190610462565b90565b346105a9576000806003193601126105a65760405190806001906001548060011c926001821692831561059c575b602092602086108514610588578588526020880194908115610567575060011461050e575b61050a876104fe8189038261041d565b60405191829182610487565b0390f35b600160005294509192917fb10e2d527612073b26eecdfd717e6a320cf44b4afac2b0732d9fcbe2b7fa0cf65b83861061055657505050910190506104fe8261050a38806104ee565b80548587015294820194810161053a565b60ff191685525050505090151560051b0190506104fe8261050a38806104ee565b634e487b7160e01b82526022600452602482fd5b93607f16936104c9565b80fd5b600080fd5b67ffffffffffffffff81116103c457601f01601f191660200190565b81601f820112156105a9578035906105e1826105ae565b926105ef604051948561041d565b828452602083830101116105a957816000926020809301838601378301015290565b60206003198201126105a9576004359067ffffffffffffffff82116105a957610498916004016105ca565b346105a95761050a61066161065036610611565b6013546001600160a01b0316611788565b604051918291602083526020830190610462565b6001600160a01b038116036105a957565b346105a95760403660031901126105a95760206107006106f26106e46106506004356106b181610675565b60405163095ea7b360e01b878201526001600160a01b039091166024808301919091523560448201529182906064820190565b03601f19810183528261041d565b82808251830101910161153f565b6040519015158152f35b346105a95760203660031901126105a957602061075561074760405163073a938160e11b84820152600435602482015260248152610650816103a8565b828082518301019101611554565b604051908152f35b346105a95760003660031901126105a9576020600854604051908152f35b346105a95760203660031901126105a95760206107556107476004356107a081610675565b6040516305eff7ef60e21b858201526001600160a01b039182166024808301919091528152906107cf826103a8565b60135416611788565b346105a95760003660031901126105a9576020600d54604051908152f35b346105a95760003660031901126105a957602061075561074760405163182df0f560e01b848201526004815261082b816103c9565b611593565b346105a95760203660031901126105a95761001b60043561085081610675565b60405162df0cab60e51b60208201526001600160a01b039182166024808301919091528152906107cf826103a8565b60609060031901126105a95760043561089781610675565b906024356108a481610675565b9060443590565b346105a95760206107006106f26106e46106506108c73661087f565b6040516323b872dd60e01b898201526001600160a01b03938416602482015292909116604483015260648201529182906084820190565b346105a95760403660031901126105a95760206107556107476106e461065060043561092981610675565b6040516304c11f0360e31b878201526001600160a01b039091166024808301919091523560448201529182906064820190565b346105a95760003660031901126105a9576004546040516001600160a01b039091168152602090f35b346105a95760003660031901126105a957602060ff60035416604051908152f35b346105a95760003660031901126105a957602060405160018152f35b346105a95760203660031901126105a95760206107556107476004356109e781610675565b604051633af9e66960e01b858201526001600160a01b039182166024808301919091528152906107cf826103a8565b346105a95760003660031901126105a9576020610755610747604051631d8e90d160e11b848201526004815261082b816103c9565b346105a95760203660031901126105a95760206107556107476040516303e9410160e41b84820152600435602482015260248152610650816103a8565b346105a95761050a61066161082b36610611565b346105a95760203660031901126105a9576020610755610747600435610ac181610675565b604051634576b5db60e01b858201526001600160a01b039182166024808301919091528152906107cf826103a8565b346105a95760003660031901126105a9576020600b54604051908152f35b801515036105a957565b346105a95760603660031901126105a957600435610b3581610675565b60243590610b4282610b0e565b60443567ffffffffffffffff81116105a9576106e46106507fd604de94d45953f9138079ec1b82d533cb2160c906d1076d1f7ed54befbca97a94610b8d610bec9436906004016105ca565b600354909190610baa9060081c6001600160a01b0316331461164f565b610c0e575b601380546001600160a01b039687166001600160a01b0319821617909155604051630adccee560e31b602082015295169492839160248301610487565b50601354604080516001600160a01b03938416815292909116602083015290a1005b60405163153ab50560e01b602082015260048152610c2f90610650816103c9565b50610baf565b346105a95760003660031901126105a9576013546040516001600160a01b039091168152602090f35b346105a95760003660031901126105a9576005546040516001600160a01b039091168152602090f35b346105a95760203660031901126105a957602061075561074760405163601a0bf160e01b84820152600435602482015260248152610650816103a8565b346105a95760003660031901126105a9576020601154604051908152f35b346105a95760003660031901126105a9576012546040516001600160a01b039091168152602090f35b346105a95760203660031901126105a9576020610755610747600435610d3081610675565b6040516370a0823160e01b858201526001600160a01b03909116602480830191909152815261082b816103a8565b346105a95760003660031901126105a9576020610755610747604051630e759dd360e31b8482015260048152610650816103c9565b346105a95760203660031901126105a9576020610755610747604051634181842360e11b84820152600435602482015260248152610650816103a8565b346105a95760203660031901126105a957602061075561074760405163852a12e360e01b84820152600435602482015260248152610650816103a8565b346105a95760003660031901126105a957602060405160008152f35b346105a95760003660031901126105a9576020600c54604051908152f35b346105a9576000806003193601126105a6576040519080600254906001918060011c9260018216928315610f03575b6020926020861085146105885785885260208801949081156105675750600114610eaa5761050a876104fe8189038261041d565b600260005294509192917f405787fa12a823e0f2b7631cc41b3ba8828b3321ca811111fa75cd3aa3bb5ace5b838610610ef257505050910190506104fe8261050a38806104ee565b805485870152948201948101610ed6565b93607f1693610e76565b346105a95760203660031901126105a9576020610755610747600435610f3281610675565b6040516395dd919360e01b858201526001600160a01b03909116602480830191909152815261082b816103a8565b346105a95760203660031901126105a957602061075561074760405163140e25ad60e31b84820152600435602482015260248152610650816103a8565b346105a95760003660031901126105a957602061075561074760405163a6afed9560e01b8482015260048152610650816103c9565b346105a95760403660031901126105a95760206107006106f26106e4610650600435610ffd81610675565b60405163a9059cbb60e01b878201526001600160a01b039091166024808301919091523560448201529182906064820190565b346105a95760003660031901126105a9576020600a54604051908152f35b346105a95760003660031901126105a9576020610755610747604051630ae9d70b60e41b848201526004815261082b816103c9565b346105a95760206107556107476106e461065061109f3661087f565b60405163b2a02ff160e01b898201526001600160a01b03938416602482015292909116604483015260648201529182906084820190565b346105a95760203660031901126105a95760206107556107476004356110fb81610675565b604051632dc7468360e21b858201526001600160a01b039182166024808301919091528152906107cf826103a8565b346105a95760003660031901126105a957602061075561074760405163bd6d894d60e01b8482015260048152610650816103c9565b346105a95760203660031901126105a9576111ae60043561117f81610675565b6040516361bfb47160e11b60208201526001600160a01b03909116602480830191909152815261082b816103a8565b6080818051810103126105a957602081015161050a6040830151926080606082015191015190604051948594859094939260609260808301968352602083015260408201520152565b346105a95760203660031901126105a957602061075561074760405163317afabb60e21b84820152600435602482015260248152610650816103a8565b346105a95760003660031901126105a9576020600954604051908152f35b346105a95760a03660031901126105a95760443560ff81168091036105a9576112cd6112be61050a926040519063340923ed60e21b6020830152600435602483015260243560448301526064820152606435608482015260843560a482015260a48152610650816103e5565b60208082518301019101611554565b6040519081529081906020820190565b346105a95760203660031901126105a957602061075561074760405163db006a7560e01b84820152600435602482015260248152610650816103a8565b346105a95760403660031901126105a957602061075561074760043561133f81610675565b61082b6024359161134f83610675565b604051636eb1769f60e11b878201526001600160a01b0391821660248201529216604483015281606481016106e4565b346105a95760003660031901126105a95760206107556107476040516374e38a7960e11b8482015260048152610650816103c9565b346105a95760203660031901126105a95760206107556107476004356113d981610675565b60405163f2b3abbd60e01b858201526001600160a01b039182166024808301919091528152906107cf826103a8565b346105a95760003660031901126105a9576006546040516001600160a01b039091168152602090f35b346105a95760603660031901126105a95761050a6112cd6112be60043561145781610675565b60443561146381610675565b60405191637af1e23160e11b602084015260018060a01b03918280921660248501526024356044850152166064830152606482526107cf82610401565b346105a95760003660031901126105a95760035460405160089190911c6001600160a01b03168152602090f35b346105a95760003660031901126105a9576020610755610747604051631f1f3b4560e31b848201526004815261082b816103c9565b346105a95760203660031901126105a957602061075561074760405163fca7820b60e01b84820152600435602482015260248152610650816103a8565b908160209103126105a9575161049881610b0e565b908160209103126105a9575190565b3d1561158e573d90611574826105ae565b91611582604051938461041d565b82523d6000602084013e565b606090565b604051906020916115b8816106e485820194630933c1ed60e01b865260248301610487565b6000809281925190305afa916115cc611563565b9215611648578251830192818181860195031261164057818101519067ffffffffffffffff821161164457019083603f83011215611640578082015192611612846105ae565b94611620604051968761041d565b848652604085850101116105a6575090604061049893928501910161043f565b8280fd5b8380fd5b90503d9101fd5b1561165657565b60405162461bcd60e51b815260206004820152603960248201527f48457263323044656c656761746f723a3a5f736574496d706c656d656e74617460448201527f696f6e3a2043616c6c6572206d7573742062652061646d696e000000000000006064820152608490fd5b156116c857565b60405162461bcd60e51b815260206004820152603760248201527f48457263323044656c656761746f723a66616c6c6261636b3a2063616e6e6f7460448201527f2073656e642076616c756520746f2066616c6c6261636b0000000000000000006064820152608490fd5b61173d34156116c1565b565b61174934156116c1565b60008060018060a01b0360135416604051368382378036810184815203915af4611771611563565b50604051903d6000833e15611784573d90f35b3d90fd5b6000918291602082519201905af461179e611563565b90156117a75790565b60203d9101fdfea26469706673582212206e5159c4f0d0f6cf449229d3511be6777d98c891ef85766eafdd6756f104453464736f6c63430008170033","linkReferences":{}},"methodIdentifiers":{"_acceptAdmin()":"e9c714f2","_addReserves(uint256)":"3e941010","_reduceReserves(uint256)":"601a0bf1","_setComptroller(address)":"4576b5db","_setImplementation(address,bool,bytes)":"555bcc40","_setInterestRateModel(address)":"f2b3abbd","_setPendingAdmin(address)":"b71d1a0c","_setProtocolSeizeShare(uint256)":"83030846","_setReserveFactor(uint256)":"fca7820b","accrualBlockTimestamp()":"cfa99201","accrueInterest()":"a6afed95","admin()":"f851a440","allowance(address,address)":"dd62ed3e","approve(address,uint256)":"095ea7b3","balanceOf(address)":"70a08231","balanceOfUnderlying(address)":"3af9e669","borrow(uint256)":"c5ebeaec","borrowBalanceCurrent(address)":"17bfdfbc","borrowBalanceStored(address)":"95dd9193","borrowIndex()":"aa5af0fd","borrowRatePerBlock()":"f8f9da28","comptroller()":"5fe3b567","decimals()":"313ce567","delegateToImplementation(bytes)":"0933c1ed","delegateToViewImplementation(bytes)":"4487152f","exchangeRateCurrent()":"bd6d894d","exchangeRateStored()":"182df0f5","getAccountSnapshot(address)":"c37f68e2","getCash()":"3b1d21a2","implementation()":"5c60da1b","interestRateModel()":"f3fdb15a","isEthDerivative()":"895dabad","isRToken()":"3630a6b5","liquidateBorrow(address,uint256,address)":"f5e3c462","mint(uint256)":"a0712d68","mintWithPermit(uint256,uint256,uint8,bytes32,bytes32)":"d0248fb4","name()":"06fdde03","pendingAdmin()":"26782247","protocolSeizeShareMantissa()":"6752e702","redeem(uint256)":"db006a75","redeemUnderlying(uint256)":"852a12e3","repayBorrow(uint256)":"0e752702","repayBorrowBehalf(address,uint256)":"2608f818","reserveFactorMantissa()":"173b9904","seize(address,address,uint256)":"b2a02ff1","supplyRatePerBlock()":"ae9d70b0","sweepToken(address)":"1be19560","symbol()":"95d89b41","totalBorrows()":"47bd3718","totalBorrowsCurrent()":"73acee98","totalReserves()":"8f840ddd","totalSupply()":"18160ddd","transfer(address,uint256)":"a9059cbb","transferFrom(address,address,uint256)":"23b872dd","underlying()":"6f307dc3"},"id":77}