{"abi":[{"type":"constructor","inputs":[{"name":"value","type":"int256","internalType":"int256"},{"name":"oracleDecimals","type":"uint8","internalType":"uint8"}],"stateMutability":"nonpayable"},{"type":"function","name":"_decimals","inputs":[],"outputs":[{"name":"","type":"uint8","internalType":"uint8"}],"stateMutability":"view"},{"type":"function","name":"_value","inputs":[],"outputs":[{"name":"","type":"int256","internalType":"int256"}],"stateMutability":"view"},{"type":"function","name":"decimals","inputs":[],"outputs":[{"name":"","type":"uint8","internalType":"uint8"}],"stateMutability":"view"},{"type":"function","name":"description","inputs":[],"outputs":[{"name":"","type":"string","internalType":"string"}],"stateMutability":"pure"},{"type":"function","name":"getRoundData","inputs":[{"name":"_getRoundId","type":"uint80","internalType":"uint80"}],"outputs":[{"name":"roundId","type":"uint80","internalType":"uint80"},{"name":"answer","type":"int256","internalType":"int256"},{"name":"startedAt","type":"uint256","internalType":"uint256"},{"name":"updatedAt","type":"uint256","internalType":"uint256"},{"name":"answeredInRound","type":"uint80","internalType":"uint80"}],"stateMutability":"view"},{"type":"function","name":"latestRoundData","inputs":[],"outputs":[{"name":"roundId","type":"uint80","internalType":"uint80"},{"name":"answer","type":"int256","internalType":"int256"},{"name":"startedAt","type":"uint256","internalType":"uint256"},{"name":"updatedAt","type":"uint256","internalType":"uint256"},{"name":"answeredInRound","type":"uint80","internalType":"uint80"}],"stateMutability":"view"},{"type":"function","name":"set","inputs":[{"name":"roundId","type":"uint80","internalType":"uint80"},{"name":"answer","type":"int256","internalType":"int256"},{"name":"startedAt","type":"uint256","internalType":"uint256"},{"name":"updatedAt","type":"uint256","internalType":"uint256"},{"name":"answeredInRound","type":"uint80","internalType":"uint80"}],"outputs":[],"stateMutability":"nonpayable"},{"type":"function","name":"version","inputs":[],"outputs":[{"name":"","type":"uint256","internalType":"uint256"}],"stateMutability":"pure"}],"bytecode":{"object":"0x60803461009c57601f6103b738819003918201601f19168301916001600160401b038311848410176100a157808492604094855283398101031261009c576020815191015160ff811680910361009c57600091909155600180546001600160581b03191691909117612a001790556360992f506002819055600355600480546001600160501b031916602a1790556040516102ff90816100b88239f35b600080fd5b634e487b7160e01b600052604160045260246000fdfe60806040818152600436101561001457600080fd5b600091823560e01c908163313ce5671461028f5750806332424aa31461026e5780634201bf27146101ec57806354fd4d50146101d15780637284e4161461012f5780639a6fc8f5146100e3578063b895c74a146100c75763feaf968c1461007a57600080fd5b346100c357816003193601126100c3579060a0916001600160501b03908160015460081c1692549160045416918151938452602084015242908301524260608301526080820152f35b5080fd5b50346100c357816003193601126100c357602091549051908152f35b50346100c35760203660031901126100c3579060a0916101016102ae565b9154906001600160501b03815193169182845260208401526360992f50809184015260608301526080820152f35b50346100c357816003193601126100c357805181810181811067ffffffffffffffff8211176101bd578252600b81526020906a4d6f636b204f7261636c6560a81b6020820152825193849260208452825192836020860152825b8481106101a757505050828201840152601f01601f19168101030190f35b8181018301518882018801528795508201610189565b634e487b7160e01b84526041600452602484fd5b50346100c357816003193601126100c3576020905160018152f35b823461026b5760a036600319011261026b576102066102ae565b608435906001600160501b038216809203610267576affffffffffffffffffff006001549160081b16906affffffffffffffffffff0019161760015560243582556044356002556064356003556001600160501b0319600454161760045580f35b8280fd5b80fd5b50346100c357816003193601126100c35760209060ff600154169051908152f35b8390346100c357816003193601126100c35760209060ff600154168152f35b600435906001600160501b03821682036102c457565b600080fdfea2646970667358221220467e9e75421111bf4152dababdc2df35dae1cc59141cb9b08e8c7f45d7a5efc364736f6c63430008170033","linkReferences":{}},"methodIdentifiers":{"_decimals()":"32424aa3","_value()":"b895c74a","decimals()":"313ce567","description()":"7284e416","getRoundData(uint80)":"9a6fc8f5","latestRoundData()":"feaf968c","set(uint80,int256,uint256,uint256,uint80)":"4201bf27","version()":"54fd4d50"},"id":101}