{"abi":[{"type":"constructor","inputs":[{"name":"_validTimePeriod","type":"uint256","internalType":"uint256"},{"name":"_singleUpdateFeeInWei","type":"uint256","internalType":"uint256"}],"stateMutability":"nonpayable"},{"type":"function","name":"createPriceFeedUpdateData","inputs":[{"name":"id","type":"bytes32","internalType":"bytes32"},{"name":"price","type":"int64","internalType":"int64"},{"name":"conf","type":"uint64","internalType":"uint64"},{"name":"expo","type":"int32","internalType":"int32"},{"name":"emaPrice","type":"int64","internalType":"int64"},{"name":"emaConf","type":"uint64","internalType":"uint64"},{"name":"publishTime","type":"uint64","internalType":"uint64"},{"name":"prevPublishTime","type":"uint64","internalType":"uint64"}],"outputs":[{"name":"priceFeedData","type":"bytes","internalType":"bytes"}],"stateMutability":"pure"},{"type":"function","name":"getEmaPrice","inputs":[{"name":"id","type":"bytes32","internalType":"bytes32"}],"outputs":[{"name":"price","type":"tuple","internalType":"struct PythStructs.Price","components":[{"name":"price","type":"int64","internalType":"int64"},{"name":"conf","type":"uint64","internalType":"uint64"},{"name":"expo","type":"int32","internalType":"int32"},{"name":"publishTime","type":"uint256","internalType":"uint256"}]}],"stateMutability":"view"},{"type":"function","name":"getEmaPriceNoOlderThan","inputs":[{"name":"id","type":"bytes32","internalType":"bytes32"},{"name":"age","type":"uint256","internalType":"uint256"}],"outputs":[{"name":"price","type":"tuple","internalType":"struct PythStructs.Price","components":[{"name":"price","type":"int64","internalType":"int64"},{"name":"conf","type":"uint64","internalType":"uint64"},{"name":"expo","type":"int32","internalType":"int32"},{"name":"publishTime","type":"uint256","internalType":"uint256"}]}],"stateMutability":"view"},{"type":"function","name":"getEmaPriceUnsafe","inputs":[{"name":"id","type":"bytes32","internalType":"bytes32"}],"outputs":[{"name":"price","type":"tuple","internalType":"struct PythStructs.Price","components":[{"name":"price","type":"int64","internalType":"int64"},{"name":"conf","type":"uint64","internalType":"uint64"},{"name":"expo","type":"int32","internalType":"int32"},{"name":"publishTime","type":"uint256","internalType":"uint256"}]}],"stateMutability":"view"},{"type":"function","name":"getPrice","inputs":[{"name":"id","type":"bytes32","internalType":"bytes32"}],"outputs":[{"name":"price","type":"tuple","internalType":"struct PythStructs.Price","components":[{"name":"price","type":"int64","internalType":"int64"},{"name":"conf","type":"uint64","internalType":"uint64"},{"name":"expo","type":"int32","internalType":"int32"},{"name":"publishTime","type":"uint256","internalType":"uint256"}]}],"stateMutability":"view"},{"type":"function","name":"getPriceNoOlderThan","inputs":[{"name":"id","type":"bytes32","internalType":"bytes32"},{"name":"age","type":"uint256","internalType":"uint256"}],"outputs":[{"name":"price","type":"tuple","internalType":"struct PythStructs.Price","components":[{"name":"price","type":"int64","internalType":"int64"},{"name":"conf","type":"uint64","internalType":"uint64"},{"name":"expo","type":"int32","internalType":"int32"},{"name":"publishTime","type":"uint256","internalType":"uint256"}]}],"stateMutability":"view"},{"type":"function","name":"getPriceUnsafe","inputs":[{"name":"id","type":"bytes32","internalType":"bytes32"}],"outputs":[{"name":"price","type":"tuple","internalType":"struct PythStructs.Price","components":[{"name":"price","type":"int64","internalType":"int64"},{"name":"conf","type":"uint64","internalType":"uint64"},{"name":"expo","type":"int32","internalType":"int32"},{"name":"publishTime","type":"uint256","internalType":"uint256"}]}],"stateMutability":"view"},{"type":"function","name":"getUpdateFee","inputs":[{"name":"updateData","type":"bytes[]","internalType":"bytes[]"}],"outputs":[{"name":"feeAmount","type":"uint256","internalType":"uint256"}],"stateMutability":"view"},{"type":"function","name":"getValidTimePeriod","inputs":[],"outputs":[{"name":"","type":"uint256","internalType":"uint256"}],"stateMutability":"view"},{"type":"function","name":"parsePriceFeedUpdates","inputs":[{"name":"updateData","type":"bytes[]","internalType":"bytes[]"},{"name":"priceIds","type":"bytes32[]","internalType":"bytes32[]"},{"name":"minPublishTime","type":"uint64","internalType":"uint64"},{"name":"maxPublishTime","type":"uint64","internalType":"uint64"}],"outputs":[{"name":"feeds","type":"tuple[]","internalType":"struct PythStructs.PriceFeed[]","components":[{"name":"id","type":"bytes32","internalType":"bytes32"},{"name":"price","type":"tuple","internalType":"struct PythStructs.Price","components":[{"name":"price","type":"int64","internalType":"int64"},{"name":"conf","type":"uint64","internalType":"uint64"},{"name":"expo","type":"int32","internalType":"int32"},{"name":"publishTime","type":"uint256","internalType":"uint256"}]},{"name":"emaPrice","type":"tuple","internalType":"struct PythStructs.Price","components":[{"name":"price","type":"int64","internalType":"int64"},{"name":"conf","type":"uint64","internalType":"uint64"},{"name":"expo","type":"int32","internalType":"int32"},{"name":"publishTime","type":"uint256","internalType":"uint256"}]}]}],"stateMutability":"payable"},{"type":"function","name":"parsePriceFeedUpdatesUnique","inputs":[{"name":"updateData","type":"bytes[]","internalType":"bytes[]"},{"name":"priceIds","type":"bytes32[]","internalType":"bytes32[]"},{"name":"minPublishTime","type":"uint64","internalType":"uint64"},{"name":"maxPublishTime","type":"uint64","internalType":"uint64"}],"outputs":[{"name":"feeds","type":"tuple[]","internalType":"struct PythStructs.PriceFeed[]","components":[{"name":"id","type":"bytes32","internalType":"bytes32"},{"name":"price","type":"tuple","internalType":"struct PythStructs.Price","components":[{"name":"price","type":"int64","internalType":"int64"},{"name":"conf","type":"uint64","internalType":"uint64"},{"name":"expo","type":"int32","internalType":"int32"},{"name":"publishTime","type":"uint256","internalType":"uint256"}]},{"name":"emaPrice","type":"tuple","internalType":"struct PythStructs.Price","components":[{"name":"price","type":"int64","internalType":"int64"},{"name":"conf","type":"uint64","internalType":"uint64"},{"name":"expo","type":"int32","internalType":"int32"},{"name":"publishTime","type":"uint256","internalType":"uint256"}]}]}],"stateMutability":"payable"},{"type":"function","name":"priceFeedExists","inputs":[{"name":"id","type":"bytes32","internalType":"bytes32"}],"outputs":[{"name":"","type":"bool","internalType":"bool"}],"stateMutability":"view"},{"type":"function","name":"queryPriceFeed","inputs":[{"name":"id","type":"bytes32","internalType":"bytes32"}],"outputs":[{"name":"priceFeed","type":"tuple","internalType":"struct PythStructs.PriceFeed","components":[{"name":"id","type":"bytes32","internalType":"bytes32"},{"name":"price","type":"tuple","internalType":"struct PythStructs.Price","components":[{"name":"price","type":"int64","internalType":"int64"},{"name":"conf","type":"uint64","internalType":"uint64"},{"name":"expo","type":"int32","internalType":"int32"},{"name":"publishTime","type":"uint256","internalType":"uint256"}]},{"name":"emaPrice","type":"tuple","internalType":"struct PythStructs.Price","components":[{"name":"price","type":"int64","internalType":"int64"},{"name":"conf","type":"uint64","internalType":"uint64"},{"name":"expo","type":"int32","internalType":"int32"},{"name":"publishTime","type":"uint256","internalType":"uint256"}]}]}],"stateMutability":"view"},{"type":"function","name":"updatePriceFeeds","inputs":[{"name":"updateData","type":"bytes[]","internalType":"bytes[]"}],"outputs":[],"stateMutability":"payable"},{"type":"function","name":"updatePriceFeedsIfNecessary","inputs":[{"name":"updateData","type":"bytes[]","internalType":"bytes[]"},{"name":"priceIds","type":"bytes32[]","internalType":"bytes32[]"},{"name":"publishTimes","type":"uint64[]","internalType":"uint64[]"}],"outputs":[],"stateMutability":"payable"},{"type":"event","name":"PriceFeedUpdate","inputs":[{"name":"id","type":"bytes32","indexed":true,"internalType":"bytes32"},{"name":"publishTime","type":"uint64","indexed":false,"internalType":"uint64"},{"name":"price","type":"int64","indexed":false,"internalType":"int64"},{"name":"conf","type":"uint64","indexed":false,"internalType":"uint64"}],"anonymous":false},{"type":"error","name":"InsufficientFee","inputs":[]},{"type":"error","name":"InvalidArgument","inputs":[]},{"type":"error","name":"NoFreshUpdate","inputs":[]},{"type":"error","name":"PriceFeedNotFound","inputs":[]},{"type":"error","name":"PriceFeedNotFoundWithinRange","inputs":[]},{"type":"error","name":"StalePrice","inputs":[]}],"bytecode":{"object":"0x60803461005957601f61128138819003918201601f19168301916001600160401b0383118484101761005e578084926040948552833981010312610059576020815191015160015560025560405161120c90816100758239f35b600080fd5b634e487b7160e01b600052604160045260246000fdfe608060405260048036101561001357600080fd5b600090813560e01c806331d98b3f14610aa85780634716e9c5146107a7578063711a2e281461078d5780639474f45b1461076a57806396834ad314610731578063a4ae35e014610717578063accca7f9146103c8578063b5dcc9111461038f578063b5ec026114610358578063b9256d28146102f2578063caaf43f1146102c3578063d47eed451461027f578063d9b81c3c14610122578063e18910a3146101015763ef9e5e28146100c457600080fd5b60203660031901126100fd5780356001600160401b0381116100f9576100f6916100f091369101610b06565b90610fec565b80f35b8280fd5b5080fd5b823461011f578060031936011261011f576020600254604051908152f35b80fd5b50346100fd576101003660031901126100fd57602435918260070b80930361011f57604435906001600160401b03928383168093036100fd576064358060030b8091036100f957608435908160070b80920361027b5760a435918683168093036102775760c435918783168093036102735760e4359388851680950361026f57906060929184846101b1610e0f565b9c8d9b8a358d5260209e8f80910192835152825101528460408251015251015260408901928351528a835101526040825101525101526101f76040519487860190610bb5565b610140908185015283526101608301938385109085111761025c57508260405283835281519081610180840152805b82811061024757508282016101a00152601f01601f19168101036040019150f35b80869185016101a08382015191015201610226565b634e487b7160e01b825260419052602490fd5b8680fd5b8580fd5b8480fd5b8380fd5b50903461011f57602036600319011261011f578135906001600160401b03821161011f5760206102bb6102b436858701610b06565b9050610ee9565b604051908152f35b50903461011f57602036600319011261011f576101206102e38335610e7c565b6102f06040518092610bb5565bf35b5060603660031901126100fd576001600160401b03813581811161027b5761031d9036908401610b06565b91602435818111610273576103359036908601610b06565b9160443590811161026f576100f69561035091369101610b06565b949093610d4e565b50903461011f57602036600319011261011f57602061038583356000526000602052604060002054151590565b6040519015158152f35b50903461011f57602036600319011261011f5760806103bb836103b0610cad565b506002549035610cd2565b6102f06040518092610ad4565b50906103d336610b4f565b6103df85979297610ee9565b3410610707576103ee83611180565b966103fc6040519889610c8c565b838852601f1961040b85611180565b01835b8181106106f0575050825b848110610432576040518061042e8b82610be0565b0390f35b835b878110610473575b50610447818a611197565b5151610454828789610d28565b350361046257600101610419565b6040516345805f5d60e01b81528a90fd5b61048481898b9c98999a949b610f15565b81016101408282031261026f576101206104a16104a89284610fae565b9201610b3b565b906104b38b89611197565b526020908a8d89896060866104c88685611197565b5101510151956104d88584611197565b515182528181526002878160408520015410610587575b5050506104fd929150611197565b515161050a8c8b8d610d28565b3514610522575b505060010198979096959498610434565b6001600160401b039b9a939998979b8086169183831115938461057a575b508361056e575b50505060000361043c5760019085610565848d999a9b959c9d611197565b51529038610511565b16109050388080610547565b8883161015935038610540565b7fd06a6b7f4918494b3719217d1802786c1f5112a6c1d88fe2cfec00b4584f6aec9460606001600160401b039460406105c08a89611197565b51916105cc8b8a611197565b5151815280875220938151855582868301518051600188015467ffffffffffffffff60401b8a84015160401b16908b604085015160801b63ffffffff60801b169316906001600160601b0360a01b161717176001880155015190850155604060038501910151908151815467ffffffffffffffff60401b8885015160401b169089604086015160801b63ffffffff60801b169316906001600160601b0360a01b1617171790550151910155806106a06106858786611197565b515196826106938288611197565b5101515160070b95611197565b510151015116906106e26040519283926001600160401b038916849193929060409160608401956001600160401b03809316855260070b602085015216910152565b0390a28a8d898938806104ef565b6020906106fb610e0f565b82828d0101520161040e565b60405162976f7560e21b81528890fd5b823461011f5760806103bb61072b36610c2a565b90610d1a565b50903461011f57602036600319011261011f576080602061075b84610754610cad565b5035610e7c565b01516102f06040518092610ad4565b50903461011f57602036600319011261011f576080604061075b84610754610cad565b823461011f5760806103bb6107a136610c2a565b90610cd2565b50906107b236610b4f565b6107be85979297610ee9565b3410610707576107cd83611180565b966107db6040519889610c8c565b838852601f196107ea85611180565b01835b818110610a91575050825b84811061080d576040518061042e8b82610be0565b835b87811061083d575b50610822818a611197565b515161082f828789610d28565b3503610462576001016107f8565b61084e81898b9c98999a949b610f15565b81016101408282031261026f576101206104a161086b9284610fae565b506108768a88611197565b52602089606088888f838661088b8786611197565b51015101519561089b8685611197565b51518352828152600290878260408620015410610943575b505050506108c2929150611197565b51516108cf8b8a8c610d28565b35146108e6575b506001019897909695949861080f565b6001600160401b039a99929897969a908082861611159182610936575b50508061092e575b6000036108175760019085610926848d999a9b959c9d611197565b5152906108d6565b50600161090b565b8616101590503880610903565b7fd06a6b7f4918494b3719217d1802786c1f5112a6c1d88fe2cfec00b4584f6aec95610a829360406109758a89611197565b51966109818b8a611197565b5151815280855220918651835560018301948488015197885191875467ffffffffffffffff60401b80898d015160401b1692866001600160401b039d8e9c8d986040830151976080976001600160601b0360a01b809c63ffffffff60801b9b8b1b8c16941691161717179055015190890155604060038901940151948a8651948654938c89015160401b16946040890151901b16941691161717179055015191015580610a4c610a318988611197565b51519882610a3f828a611197565b5101515160070b97611197565b5101510151166040519384938816849193929060409160608401956001600160401b03809316855260070b602085015216910152565b0390a2893888888f83806108b3565b602090610a9c610e0f565b82828d010152016107ed565b50903461011f57602036600319011261011f5760806103bb83610ac9610cad565b506002549035610d1a565b60608091805160070b84526001600160401b036020820151166020850152604081015160030b60408501520151910152565b9181601f84011215610b36578235916001600160401b038311610b36576020808501948460051b010111610b3657565b600080fd5b35906001600160401b0382168203610b3657565b6080600319820112610b36576001600160401b03600435818111610b365782610b7a91600401610b06565b9390939260243590838211610b3657610b9591600401610b06565b929092916044358281168103610b3657916064359081168103610b365790565b9060a06040610bde9380518452610bd460208201516020860190610ad4565b0151910190610ad4565b565b602090602060408183019282815285518094520193019160005b828110610c08575050505090565b909192938261012082610c1e6001948951610bb5565b01950193929101610bfa565b6040906003190112610b36576004359060243590565b608081019081106001600160401b03821117610c5b57604052565b634e487b7160e01b600052604160045260246000fd5b606081019081106001600160401b03821117610c5b57604052565b90601f801991011681019081106001600160401b03821117610c5b57604052565b60405190610cba82610c40565b60006060838281528260208201528260408201520152565b610cef604091610ce0610cad565b50610ce9610cad565b50610e7c565b015190610d006060830151426111b8565b11610d085790565b604051630cd5fa0760e11b8152600490fd5b610cef602091610ce0610cad565b9190811015610d385760051b0190565b634e487b7160e01b600052603260045260246000fd5b929093858203610dfd5760009160005b818110610d7757604051636f162bfd60e11b8152600490fd5b610d99610d85828488610d28565b356000526000602052604060002054151590565b158015610dbc575b610dad57600101610d5e565b5050505050610bde9250610fec565b5060606020610dd5610dcf84868a610d28565b35610e7c565b01510151610de4828a86610d28565b35906001600160401b0382168092036102735710610da1565b60405163a9cb9e0d60e01b8152600490fd5b60405190610e1c82610c71565b8160008152610e29610cad565b60208201526040610e38610cad565b910152565b90604051610e4a81610c40565b60606001829480548060070b85526001600160401b038160401c16602086015260801c60030b60408501520154910152565b610e84610e0f565b50600081815280602052604081205415610ed75760409181528060205220610ecf600360405192610eb484610c71565b80548452610ec460018201610e3d565b602085015201610e3d565b604082015290565b604051630295d7cd60e31b8152600490fd5b600154818102918183041490151715610eff5790565b634e487b7160e01b600052601160045260246000fd5b9190811015610d385760051b81013590601e1981360301821215610b365701908135916001600160401b038311610b36576020018236038113610b36579190565b9190826080910312610b3657604051610f6e81610c40565b809280358060070b8103610b36578252610f8a60208201610b3b565b602083015260408101358060030b8103610b36576040830152606090810135910152565b919061012083820312610b36576040610e38815192610fcc84610c71565b60a0849680358652610fe18360208301610f56565b602087015201610f56565b9190610ff781610ee9565b341061116f5760005b81811061100d5750509050565b611018818386610f15565b810161012082820312610b365761102e91610fae565b8051600052602060008152600291604092808460002001548383019060608251015111611063575b5050505050600101611000565b82516000528460002083519586825560018201925191825193805496888501519767ffffffffffffffff60401b906001600160401b039a878c98958a8d868b8d9a0151966001600160601b0360a01b809b63ffffffff60801b9960801b8a169516911617918c1b161717905560600151809a870155866003870194015194888651948654938801518a1b16938988015160801b1694169116171717905560600151906004015551948594169160070b92169161114192849193929060409160608401956001600160401b03809316855260070b602085015216910152565b037fd06a6b7f4918494b3719217d1802786c1f5112a6c1d88fe2cfec00b4584f6aec91a23880808080611056565b60405162976f7560e21b8152600490fd5b6001600160401b038111610c5b5760051b60200190565b8051821015610d385760209160051b010190565b91908203918211610eff57565b818111156111cd57906111ca916111ab565b90565b6111ca916111ab56fea2646970667358221220dbb7b4f397e2c1ac24715001b5bf0736bb13765818d3ed125f48ebd5826e64fd64736f6c63430008170033","linkReferences":{}},"methodIdentifiers":{"createPriceFeedUpdateData(bytes32,int64,uint64,int32,int64,uint64,uint64,uint64)":"d9b81c3c","getEmaPrice(bytes32)":"b5dcc911","getEmaPriceNoOlderThan(bytes32,uint256)":"711a2e28","getEmaPriceUnsafe(bytes32)":"9474f45b","getPrice(bytes32)":"31d98b3f","getPriceNoOlderThan(bytes32,uint256)":"a4ae35e0","getPriceUnsafe(bytes32)":"96834ad3","getUpdateFee(bytes[])":"d47eed45","getValidTimePeriod()":"e18910a3","parsePriceFeedUpdates(bytes[],bytes32[],uint64,uint64)":"4716e9c5","parsePriceFeedUpdatesUnique(bytes[],bytes32[],uint64,uint64)":"accca7f9","priceFeedExists(bytes32)":"b5ec0261","queryPriceFeed(bytes32)":"caaf43f1","updatePriceFeeds(bytes[])":"ef9e5e28","updatePriceFeedsIfNecessary(bytes[],bytes32[],uint64[])":"b9256d28"},"id":120}